{
  "_format": "hh-sol-artifact-1",
  "contractName": "MintNft",
  "sourceName": "contracts/MintNft.sol",
  "abi": [
    {
      "inputs": [],
      "stateMutability": "nonpayable",
      "type": "constructor"
    },
    {
      "anonymous": false,
      "inputs": [
        {
          "indexed": true,
          "internalType": "address",
          "name": "owner",
          "type": "address"
        },
        {
          "indexed": true,
          "internalType": "address",
          "name": "approved",
          "type": "address"
        },
        {
          "indexed": true,
          "internalType": "uint256",
          "name": "tokenId",
          "type": "uint256"
        }
      ],
      "name": "Approval",
      "type": "event"
    },
    {
      "anonymous": false,
      "inputs": [
        {
          "indexed": true,
          "internalType": "address",
          "name": "owner",
          "type": "address"
        },
        {
          "indexed": true,
          "internalType": "address",
          "name": "operator",
          "type": "address"
        },
        {
          "indexed": false,
          "internalType": "bool",
          "name": "approved",
          "type": "bool"
        }
      ],
      "name": "ApprovalForAll",
      "type": "event"
    },
    {
      "anonymous": false,
      "inputs": [
        {
          "indexed": true,
          "internalType": "address",
          "name": "from",
          "type": "address"
        },
        {
          "indexed": true,
          "internalType": "address",
          "name": "to",
          "type": "address"
        },
        {
          "indexed": true,
          "internalType": "uint256",
          "name": "tokenId",
          "type": "uint256"
        }
      ],
      "name": "Transfer",
      "type": "event"
    },
    {
      "inputs": [
        {
          "internalType": "address",
          "name": "to",
          "type": "address"
        },
        {
          "internalType": "uint256",
          "name": "tokenId",
          "type": "uint256"
        }
      ],
      "name": "approve",
      "outputs": [],
      "stateMutability": "nonpayable",
      "type": "function"
    },
    {
      "inputs": [
        {
          "internalType": "address",
          "name": "owner",
          "type": "address"
        }
      ],
      "name": "balanceOf",
      "outputs": [
        {
          "internalType": "uint256",
          "name": "",
          "type": "uint256"
        }
      ],
      "stateMutability": "view",
      "type": "function"
    },
    {
      "inputs": [
        {
          "internalType": "uint256",
          "name": "tokenId",
          "type": "uint256"
        }
      ],
      "name": "getApproved",
      "outputs": [
        {
          "internalType": "address",
          "name": "",
          "type": "address"
        }
      ],
      "stateMutability": "view",
      "type": "function"
    },
    {
      "inputs": [
        {
          "internalType": "address",
          "name": "owner",
          "type": "address"
        },
        {
          "internalType": "address",
          "name": "operator",
          "type": "address"
        }
      ],
      "name": "isApprovedForAll",
      "outputs": [
        {
          "internalType": "bool",
          "name": "",
          "type": "bool"
        }
      ],
      "stateMutability": "view",
      "type": "function"
    },
    {
      "inputs": [
        {
          "internalType": "string",
          "name": "_title",
          "type": "string"
        }
      ],
      "name": "mintNFT",
      "outputs": [
        {
          "internalType": "string",
          "name": "",
          "type": "string"
        },
        {
          "internalType": "uint256",
          "name": "",
          "type": "uint256"
        }
      ],
      "stateMutability": "nonpayable",
      "type": "function"
    },
    {
      "inputs": [],
      "name": "name",
      "outputs": [
        {
          "internalType": "string",
          "name": "",
          "type": "string"
        }
      ],
      "stateMutability": "view",
      "type": "function"
    },
    {
      "inputs": [
        {
          "internalType": "uint256",
          "name": "tokenId",
          "type": "uint256"
        }
      ],
      "name": "ownerOf",
      "outputs": [
        {
          "internalType": "address",
          "name": "",
          "type": "address"
        }
      ],
      "stateMutability": "view",
      "type": "function"
    },
    {
      "inputs": [
        {
          "internalType": "address",
          "name": "from",
          "type": "address"
        },
        {
          "internalType": "address",
          "name": "to",
          "type": "address"
        },
        {
          "internalType": "uint256",
          "name": "tokenId",
          "type": "uint256"
        }
      ],
      "name": "safeTransferFrom",
      "outputs": [],
      "stateMutability": "nonpayable",
      "type": "function"
    },
    {
      "inputs": [
        {
          "internalType": "address",
          "name": "from",
          "type": "address"
        },
        {
          "internalType": "address",
          "name": "to",
          "type": "address"
        },
        {
          "internalType": "uint256",
          "name": "tokenId",
          "type": "uint256"
        },
        {
          "internalType": "bytes",
          "name": "data",
          "type": "bytes"
        }
      ],
      "name": "safeTransferFrom",
      "outputs": [],
      "stateMutability": "nonpayable",
      "type": "function"
    },
    {
      "inputs": [
        {
          "internalType": "address",
          "name": "operator",
          "type": "address"
        },
        {
          "internalType": "bool",
          "name": "approved",
          "type": "bool"
        }
      ],
      "name": "setApprovalForAll",
      "outputs": [],
      "stateMutability": "nonpayable",
      "type": "function"
    },
    {
      "inputs": [
        {
          "internalType": "bytes4",
          "name": "interfaceId",
          "type": "bytes4"
        }
      ],
      "name": "supportsInterface",
      "outputs": [
        {
          "internalType": "bool",
          "name": "",
          "type": "bool"
        }
      ],
      "stateMutability": "view",
      "type": "function"
    },
    {
      "inputs": [],
      "name": "symbol",
      "outputs": [
        {
          "internalType": "string",
          "name": "",
          "type": "string"
        }
      ],
      "stateMutability": "view",
      "type": "function"
    },
    {
      "inputs": [
        {
          "internalType": "uint256",
          "name": "tokenId",
          "type": "uint256"
        }
      ],
      "name": "tokenURI",
      "outputs": [
        {
          "internalType": "string",
          "name": "",
          "type": "string"
        }
      ],
      "stateMutability": "view",
      "type": "function"
    },
    {
      "inputs": [
        {
          "internalType": "address",
          "name": "from",
          "type": "address"
        },
        {
          "internalType": "address",
          "name": "to",
          "type": "address"
        },
        {
          "internalType": "uint256",
          "name": "tokenId",
          "type": "uint256"
        }
      ],
      "name": "transferFrom",
      "outputs": [],
      "stateMutability": "nonpayable",
      "type": "function"
    }
  ],
  "bytecode": "0x608060405260405180610180016040528061014c81526020016200362a61014c91396008908051906020019062000038929190620001e8565b503480156200004657600080fd5b506040518060400160405280601081526020017f5265636f7665727953746f72794e4654000000000000000000000000000000008152506040518060400160405280600381526020017f52534e00000000000000000000000000000000000000000000000000000000008152508160009080519060200190620000cb929190620001e8565b508060019080519060200190620000e4929190620001e8565b5050506200011660405180606001604052806023815260200162003607602391396200011c60201b62000c611760201c565b620003c5565b620001bc816040516024016200013391906200033c565b6040516020818303038152906040527f41304fac000000000000000000000000000000000000000000000000000000007bffffffffffffffffffffffffffffffffffffffffffffffffffffffff19166020820180517bffffffffffffffffffffffffffffffffffffffffffffffffffffffff8381831617835250505050620001bf60201b60201c565b50565b60008151905060006a636f6e736f6c652e6c6f679050602083016000808483855afa5050505050565b828054620001f6906200038f565b90600052602060002090601f0160209004810192826200021a576000855562000266565b82601f106200023557805160ff191683800117855562000266565b8280016001018555821562000266579182015b828111156200026557825182559160200191906001019062000248565b5b50905062000275919062000279565b5090565b5b80821115620002945760008160009055506001016200027a565b5090565b600081519050919050565b600082825260208201905092915050565b60005b83811015620002d4578082015181840152602081019050620002b7565b83811115620002e4576000848401525b50505050565b6000601f19601f8301169050919050565b6000620003088262000298565b620003148185620002a3565b935062000326818560208601620002b4565b6200033181620002ea565b840191505092915050565b60006020820190508181036000830152620003588184620002fb565b905092915050565b7f4e487b7100000000000000000000000000000000000000000000000000000000600052602260045260246000fd5b60006002820490506001821680620003a857607f821691505b60208210811415620003bf57620003be62000360565b5b50919050565b61323280620003d56000396000f3fe608060405234801561001057600080fd5b50600436106100ea5760003560e01c806370a082311161008c578063b88d4fde11610066578063b88d4fde1461025b578063c87b56dd14610277578063e985e9c5146102a7578063fb37e883146102d7576100ea565b806370a08231146101f157806395d89b4114610221578063a22cb4651461023f576100ea565b8063095ea7b3116100c8578063095ea7b31461016d57806323b872dd1461018957806342842e0e146101a55780636352211e146101c1576100ea565b806301ffc9a7146100ef57806306fdde031461011f578063081812fc1461013d575b600080fd5b61010960048036038101906101049190611d9f565b610308565b6040516101169190611de7565b60405180910390f35b6101276103ea565b6040516101349190611e9b565b60405180910390f35b61015760048036038101906101529190611ef3565b61047c565b6040516101649190611f61565b60405180910390f35b61018760048036038101906101829190611fa8565b6104c2565b005b6101a3600480360381019061019e9190611fe8565b6105da565b005b6101bf60048036038101906101ba9190611fe8565b61063a565b005b6101db60048036038101906101d69190611ef3565b61065a565b6040516101e89190611f61565b60405180910390f35b61020b6004803603810190610206919061203b565b61070c565b6040516102189190612077565b60405180910390f35b6102296107c4565b6040516102369190611e9b565b60405180910390f35b610259600480360381019061025491906120be565b610856565b005b61027560048036038101906102709190612233565b61086c565b005b610291600480360381019061028c9190611ef3565b6108ce565b60405161029e9190611e9b565b60405180910390f35b6102c160048036038101906102bc91906122b6565b6109e1565b6040516102ce9190611de7565b60405180910390f35b6102f160048036038101906102ec9190612397565b610a75565b6040516102ff9291906123e0565b60405180910390f35b60007f80ac58cd000000000000000000000000000000000000000000000000000000007bffffffffffffffffffffffffffffffffffffffffffffffffffffffff1916827bffffffffffffffffffffffffffffffffffffffffffffffffffffffff191614806103d357507f5b5e139f000000000000000000000000000000000000000000000000000000007bffffffffffffffffffffffffffffffffffffffffffffffffffffffff1916827bffffffffffffffffffffffffffffffffffffffffffffffffffffffff1916145b806103e357506103e282610cfa565b5b9050919050565b6060600080546103f99061243f565b80601f01602080910402602001604051908101604052809291908181526020018280546104259061243f565b80156104725780601f1061044757610100808354040283529160200191610472565b820191906000526020600020905b81548152906001019060200180831161045557829003601f168201915b5050505050905090565b600061048782610d64565b6004600083815260200190815260200160002060009054906101000a900473ffffffffffffffffffffffffffffffffffffffff169050919050565b60006104cd8261065a565b90508073ffffffffffffffffffffffffffffffffffffffff168373ffffffffffffffffffffffffffffffffffffffff16141561053e576040517f08c379a0000000000000000000000000000000000000000000000000000000008152600401610535906124e3565b60405180910390fd5b8073ffffffffffffffffffffffffffffffffffffffff1661055d610daf565b73ffffffffffffffffffffffffffffffffffffffff16148061058c575061058b81610586610daf565b6109e1565b5b6105cb576040517f08c379a00000000000000000000000000000000000000000000000000000000081526004016105c290612575565b60405180910390fd5b6105d58383610db7565b505050565b6105eb6105e5610daf565b82610e70565b61062a576040517f08c379a000000000000000000000000000000000000000000000000000000000815260040161062190612607565b60405180910390fd5b610635838383610f05565b505050565b6106558383836040518060200160405280600081525061086c565b505050565b6000806002600084815260200190815260200160002060009054906101000a900473ffffffffffffffffffffffffffffffffffffffff169050600073ffffffffffffffffffffffffffffffffffffffff168173ffffffffffffffffffffffffffffffffffffffff161415610703576040517f08c379a00000000000000000000000000000000000000000000000000000000081526004016106fa90612673565b60405180910390fd5b80915050919050565b60008073ffffffffffffffffffffffffffffffffffffffff168273ffffffffffffffffffffffffffffffffffffffff16141561077d576040517f08c379a000000000000000000000000000000000000000000000000000000000815260040161077490612705565b60405180910390fd5b600360008373ffffffffffffffffffffffffffffffffffffffff1673ffffffffffffffffffffffffffffffffffffffff168152602001908152602001600020549050919050565b6060600180546107d39061243f565b80601f01602080910402602001604051908101604052809291908181526020018280546107ff9061243f565b801561084c5780601f106108215761010080835404028352916020019161084c565b820191906000526020600020905b81548152906001019060200180831161082f57829003601f168201915b5050505050905090565b610868610861610daf565b838361116c565b5050565b61087d610877610daf565b83610e70565b6108bc576040517f08c379a00000000000000000000000000000000000000000000000000000000081526004016108b390612607565b60405180910390fd5b6108c8848484846112d9565b50505050565b60606108d982610d64565b60006006600084815260200190815260200160002080546108f99061243f565b80601f01602080910402602001604051908101604052809291908181526020018280546109259061243f565b80156109725780601f1061094757610100808354040283529160200191610972565b820191906000526020600020905b81548152906001019060200180831161095557829003601f168201915b505050505090506000610983611335565b90506000815114156109995781925050506109dc565b6000825111156109ce5780826040516020016109b6929190612761565b604051602081830303815290604052925050506109dc565b6109d78461134c565b925050505b919050565b6000600560008473ffffffffffffffffffffffffffffffffffffffff1673ffffffffffffffffffffffffffffffffffffffff16815260200190815260200160002060008373ffffffffffffffffffffffffffffffffffffffff1673ffffffffffffffffffffffffffffffffffffffff16815260200190815260200160002060009054906101000a900460ff16905092915050565b6060600080610a8460076113b4565b90506000600885604051602001610a9c929190612865565b6040516020818303038152906040529050610aeb6040518060400160405280601581526020017f0a2d2d2d2d2d205356472064617461202d2d2d2d2d0000000000000000000000815250610c61565b610af481610c61565b610b326040518060400160405280601581526020017f2d2d2d2d2d2d2d2d2d2d2d2d2d2d2d2d2d2d2d2d0a0000000000000000000000815250610c61565b6000610b6686610b41846113c2565b604051602001610b52929190612a10565b6040516020818303038152906040526113c2565b9050600081604051602001610b7b9190612aac565b6040516020818303038152906040529050610bca6040518060400160405280601581526020017f0a2d2d2d2d2d20546f6b656e20555249202d2d2d2d0000000000000000000000815250610c61565b610bd381610c61565b610c116040518060400160405280601581526020017f2d2d2d2d2d2d2d2d2d2d2d2d2d2d2d2d2d2d2d2d0a0000000000000000000000815250610c61565b610c1b338561155a565b610c258482611578565b610c486040518060600160405280602581526020016131986025913985336115ec565b610c52600761168b565b80849550955050505050915091565b610cf781604051602401610c759190611e9b565b6040516020818303038152906040527f41304fac000000000000000000000000000000000000000000000000000000007bffffffffffffffffffffffffffffffffffffffffffffffffffffffff19166020820180517bffffffffffffffffffffffffffffffffffffffffffffffffffffffff83818316178352505050506116a1565b50565b60007f01ffc9a7000000000000000000000000000000000000000000000000000000007bffffffffffffffffffffffffffffffffffffffffffffffffffffffff1916827bffffffffffffffffffffffffffffffffffffffffffffffffffffffff1916149050919050565b610d6d816116ca565b610dac576040517f08c379a0000000000000000000000000000000000000000000000000000000008152600401610da390612673565b60405180910390fd5b50565b600033905090565b816004600083815260200190815260200160002060006101000a81548173ffffffffffffffffffffffffffffffffffffffff021916908373ffffffffffffffffffffffffffffffffffffffff160217905550808273ffffffffffffffffffffffffffffffffffffffff16610e2a8361065a565b73ffffffffffffffffffffffffffffffffffffffff167f8c5be1e5ebec7d5bd14f71427d1e84f3dd0314c0f7b2291e5b200ac8c7c3b92560405160405180910390a45050565b600080610e7c8361065a565b90508073ffffffffffffffffffffffffffffffffffffffff168473ffffffffffffffffffffffffffffffffffffffff161480610ebe5750610ebd81856109e1565b5b80610efc57508373ffffffffffffffffffffffffffffffffffffffff16610ee48461047c565b73ffffffffffffffffffffffffffffffffffffffff16145b91505092915050565b8273ffffffffffffffffffffffffffffffffffffffff16610f258261065a565b73ffffffffffffffffffffffffffffffffffffffff1614610f7b576040517f08c379a0000000000000000000000000000000000000000000000000000000008152600401610f7290612b40565b60405180910390fd5b600073ffffffffffffffffffffffffffffffffffffffff168273ffffffffffffffffffffffffffffffffffffffff161415610feb576040517f08c379a0000000000000000000000000000000000000000000000000000000008152600401610fe290612bd2565b60405180910390fd5b610ff6838383611736565b611001600082610db7565b6001600360008573ffffffffffffffffffffffffffffffffffffffff1673ffffffffffffffffffffffffffffffffffffffff16815260200190815260200160002060008282546110519190612c21565b925050819055506001600360008473ffffffffffffffffffffffffffffffffffffffff1673ffffffffffffffffffffffffffffffffffffffff16815260200190815260200160002060008282546110a89190612c55565b92505081905550816002600083815260200190815260200160002060006101000a81548173ffffffffffffffffffffffffffffffffffffffff021916908373ffffffffffffffffffffffffffffffffffffffff160217905550808273ffffffffffffffffffffffffffffffffffffffff168473ffffffffffffffffffffffffffffffffffffffff167fddf252ad1be2c89b69c2b068fc378daa952ba7f163c4a11628f55a4df523b3ef60405160405180910390a461116783838361173b565b505050565b8173ffffffffffffffffffffffffffffffffffffffff168373ffffffffffffffffffffffffffffffffffffffff1614156111db576040517f08c379a00000000000000000000000000000000000000000000000000000000081526004016111d290612cf7565b60405180910390fd5b80600560008573ffffffffffffffffffffffffffffffffffffffff1673ffffffffffffffffffffffffffffffffffffffff16815260200190815260200160002060008473ffffffffffffffffffffffffffffffffffffffff1673ffffffffffffffffffffffffffffffffffffffff16815260200190815260200160002060006101000a81548160ff0219169083151502179055508173ffffffffffffffffffffffffffffffffffffffff168373ffffffffffffffffffffffffffffffffffffffff167f17307eab39ab6107e8899845ad3d59bd9653f200f220920489ca2b5937696c31836040516112cc9190611de7565b60405180910390a3505050565b6112e4848484610f05565b6112f084848484611740565b61132f576040517f08c379a000000000000000000000000000000000000000000000000000000000815260040161132690612d89565b60405180910390fd5b50505050565b606060405180602001604052806000815250905090565b606061135782610d64565b6000611361611335565b9050600081511161138157604051806020016040528060008152506113ac565b8061138b846118d7565b60405160200161139c929190612761565b6040516020818303038152906040525b915050919050565b600081600001549050919050565b606060008251905060008114156113eb5760405180602001604052806000815250915050611555565b600060036002836113fc9190612c55565b6114069190612dd8565b60046114129190612e09565b905060006020826114239190612c55565b67ffffffffffffffff81111561143c5761143b612108565b5b6040519080825280601f01601f19166020018201604052801561146e5781602001600182028036833780820191505090505b50905060006040518060600160405280604081526020016131bd604091399050600181016020830160005b868110156115125760038101905062ffffff818a015116603f8160121c168401518060081b905060ff603f83600c1c1686015116810190508060081b905060ff603f8360061c1686015116810190508060081b905060ff603f831686015116810190508060e01b90508084526004840193505050611499565b50600386066001811461152c576002811461153c57611547565b613d3d60f01b6002830352611547565b603d60f81b60018303525b508484525050819450505050505b919050565b611574828260405180602001604052806000815250611a38565b5050565b611581826116ca565b6115c0576040517f08c379a00000000000000000000000000000000000000000000000000000000081526004016115b790612ed5565b60405180910390fd5b806006600084815260200190815260200160002090805190602001906115e7929190611c90565b505050565b61168683838360405160240161160493929190612ef5565b6040516020818303038152906040527f1c7ec448000000000000000000000000000000000000000000000000000000007bffffffffffffffffffffffffffffffffffffffffffffffffffffffff19166020820180517bffffffffffffffffffffffffffffffffffffffffffffffffffffffff83818316178352505050506116a1565b505050565b6001816000016000828254019250508190555050565b60008151905060006a636f6e736f6c652e6c6f679050602083016000808483855afa5050505050565b60008073ffffffffffffffffffffffffffffffffffffffff166002600084815260200190815260200160002060009054906101000a900473ffffffffffffffffffffffffffffffffffffffff1673ffffffffffffffffffffffffffffffffffffffff1614159050919050565b505050565b505050565b60006117618473ffffffffffffffffffffffffffffffffffffffff16611a93565b156118ca578373ffffffffffffffffffffffffffffffffffffffff1663150b7a0261178a610daf565b8786866040518563ffffffff1660e01b81526004016117ac9493929190612f88565b602060405180830381600087803b1580156117c657600080fd5b505af19250505080156117f757506040513d601f19601f820116820180604052508101906117f49190612fe9565b60015b61187a573d8060008114611827576040519150601f19603f3d011682016040523d82523d6000602084013e61182c565b606091505b50600081511415611872576040517f08c379a000000000000000000000000000000000000000000000000000000000815260040161186990612d89565b60405180910390fd5b805181602001fd5b63150b7a0260e01b7bffffffffffffffffffffffffffffffffffffffffffffffffffffffff1916817bffffffffffffffffffffffffffffffffffffffffffffffffffffffff1916149150506118cf565b600190505b949350505050565b6060600082141561191f576040518060400160405280600181526020017f30000000000000000000000000000000000000000000000000000000000000008152509050611a33565b600082905060005b6000821461195157808061193a90613016565b915050600a8261194a9190612dd8565b9150611927565b60008167ffffffffffffffff81111561196d5761196c612108565b5b6040519080825280601f01601f19166020018201604052801561199f5781602001600182028036833780820191505090505b5090505b60008514611a2c576001826119b89190612c21565b9150600a856119c7919061305f565b60306119d39190612c55565b60f81b8183815181106119e9576119e8613090565b5b60200101907effffffffffffffffffffffffffffffffffffffffffffffffffffffffffffff1916908160001a905350600a85611a259190612dd8565b94506119a3565b8093505050505b919050565b611a428383611ab6565b611a4f6000848484611740565b611a8e576040517f08c379a0000000000000000000000000000000000000000000000000000000008152600401611a8590612d89565b60405180910390fd5b505050565b6000808273ffffffffffffffffffffffffffffffffffffffff163b119050919050565b600073ffffffffffffffffffffffffffffffffffffffff168273ffffffffffffffffffffffffffffffffffffffff161415611b26576040517f08c379a0000000000000000000000000000000000000000000000000000000008152600401611b1d9061310b565b60405180910390fd5b611b2f816116ca565b15611b6f576040517f08c379a0000000000000000000000000000000000000000000000000000000008152600401611b6690613177565b60405180910390fd5b611b7b60008383611736565b6001600360008473ffffffffffffffffffffffffffffffffffffffff1673ffffffffffffffffffffffffffffffffffffffff1681526020019081526020016000206000828254611bcb9190612c55565b92505081905550816002600083815260200190815260200160002060006101000a81548173ffffffffffffffffffffffffffffffffffffffff021916908373ffffffffffffffffffffffffffffffffffffffff160217905550808273ffffffffffffffffffffffffffffffffffffffff16600073ffffffffffffffffffffffffffffffffffffffff167fddf252ad1be2c89b69c2b068fc378daa952ba7f163c4a11628f55a4df523b3ef60405160405180910390a4611c8c6000838361173b565b5050565b828054611c9c9061243f565b90600052602060002090601f016020900481019282611cbe5760008555611d05565b82601f10611cd757805160ff1916838001178555611d05565b82800160010185558215611d05579182015b82811115611d04578251825591602001919060010190611ce9565b5b509050611d129190611d16565b5090565b5b80821115611d2f576000816000905550600101611d17565b5090565b6000604051905090565b600080fd5b600080fd5b60007fffffffff0000000000000000000000000000000000000000000000000000000082169050919050565b611d7c81611d47565b8114611d8757600080fd5b50565b600081359050611d9981611d73565b92915050565b600060208284031215611db557611db4611d3d565b5b6000611dc384828501611d8a565b91505092915050565b60008115159050919050565b611de181611dcc565b82525050565b6000602082019050611dfc6000830184611dd8565b92915050565b600081519050919050565b600082825260208201905092915050565b60005b83811015611e3c578082015181840152602081019050611e21565b83811115611e4b576000848401525b50505050565b6000601f19601f8301169050919050565b6000611e6d82611e02565b611e778185611e0d565b9350611e87818560208601611e1e565b611e9081611e51565b840191505092915050565b60006020820190508181036000830152611eb58184611e62565b905092915050565b6000819050919050565b611ed081611ebd565b8114611edb57600080fd5b50565b600081359050611eed81611ec7565b92915050565b600060208284031215611f0957611f08611d3d565b5b6000611f1784828501611ede565b91505092915050565b600073ffffffffffffffffffffffffffffffffffffffff82169050919050565b6000611f4b82611f20565b9050919050565b611f5b81611f40565b82525050565b6000602082019050611f766000830184611f52565b92915050565b611f8581611f40565b8114611f9057600080fd5b50565b600081359050611fa281611f7c565b92915050565b60008060408385031215611fbf57611fbe611d3d565b5b6000611fcd85828601611f93565b9250506020611fde85828601611ede565b9150509250929050565b60008060006060848603121561200157612000611d3d565b5b600061200f86828701611f93565b935050602061202086828701611f93565b925050604061203186828701611ede565b9150509250925092565b60006020828403121561205157612050611d3d565b5b600061205f84828501611f93565b91505092915050565b61207181611ebd565b82525050565b600060208201905061208c6000830184612068565b92915050565b61209b81611dcc565b81146120a657600080fd5b50565b6000813590506120b881612092565b92915050565b600080604083850312156120d5576120d4611d3d565b5b60006120e385828601611f93565b92505060206120f4858286016120a9565b9150509250929050565b600080fd5b600080fd5b7f4e487b7100000000000000000000000000000000000000000000000000000000600052604160045260246000fd5b61214082611e51565b810181811067ffffffffffffffff8211171561215f5761215e612108565b5b80604052505050565b6000612172611d33565b905061217e8282612137565b919050565b600067ffffffffffffffff82111561219e5761219d612108565b5b6121a782611e51565b9050602081019050919050565b82818337600083830152505050565b60006121d66121d184612183565b612168565b9050828152602081018484840111156121f2576121f1612103565b5b6121fd8482856121b4565b509392505050565b600082601f83011261221a576122196120fe565b5b813561222a8482602086016121c3565b91505092915050565b6000806000806080858703121561224d5761224c611d3d565b5b600061225b87828801611f93565b945050602061226c87828801611f93565b935050604061227d87828801611ede565b925050606085013567ffffffffffffffff81111561229e5761229d611d42565b5b6122aa87828801612205565b91505092959194509250565b600080604083850312156122cd576122cc611d3d565b5b60006122db85828601611f93565b92505060206122ec85828601611f93565b9150509250929050565b600067ffffffffffffffff82111561231157612310612108565b5b61231a82611e51565b9050602081019050919050565b600061233a612335846122f6565b612168565b90508281526020810184848401111561235657612355612103565b5b6123618482856121b4565b509392505050565b600082601f83011261237e5761237d6120fe565b5b813561238e848260208601612327565b91505092915050565b6000602082840312156123ad576123ac611d3d565b5b600082013567ffffffffffffffff8111156123cb576123ca611d42565b5b6123d784828501612369565b91505092915050565b600060408201905081810360008301526123fa8185611e62565b90506124096020830184612068565b9392505050565b7f4e487b7100000000000000000000000000000000000000000000000000000000600052602260045260246000fd5b6000600282049050600182168061245757607f821691505b6020821081141561246b5761246a612410565b5b50919050565b7f4552433732313a20617070726f76616c20746f2063757272656e74206f776e6560008201527f7200000000000000000000000000000000000000000000000000000000000000602082015250565b60006124cd602183611e0d565b91506124d882612471565b604082019050919050565b600060208201905081810360008301526124fc816124c0565b9050919050565b7f4552433732313a20617070726f76652063616c6c6572206973206e6f7420746f60008201527f6b656e206f776e6572206e6f7220617070726f76656420666f7220616c6c0000602082015250565b600061255f603e83611e0d565b915061256a82612503565b604082019050919050565b6000602082019050818103600083015261258e81612552565b9050919050565b7f4552433732313a2063616c6c6572206973206e6f7420746f6b656e206f776e6560008201527f72206e6f7220617070726f766564000000000000000000000000000000000000602082015250565b60006125f1602e83611e0d565b91506125fc82612595565b604082019050919050565b60006020820190508181036000830152612620816125e4565b9050919050565b7f4552433732313a20696e76616c696420746f6b656e2049440000000000000000600082015250565b600061265d601883611e0d565b915061266882612627565b602082019050919050565b6000602082019050818103600083015261268c81612650565b9050919050565b7f4552433732313a2061646472657373207a65726f206973206e6f74206120766160008201527f6c6964206f776e65720000000000000000000000000000000000000000000000602082015250565b60006126ef602983611e0d565b91506126fa82612693565b604082019050919050565b6000602082019050818103600083015261271e816126e2565b9050919050565b600081905092915050565b600061273b82611e02565b6127458185612725565b9350612755818560208601611e1e565b80840191505092915050565b600061276d8285612730565b91506127798284612730565b91508190509392505050565b60008190508160005260206000209050919050565b600081546127a78161243f565b6127b18186612725565b945060018216600081146127cc57600181146127dd57612810565b60ff19831686528186019350612810565b6127e685612785565b60005b83811015612808578154818901526001820191506020810190506127e9565b838801955050505b50505092915050565b7f3c2f746578743e3c2f7376673e00000000000000000000000000000000000000600082015250565b600061284f600d83612725565b915061285a82612819565b600d82019050919050565b6000612871828561279a565b915061287d8284612730565b915061288882612842565b91508190509392505050565b7f7b226e616d65223a202200000000000000000000000000000000000000000000600082015250565b60006128ca600a83612725565b91506128d582612894565b600a82019050919050565b7f222c20226465736372697074696f6e223a20224d79205265636f76657279205360008201527f746f7279222c2000000000000000000000000000000000000000000000000000602082015250565b600061293c602783612725565b9150612947826128e0565b602782019050919050565b7f22696d616765223a2022646174613a696d6167652f7376672b786d6c3b62617360008201527f6536342c00000000000000000000000000000000000000000000000000000000602082015250565b60006129ae602483612725565b91506129b982612952565b602482019050919050565b7f227d000000000000000000000000000000000000000000000000000000000000600082015250565b60006129fa600283612725565b9150612a05826129c4565b600282019050919050565b6000612a1b826128bd565b9150612a278285612730565b9150612a328261292f565b9150612a3d826129a1565b9150612a498284612730565b9150612a54826129ed565b91508190509392505050565b7f646174613a6170706c69636174696f6e2f6a736f6e3b6261736536342c000000600082015250565b6000612a96601d83612725565b9150612aa182612a60565b601d82019050919050565b6000612ab782612a89565b9150612ac38284612730565b915081905092915050565b7f4552433732313a207472616e736665722066726f6d20696e636f72726563742060008201527f6f776e6572000000000000000000000000000000000000000000000000000000602082015250565b6000612b2a602583611e0d565b9150612b3582612ace565b604082019050919050565b60006020820190508181036000830152612b5981612b1d565b9050919050565b7f4552433732313a207472616e7366657220746f20746865207a65726f2061646460008201527f7265737300000000000000000000000000000000000000000000000000000000602082015250565b6000612bbc602483611e0d565b9150612bc782612b60565b604082019050919050565b60006020820190508181036000830152612beb81612baf565b9050919050565b7f4e487b7100000000000000000000000000000000000000000000000000000000600052601160045260246000fd5b6000612c2c82611ebd565b9150612c3783611ebd565b925082821015612c4a57612c49612bf2565b5b828203905092915050565b6000612c6082611ebd565b9150612c6b83611ebd565b9250827fffffffffffffffffffffffffffffffffffffffffffffffffffffffffffffffff03821115612ca057612c9f612bf2565b5b828201905092915050565b7f4552433732313a20617070726f766520746f2063616c6c657200000000000000600082015250565b6000612ce1601983611e0d565b9150612cec82612cab565b602082019050919050565b60006020820190508181036000830152612d1081612cd4565b9050919050565b7f4552433732313a207472616e7366657220746f206e6f6e20455243373231526560008201527f63656976657220696d706c656d656e7465720000000000000000000000000000602082015250565b6000612d73603283611e0d565b9150612d7e82612d17565b604082019050919050565b60006020820190508181036000830152612da281612d66565b9050919050565b7f4e487b7100000000000000000000000000000000000000000000000000000000600052601260045260246000fd5b6000612de382611ebd565b9150612dee83611ebd565b925082612dfe57612dfd612da9565b5b828204905092915050565b6000612e1482611ebd565b9150612e1f83611ebd565b9250817fffffffffffffffffffffffffffffffffffffffffffffffffffffffffffffffff0483118215151615612e5857612e57612bf2565b5b828202905092915050565b7f45524337323155524953746f726167653a2055524920736574206f66206e6f6e60008201527f6578697374656e7420746f6b656e000000000000000000000000000000000000602082015250565b6000612ebf602e83611e0d565b9150612eca82612e63565b604082019050919050565b60006020820190508181036000830152612eee81612eb2565b9050919050565b60006060820190508181036000830152612f0f8186611e62565b9050612f1e6020830185612068565b612f2b6040830184611f52565b949350505050565b600081519050919050565b600082825260208201905092915050565b6000612f5a82612f33565b612f648185612f3e565b9350612f74818560208601611e1e565b612f7d81611e51565b840191505092915050565b6000608082019050612f9d6000830187611f52565b612faa6020830186611f52565b612fb76040830185612068565b8181036060830152612fc98184612f4f565b905095945050505050565b600081519050612fe381611d73565b92915050565b600060208284031215612fff57612ffe611d3d565b5b600061300d84828501612fd4565b91505092915050565b600061302182611ebd565b91507fffffffffffffffffffffffffffffffffffffffffffffffffffffffffffffffff82141561305457613053612bf2565b5b600182019050919050565b600061306a82611ebd565b915061307583611ebd565b92508261308557613084612da9565b5b828206905092915050565b7f4e487b7100000000000000000000000000000000000000000000000000000000600052603260045260246000fd5b7f4552433732313a206d696e7420746f20746865207a65726f2061646472657373600082015250565b60006130f5602083611e0d565b9150613100826130bf565b602082019050919050565b60006020820190508181036000830152613124816130e8565b9050919050565b7f4552433732313a20746f6b656e20616c7265616479206d696e74656400000000600082015250565b6000613161601c83611e0d565b915061316c8261312b565b602082019050919050565b6000602082019050818103600083015261319081613154565b905091905056fe416e204e465420772f20494420257320686173206265656e206d696e74656420746f2025734142434445464748494a4b4c4d4e4f505152535455565758595a6162636465666768696a6b6c6d6e6f707172737475767778797a303132333435363738392b2fa26469706673582212206f9855dad848858c2ace3f4cff1a0642d060a4176b5d7594a2a96187fdc5bbf464736f6c6343000809003354686973206973206d79205265636f766572792053746f727920636f6e74726163742e3c73766720786d6c6e733d27687474703a2f2f7777772e77332e6f72672f323030302f73766727207072657365727665417370656374526174696f3d27784d696e594d696e206d656574272076696577426f783d273020302033353020333530273e3c7374796c653e2e62617365207b2066696c6c3a20233032423242343b20666f6e742d66616d696c793a20274869726167696e6f204d61727520476f746869632050726f273b20666f6e742d73697a653a20323470783b207d3c2f7374796c653e3c726563742077696474683d273130302527206865696768743d2731303025272066696c6c3d272345394534444627202f3e3c7465787420783d273530252720793d273530252720636c6173734e616d653d27626173652720646f6d696e616e742d626173656c696e653d276d6964646c652720746578742d616e63686f723d276d6964646c65273e",
  "linkReferences": {},
  "deployedLinkReferences": {}
}