{
  "_format": "hh-sol-artifact-1",
  "contractName": "RecoveryStory",
  "sourceName": "contracts/RecoveryStory.sol",
  "abi": [
    {
      "inputs": [],
      "stateMutability": "nonpayable",
      "type": "constructor"
    },
    {
      "anonymous": false,
      "inputs": [
        {
          "indexed": true,
          "internalType": "address",
          "name": "owner",
          "type": "address"
        },
        {
          "indexed": true,
          "internalType": "address",
          "name": "approved",
          "type": "address"
        },
        {
          "indexed": true,
          "internalType": "uint256",
          "name": "tokenId",
          "type": "uint256"
        }
      ],
      "name": "Approval",
      "type": "event"
    },
    {
      "anonymous": false,
      "inputs": [
        {
          "indexed": true,
          "internalType": "address",
          "name": "owner",
          "type": "address"
        },
        {
          "indexed": true,
          "internalType": "address",
          "name": "operator",
          "type": "address"
        },
        {
          "indexed": false,
          "internalType": "bool",
          "name": "approved",
          "type": "bool"
        }
      ],
      "name": "ApprovalForAll",
      "type": "event"
    },
    {
      "anonymous": false,
      "inputs": [
        {
          "indexed": true,
          "internalType": "address",
          "name": "from",
          "type": "address"
        },
        {
          "indexed": true,
          "internalType": "address",
          "name": "to",
          "type": "address"
        },
        {
          "indexed": true,
          "internalType": "uint256",
          "name": "tokenId",
          "type": "uint256"
        }
      ],
      "name": "Transfer",
      "type": "event"
    },
    {
      "inputs": [
        {
          "internalType": "uint256",
          "name": "_storyId",
          "type": "uint256"
        }
      ],
      "name": "addLike",
      "outputs": [],
      "stateMutability": "nonpayable",
      "type": "function"
    },
    {
      "inputs": [
        {
          "internalType": "address",
          "name": "to",
          "type": "address"
        },
        {
          "internalType": "uint256",
          "name": "tokenId",
          "type": "uint256"
        }
      ],
      "name": "approve",
      "outputs": [],
      "stateMutability": "nonpayable",
      "type": "function"
    },
    {
      "inputs": [
        {
          "internalType": "uint256",
          "name": "",
          "type": "uint256"
        }
      ],
      "name": "avatars",
      "outputs": [
        {
          "internalType": "string",
          "name": "",
          "type": "string"
        }
      ],
      "stateMutability": "view",
      "type": "function"
    },
    {
      "inputs": [
        {
          "internalType": "address",
          "name": "owner",
          "type": "address"
        }
      ],
      "name": "balanceOf",
      "outputs": [
        {
          "internalType": "uint256",
          "name": "",
          "type": "uint256"
        }
      ],
      "stateMutability": "view",
      "type": "function"
    },
    {
      "inputs": [
        {
          "internalType": "uint256",
          "name": "_storyId",
          "type": "uint256"
        },
        {
          "internalType": "uint256",
          "name": "_tokenId",
          "type": "uint256"
        }
      ],
      "name": "burnNft",
      "outputs": [],
      "stateMutability": "nonpayable",
      "type": "function"
    },
    {
      "inputs": [
        {
          "internalType": "uint256",
          "name": "_tokenId",
          "type": "uint256"
        },
        {
          "internalType": "uint256",
          "name": "_storyId",
          "type": "uint256"
        }
      ],
      "name": "buyNft",
      "outputs": [],
      "stateMutability": "payable",
      "type": "function"
    },
    {
      "inputs": [
        {
          "internalType": "string",
          "name": "_storyTitle",
          "type": "string"
        },
        {
          "internalType": "string[]",
          "name": "_tags",
          "type": "string[]"
        },
        {
          "internalType": "string",
          "name": "_storyBody",
          "type": "string"
        }
      ],
      "name": "createStory",
      "outputs": [],
      "stateMutability": "nonpayable",
      "type": "function"
    },
    {
      "inputs": [
        {
          "internalType": "string",
          "name": "_name",
          "type": "string"
        },
        {
          "internalType": "string",
          "name": "_biography",
          "type": "string"
        },
        {
          "internalType": "uint256",
          "name": "_avatar",
          "type": "uint256"
        }
      ],
      "name": "createUserProfile",
      "outputs": [],
      "stateMutability": "nonpayable",
      "type": "function"
    },
    {
      "inputs": [
        {
          "internalType": "string",
          "name": "_storyTitle",
          "type": "string"
        },
        {
          "internalType": "string[]",
          "name": "tags",
          "type": "string[]"
        },
        {
          "internalType": "string",
          "name": "_storyBody",
          "type": "string"
        },
        {
          "internalType": "uint256",
          "name": "_storyId",
          "type": "uint256"
        }
      ],
      "name": "editStory",
      "outputs": [],
      "stateMutability": "nonpayable",
      "type": "function"
    },
    {
      "inputs": [
        {
          "internalType": "string",
          "name": "_name",
          "type": "string"
        },
        {
          "internalType": "string",
          "name": "_biography",
          "type": "string"
        },
        {
          "internalType": "uint256",
          "name": "_avatar",
          "type": "uint256"
        }
      ],
      "name": "editUserProfile",
      "outputs": [],
      "stateMutability": "nonpayable",
      "type": "function"
    },
    {
      "inputs": [],
      "name": "getAllAvatar",
      "outputs": [
        {
          "internalType": "string[]",
          "name": "",
          "type": "string[]"
        }
      ],
      "stateMutability": "view",
      "type": "function"
    },
    {
      "inputs": [],
      "name": "getAllStories",
      "outputs": [
        {
          "components": [
            {
              "internalType": "string",
              "name": "storyTitle",
              "type": "string"
            },
            {
              "internalType": "string[]",
              "name": "tags",
              "type": "string[]"
            },
            {
              "internalType": "string",
              "name": "storyBody",
              "type": "string"
            },
            {
              "internalType": "string",
              "name": "dataURI",
              "type": "string"
            },
            {
              "internalType": "uint256",
              "name": "createDate",
              "type": "uint256"
            },
            {
              "internalType": "uint256",
              "name": "updateDate",
              "type": "uint256"
            },
            {
              "internalType": "uint256",
              "name": "numLike",
              "type": "uint256"
            },
            {
              "internalType": "uint256",
              "name": "storyId",
              "type": "uint256"
            },
            {
              "internalType": "uint256",
              "name": "tokenId",
              "type": "uint256"
            },
            {
              "internalType": "address",
              "name": "authorAddress",
              "type": "address"
            },
            {
              "internalType": "address[]",
              "name": "likeUserAdress",
              "type": "address[]"
            }
          ],
          "internalType": "struct RecoveryStory.Story[]",
          "name": "",
          "type": "tuple[]"
        }
      ],
      "stateMutability": "view",
      "type": "function"
    },
    {
      "inputs": [
        {
          "internalType": "uint256",
          "name": "tokenId",
          "type": "uint256"
        }
      ],
      "name": "getApproved",
      "outputs": [
        {
          "internalType": "address",
          "name": "",
          "type": "address"
        }
      ],
      "stateMutability": "view",
      "type": "function"
    },
    {
      "inputs": [
        {
          "internalType": "address",
          "name": "_authorAddress",
          "type": "address"
        }
      ],
      "name": "getAuthor",
      "outputs": [
        {
          "internalType": "string",
          "name": "",
          "type": "string"
        }
      ],
      "stateMutability": "view",
      "type": "function"
    },
    {
      "inputs": [],
      "name": "getUserProfile",
      "outputs": [
        {
          "internalType": "string",
          "name": "",
          "type": "string"
        },
        {
          "internalType": "string",
          "name": "",
          "type": "string"
        },
        {
          "internalType": "string",
          "name": "",
          "type": "string"
        },
        {
          "internalType": "address",
          "name": "",
          "type": "address"
        }
      ],
      "stateMutability": "view",
      "type": "function"
    },
    {
      "inputs": [
        {
          "internalType": "address",
          "name": "owner",
          "type": "address"
        },
        {
          "internalType": "address",
          "name": "operator",
          "type": "address"
        }
      ],
      "name": "isApprovedForAll",
      "outputs": [
        {
          "internalType": "bool",
          "name": "",
          "type": "bool"
        }
      ],
      "stateMutability": "view",
      "type": "function"
    },
    {
      "inputs": [
        {
          "internalType": "string",
          "name": "_title",
          "type": "string"
        }
      ],
      "name": "mintNFT",
      "outputs": [
        {
          "internalType": "string",
          "name": "",
          "type": "string"
        },
        {
          "internalType": "uint256",
          "name": "",
          "type": "uint256"
        }
      ],
      "stateMutability": "nonpayable",
      "type": "function"
    },
    {
      "inputs": [],
      "name": "name",
      "outputs": [
        {
          "internalType": "string",
          "name": "",
          "type": "string"
        }
      ],
      "stateMutability": "view",
      "type": "function"
    },
    {
      "inputs": [
        {
          "internalType": "uint256",
          "name": "tokenId",
          "type": "uint256"
        }
      ],
      "name": "ownerOf",
      "outputs": [
        {
          "internalType": "address",
          "name": "",
          "type": "address"
        }
      ],
      "stateMutability": "view",
      "type": "function"
    },
    {
      "inputs": [
        {
          "internalType": "address",
          "name": "from",
          "type": "address"
        },
        {
          "internalType": "address",
          "name": "to",
          "type": "address"
        },
        {
          "internalType": "uint256",
          "name": "tokenId",
          "type": "uint256"
        }
      ],
      "name": "safeTransferFrom",
      "outputs": [],
      "stateMutability": "nonpayable",
      "type": "function"
    },
    {
      "inputs": [
        {
          "internalType": "address",
          "name": "from",
          "type": "address"
        },
        {
          "internalType": "address",
          "name": "to",
          "type": "address"
        },
        {
          "internalType": "uint256",
          "name": "tokenId",
          "type": "uint256"
        },
        {
          "internalType": "bytes",
          "name": "data",
          "type": "bytes"
        }
      ],
      "name": "safeTransferFrom",
      "outputs": [],
      "stateMutability": "nonpayable",
      "type": "function"
    },
    {
      "inputs": [
        {
          "internalType": "address",
          "name": "operator",
          "type": "address"
        },
        {
          "internalType": "bool",
          "name": "approved",
          "type": "bool"
        }
      ],
      "name": "setApprovalForAll",
      "outputs": [],
      "stateMutability": "nonpayable",
      "type": "function"
    },
    {
      "inputs": [
        {
          "internalType": "uint256",
          "name": "",
          "type": "uint256"
        }
      ],
      "name": "story",
      "outputs": [
        {
          "internalType": "string",
          "name": "storyTitle",
          "type": "string"
        },
        {
          "internalType": "string",
          "name": "storyBody",
          "type": "string"
        },
        {
          "internalType": "string",
          "name": "dataURI",
          "type": "string"
        },
        {
          "internalType": "uint256",
          "name": "createDate",
          "type": "uint256"
        },
        {
          "internalType": "uint256",
          "name": "updateDate",
          "type": "uint256"
        },
        {
          "internalType": "uint256",
          "name": "numLike",
          "type": "uint256"
        },
        {
          "internalType": "uint256",
          "name": "storyId",
          "type": "uint256"
        },
        {
          "internalType": "uint256",
          "name": "tokenId",
          "type": "uint256"
        },
        {
          "internalType": "address",
          "name": "authorAddress",
          "type": "address"
        }
      ],
      "stateMutability": "view",
      "type": "function"
    },
    {
      "inputs": [],
      "name": "storyIdCounter",
      "outputs": [
        {
          "internalType": "uint256",
          "name": "",
          "type": "uint256"
        }
      ],
      "stateMutability": "view",
      "type": "function"
    },
    {
      "inputs": [
        {
          "internalType": "bytes4",
          "name": "interfaceId",
          "type": "bytes4"
        }
      ],
      "name": "supportsInterface",
      "outputs": [
        {
          "internalType": "bool",
          "name": "",
          "type": "bool"
        }
      ],
      "stateMutability": "view",
      "type": "function"
    },
    {
      "inputs": [],
      "name": "symbol",
      "outputs": [
        {
          "internalType": "string",
          "name": "",
          "type": "string"
        }
      ],
      "stateMutability": "view",
      "type": "function"
    },
    {
      "inputs": [
        {
          "internalType": "uint256",
          "name": "tokenId",
          "type": "uint256"
        }
      ],
      "name": "tokenURI",
      "outputs": [
        {
          "internalType": "string",
          "name": "",
          "type": "string"
        }
      ],
      "stateMutability": "view",
      "type": "function"
    },
    {
      "inputs": [
        {
          "internalType": "address",
          "name": "from",
          "type": "address"
        },
        {
          "internalType": "address",
          "name": "to",
          "type": "address"
        },
        {
          "internalType": "uint256",
          "name": "tokenId",
          "type": "uint256"
        }
      ],
      "name": "transferFrom",
      "outputs": [],
      "stateMutability": "nonpayable",
      "type": "function"
    },
    {
      "inputs": [],
      "name": "userIdCounter",
      "outputs": [
        {
          "internalType": "uint256",
          "name": "",
          "type": "uint256"
        }
      ],
      "stateMutability": "view",
      "type": "function"
    },
    {
      "inputs": [
        {
          "internalType": "uint256",
          "name": "",
          "type": "uint256"
        }
      ],
      "name": "userProfile",
      "outputs": [
        {
          "internalType": "string",
          "name": "name",
          "type": "string"
        },
        {
          "internalType": "string",
          "name": "avatar",
          "type": "string"
        },
        {
          "internalType": "string",
          "name": "biography",
          "type": "string"
        },
        {
          "internalType": "address",
          "name": "walletAddress",
          "type": "address"
        }
      ],
      "stateMutability": "view",
      "type": "function"
    }
  ],
  "bytecode": "0x608060405260405180610180016040528061014c815260200162006a4a61014c91396008908051906020019062000038929190620002b4565b5066038d7ea4c68000600a556001600d556001600e553480156200005b57600080fd5b506040518060400160405280601081526020017f5265636f7665727953746f72794e4654000000000000000000000000000000008152506040518060400160405280600381526020017f52534e00000000000000000000000000000000000000000000000000000000008152508160009080519060200190620000e0929190620002b4565b508060019080519060200190620000f9929190620002b4565b5050506200012b604051806060016040528060238152602001620069cb60239139620001e860201b62002dd41760201c565b6040518060a001604052806040518060600160405280602e815260200162006b96602e913981526020016040518060600160405280602e8152602001620069ee602e913981526020016040518060600160405280602e81526020016200699d602e913981526020016040518060600160405280602e81526020016200696f602e913981526020016040518060600160405280602e815260200162006a1c602e91398152506009906005620001e192919062000345565b5062000566565b6200028881604051602401620001ff9190620004dd565b6040516020818303038152906040527f41304fac000000000000000000000000000000000000000000000000000000007bffffffffffffffffffffffffffffffffffffffffffffffffffffffff19166020820180517bffffffffffffffffffffffffffffffffffffffffffffffffffffffff83818316178352505050506200028b60201b60201c565b50565b60008151905060006a636f6e736f6c652e6c6f679050602083016000808483855afa5050505050565b828054620002c29062000530565b90600052602060002090601f016020900481019282620002e6576000855562000332565b82601f106200030157805160ff191683800117855562000332565b8280016001018555821562000332579182015b828111156200033157825182559160200191906001019062000314565b5b509050620003419190620003ac565b5090565b82805482825590600052602060002090810192821562000399579160200282015b828111156200039857825182908051906020019062000387929190620002b4565b509160200191906001019062000366565b5b509050620003a89190620003cb565b5090565b5b80821115620003c7576000816000905550600101620003ad565b5090565b5b80821115620003ef5760008181620003e59190620003f3565b50600101620003cc565b5090565b508054620004019062000530565b6000825580601f1062000415575062000436565b601f016020900490600052602060002090810190620004359190620003ac565b5b50565b600081519050919050565b600082825260208201905092915050565b60005b838110156200047557808201518184015260208101905062000458565b8381111562000485576000848401525b50505050565b6000601f19601f8301169050919050565b6000620004a98262000439565b620004b5818562000444565b9350620004c781856020860162000455565b620004d2816200048b565b840191505092915050565b60006020820190508181036000830152620004f981846200049c565b905092915050565b7f4e487b7100000000000000000000000000000000000000000000000000000000600052602260045260246000fd5b600060028204905060018216806200054957607f821691505b6020821081141562000560576200055f62000501565b5b50919050565b6163f980620005766000396000f3fe6080604052600436106101cd5760003560e01c80636decda91116100f7578063b88d4fde11610095578063df2894b711610064578063df2894b7146106a6578063e985e9c5146106d1578063f37181f41461070e578063fb37e8831461074e576101cd565b8063b88d4fde146105d2578063beba8bbe146105fb578063c87b56dd14610640578063ce8c35fd1461067d576101cd565b806377c72c3a116100d157806377c72c3a14610518578063834d5fac1461054157806395d89b411461057e578063a22cb465146105a9576101cd565b80636decda91146104845780636f61c744146104ad57806370a08231146104db576101cd565b80632a86f3251161016f57806342842e0e1161013e57806342842e0e146103d957806345af195114610402578063556f80841461042b5780636352211e14610447576101cd565b80632a86f325146103315780632faba6ae1461035a578063378a35cd1461038557806338a3bdc8146103ae576101cd565b8063095ea7b3116101ab578063095ea7b3146102775780630ab30093146102a0578063191bbe2a146102dd57806323b872dd14610308576101cd565b806301ffc9a7146101d257806306fdde031461020f578063081812fc1461023a575b600080fd5b3480156101de57600080fd5b506101f960048036038101906101f4919061425d565b61078c565b60405161020691906142a5565b60405180910390f35b34801561021b57600080fd5b5061022461086e565b6040516102319190614359565b60405180910390f35b34801561024657600080fd5b50610261600480360381019061025c91906143b1565b610900565b60405161026e919061441f565b60405180910390f35b34801561028357600080fd5b5061029e60048036038101906102999190614466565b610946565b005b3480156102ac57600080fd5b506102c760048036038101906102c291906144a6565b610a5e565b6040516102d49190614359565b60405180910390f35b3480156102e957600080fd5b506102f2610be8565b6040516102ff9190614879565b60405180910390f35b34801561031457600080fd5b5061032f600480360381019061032a919061489b565b610fed565b005b34801561033d57600080fd5b5061035860048036038101906103539190614a23565b61104d565b005b34801561036657600080fd5b5061036f611200565b60405161037c9190614abd565b60405180910390f35b34801561039157600080fd5b506103ac60048036038101906103a791906143b1565b611206565b005b3480156103ba57600080fd5b506103c3611557565b6040516103d09190614abd565b60405180910390f35b3480156103e557600080fd5b5061040060048036038101906103fb919061489b565b61155d565b005b34801561040e57600080fd5b5061042960048036038101906104249190614ad8565b61157d565b005b61044560048036038101906104409190614ad8565b611649565b005b34801561045357600080fd5b5061046e600480360381019061046991906143b1565b611877565b60405161047b919061441f565b60405180910390f35b34801561049057600080fd5b506104ab60048036038101906104a69190614bfe565b611929565b005b3480156104b957600080fd5b506104c2611b58565b6040516104d29493929190614ca5565b60405180910390f35b3480156104e757600080fd5b5061050260048036038101906104fd91906144a6565b611e98565b60405161050f9190614abd565b60405180910390f35b34801561052457600080fd5b5061053f600480360381019061053a9190614a23565b611f50565b005b34801561054d57600080fd5b50610568600480360381019061056391906143b1565b6121d7565b6040516105759190614359565b60405180910390f35b34801561058a57600080fd5b50610593612283565b6040516105a09190614359565b60405180910390f35b3480156105b557600080fd5b506105d060048036038101906105cb9190614d2b565b612315565b005b3480156105de57600080fd5b506105f960048036038101906105f49190614e0c565b61232b565b005b34801561060757600080fd5b50610622600480360381019061061d91906143b1565b61238d565b60405161063799989796959493929190614e8f565b60405180910390f35b34801561064c57600080fd5b50610667600480360381019061066291906143b1565b6125a3565b6040516106749190614359565b60405180910390f35b34801561068957600080fd5b506106a4600480360381019061069f9190614f31565b6126b6565b005b3480156106b257600080fd5b506106bb612883565b6040516106c89190615072565b60405180910390f35b3480156106dd57600080fd5b506106f860048036038101906106f39190615094565b61295c565b60405161070591906142a5565b60405180910390f35b34801561071a57600080fd5b50610735600480360381019061073091906143b1565b6129f0565b6040516107459493929190614ca5565b60405180910390f35b34801561075a57600080fd5b50610775600480360381019061077091906150d4565b612be8565b60405161078392919061511d565b60405180910390f35b60007f80ac58cd000000000000000000000000000000000000000000000000000000007bffffffffffffffffffffffffffffffffffffffffffffffffffffffff1916827bffffffffffffffffffffffffffffffffffffffffffffffffffffffff1916148061085757507f5b5e139f000000000000000000000000000000000000000000000000000000007bffffffffffffffffffffffffffffffffffffffffffffffffffffffff1916827bffffffffffffffffffffffffffffffffffffffffffffffffffffffff1916145b80610867575061086682612e6d565b5b9050919050565b60606000805461087d9061517c565b80601f01602080910402602001604051908101604052809291908181526020018280546108a99061517c565b80156108f65780601f106108cb576101008083540402835291602001916108f6565b820191906000526020600020905b8154815290600101906020018083116108d957829003601f168201915b5050505050905090565b600061090b82612ed7565b6004600083815260200190815260200160002060009054906101000a900473ffffffffffffffffffffffffffffffffffffffff169050919050565b600061095182611877565b90508073ffffffffffffffffffffffffffffffffffffffff168373ffffffffffffffffffffffffffffffffffffffff1614156109c2576040517f08c379a00000000000000000000000000000000000000000000000000000000081526004016109b990615220565b60405180910390fd5b8073ffffffffffffffffffffffffffffffffffffffff166109e1612f22565b73ffffffffffffffffffffffffffffffffffffffff161480610a105750610a0f81610a0a612f22565b61295c565b5b610a4f576040517f08c379a0000000000000000000000000000000000000000000000000000000008152600401610a46906152b2565b60405180910390fd5b610a598383612f2a565b505050565b60606000600f60008473ffffffffffffffffffffffffffffffffffffffff1673ffffffffffffffffffffffffffffffffffffffff1681526020019081526020016000205411610ae2576040517f08c379a0000000000000000000000000000000000000000000000000000000008152600401610ad990615344565b60405180910390fd5b60006001600f60008573ffffffffffffffffffffffffffffffffffffffff1673ffffffffffffffffffffffffffffffffffffffff16815260200190815260200160002054610b309190615393565b9050600b8181548110610b4657610b456153c7565b5b90600052602060002090600402016000018054610b629061517c565b80601f0160208091040260200160405190810160405280929190818152602001828054610b8e9061517c565b8015610bdb5780601f10610bb057610100808354040283529160200191610bdb565b820191906000526020600020905b815481529060010190602001808311610bbe57829003601f168201915b5050505050915050919050565b6060600c805480602002602001604051908101604052809291908181526020016000905b82821015610fe457838290600052602060002090600b020160405180610160016040529081600082018054610c409061517c565b80601f0160208091040260200160405190810160405280929190818152602001828054610c6c9061517c565b8015610cb95780601f10610c8e57610100808354040283529160200191610cb9565b820191906000526020600020905b815481529060010190602001808311610c9c57829003601f168201915b5050505050815260200160018201805480602002602001604051908101604052809291908181526020016000905b82821015610d93578382906000526020600020018054610d069061517c565b80601f0160208091040260200160405190810160405280929190818152602001828054610d329061517c565b8015610d7f5780601f10610d5457610100808354040283529160200191610d7f565b820191906000526020600020905b815481529060010190602001808311610d6257829003601f168201915b505050505081526020019060010190610ce7565b505050508152602001600282018054610dab9061517c565b80601f0160208091040260200160405190810160405280929190818152602001828054610dd79061517c565b8015610e245780601f10610df957610100808354040283529160200191610e24565b820191906000526020600020905b815481529060010190602001808311610e0757829003601f168201915b50505050508152602001600382018054610e3d9061517c565b80601f0160208091040260200160405190810160405280929190818152602001828054610e699061517c565b8015610eb65780601f10610e8b57610100808354040283529160200191610eb6565b820191906000526020600020905b815481529060010190602001808311610e9957829003601f168201915b5050505050815260200160048201548152602001600582015481526020016006820154815260200160078201548152602001600882015481526020016009820160009054906101000a900473ffffffffffffffffffffffffffffffffffffffff1673ffffffffffffffffffffffffffffffffffffffff1673ffffffffffffffffffffffffffffffffffffffff168152602001600a8201805480602002602001604051908101604052809291908181526020018280548015610fcc57602002820191906000526020600020905b8160009054906101000a900473ffffffffffffffffffffffffffffffffffffffff1673ffffffffffffffffffffffffffffffffffffffff1681526020019060010190808311610f82575b50505050508152505081526020019060010190610c0c565b50505050905090565b610ffe610ff8612f22565b82612fe3565b61103d576040517f08c379a000000000000000000000000000000000000000000000000000000000815260040161103490615468565b60405180910390fd5b611048838383613078565b505050565b6000600f60003373ffffffffffffffffffffffffffffffffffffffff1673ffffffffffffffffffffffffffffffffffffffff16815260200190815260200160002054116110cf576040517f08c379a00000000000000000000000000000000000000000000000000000000081526004016110c690615344565b60405180910390fd5b60006001600f60003373ffffffffffffffffffffffffffffffffffffffff1673ffffffffffffffffffffffffffffffffffffffff1681526020019081526020016000205461111d9190615393565b905083600b8281548110611134576111336153c7565b5b90600052602060002090600402016000019080519060200190611158929190613f73565b5060096001836111689190615393565b81548110611179576111786153c7565b5b90600052602060002001600b8281548110611197576111966153c7565b5b90600052602060002090600402016001019080546111b49061517c565b6111bf929190613ff9565b5082600b82815481106111d5576111d46153c7565b5b906000526020600020906004020160020190805190602001906111f9929190613f73565b5050505050565b600e5481565b6000600c6001836112179190615393565b81548110611228576112276153c7565b5b90600052602060002090600b0201600701541161127a576040517f08c379a0000000000000000000000000000000000000000000000000000000008152600401611271906154fa565b60405180910390fd5b3373ffffffffffffffffffffffffffffffffffffffff16600c6001836112a09190615393565b815481106112b1576112b06153c7565b5b90600052602060002090600b020160090160009054906101000a900473ffffffffffffffffffffffffffffffffffffffff1673ffffffffffffffffffffffffffffffffffffffff1614611339576040517f08c379a000000000000000000000000000000000000000000000000000000000815260040161133090615566565b60405180910390fd5b6000805b600c60018461134c9190615393565b8154811061135d5761135c6153c7565b5b90600052602060002090600b0201600a0180549050811015611432573373ffffffffffffffffffffffffffffffffffffffff16600c60018561139f9190615393565b815481106113b0576113af6153c7565b5b90600052602060002090600b0201600a0182815481106113d3576113d26153c7565b5b9060005260206000200160009054906101000a900473ffffffffffffffffffffffffffffffffffffffff1673ffffffffffffffffffffffffffffffffffffffff16141561141f57600191505b808061142a90615586565b91505061133d565b50600015158115151461147a576040517f08c379a000000000000000000000000000000000000000000000000000000000815260040161147190615641565b60405180910390fd5b600c6001836114899190615393565b8154811061149a576114996153c7565b5b90600052602060002090600b020160060160008154809291906114bc90615586565b9190505550600c6001836114d09190615393565b815481106114e1576114e06153c7565b5b90600052602060002090600b0201600a01339080600181540180825580915050600190039060005260206000200160009091909190916101000a81548173ffffffffffffffffffffffffffffffffffffffff021916908373ffffffffffffffffffffffffffffffffffffffff1602179055505050565b600d5481565b6115788383836040518060200160405280600081525061232b565b505050565b3373ffffffffffffffffffffffffffffffffffffffff16600c6001846115a39190615393565b815481106115b4576115b36153c7565b5b90600052602060002090600b020160090160009054906101000a900473ffffffffffffffffffffffffffffffffffffffff1673ffffffffffffffffffffffffffffffffffffffff161461163c576040517f08c379a0000000000000000000000000000000000000000000000000000000008152600401611633906156d3565b60405180910390fd5b611645816132df565b5050565b60006010600060018461165c9190615393565b815260200190815260200160002060009054906101000a900473ffffffffffffffffffffffffffffffffffffffff1690506010600060018461169e9190615393565b815260200190815260200160002060009054906101000a900473ffffffffffffffffffffffffffffffffffffffff1673ffffffffffffffffffffffffffffffffffffffff163373ffffffffffffffffffffffffffffffffffffffff16141561173b576040517f08c379a00000000000000000000000000000000000000000000000000000000081526004016117329061573f565b60405180910390fd5b336010600060018561174d9190615393565b815260200190815260200160002060006101000a81548173ffffffffffffffffffffffffffffffffffffffff021916908373ffffffffffffffffffffffffffffffffffffffff1602179055506000600a54600c6001856117ad9190615393565b815481106117be576117bd6153c7565b5b90600052602060002090600b0201600601546117da919061575f565b90508034101561181f576040517f08c379a000000000000000000000000000000000000000000000000000000000815260040161181690615805565b60405180910390fd5b61182a82338661155d565b8173ffffffffffffffffffffffffffffffffffffffff166108fc349081150290604051600060405180830381858888f19350505050158015611870573d6000803e3d6000fd5b5050505050565b6000806002600084815260200190815260200160002060009054906101000a900473ffffffffffffffffffffffffffffffffffffffff169050600073ffffffffffffffffffffffffffffffffffffffff168173ffffffffffffffffffffffffffffffffffffffff161415611920576040517f08c379a000000000000000000000000000000000000000000000000000000000815260040161191790615871565b60405180910390fd5b80915050919050565b606080600061193786612be8565b8092508193505050600060405180610160016040528088815260200187815260200186815260200184815260200142815260200142815260200160008152602001600d5481526020018381526020013373ffffffffffffffffffffffffffffffffffffffff168152602001858152509050600c8190806001815401808255809150506001900390600052602060002090600b020160009091909190915060008201518160000190805190602001906119f0929190613f73565b506020820151816001019080519060200190611a0d929190614086565b506040820151816002019080519060200190611a2a929190613f73565b506060820151816003019080519060200190611a47929190613f73565b506080820151816004015560a0820151816005015560c0820151816006015560e0820151816007015561010082015181600801556101208201518160090160006101000a81548173ffffffffffffffffffffffffffffffffffffffff021916908373ffffffffffffffffffffffffffffffffffffffff16021790555061014082015181600a019080519060200190611ae09291906140e6565b5050503360106000600d54815260200190815260200160002060006101000a81548173ffffffffffffffffffffffffffffffffffffffff021916908373ffffffffffffffffffffffffffffffffffffffff160217905550600d6000815480929190611b4a90615586565b919050555050505050505050565b6060806060600080600f60003373ffffffffffffffffffffffffffffffffffffffff1673ffffffffffffffffffffffffffffffffffffffff1681526020019081526020016000205411611be0576040517f08c379a0000000000000000000000000000000000000000000000000000000008152600401611bd790615344565b60405180910390fd5b60006001600f60003373ffffffffffffffffffffffffffffffffffffffff1673ffffffffffffffffffffffffffffffffffffffff16815260200190815260200160002054611c2e9190615393565b9050600b8181548110611c4457611c436153c7565b5b9060005260206000209060040201600001600b8281548110611c6957611c686153c7565b5b9060005260206000209060040201600101600b8381548110611c8e57611c8d6153c7565b5b9060005260206000209060040201600201600b8481548110611cb357611cb26153c7565b5b906000526020600020906004020160030160009054906101000a900473ffffffffffffffffffffffffffffffffffffffff16838054611cf19061517c565b80601f0160208091040260200160405190810160405280929190818152602001828054611d1d9061517c565b8015611d6a5780601f10611d3f57610100808354040283529160200191611d6a565b820191906000526020600020905b815481529060010190602001808311611d4d57829003601f168201915b50505050509350828054611d7d9061517c565b80601f0160208091040260200160405190810160405280929190818152602001828054611da99061517c565b8015611df65780601f10611dcb57610100808354040283529160200191611df6565b820191906000526020600020905b815481529060010190602001808311611dd957829003601f168201915b50505050509250818054611e099061517c565b80601f0160208091040260200160405190810160405280929190818152602001828054611e359061517c565b8015611e825780601f10611e5757610100808354040283529160200191611e82565b820191906000526020600020905b815481529060010190602001808311611e6557829003601f168201915b5050505050915094509450945094505090919293565b60008073ffffffffffffffffffffffffffffffffffffffff168273ffffffffffffffffffffffffffffffffffffffff161415611f09576040517f08c379a0000000000000000000000000000000000000000000000000000000008152600401611f0090615903565b60405180910390fd5b600360008373ffffffffffffffffffffffffffffffffffffffff1673ffffffffffffffffffffffffffffffffffffffff168152602001908152602001600020549050919050565b6000600f60003373ffffffffffffffffffffffffffffffffffffffff1673ffffffffffffffffffffffffffffffffffffffff1681526020019081526020016000205414611fd2576040517f08c379a0000000000000000000000000000000000000000000000000000000008152600401611fc99061596f565b60405180910390fd5b600060405180608001604052808581526020018481526020016009600185611ffa9190615393565b8154811061200b5761200a6153c7565b5b9060005260206000200180546120209061517c565b80601f016020809104026020016040519081016040528092919081815260200182805461204c9061517c565b80156120995780601f1061206e57610100808354040283529160200191612099565b820191906000526020600020905b81548152906001019060200180831161207c57829003601f168201915b505050505081526020013373ffffffffffffffffffffffffffffffffffffffff168152509050600b8190806001815401808255809150506001900390600052602060002090600402016000909190919091506000820151816000019080519060200190612107929190613f73565b506020820151816001019080519060200190612124929190613f73565b506040820151816002019080519060200190612141929190613f73565b5060608201518160030160006101000a81548173ffffffffffffffffffffffffffffffffffffffff021916908373ffffffffffffffffffffffffffffffffffffffff1602179055505050600e54600f60003373ffffffffffffffffffffffffffffffffffffffff1673ffffffffffffffffffffffffffffffffffffffff1681526020019081526020016000208190555050505050565b600981815481106121e757600080fd5b9060005260206000200160009150905080546122029061517c565b80601f016020809104026020016040519081016040528092919081815260200182805461222e9061517c565b801561227b5780601f106122505761010080835404028352916020019161227b565b820191906000526020600020905b81548152906001019060200180831161225e57829003601f168201915b505050505081565b6060600180546122929061517c565b80601f01602080910402602001604051908101604052809291908181526020018280546122be9061517c565b801561230b5780601f106122e05761010080835404028352916020019161230b565b820191906000526020600020905b8154815290600101906020018083116122ee57829003601f168201915b5050505050905090565b612327612320612f22565b8383613332565b5050565b61233c612336612f22565b83612fe3565b61237b576040517f08c379a000000000000000000000000000000000000000000000000000000000815260040161237290615468565b60405180910390fd5b6123878484848461349f565b50505050565b600c818154811061239d57600080fd5b90600052602060002090600b02016000915090508060000180546123c09061517c565b80601f01602080910402602001604051908101604052809291908181526020018280546123ec9061517c565b80156124395780601f1061240e57610100808354040283529160200191612439565b820191906000526020600020905b81548152906001019060200180831161241c57829003601f168201915b50505050509080600201805461244e9061517c565b80601f016020809104026020016040519081016040528092919081815260200182805461247a9061517c565b80156124c75780601f1061249c576101008083540402835291602001916124c7565b820191906000526020600020905b8154815290600101906020018083116124aa57829003601f168201915b5050505050908060030180546124dc9061517c565b80601f01602080910402602001604051908101604052809291908181526020018280546125089061517c565b80156125555780601f1061252a57610100808354040283529160200191612555565b820191906000526020600020905b81548152906001019060200180831161253857829003601f168201915b5050505050908060040154908060050154908060060154908060070154908060080154908060090160009054906101000a900473ffffffffffffffffffffffffffffffffffffffff16905089565b60606125ae82612ed7565b60006006600084815260200190815260200160002080546125ce9061517c565b80601f01602080910402602001604051908101604052809291908181526020018280546125fa9061517c565b80156126475780601f1061261c57610100808354040283529160200191612647565b820191906000526020600020905b81548152906001019060200180831161262a57829003601f168201915b5050505050905060006126586134fb565b905060008151141561266e5781925050506126b1565b6000825111156126a357808260405160200161268b9291906159cb565b604051602081830303815290604052925050506126b1565b6126ac84613512565b925050505b919050565b3373ffffffffffffffffffffffffffffffffffffffff16600c6001836126dc9190615393565b815481106126ed576126ec6153c7565b5b90600052602060002090600b020160090160009054906101000a900473ffffffffffffffffffffffffffffffffffffffff1673ffffffffffffffffffffffffffffffffffffffff1614612775576040517f08c379a000000000000000000000000000000000000000000000000000000000815260040161276c90615a61565b60405180910390fd5b83600c6001836127859190615393565b81548110612796576127956153c7565b5b90600052602060002090600b020160000190805190602001906127ba929190613f73565b5082600c6001836127cb9190615393565b815481106127dc576127db6153c7565b5b90600052602060002090600b02016001019080519060200190612800929190614086565b5081600c6001836128119190615393565b81548110612822576128216153c7565b5b90600052602060002090600b02016002019080519060200190612846929190613f73565b5042600c6001836128579190615393565b81548110612868576128676153c7565b5b90600052602060002090600b02016005018190555050505050565b60606009805480602002602001604051908101604052809291908181526020016000905b828210156129535783829060005260206000200180546128c69061517c565b80601f01602080910402602001604051908101604052809291908181526020018280546128f29061517c565b801561293f5780601f106129145761010080835404028352916020019161293f565b820191906000526020600020905b81548152906001019060200180831161292257829003601f168201915b5050505050815260200190600101906128a7565b50505050905090565b6000600560008473ffffffffffffffffffffffffffffffffffffffff1673ffffffffffffffffffffffffffffffffffffffff16815260200190815260200160002060008373ffffffffffffffffffffffffffffffffffffffff1673ffffffffffffffffffffffffffffffffffffffff16815260200190815260200160002060009054906101000a900460ff16905092915050565b600b8181548110612a0057600080fd5b9060005260206000209060040201600091509050806000018054612a239061517c565b80601f0160208091040260200160405190810160405280929190818152602001828054612a4f9061517c565b8015612a9c5780601f10612a7157610100808354040283529160200191612a9c565b820191906000526020600020905b815481529060010190602001808311612a7f57829003601f168201915b505050505090806001018054612ab19061517c565b80601f0160208091040260200160405190810160405280929190818152602001828054612add9061517c565b8015612b2a5780601f10612aff57610100808354040283529160200191612b2a565b820191906000526020600020905b815481529060010190602001808311612b0d57829003601f168201915b505050505090806002018054612b3f9061517c565b80601f0160208091040260200160405190810160405280929190818152602001828054612b6b9061517c565b8015612bb85780601f10612b8d57610100808354040283529160200191612bb8565b820191906000526020600020905b815481529060010190602001808311612b9b57829003601f168201915b5050505050908060030160009054906101000a900473ffffffffffffffffffffffffffffffffffffffff16905084565b6060600080612bf7600761357a565b90506000600885604051602001612c0f929190615b61565b6040516020818303038152906040529050612c5e6040518060400160405280601581526020017f0a2d2d2d2d2d205356472064617461202d2d2d2d2d0000000000000000000000815250612dd4565b612c6781612dd4565b612ca56040518060400160405280601581526020017f2d2d2d2d2d2d2d2d2d2d2d2d2d2d2d2d2d2d2d2d0a0000000000000000000000815250612dd4565b6000612cd986612cb484613588565b604051602001612cc5929190615d0c565b604051602081830303815290604052613588565b9050600081604051602001612cee9190615da8565b6040516020818303038152906040529050612d3d6040518060400160405280601581526020017f0a2d2d2d2d2d20546f6b656e20555249202d2d2d2d0000000000000000000000815250612dd4565b612d4681612dd4565b612d846040518060400160405280601581526020017f2d2d2d2d2d2d2d2d2d2d2d2d2d2d2d2d2d2d2d2d0a0000000000000000000000815250612dd4565b612d8e3385613720565b612d98848261373e565b612dbb60405180606001604052806025815260200161635f6025913985336137b2565b612dc56007613851565b80849550955050505050915091565b612e6a81604051602401612de89190614359565b6040516020818303038152906040527f41304fac000000000000000000000000000000000000000000000000000000007bffffffffffffffffffffffffffffffffffffffffffffffffffffffff19166020820180517bffffffffffffffffffffffffffffffffffffffffffffffffffffffff8381831617835250505050613867565b50565b60007f01ffc9a7000000000000000000000000000000000000000000000000000000007bffffffffffffffffffffffffffffffffffffffffffffffffffffffff1916827bffffffffffffffffffffffffffffffffffffffffffffffffffffffff1916149050919050565b612ee081613890565b612f1f576040517f08c379a0000000000000000000000000000000000000000000000000000000008152600401612f1690615871565b60405180910390fd5b50565b600033905090565b816004600083815260200190815260200160002060006101000a81548173ffffffffffffffffffffffffffffffffffffffff021916908373ffffffffffffffffffffffffffffffffffffffff160217905550808273ffffffffffffffffffffffffffffffffffffffff16612f9d83611877565b73ffffffffffffffffffffffffffffffffffffffff167f8c5be1e5ebec7d5bd14f71427d1e84f3dd0314c0f7b2291e5b200ac8c7c3b92560405160405180910390a45050565b600080612fef83611877565b90508073ffffffffffffffffffffffffffffffffffffffff168473ffffffffffffffffffffffffffffffffffffffff1614806130315750613030818561295c565b5b8061306f57508373ffffffffffffffffffffffffffffffffffffffff1661305784610900565b73ffffffffffffffffffffffffffffffffffffffff16145b91505092915050565b8273ffffffffffffffffffffffffffffffffffffffff1661309882611877565b73ffffffffffffffffffffffffffffffffffffffff16146130ee576040517f08c379a00000000000000000000000000000000000000000000000000000000081526004016130e590615e3c565b60405180910390fd5b600073ffffffffffffffffffffffffffffffffffffffff168273ffffffffffffffffffffffffffffffffffffffff16141561315e576040517f08c379a000000000000000000000000000000000000000000000000000000000815260040161315590615ece565b60405180910390fd5b6131698383836138fc565b613174600082612f2a565b6001600360008573ffffffffffffffffffffffffffffffffffffffff1673ffffffffffffffffffffffffffffffffffffffff16815260200190815260200160002060008282546131c49190615393565b925050819055506001600360008473ffffffffffffffffffffffffffffffffffffffff1673ffffffffffffffffffffffffffffffffffffffff168152602001908152602001600020600082825461321b9190615eee565b92505081905550816002600083815260200190815260200160002060006101000a81548173ffffffffffffffffffffffffffffffffffffffff021916908373ffffffffffffffffffffffffffffffffffffffff160217905550808273ffffffffffffffffffffffffffffffffffffffff168473ffffffffffffffffffffffffffffffffffffffff167fddf252ad1be2c89b69c2b068fc378daa952ba7f163c4a11628f55a4df523b3ef60405160405180910390a46132da838383613901565b505050565b6132e881613906565b60006006600083815260200190815260200160002080546133089061517c565b90501461332f5760066000828152602001908152602001600020600061332e9190614170565b5b50565b8173ffffffffffffffffffffffffffffffffffffffff168373ffffffffffffffffffffffffffffffffffffffff1614156133a1576040517f08c379a000000000000000000000000000000000000000000000000000000000815260040161339890615f90565b60405180910390fd5b80600560008573ffffffffffffffffffffffffffffffffffffffff1673ffffffffffffffffffffffffffffffffffffffff16815260200190815260200160002060008473ffffffffffffffffffffffffffffffffffffffff1673ffffffffffffffffffffffffffffffffffffffff16815260200190815260200160002060006101000a81548160ff0219169083151502179055508173ffffffffffffffffffffffffffffffffffffffff168373ffffffffffffffffffffffffffffffffffffffff167f17307eab39ab6107e8899845ad3d59bd9653f200f220920489ca2b5937696c318360405161349291906142a5565b60405180910390a3505050565b6134aa848484613078565b6134b684848484613a23565b6134f5576040517f08c379a00000000000000000000000000000000000000000000000000000000081526004016134ec90616022565b60405180910390fd5b50505050565b606060405180602001604052806000815250905090565b606061351d82612ed7565b60006135276134fb565b905060008151116135475760405180602001604052806000815250613572565b8061355184613bba565b6040516020016135629291906159cb565b6040516020818303038152906040525b915050919050565b600081600001549050919050565b606060008251905060008114156135b1576040518060200160405280600081525091505061371b565b600060036002836135c29190615eee565b6135cc9190616071565b60046135d8919061575f565b905060006020826135e99190615eee565b67ffffffffffffffff811115613602576136016148f8565b5b6040519080825280601f01601f1916602001820160405280156136345781602001600182028036833780820191505090505b5090506000604051806060016040528060408152602001616384604091399050600181016020830160005b868110156136d85760038101905062ffffff818a015116603f8160121c168401518060081b905060ff603f83600c1c1686015116810190508060081b905060ff603f8360061c1686015116810190508060081b905060ff603f831686015116810190508060e01b9050808452600484019350505061365f565b5060038606600181146136f257600281146137025761370d565b613d3d60f01b600283035261370d565b603d60f81b60018303525b508484525050819450505050505b919050565b61373a828260405180602001604052806000815250613d1b565b5050565b61374782613890565b613786576040517f08c379a000000000000000000000000000000000000000000000000000000000815260040161377d90616114565b60405180910390fd5b806006600084815260200190815260200160002090805190602001906137ad929190613f73565b505050565b61384c8383836040516024016137ca93929190616134565b6040516020818303038152906040527f1c7ec448000000000000000000000000000000000000000000000000000000007bffffffffffffffffffffffffffffffffffffffffffffffffffffffff19166020820180517bffffffffffffffffffffffffffffffffffffffffffffffffffffffff8381831617835250505050613867565b505050565b6001816000016000828254019250508190555050565b60008151905060006a636f6e736f6c652e6c6f679050602083016000808483855afa5050505050565b60008073ffffffffffffffffffffffffffffffffffffffff166002600084815260200190815260200160002060009054906101000a900473ffffffffffffffffffffffffffffffffffffffff1673ffffffffffffffffffffffffffffffffffffffff1614159050919050565b505050565b505050565b600061391182611877565b905061391f816000846138fc565b61392a600083612f2a565b6001600360008373ffffffffffffffffffffffffffffffffffffffff1673ffffffffffffffffffffffffffffffffffffffff168152602001908152602001600020600082825461397a9190615393565b925050819055506002600083815260200190815260200160002060006101000a81549073ffffffffffffffffffffffffffffffffffffffff021916905581600073ffffffffffffffffffffffffffffffffffffffff168273ffffffffffffffffffffffffffffffffffffffff167fddf252ad1be2c89b69c2b068fc378daa952ba7f163c4a11628f55a4df523b3ef60405160405180910390a4613a1f81600084613901565b5050565b6000613a448473ffffffffffffffffffffffffffffffffffffffff16613d76565b15613bad578373ffffffffffffffffffffffffffffffffffffffff1663150b7a02613a6d612f22565b8786866040518563ffffffff1660e01b8152600401613a8f94939291906161c7565b602060405180830381600087803b158015613aa957600080fd5b505af1925050508015613ada57506040513d601f19601f82011682018060405250810190613ad79190616228565b60015b613b5d573d8060008114613b0a576040519150601f19603f3d011682016040523d82523d6000602084013e613b0f565b606091505b50600081511415613b55576040517f08c379a0000000000000000000000000000000000000000000000000000000008152600401613b4c90616022565b60405180910390fd5b805181602001fd5b63150b7a0260e01b7bffffffffffffffffffffffffffffffffffffffffffffffffffffffff1916817bffffffffffffffffffffffffffffffffffffffffffffffffffffffff191614915050613bb2565b600190505b949350505050565b60606000821415613c02576040518060400160405280600181526020017f30000000000000000000000000000000000000000000000000000000000000008152509050613d16565b600082905060005b60008214613c34578080613c1d90615586565b915050600a82613c2d9190616071565b9150613c0a565b60008167ffffffffffffffff811115613c5057613c4f6148f8565b5b6040519080825280601f01601f191660200182016040528015613c825781602001600182028036833780820191505090505b5090505b60008514613d0f57600182613c9b9190615393565b9150600a85613caa9190616255565b6030613cb69190615eee565b60f81b818381518110613ccc57613ccb6153c7565b5b60200101907effffffffffffffffffffffffffffffffffffffffffffffffffffffffffffff1916908160001a905350600a85613d089190616071565b9450613c86565b8093505050505b919050565b613d258383613d99565b613d326000848484613a23565b613d71576040517f08c379a0000000000000000000000000000000000000000000000000000000008152600401613d6890616022565b60405180910390fd5b505050565b6000808273ffffffffffffffffffffffffffffffffffffffff163b119050919050565b600073ffffffffffffffffffffffffffffffffffffffff168273ffffffffffffffffffffffffffffffffffffffff161415613e09576040517f08c379a0000000000000000000000000000000000000000000000000000000008152600401613e00906162d2565b60405180910390fd5b613e1281613890565b15613e52576040517f08c379a0000000000000000000000000000000000000000000000000000000008152600401613e499061633e565b60405180910390fd5b613e5e600083836138fc565b6001600360008473ffffffffffffffffffffffffffffffffffffffff1673ffffffffffffffffffffffffffffffffffffffff1681526020019081526020016000206000828254613eae9190615eee565b92505081905550816002600083815260200190815260200160002060006101000a81548173ffffffffffffffffffffffffffffffffffffffff021916908373ffffffffffffffffffffffffffffffffffffffff160217905550808273ffffffffffffffffffffffffffffffffffffffff16600073ffffffffffffffffffffffffffffffffffffffff167fddf252ad1be2c89b69c2b068fc378daa952ba7f163c4a11628f55a4df523b3ef60405160405180910390a4613f6f60008383613901565b5050565b828054613f7f9061517c565b90600052602060002090601f016020900481019282613fa15760008555613fe8565b82601f10613fba57805160ff1916838001178555613fe8565b82800160010185558215613fe8579182015b82811115613fe7578251825591602001919060010190613fcc565b5b509050613ff591906141b0565b5090565b8280546140059061517c565b90600052602060002090601f0160209004810192826140275760008555614075565b82601f106140385780548555614075565b8280016001018555821561407557600052602060002091601f016020900482015b82811115614074578254825591600101919060010190614059565b5b50905061408291906141b0565b5090565b8280548282559060005260206000209081019282156140d5579160200282015b828111156140d45782518290805190602001906140c4929190613f73565b50916020019190600101906140a6565b5b5090506140e291906141cd565b5090565b82805482825590600052602060002090810192821561415f579160200282015b8281111561415e5782518260006101000a81548173ffffffffffffffffffffffffffffffffffffffff021916908373ffffffffffffffffffffffffffffffffffffffff16021790555091602001919060010190614106565b5b50905061416c91906141b0565b5090565b50805461417c9061517c565b6000825580601f1061418e57506141ad565b601f0160209004906000526020600020908101906141ac91906141b0565b5b50565b5b808211156141c95760008160009055506001016141b1565b5090565b5b808211156141ed57600081816141e49190614170565b506001016141ce565b5090565b6000604051905090565b600080fd5b600080fd5b60007fffffffff0000000000000000000000000000000000000000000000000000000082169050919050565b61423a81614205565b811461424557600080fd5b50565b60008135905061425781614231565b92915050565b600060208284031215614273576142726141fb565b5b600061428184828501614248565b91505092915050565b60008115159050919050565b61429f8161428a565b82525050565b60006020820190506142ba6000830184614296565b92915050565b600081519050919050565b600082825260208201905092915050565b60005b838110156142fa5780820151818401526020810190506142df565b83811115614309576000848401525b50505050565b6000601f19601f8301169050919050565b600061432b826142c0565b61433581856142cb565b93506143458185602086016142dc565b61434e8161430f565b840191505092915050565b600060208201905081810360008301526143738184614320565b905092915050565b6000819050919050565b61438e8161437b565b811461439957600080fd5b50565b6000813590506143ab81614385565b92915050565b6000602082840312156143c7576143c66141fb565b5b60006143d58482850161439c565b91505092915050565b600073ffffffffffffffffffffffffffffffffffffffff82169050919050565b6000614409826143de565b9050919050565b614419816143fe565b82525050565b60006020820190506144346000830184614410565b92915050565b614443816143fe565b811461444e57600080fd5b50565b6000813590506144608161443a565b92915050565b6000806040838503121561447d5761447c6141fb565b5b600061448b85828601614451565b925050602061449c8582860161439c565b9150509250929050565b6000602082840312156144bc576144bb6141fb565b5b60006144ca84828501614451565b91505092915050565b600081519050919050565b600082825260208201905092915050565b6000819050602082019050919050565b600082825260208201905092915050565b600061451b826142c0565b61452581856144ff565b93506145358185602086016142dc565b61453e8161430f565b840191505092915050565b600081519050919050565b600082825260208201905092915050565b6000819050602082019050919050565b60006145818383614510565b905092915050565b6000602082019050919050565b60006145a182614549565b6145ab8185614554565b9350836020820285016145bd85614565565b8060005b858110156145f957848403895281516145da8582614575565b94506145e583614589565b925060208a019950506001810190506145c1565b50829750879550505050505092915050565b6146148161437b565b82525050565b614623816143fe565b82525050565b600081519050919050565b600082825260208201905092915050565b6000819050602082019050919050565b6000614661838361461a565b60208301905092915050565b6000602082019050919050565b600061468582614629565b61468f8185614634565b935061469a83614645565b8060005b838110156146cb5781516146b28882614655565b97506146bd8361466d565b92505060018101905061469e565b5085935050505092915050565b60006101608301600083015184820360008601526146f68282614510565b915050602083015184820360208601526147108282614596565b9150506040830151848203604086015261472a8282614510565b915050606083015184820360608601526147448282614510565b9150506080830151614759608086018261460b565b5060a083015161476c60a086018261460b565b5060c083015161477f60c086018261460b565b5060e083015161479260e086018261460b565b506101008301516147a761010086018261460b565b506101208301516147bc61012086018261461a565b506101408301518482036101408601526147d6828261467a565b9150508091505092915050565b60006147ef83836146d8565b905092915050565b6000602082019050919050565b600061480f826144d3565b61481981856144de565b93508360208202850161482b856144ef565b8060005b85811015614867578484038952815161484885826147e3565b9450614853836147f7565b925060208a0199505060018101905061482f565b50829750879550505050505092915050565b600060208201905081810360008301526148938184614804565b905092915050565b6000806000606084860312156148b4576148b36141fb565b5b60006148c286828701614451565b93505060206148d386828701614451565b92505060406148e48682870161439c565b9150509250925092565b600080fd5b600080fd5b7f4e487b7100000000000000000000000000000000000000000000000000000000600052604160045260246000fd5b6149308261430f565b810181811067ffffffffffffffff8211171561494f5761494e6148f8565b5b80604052505050565b60006149626141f1565b905061496e8282614927565b919050565b600067ffffffffffffffff82111561498e5761498d6148f8565b5b6149978261430f565b9050602081019050919050565b82818337600083830152505050565b60006149c66149c184614973565b614958565b9050828152602081018484840111156149e2576149e16148f3565b5b6149ed8482856149a4565b509392505050565b600082601f830112614a0a57614a096148ee565b5b8135614a1a8482602086016149b3565b91505092915050565b600080600060608486031215614a3c57614a3b6141fb565b5b600084013567ffffffffffffffff811115614a5a57614a59614200565b5b614a66868287016149f5565b935050602084013567ffffffffffffffff811115614a8757614a86614200565b5b614a93868287016149f5565b9250506040614aa48682870161439c565b9150509250925092565b614ab78161437b565b82525050565b6000602082019050614ad26000830184614aae565b92915050565b60008060408385031215614aef57614aee6141fb565b5b6000614afd8582860161439c565b9250506020614b0e8582860161439c565b9150509250929050565b600067ffffffffffffffff821115614b3357614b326148f8565b5b602082029050602081019050919050565b600080fd5b6000614b5c614b5784614b18565b614958565b90508083825260208201905060208402830185811115614b7f57614b7e614b44565b5b835b81811015614bc657803567ffffffffffffffff811115614ba457614ba36148ee565b5b808601614bb189826149f5565b85526020850194505050602081019050614b81565b5050509392505050565b600082601f830112614be557614be46148ee565b5b8135614bf5848260208601614b49565b91505092915050565b600080600060608486031215614c1757614c166141fb565b5b600084013567ffffffffffffffff811115614c3557614c34614200565b5b614c41868287016149f5565b935050602084013567ffffffffffffffff811115614c6257614c61614200565b5b614c6e86828701614bd0565b925050604084013567ffffffffffffffff811115614c8f57614c8e614200565b5b614c9b868287016149f5565b9150509250925092565b60006080820190508181036000830152614cbf8187614320565b90508181036020830152614cd38186614320565b90508181036040830152614ce78185614320565b9050614cf66060830184614410565b95945050505050565b614d088161428a565b8114614d1357600080fd5b50565b600081359050614d2581614cff565b92915050565b60008060408385031215614d4257614d416141fb565b5b6000614d5085828601614451565b9250506020614d6185828601614d16565b9150509250929050565b600067ffffffffffffffff821115614d8657614d856148f8565b5b614d8f8261430f565b9050602081019050919050565b6000614daf614daa84614d6b565b614958565b905082815260208101848484011115614dcb57614dca6148f3565b5b614dd68482856149a4565b509392505050565b600082601f830112614df357614df26148ee565b5b8135614e03848260208601614d9c565b91505092915050565b60008060008060808587031215614e2657614e256141fb565b5b6000614e3487828801614451565b9450506020614e4587828801614451565b9350506040614e568782880161439c565b925050606085013567ffffffffffffffff811115614e7757614e76614200565b5b614e8387828801614dde565b91505092959194509250565b6000610120820190508181036000830152614eaa818c614320565b90508181036020830152614ebe818b614320565b90508181036040830152614ed2818a614320565b9050614ee16060830189614aae565b614eee6080830188614aae565b614efb60a0830187614aae565b614f0860c0830186614aae565b614f1560e0830185614aae565b614f23610100830184614410565b9a9950505050505050505050565b60008060008060808587031215614f4b57614f4a6141fb565b5b600085013567ffffffffffffffff811115614f6957614f68614200565b5b614f75878288016149f5565b945050602085013567ffffffffffffffff811115614f9657614f95614200565b5b614fa287828801614bd0565b935050604085013567ffffffffffffffff811115614fc357614fc2614200565b5b614fcf878288016149f5565b9250506060614fe08782880161439c565b91505092959194509250565b600082825260208201905092915050565b600061500882614549565b6150128185614fec565b93508360208202850161502485614565565b8060005b8581101561506057848403895281516150418582614575565b945061504c83614589565b925060208a01995050600181019050615028565b50829750879550505050505092915050565b6000602082019050818103600083015261508c8184614ffd565b905092915050565b600080604083850312156150ab576150aa6141fb565b5b60006150b985828601614451565b92505060206150ca85828601614451565b9150509250929050565b6000602082840312156150ea576150e96141fb565b5b600082013567ffffffffffffffff81111561510857615107614200565b5b615114848285016149f5565b91505092915050565b600060408201905081810360008301526151378185614320565b90506151466020830184614aae565b9392505050565b7f4e487b7100000000000000000000000000000000000000000000000000000000600052602260045260246000fd5b6000600282049050600182168061519457607f821691505b602082108114156151a8576151a761514d565b5b50919050565b7f4552433732313a20617070726f76616c20746f2063757272656e74206f776e6560008201527f7200000000000000000000000000000000000000000000000000000000000000602082015250565b600061520a6021836142cb565b9150615215826151ae565b604082019050919050565b60006020820190508181036000830152615239816151fd565b9050919050565b7f4552433732313a20617070726f76652063616c6c6572206973206e6f7420746f60008201527f6b656e206f776e6572206e6f7220617070726f76656420666f7220616c6c0000602082015250565b600061529c603e836142cb565b91506152a782615240565b604082019050919050565b600060208201905081810360008301526152cb8161528f565b9050919050565b7f596f752068617665206e6f74207965742072656769737465726564206120707260008201527f6f66696c652e0000000000000000000000000000000000000000000000000000602082015250565b600061532e6026836142cb565b9150615339826152d2565b604082019050919050565b6000602082019050818103600083015261535d81615321565b9050919050565b7f4e487b7100000000000000000000000000000000000000000000000000000000600052601160045260246000fd5b600061539e8261437b565b91506153a98361437b565b9250828210156153bc576153bb615364565b5b828203905092915050565b7f4e487b7100000000000000000000000000000000000000000000000000000000600052603260045260246000fd5b7f4552433732313a2063616c6c6572206973206e6f7420746f6b656e206f776e6560008201527f72206e6f7220617070726f766564000000000000000000000000000000000000602082015250565b6000615452602e836142cb565b915061545d826153f6565b604082019050919050565b6000602082019050818103600083015261548181615445565b9050919050565b7f4e6f2073746f726965732077697468207468652073706563696669656420746960008201527f746c652061726520726567697374657265642e00000000000000000000000000602082015250565b60006154e46033836142cb565b91506154ef82615488565b604082019050919050565b60006020820190508181036000830152615513816154d7565b9050919050565b7f53746f727920617574686f72732063616e6e6f74206265206c696b65642e0000600082015250565b6000615550601e836142cb565b915061555b8261551a565b602082019050919050565b6000602082019050818103600083015261557f81615543565b9050919050565b60006155918261437b565b91507fffffffffffffffffffffffffffffffffffffffffffffffffffffffffffffffff8214156155c4576155c3615364565b5b600182019050919050565b7f596f7520617265206c696b696e6720746869732073746f7279206f6e2074686560008201527f206e6573742e0000000000000000000000000000000000000000000000000000602082015250565b600061562b6026836142cb565b9150615636826155cf565b604082019050919050565b6000602082019050818103600083015261565a8161561e565b9050919050565b7f4f6e6c79207468652063726561746f72206f66207468652073746f727920636160008201527f6e206275726e2e00000000000000000000000000000000000000000000000000602082015250565b60006156bd6027836142cb565b91506156c882615661565b604082019050919050565b600060208201905081810360008301526156ec816156b0565b9050919050565b7f53656c6c65722063616e6e6f7420626520627579657200000000000000000000600082015250565b60006157296016836142cb565b9150615734826156f3565b602082019050919050565b600060208201905081810360008301526157588161571c565b9050919050565b600061576a8261437b565b91506157758361437b565b9250817fffffffffffffffffffffffffffffffffffffffffffffffffffffffffffffffff04831182151516156157ae576157ad615364565b5b828202905092915050565b7f496e73756666696369656e74207061796d656e74000000000000000000000000600082015250565b60006157ef6014836142cb565b91506157fa826157b9565b602082019050919050565b6000602082019050818103600083015261581e816157e2565b9050919050565b7f4552433732313a20696e76616c696420746f6b656e2049440000000000000000600082015250565b600061585b6018836142cb565b915061586682615825565b602082019050919050565b6000602082019050818103600083015261588a8161584e565b9050919050565b7f4552433732313a2061646472657373207a65726f206973206e6f74206120766160008201527f6c6964206f776e65720000000000000000000000000000000000000000000000602082015250565b60006158ed6029836142cb565b91506158f882615891565b604082019050919050565b6000602082019050818103600083015261591c816158e0565b9050919050565b7f416e206163636f756e7420616c7265616479206578697374732e000000000000600082015250565b6000615959601a836142cb565b915061596482615923565b602082019050919050565b600060208201905081810360008301526159888161594c565b9050919050565b600081905092915050565b60006159a5826142c0565b6159af818561598f565b93506159bf8185602086016142dc565b80840191505092915050565b60006159d7828561599a565b91506159e3828461599a565b91508190509392505050565b7f4f6e6c792074686520617574686f722063616e2065646974207468652073746f60008201527f72792e0000000000000000000000000000000000000000000000000000000000602082015250565b6000615a4b6023836142cb565b9150615a56826159ef565b604082019050919050565b60006020820190508181036000830152615a7a81615a3e565b9050919050565b60008190508160005260206000209050919050565b60008154615aa38161517c565b615aad818661598f565b94506001821660008114615ac85760018114615ad957615b0c565b60ff19831686528186019350615b0c565b615ae285615a81565b60005b83811015615b0457815481890152600182019150602081019050615ae5565b838801955050505b50505092915050565b7f3c2f746578743e3c2f7376673e00000000000000000000000000000000000000600082015250565b6000615b4b600d8361598f565b9150615b5682615b15565b600d82019050919050565b6000615b6d8285615a96565b9150615b79828461599a565b9150615b8482615b3e565b91508190509392505050565b7f7b226e616d65223a202200000000000000000000000000000000000000000000600082015250565b6000615bc6600a8361598f565b9150615bd182615b90565b600a82019050919050565b7f222c20226465736372697074696f6e223a20224d79205265636f76657279205360008201527f746f7279222c2000000000000000000000000000000000000000000000000000602082015250565b6000615c3860278361598f565b9150615c4382615bdc565b602782019050919050565b7f22696d616765223a2022646174613a696d6167652f7376672b786d6c3b62617360008201527f6536342c00000000000000000000000000000000000000000000000000000000602082015250565b6000615caa60248361598f565b9150615cb582615c4e565b602482019050919050565b7f227d000000000000000000000000000000000000000000000000000000000000600082015250565b6000615cf660028361598f565b9150615d0182615cc0565b600282019050919050565b6000615d1782615bb9565b9150615d23828561599a565b9150615d2e82615c2b565b9150615d3982615c9d565b9150615d45828461599a565b9150615d5082615ce9565b91508190509392505050565b7f646174613a6170706c69636174696f6e2f6a736f6e3b6261736536342c000000600082015250565b6000615d92601d8361598f565b9150615d9d82615d5c565b601d82019050919050565b6000615db382615d85565b9150615dbf828461599a565b915081905092915050565b7f4552433732313a207472616e736665722066726f6d20696e636f72726563742060008201527f6f776e6572000000000000000000000000000000000000000000000000000000602082015250565b6000615e266025836142cb565b9150615e3182615dca565b604082019050919050565b60006020820190508181036000830152615e5581615e19565b9050919050565b7f4552433732313a207472616e7366657220746f20746865207a65726f2061646460008201527f7265737300000000000000000000000000000000000000000000000000000000602082015250565b6000615eb86024836142cb565b9150615ec382615e5c565b604082019050919050565b60006020820190508181036000830152615ee781615eab565b9050919050565b6000615ef98261437b565b9150615f048361437b565b9250827fffffffffffffffffffffffffffffffffffffffffffffffffffffffffffffffff03821115615f3957615f38615364565b5b828201905092915050565b7f4552433732313a20617070726f766520746f2063616c6c657200000000000000600082015250565b6000615f7a6019836142cb565b9150615f8582615f44565b602082019050919050565b60006020820190508181036000830152615fa981615f6d565b9050919050565b7f4552433732313a207472616e7366657220746f206e6f6e20455243373231526560008201527f63656976657220696d706c656d656e7465720000000000000000000000000000602082015250565b600061600c6032836142cb565b915061601782615fb0565b604082019050919050565b6000602082019050818103600083015261603b81615fff565b9050919050565b7f4e487b7100000000000000000000000000000000000000000000000000000000600052601260045260246000fd5b600061607c8261437b565b91506160878361437b565b92508261609757616096616042565b5b828204905092915050565b7f45524337323155524953746f726167653a2055524920736574206f66206e6f6e60008201527f6578697374656e7420746f6b656e000000000000000000000000000000000000602082015250565b60006160fe602e836142cb565b9150616109826160a2565b604082019050919050565b6000602082019050818103600083015261612d816160f1565b9050919050565b6000606082019050818103600083015261614e8186614320565b905061615d6020830185614aae565b61616a6040830184614410565b949350505050565b600081519050919050565b600082825260208201905092915050565b600061619982616172565b6161a3818561617d565b93506161b38185602086016142dc565b6161bc8161430f565b840191505092915050565b60006080820190506161dc6000830187614410565b6161e96020830186614410565b6161f66040830185614aae565b8181036060830152616208818461618e565b905095945050505050565b60008151905061622281614231565b92915050565b60006020828403121561623e5761623d6141fb565b5b600061624c84828501616213565b91505092915050565b60006162608261437b565b915061626b8361437b565b92508261627b5761627a616042565b5b828206905092915050565b7f4552433732313a206d696e7420746f20746865207a65726f2061646472657373600082015250565b60006162bc6020836142cb565b91506162c782616286565b602082019050919050565b600060208201905081810360008301526162eb816162af565b9050919050565b7f4552433732313a20746f6b656e20616c7265616479206d696e74656400000000600082015250565b6000616328601c836142cb565b9150616333826162f2565b602082019050919050565b600060208201905081810360008301526163578161631b565b905091905056fe416e204e465420772f20494420257320686173206265656e206d696e74656420746f2025734142434445464748494a4b4c4d4e4f505152535455565758595a6162636465666768696a6b6c6d6e6f707172737475767778797a303132333435363738392b2fa264697066735822122076a9114d9bd16c993df59f2b02be0ed3aa3d89c20d6d9f02f5d3af6f1ea0732164736f6c63430008090033516d624648565048315663556a696a75394b416638636b6e6b417958584445656865323368646148633869353441516d583564546d4d4e59534a33375a6a6d67544c327779636e75715065483143575362723376464c38374d34374354686973206973206d79205265636f766572792053746f727920636f6e74726163742e516d616a43454a674474477150416753414c624e37347a714a63434e37547270417867757442733446775a6e6f5a516d5a317036333463784c7142745539384559594e69735642567959467368766b435163505353746a59626242533c73766720786d6c6e733d27687474703a2f2f7777772e77332e6f72672f323030302f73766727207072657365727665417370656374526174696f3d27784d696e594d696e206d656574272076696577426f783d273020302033353020333530273e3c7374796c653e2e62617365207b2066696c6c3a20233032423242343b20666f6e742d66616d696c793a20274869726167696e6f204d61727520476f746869632050726f273b20666f6e742d73697a653a20323470783b207d3c2f7374796c653e3c726563742077696474683d273130302527206865696768743d2731303025272066696c6c3d272345394534444627202f3e3c7465787420783d273530252720793d273530252720636c6173734e616d653d27626173652720646f6d696e616e742d626173656c696e653d276d6964646c652720746578742d616e63686f723d276d6964646c65273e516d50463854677439526f31516b416d6d356f65543479736a636548664c5054416a784b67536f4e593251385878",
  "linkReferences": {},
  "deployedLinkReferences": {}
}