{
  "_format": "hh-sol-artifact-1",
  "contractName": "RecoveryStory",
  "sourceName": "contracts/RecoveryStory.sol",
  "abi": [
    {
      "inputs": [
        {
          "internalType": "string",
          "name": "_storyTitle",
          "type": "string"
        }
      ],
      "name": "buyNft",
      "outputs": [],
      "stateMutability": "nonpayable",
      "type": "function"
    },
    {
      "inputs": [
        {
          "internalType": "string",
          "name": "_storyTitle",
          "type": "string"
        },
        {
          "internalType": "string[]",
          "name": "tags",
          "type": "string[]"
        },
        {
          "internalType": "string",
          "name": "_storyBody",
          "type": "string"
        },
        {
          "internalType": "string",
          "name": "_icatchSvg",
          "type": "string"
        }
      ],
      "name": "createStory",
      "outputs": [],
      "stateMutability": "nonpayable",
      "type": "function"
    },
    {
      "inputs": [
        {
          "internalType": "string",
          "name": "_storyTitle",
          "type": "string"
        },
        {
          "internalType": "string[]",
          "name": "tags",
          "type": "string[]"
        },
        {
          "internalType": "string",
          "name": "_storyBody",
          "type": "string"
        },
        {
          "internalType": "string",
          "name": "_icatchSvg",
          "type": "string"
        },
        {
          "internalType": "uint256",
          "name": "_numLike",
          "type": "uint256"
        }
      ],
      "name": "editStory",
      "outputs": [],
      "stateMutability": "nonpayable",
      "type": "function"
    },
    {
      "inputs": [
        {
          "internalType": "string",
          "name": "_storyTitle",
          "type": "string"
        }
      ],
      "name": "getNft",
      "outputs": [
        {
          "internalType": "string",
          "name": "",
          "type": "string"
        },
        {
          "internalType": "string[]",
          "name": "",
          "type": "string[]"
        },
        {
          "internalType": "string",
          "name": "",
          "type": "string"
        },
        {
          "internalType": "string",
          "name": "",
          "type": "string"
        },
        {
          "internalType": "uint256",
          "name": "",
          "type": "uint256"
        },
        {
          "internalType": "uint256",
          "name": "",
          "type": "uint256"
        },
        {
          "internalType": "uint256",
          "name": "",
          "type": "uint256"
        },
        {
          "internalType": "uint256",
          "name": "",
          "type": "uint256"
        },
        {
          "internalType": "address",
          "name": "",
          "type": "address"
        }
      ],
      "stateMutability": "view",
      "type": "function"
    },
    {
      "inputs": [
        {
          "internalType": "uint256",
          "name": "",
          "type": "uint256"
        }
      ],
      "name": "story",
      "outputs": [
        {
          "internalType": "string",
          "name": "storyTitle",
          "type": "string"
        },
        {
          "internalType": "string",
          "name": "storyBody",
          "type": "string"
        },
        {
          "internalType": "string",
          "name": "icatchSvg",
          "type": "string"
        },
        {
          "internalType": "uint256",
          "name": "createDate",
          "type": "uint256"
        },
        {
          "internalType": "uint256",
          "name": "updateDate",
          "type": "uint256"
        },
        {
          "internalType": "uint256",
          "name": "numLike",
          "type": "uint256"
        },
        {
          "internalType": "uint256",
          "name": "itemId",
          "type": "uint256"
        },
        {
          "internalType": "address",
          "name": "authorAddress",
          "type": "address"
        }
      ],
      "stateMutability": "view",
      "type": "function"
    },
    {
      "inputs": [],
      "name": "storyIdCounter",
      "outputs": [
        {
          "internalType": "uint256",
          "name": "",
          "type": "uint256"
        }
      ],
      "stateMutability": "view",
      "type": "function"
    }
  ],
  "bytecode": "0x60806040526001805534801561001457600080fd5b5061185b806100246000396000f3fe608060405234801561001057600080fd5b50600436106100625760003560e01c806333e00f7c146100675780633719d8a61461008357806338a3bdc81461009f5780633dd17652146100bd578063beba8bbe146100f5578063d5efffaf1461012c575b600080fd5b610081600480360381019061007c9190610fef565b610148565b005b61009d600480360381019061009891906110fc565b6103b9565b005b6100a761058d565b6040516100b491906111f6565b60405180910390f35b6100d760048036038101906100d29190611211565b610593565b6040516100ec9998979695949392919061142f565b60405180910390f35b61010f600480360381019061010a91906114d8565b6109d8565b604051610123989796959493929190611505565b60405180910390f35b61014660048036038101906101419190611211565b610be8565b005b600060038560405161015a91906115d4565b908152602001604051809103902054146101a9576040517f08c379a00000000000000000000000000000000000000000000000000000000081526004016101a090611637565b60405180910390fd5b60006040518061012001604052808681526020018581526020018481526020018381526020014281526020014281526020016000815260200160015481526020013373ffffffffffffffffffffffffffffffffffffffff1681525090506000819080600181540180825580915050600190039060005260206000209060090201600090919091909150600082015181600001908051906020019061024e929190610c48565b50602082015181600101908051906020019061026b929190610cce565b506040820151816002019080519060200190610288929190610c48565b5060608201518160030190805190602001906102a5929190610c48565b506080820151816004015560a0820151816005015560c0820151816006015560e082015181600701556101008201518160080160006101000a81548173ffffffffffffffffffffffffffffffffffffffff021916908373ffffffffffffffffffffffffffffffffffffffff16021790555050503360028660405161032991906115d4565b908152602001604051809103902060006101000a81548173ffffffffffffffffffffffffffffffffffffffff021916908373ffffffffffffffffffffffffffffffffffffffff16021790555060015460038660405161038891906115d4565b908152602001604051809103902081905550600160008154809291906103ad90611686565b91905055505050505050565b60006003866040516103cb91906115d4565b9081526020016040518091039020541161041a576040517f08c379a000000000000000000000000000000000000000000000000000000000815260040161041190611741565b60405180910390fd5b6000600160038760405161042e91906115d4565b9081526020016040518091039020546104479190611761565b9050856000828154811061045e5761045d611795565b5b90600052602060002090600902016000019080519060200190610482929190610c48565b50846000828154811061049857610497611795565b5b906000526020600020906009020160010190805190602001906104bc929190610cce565b5083600082815481106104d2576104d1611795565b5b906000526020600020906009020160020190805190602001906104f6929190610c48565b50826000828154811061050c5761050b611795565b5b90600052602060002090600902016003019080519060200190610530929190610c48565b50426000828154811061054657610545611795565b5b90600052602060002090600902016005018190555081600082815481106105705761056f611795565b5b906000526020600020906009020160060181905550505050505050565b60015481565b606080606080600080600080600080600160038c6040516105b491906115d4565b9081526020016040518091039020546105cd9190611761565b9050600081815481106105e3576105e2611795565b5b90600052602060002090600902016000016000828154811061060857610607611795565b5b90600052602060002090600902016001016000838154811061062d5761062c611795565b5b90600052602060002090600902016002016000848154811061065257610651611795565b5b90600052602060002090600902016003016000858154811061067757610676611795565b5b9060005260206000209060090201600401546000868154811061069d5761069c611795565b5b906000526020600020906009020160050154600087815481106106c3576106c2611795565b5b906000526020600020906009020160060154600088815481106106e9576106e8611795565b5b9060005260206000209060090201600701546000898154811061070f5761070e611795565b5b906000526020600020906009020160080160009054906101000a900473ffffffffffffffffffffffffffffffffffffffff1688805461074d906117f3565b80601f0160208091040260200160405190810160405280929190818152602001828054610779906117f3565b80156107c65780601f1061079b576101008083540402835291602001916107c6565b820191906000526020600020905b8154815290600101906020018083116107a957829003601f168201915b5050505050985087805480602002602001604051908101604052809291908181526020016000905b8282101561089a57838290600052602060002001805461080d906117f3565b80601f0160208091040260200160405190810160405280929190818152602001828054610839906117f3565b80156108865780601f1061085b57610100808354040283529160200191610886565b820191906000526020600020905b81548152906001019060200180831161086957829003601f168201915b5050505050815260200190600101906107ee565b5050505097508680546108ac906117f3565b80601f01602080910402602001604051908101604052809291908181526020018280546108d8906117f3565b80156109255780601f106108fa57610100808354040283529160200191610925565b820191906000526020600020905b81548152906001019060200180831161090857829003601f168201915b50505050509650858054610938906117f3565b80601f0160208091040260200160405190810160405280929190818152602001828054610964906117f3565b80156109b15780601f10610986576101008083540402835291602001916109b1565b820191906000526020600020905b81548152906001019060200180831161099457829003601f168201915b50505050509550995099509950995099509950995099509950509193959799909294969850565b600081815481106109e857600080fd5b9060005260206000209060090201600091509050806000018054610a0b906117f3565b80601f0160208091040260200160405190810160405280929190818152602001828054610a37906117f3565b8015610a845780601f10610a5957610100808354040283529160200191610a84565b820191906000526020600020905b815481529060010190602001808311610a6757829003601f168201915b505050505090806002018054610a99906117f3565b80601f0160208091040260200160405190810160405280929190818152602001828054610ac5906117f3565b8015610b125780601f10610ae757610100808354040283529160200191610b12565b820191906000526020600020905b815481529060010190602001808311610af557829003601f168201915b505050505090806003018054610b27906117f3565b80601f0160208091040260200160405190810160405280929190818152602001828054610b53906117f3565b8015610ba05780601f10610b7557610100808354040283529160200191610ba0565b820191906000526020600020905b815481529060010190602001808311610b8357829003601f168201915b5050505050908060040154908060050154908060060154908060070154908060080160009054906101000a900473ffffffffffffffffffffffffffffffffffffffff16905088565b33600282604051610bf991906115d4565b908152602001604051809103902060006101000a81548173ffffffffffffffffffffffffffffffffffffffff021916908373ffffffffffffffffffffffffffffffffffffffff16021790555050565b828054610c54906117f3565b90600052602060002090601f016020900481019282610c765760008555610cbd565b82601f10610c8f57805160ff1916838001178555610cbd565b82800160010185558215610cbd579182015b82811115610cbc578251825591602001919060010190610ca1565b5b509050610cca9190610d2e565b5090565b828054828255906000526020600020908101928215610d1d579160200282015b82811115610d1c578251829080519060200190610d0c929190610c48565b5091602001919060010190610cee565b5b509050610d2a9190610d4b565b5090565b5b80821115610d47576000816000905550600101610d2f565b5090565b5b80821115610d6b5760008181610d629190610d6f565b50600101610d4c565b5090565b508054610d7b906117f3565b6000825580601f10610d8d5750610dac565b601f016020900490600052602060002090810190610dab9190610d2e565b5b50565b6000604051905090565b600080fd5b600080fd5b600080fd5b600080fd5b6000601f19601f8301169050919050565b7f4e487b7100000000000000000000000000000000000000000000000000000000600052604160045260246000fd5b610e1682610dcd565b810181811067ffffffffffffffff82111715610e3557610e34610dde565b5b80604052505050565b6000610e48610daf565b9050610e548282610e0d565b919050565b600067ffffffffffffffff821115610e7457610e73610dde565b5b610e7d82610dcd565b9050602081019050919050565b82818337600083830152505050565b6000610eac610ea784610e59565b610e3e565b905082815260208101848484011115610ec857610ec7610dc8565b5b610ed3848285610e8a565b509392505050565b600082601f830112610ef057610eef610dc3565b5b8135610f00848260208601610e99565b91505092915050565b600067ffffffffffffffff821115610f2457610f23610dde565b5b602082029050602081019050919050565b600080fd5b6000610f4d610f4884610f09565b610e3e565b90508083825260208201905060208402830185811115610f7057610f6f610f35565b5b835b81811015610fb757803567ffffffffffffffff811115610f9557610f94610dc3565b5b808601610fa28982610edb565b85526020850194505050602081019050610f72565b5050509392505050565b600082601f830112610fd657610fd5610dc3565b5b8135610fe6848260208601610f3a565b91505092915050565b6000806000806080858703121561100957611008610db9565b5b600085013567ffffffffffffffff81111561102757611026610dbe565b5b61103387828801610edb565b945050602085013567ffffffffffffffff81111561105457611053610dbe565b5b61106087828801610fc1565b935050604085013567ffffffffffffffff81111561108157611080610dbe565b5b61108d87828801610edb565b925050606085013567ffffffffffffffff8111156110ae576110ad610dbe565b5b6110ba87828801610edb565b91505092959194509250565b6000819050919050565b6110d9816110c6565b81146110e457600080fd5b50565b6000813590506110f6816110d0565b92915050565b600080600080600060a0868803121561111857611117610db9565b5b600086013567ffffffffffffffff81111561113657611135610dbe565b5b61114288828901610edb565b955050602086013567ffffffffffffffff81111561116357611162610dbe565b5b61116f88828901610fc1565b945050604086013567ffffffffffffffff8111156111905761118f610dbe565b5b61119c88828901610edb565b935050606086013567ffffffffffffffff8111156111bd576111bc610dbe565b5b6111c988828901610edb565b92505060806111da888289016110e7565b9150509295509295909350565b6111f0816110c6565b82525050565b600060208201905061120b60008301846111e7565b92915050565b60006020828403121561122757611226610db9565b5b600082013567ffffffffffffffff81111561124557611244610dbe565b5b61125184828501610edb565b91505092915050565b600081519050919050565b600082825260208201905092915050565b60005b83811015611294578082015181840152602081019050611279565b838111156112a3576000848401525b50505050565b60006112b48261125a565b6112be8185611265565b93506112ce818560208601611276565b6112d781610dcd565b840191505092915050565b600081519050919050565b600082825260208201905092915050565b6000819050602082019050919050565b600082825260208201905092915050565b600061132a8261125a565b611334818561130e565b9350611344818560208601611276565b61134d81610dcd565b840191505092915050565b6000611364838361131f565b905092915050565b6000602082019050919050565b6000611384826112e2565b61138e81856112ed565b9350836020820285016113a0856112fe565b8060005b858110156113dc57848403895281516113bd8582611358565b94506113c88361136c565b925060208a019950506001810190506113a4565b50829750879550505050505092915050565b600073ffffffffffffffffffffffffffffffffffffffff82169050919050565b6000611419826113ee565b9050919050565b6114298161140e565b82525050565b600061012082019050818103600083015261144a818c6112a9565b9050818103602083015261145e818b611379565b90508181036040830152611472818a6112a9565b9050818103606083015261148681896112a9565b905061149560808301886111e7565b6114a260a08301876111e7565b6114af60c08301866111e7565b6114bc60e08301856111e7565b6114ca610100830184611420565b9a9950505050505050505050565b6000602082840312156114ee576114ed610db9565b5b60006114fc848285016110e7565b91505092915050565b6000610100820190508181036000830152611520818b6112a9565b90508181036020830152611534818a6112a9565b9050818103604083015261154881896112a9565b905061155760608301886111e7565b61156460808301876111e7565b61157160a08301866111e7565b61157e60c08301856111e7565b61158b60e0830184611420565b9998505050505050505050565b600081905092915050565b60006115ae8261125a565b6115b88185611598565b93506115c8818560208601611276565b80840191505092915050565b60006115e082846115a3565b915081905092915050565b7f416e2053746f7279204461746120616c7265616479206578697374732e000000600082015250565b6000611621601d83611265565b915061162c826115eb565b602082019050919050565b6000602082019050818103600083015261165081611614565b9050919050565b7f4e487b7100000000000000000000000000000000000000000000000000000000600052601160045260246000fd5b6000611691826110c6565b91507fffffffffffffffffffffffffffffffffffffffffffffffffffffffffffffffff8214156116c4576116c3611657565b5b600182019050919050565b7f596f752068617665206e6f74207965742072656769737465726564206120736f60008201527f74727920646174612e0000000000000000000000000000000000000000000000602082015250565b600061172b602983611265565b9150611736826116cf565b604082019050919050565b6000602082019050818103600083015261175a8161171e565b9050919050565b600061176c826110c6565b9150611777836110c6565b92508282101561178a57611789611657565b5b828203905092915050565b7f4e487b7100000000000000000000000000000000000000000000000000000000600052603260045260246000fd5b7f4e487b7100000000000000000000000000000000000000000000000000000000600052602260045260246000fd5b6000600282049050600182168061180b57607f821691505b6020821081141561181f5761181e6117c4565b5b5091905056fea26469706673582212208a14a73200e2d8763df39e30c8b2bbc0ddd6e1afe7538d4e7e6476b356e8b41064736f6c63430008090033",
  "linkReferences": {},
  "deployedLinkReferences": {}
}