{
  "_format": "hh-sol-artifact-1",
  "contractName": "RecoveryStory",
  "sourceName": "contracts/RecoveryStory.sol",
  "abi": [
    {
      "inputs": [],
      "stateMutability": "nonpayable",
      "type": "constructor"
    },
    {
      "anonymous": false,
      "inputs": [
        {
          "indexed": true,
          "internalType": "address",
          "name": "owner",
          "type": "address"
        },
        {
          "indexed": true,
          "internalType": "address",
          "name": "approved",
          "type": "address"
        },
        {
          "indexed": true,
          "internalType": "uint256",
          "name": "tokenId",
          "type": "uint256"
        }
      ],
      "name": "Approval",
      "type": "event"
    },
    {
      "anonymous": false,
      "inputs": [
        {
          "indexed": true,
          "internalType": "address",
          "name": "owner",
          "type": "address"
        },
        {
          "indexed": true,
          "internalType": "address",
          "name": "operator",
          "type": "address"
        },
        {
          "indexed": false,
          "internalType": "bool",
          "name": "approved",
          "type": "bool"
        }
      ],
      "name": "ApprovalForAll",
      "type": "event"
    },
    {
      "anonymous": false,
      "inputs": [
        {
          "indexed": true,
          "internalType": "address",
          "name": "from",
          "type": "address"
        },
        {
          "indexed": true,
          "internalType": "address",
          "name": "to",
          "type": "address"
        },
        {
          "indexed": true,
          "internalType": "uint256",
          "name": "tokenId",
          "type": "uint256"
        }
      ],
      "name": "Transfer",
      "type": "event"
    },
    {
      "inputs": [
        {
          "internalType": "uint256",
          "name": "_storyId",
          "type": "uint256"
        }
      ],
      "name": "addLike",
      "outputs": [],
      "stateMutability": "nonpayable",
      "type": "function"
    },
    {
      "inputs": [
        {
          "internalType": "address",
          "name": "to",
          "type": "address"
        },
        {
          "internalType": "uint256",
          "name": "tokenId",
          "type": "uint256"
        }
      ],
      "name": "approve",
      "outputs": [],
      "stateMutability": "nonpayable",
      "type": "function"
    },
    {
      "inputs": [
        {
          "internalType": "uint256",
          "name": "",
          "type": "uint256"
        }
      ],
      "name": "avatars",
      "outputs": [
        {
          "internalType": "string",
          "name": "",
          "type": "string"
        }
      ],
      "stateMutability": "view",
      "type": "function"
    },
    {
      "inputs": [
        {
          "internalType": "address",
          "name": "owner",
          "type": "address"
        }
      ],
      "name": "balanceOf",
      "outputs": [
        {
          "internalType": "uint256",
          "name": "",
          "type": "uint256"
        }
      ],
      "stateMutability": "view",
      "type": "function"
    },
    {
      "inputs": [
        {
          "internalType": "uint256",
          "name": "_storyId",
          "type": "uint256"
        },
        {
          "internalType": "uint256",
          "name": "_tokenId",
          "type": "uint256"
        }
      ],
      "name": "burnNft",
      "outputs": [],
      "stateMutability": "nonpayable",
      "type": "function"
    },
    {
      "inputs": [
        {
          "internalType": "uint256",
          "name": "_tokenId",
          "type": "uint256"
        },
        {
          "internalType": "uint256",
          "name": "_storyId",
          "type": "uint256"
        }
      ],
      "name": "buyNft",
      "outputs": [],
      "stateMutability": "payable",
      "type": "function"
    },
    {
      "inputs": [
        {
          "internalType": "string",
          "name": "_storyTitle",
          "type": "string"
        },
        {
          "internalType": "string[]",
          "name": "_tags",
          "type": "string[]"
        },
        {
          "internalType": "string",
          "name": "_storyBody",
          "type": "string"
        }
      ],
      "name": "createStory",
      "outputs": [],
      "stateMutability": "nonpayable",
      "type": "function"
    },
    {
      "inputs": [
        {
          "internalType": "string",
          "name": "_name",
          "type": "string"
        },
        {
          "internalType": "string",
          "name": "_biography",
          "type": "string"
        },
        {
          "internalType": "uint256",
          "name": "_avatar",
          "type": "uint256"
        }
      ],
      "name": "createUserProfile",
      "outputs": [],
      "stateMutability": "nonpayable",
      "type": "function"
    },
    {
      "inputs": [
        {
          "internalType": "string",
          "name": "_storyTitle",
          "type": "string"
        },
        {
          "internalType": "string[]",
          "name": "tags",
          "type": "string[]"
        },
        {
          "internalType": "string",
          "name": "_storyBody",
          "type": "string"
        },
        {
          "internalType": "uint256",
          "name": "_storyId",
          "type": "uint256"
        }
      ],
      "name": "editStory",
      "outputs": [],
      "stateMutability": "nonpayable",
      "type": "function"
    },
    {
      "inputs": [
        {
          "internalType": "string",
          "name": "_name",
          "type": "string"
        },
        {
          "internalType": "string",
          "name": "_biography",
          "type": "string"
        },
        {
          "internalType": "uint256",
          "name": "_avatar",
          "type": "uint256"
        }
      ],
      "name": "editUserProfile",
      "outputs": [],
      "stateMutability": "nonpayable",
      "type": "function"
    },
    {
      "inputs": [],
      "name": "getAllAvatar",
      "outputs": [
        {
          "internalType": "string[]",
          "name": "",
          "type": "string[]"
        }
      ],
      "stateMutability": "view",
      "type": "function"
    },
    {
      "inputs": [],
      "name": "getAllStories",
      "outputs": [
        {
          "components": [
            {
              "internalType": "string",
              "name": "storyTitle",
              "type": "string"
            },
            {
              "internalType": "string[]",
              "name": "tags",
              "type": "string[]"
            },
            {
              "internalType": "string",
              "name": "storyBody",
              "type": "string"
            },
            {
              "internalType": "string",
              "name": "dataURI",
              "type": "string"
            },
            {
              "internalType": "uint256",
              "name": "createDate",
              "type": "uint256"
            },
            {
              "internalType": "uint256",
              "name": "updateDate",
              "type": "uint256"
            },
            {
              "internalType": "uint256",
              "name": "numLike",
              "type": "uint256"
            },
            {
              "internalType": "uint256",
              "name": "storyId",
              "type": "uint256"
            },
            {
              "internalType": "uint256",
              "name": "tokenId",
              "type": "uint256"
            },
            {
              "internalType": "address",
              "name": "authorAddress",
              "type": "address"
            },
            {
              "internalType": "address[]",
              "name": "likeUserAdress",
              "type": "address[]"
            }
          ],
          "internalType": "struct RecoveryStory.Story[]",
          "name": "",
          "type": "tuple[]"
        }
      ],
      "stateMutability": "view",
      "type": "function"
    },
    {
      "inputs": [
        {
          "internalType": "uint256",
          "name": "tokenId",
          "type": "uint256"
        }
      ],
      "name": "getApproved",
      "outputs": [
        {
          "internalType": "address",
          "name": "",
          "type": "address"
        }
      ],
      "stateMutability": "view",
      "type": "function"
    },
    {
      "inputs": [
        {
          "internalType": "address",
          "name": "_authorAddress",
          "type": "address"
        }
      ],
      "name": "getAuthor",
      "outputs": [
        {
          "internalType": "string",
          "name": "",
          "type": "string"
        }
      ],
      "stateMutability": "view",
      "type": "function"
    },
    {
      "inputs": [],
      "name": "getUserProfile",
      "outputs": [
        {
          "internalType": "string",
          "name": "",
          "type": "string"
        },
        {
          "internalType": "string",
          "name": "",
          "type": "string"
        },
        {
          "internalType": "string",
          "name": "",
          "type": "string"
        },
        {
          "internalType": "address",
          "name": "",
          "type": "address"
        }
      ],
      "stateMutability": "view",
      "type": "function"
    },
    {
      "inputs": [
        {
          "internalType": "address",
          "name": "owner",
          "type": "address"
        },
        {
          "internalType": "address",
          "name": "operator",
          "type": "address"
        }
      ],
      "name": "isApprovedForAll",
      "outputs": [
        {
          "internalType": "bool",
          "name": "",
          "type": "bool"
        }
      ],
      "stateMutability": "view",
      "type": "function"
    },
    {
      "inputs": [
        {
          "internalType": "string",
          "name": "_title",
          "type": "string"
        }
      ],
      "name": "mintNFT",
      "outputs": [
        {
          "internalType": "string",
          "name": "",
          "type": "string"
        },
        {
          "internalType": "uint256",
          "name": "",
          "type": "uint256"
        }
      ],
      "stateMutability": "nonpayable",
      "type": "function"
    },
    {
      "inputs": [],
      "name": "name",
      "outputs": [
        {
          "internalType": "string",
          "name": "",
          "type": "string"
        }
      ],
      "stateMutability": "view",
      "type": "function"
    },
    {
      "inputs": [
        {
          "internalType": "uint256",
          "name": "tokenId",
          "type": "uint256"
        }
      ],
      "name": "ownerOf",
      "outputs": [
        {
          "internalType": "address",
          "name": "",
          "type": "address"
        }
      ],
      "stateMutability": "view",
      "type": "function"
    },
    {
      "inputs": [
        {
          "internalType": "address",
          "name": "from",
          "type": "address"
        },
        {
          "internalType": "address",
          "name": "to",
          "type": "address"
        },
        {
          "internalType": "uint256",
          "name": "tokenId",
          "type": "uint256"
        }
      ],
      "name": "safeTransferFrom",
      "outputs": [],
      "stateMutability": "nonpayable",
      "type": "function"
    },
    {
      "inputs": [
        {
          "internalType": "address",
          "name": "from",
          "type": "address"
        },
        {
          "internalType": "address",
          "name": "to",
          "type": "address"
        },
        {
          "internalType": "uint256",
          "name": "tokenId",
          "type": "uint256"
        },
        {
          "internalType": "bytes",
          "name": "data",
          "type": "bytes"
        }
      ],
      "name": "safeTransferFrom",
      "outputs": [],
      "stateMutability": "nonpayable",
      "type": "function"
    },
    {
      "inputs": [
        {
          "internalType": "address",
          "name": "operator",
          "type": "address"
        },
        {
          "internalType": "bool",
          "name": "approved",
          "type": "bool"
        }
      ],
      "name": "setApprovalForAll",
      "outputs": [],
      "stateMutability": "nonpayable",
      "type": "function"
    },
    {
      "inputs": [
        {
          "internalType": "uint256",
          "name": "",
          "type": "uint256"
        }
      ],
      "name": "story",
      "outputs": [
        {
          "internalType": "string",
          "name": "storyTitle",
          "type": "string"
        },
        {
          "internalType": "string",
          "name": "storyBody",
          "type": "string"
        },
        {
          "internalType": "string",
          "name": "dataURI",
          "type": "string"
        },
        {
          "internalType": "uint256",
          "name": "createDate",
          "type": "uint256"
        },
        {
          "internalType": "uint256",
          "name": "updateDate",
          "type": "uint256"
        },
        {
          "internalType": "uint256",
          "name": "numLike",
          "type": "uint256"
        },
        {
          "internalType": "uint256",
          "name": "storyId",
          "type": "uint256"
        },
        {
          "internalType": "uint256",
          "name": "tokenId",
          "type": "uint256"
        },
        {
          "internalType": "address",
          "name": "authorAddress",
          "type": "address"
        }
      ],
      "stateMutability": "view",
      "type": "function"
    },
    {
      "inputs": [],
      "name": "storyIdCounter",
      "outputs": [
        {
          "internalType": "uint256",
          "name": "",
          "type": "uint256"
        }
      ],
      "stateMutability": "view",
      "type": "function"
    },
    {
      "inputs": [
        {
          "internalType": "bytes4",
          "name": "interfaceId",
          "type": "bytes4"
        }
      ],
      "name": "supportsInterface",
      "outputs": [
        {
          "internalType": "bool",
          "name": "",
          "type": "bool"
        }
      ],
      "stateMutability": "view",
      "type": "function"
    },
    {
      "inputs": [],
      "name": "symbol",
      "outputs": [
        {
          "internalType": "string",
          "name": "",
          "type": "string"
        }
      ],
      "stateMutability": "view",
      "type": "function"
    },
    {
      "inputs": [
        {
          "internalType": "uint256",
          "name": "tokenId",
          "type": "uint256"
        }
      ],
      "name": "tokenURI",
      "outputs": [
        {
          "internalType": "string",
          "name": "",
          "type": "string"
        }
      ],
      "stateMutability": "view",
      "type": "function"
    },
    {
      "inputs": [
        {
          "internalType": "address",
          "name": "from",
          "type": "address"
        },
        {
          "internalType": "address",
          "name": "to",
          "type": "address"
        },
        {
          "internalType": "uint256",
          "name": "tokenId",
          "type": "uint256"
        }
      ],
      "name": "transferFrom",
      "outputs": [],
      "stateMutability": "nonpayable",
      "type": "function"
    },
    {
      "inputs": [],
      "name": "userIdCounter",
      "outputs": [
        {
          "internalType": "uint256",
          "name": "",
          "type": "uint256"
        }
      ],
      "stateMutability": "view",
      "type": "function"
    },
    {
      "inputs": [
        {
          "internalType": "uint256",
          "name": "",
          "type": "uint256"
        }
      ],
      "name": "userProfile",
      "outputs": [
        {
          "internalType": "string",
          "name": "name",
          "type": "string"
        },
        {
          "internalType": "string",
          "name": "avatar",
          "type": "string"
        },
        {
          "internalType": "string",
          "name": "biography",
          "type": "string"
        },
        {
          "internalType": "address",
          "name": "walletAddress",
          "type": "address"
        }
      ],
      "stateMutability": "view",
      "type": "function"
    }
  ],
  "bytecode": "0x608060405260405180610180016040528061014c815260200162006a4b61014c91396008908051906020019062000038929190620002b4565b5066038d7ea4c68000600a556001600d556001600e553480156200005b57600080fd5b506040518060400160405280601081526020017f5265636f7665727953746f72794e4654000000000000000000000000000000008152506040518060400160405280600381526020017f52534e00000000000000000000000000000000000000000000000000000000008152508160009080519060200190620000e0929190620002b4565b508060019080519060200190620000f9929190620002b4565b5050506200012b604051806060016040528060238152602001620069cc60239139620001e860201b62002dd51760201c565b6040518060a001604052806040518060600160405280602e815260200162006b97602e913981526020016040518060600160405280602e8152602001620069ef602e913981526020016040518060600160405280602e81526020016200699e602e913981526020016040518060600160405280602e815260200162006970602e913981526020016040518060600160405280602e815260200162006a1d602e91398152506009906005620001e192919062000345565b5062000566565b6200028881604051602401620001ff9190620004dd565b6040516020818303038152906040527f41304fac000000000000000000000000000000000000000000000000000000007bffffffffffffffffffffffffffffffffffffffffffffffffffffffff19166020820180517bffffffffffffffffffffffffffffffffffffffffffffffffffffffff83818316178352505050506200028b60201b60201c565b50565b60008151905060006a636f6e736f6c652e6c6f679050602083016000808483855afa5050505050565b828054620002c29062000530565b90600052602060002090601f016020900481019282620002e6576000855562000332565b82601f106200030157805160ff191683800117855562000332565b8280016001018555821562000332579182015b828111156200033157825182559160200191906001019062000314565b5b509050620003419190620003ac565b5090565b82805482825590600052602060002090810192821562000399579160200282015b828111156200039857825182908051906020019062000387929190620002b4565b509160200191906001019062000366565b5b509050620003a89190620003cb565b5090565b5b80821115620003c7576000816000905550600101620003ad565b5090565b5b80821115620003ef5760008181620003e59190620003f3565b50600101620003cc565b5090565b508054620004019062000530565b6000825580601f1062000415575062000436565b601f016020900490600052602060002090810190620004359190620003ac565b5b50565b600081519050919050565b600082825260208201905092915050565b60005b838110156200047557808201518184015260208101905062000458565b8381111562000485576000848401525b50505050565b6000601f19601f8301169050919050565b6000620004a98262000439565b620004b5818562000444565b9350620004c781856020860162000455565b620004d2816200048b565b840191505092915050565b60006020820190508181036000830152620004f981846200049c565b905092915050565b7f4e487b7100000000000000000000000000000000000000000000000000000000600052602260045260246000fd5b600060028204905060018216806200054957607f821691505b6020821081141562000560576200055f62000501565b5b50919050565b6163fa80620005766000396000f3fe6080604052600436106101cd5760003560e01c80636decda91116100f7578063b88d4fde11610095578063df2894b711610064578063df2894b7146106a6578063e985e9c5146106d1578063f37181f41461070e578063fb37e8831461074e576101cd565b8063b88d4fde146105d2578063beba8bbe146105fb578063c87b56dd14610640578063ce8c35fd1461067d576101cd565b806377c72c3a116100d157806377c72c3a14610518578063834d5fac1461054157806395d89b411461057e578063a22cb465146105a9576101cd565b80636decda91146104845780636f61c744146104ad57806370a08231146104db576101cd565b80632a86f3251161016f57806342842e0e1161013e57806342842e0e146103d957806345af195114610402578063556f80841461042b5780636352211e14610447576101cd565b80632a86f325146103315780632faba6ae1461035a578063378a35cd1461038557806338a3bdc8146103ae576101cd565b8063095ea7b3116101ab578063095ea7b3146102775780630ab30093146102a0578063191bbe2a146102dd57806323b872dd14610308576101cd565b806301ffc9a7146101d257806306fdde031461020f578063081812fc1461023a575b600080fd5b3480156101de57600080fd5b506101f960048036038101906101f4919061425e565b61078c565b60405161020691906142a6565b60405180910390f35b34801561021b57600080fd5b5061022461086e565b604051610231919061435a565b60405180910390f35b34801561024657600080fd5b50610261600480360381019061025c91906143b2565b610900565b60405161026e9190614420565b60405180910390f35b34801561028357600080fd5b5061029e60048036038101906102999190614467565b610946565b005b3480156102ac57600080fd5b506102c760048036038101906102c291906144a7565b610a5e565b6040516102d4919061435a565b60405180910390f35b3480156102e957600080fd5b506102f2610be8565b6040516102ff919061487a565b60405180910390f35b34801561031457600080fd5b5061032f600480360381019061032a919061489c565b610fed565b005b34801561033d57600080fd5b5061035860048036038101906103539190614a24565b61104d565b005b34801561036657600080fd5b5061036f611200565b60405161037c9190614abe565b60405180910390f35b34801561039157600080fd5b506103ac60048036038101906103a791906143b2565b611206565b005b3480156103ba57600080fd5b506103c3611557565b6040516103d09190614abe565b60405180910390f35b3480156103e557600080fd5b5061040060048036038101906103fb919061489c565b61155d565b005b34801561040e57600080fd5b5061042960048036038101906104249190614ad9565b61157d565b005b61044560048036038101906104409190614ad9565b611649565b005b34801561045357600080fd5b5061046e600480360381019061046991906143b2565b611877565b60405161047b9190614420565b60405180910390f35b34801561049057600080fd5b506104ab60048036038101906104a69190614bff565b611929565b005b3480156104b957600080fd5b506104c2611b58565b6040516104d29493929190614ca6565b60405180910390f35b3480156104e757600080fd5b5061050260048036038101906104fd91906144a7565b611e98565b60405161050f9190614abe565b60405180910390f35b34801561052457600080fd5b5061053f600480360381019061053a9190614a24565b611f50565b005b34801561054d57600080fd5b50610568600480360381019061056391906143b2565b6121d8565b604051610575919061435a565b60405180910390f35b34801561058a57600080fd5b50610593612284565b6040516105a0919061435a565b60405180910390f35b3480156105b557600080fd5b506105d060048036038101906105cb9190614d2c565b612316565b005b3480156105de57600080fd5b506105f960048036038101906105f49190614e0d565b61232c565b005b34801561060757600080fd5b50610622600480360381019061061d91906143b2565b61238e565b60405161063799989796959493929190614e90565b60405180910390f35b34801561064c57600080fd5b50610667600480360381019061066291906143b2565b6125a4565b604051610674919061435a565b60405180910390f35b34801561068957600080fd5b506106a4600480360381019061069f9190614f32565b6126b7565b005b3480156106b257600080fd5b506106bb612884565b6040516106c89190615073565b60405180910390f35b3480156106dd57600080fd5b506106f860048036038101906106f39190615095565b61295d565b60405161070591906142a6565b60405180910390f35b34801561071a57600080fd5b50610735600480360381019061073091906143b2565b6129f1565b6040516107459493929190614ca6565b60405180910390f35b34801561075a57600080fd5b50610775600480360381019061077091906150d5565b612be9565b60405161078392919061511e565b60405180910390f35b60007f80ac58cd000000000000000000000000000000000000000000000000000000007bffffffffffffffffffffffffffffffffffffffffffffffffffffffff1916827bffffffffffffffffffffffffffffffffffffffffffffffffffffffff1916148061085757507f5b5e139f000000000000000000000000000000000000000000000000000000007bffffffffffffffffffffffffffffffffffffffffffffffffffffffff1916827bffffffffffffffffffffffffffffffffffffffffffffffffffffffff1916145b80610867575061086682612e6e565b5b9050919050565b60606000805461087d9061517d565b80601f01602080910402602001604051908101604052809291908181526020018280546108a99061517d565b80156108f65780601f106108cb576101008083540402835291602001916108f6565b820191906000526020600020905b8154815290600101906020018083116108d957829003601f168201915b5050505050905090565b600061090b82612ed8565b6004600083815260200190815260200160002060009054906101000a900473ffffffffffffffffffffffffffffffffffffffff169050919050565b600061095182611877565b90508073ffffffffffffffffffffffffffffffffffffffff168373ffffffffffffffffffffffffffffffffffffffff1614156109c2576040517f08c379a00000000000000000000000000000000000000000000000000000000081526004016109b990615221565b60405180910390fd5b8073ffffffffffffffffffffffffffffffffffffffff166109e1612f23565b73ffffffffffffffffffffffffffffffffffffffff161480610a105750610a0f81610a0a612f23565b61295d565b5b610a4f576040517f08c379a0000000000000000000000000000000000000000000000000000000008152600401610a46906152b3565b60405180910390fd5b610a598383612f2b565b505050565b60606000600f60008473ffffffffffffffffffffffffffffffffffffffff1673ffffffffffffffffffffffffffffffffffffffff1681526020019081526020016000205411610ae2576040517f08c379a0000000000000000000000000000000000000000000000000000000008152600401610ad990615345565b60405180910390fd5b60006001600f60008573ffffffffffffffffffffffffffffffffffffffff1673ffffffffffffffffffffffffffffffffffffffff16815260200190815260200160002054610b309190615394565b9050600b8181548110610b4657610b456153c8565b5b90600052602060002090600402016000018054610b629061517d565b80601f0160208091040260200160405190810160405280929190818152602001828054610b8e9061517d565b8015610bdb5780601f10610bb057610100808354040283529160200191610bdb565b820191906000526020600020905b815481529060010190602001808311610bbe57829003601f168201915b5050505050915050919050565b6060600c805480602002602001604051908101604052809291908181526020016000905b82821015610fe457838290600052602060002090600b020160405180610160016040529081600082018054610c409061517d565b80601f0160208091040260200160405190810160405280929190818152602001828054610c6c9061517d565b8015610cb95780601f10610c8e57610100808354040283529160200191610cb9565b820191906000526020600020905b815481529060010190602001808311610c9c57829003601f168201915b5050505050815260200160018201805480602002602001604051908101604052809291908181526020016000905b82821015610d93578382906000526020600020018054610d069061517d565b80601f0160208091040260200160405190810160405280929190818152602001828054610d329061517d565b8015610d7f5780601f10610d5457610100808354040283529160200191610d7f565b820191906000526020600020905b815481529060010190602001808311610d6257829003601f168201915b505050505081526020019060010190610ce7565b505050508152602001600282018054610dab9061517d565b80601f0160208091040260200160405190810160405280929190818152602001828054610dd79061517d565b8015610e245780601f10610df957610100808354040283529160200191610e24565b820191906000526020600020905b815481529060010190602001808311610e0757829003601f168201915b50505050508152602001600382018054610e3d9061517d565b80601f0160208091040260200160405190810160405280929190818152602001828054610e699061517d565b8015610eb65780601f10610e8b57610100808354040283529160200191610eb6565b820191906000526020600020905b815481529060010190602001808311610e9957829003601f168201915b5050505050815260200160048201548152602001600582015481526020016006820154815260200160078201548152602001600882015481526020016009820160009054906101000a900473ffffffffffffffffffffffffffffffffffffffff1673ffffffffffffffffffffffffffffffffffffffff1673ffffffffffffffffffffffffffffffffffffffff168152602001600a8201805480602002602001604051908101604052809291908181526020018280548015610fcc57602002820191906000526020600020905b8160009054906101000a900473ffffffffffffffffffffffffffffffffffffffff1673ffffffffffffffffffffffffffffffffffffffff1681526020019060010190808311610f82575b50505050508152505081526020019060010190610c0c565b50505050905090565b610ffe610ff8612f23565b82612fe4565b61103d576040517f08c379a000000000000000000000000000000000000000000000000000000000815260040161103490615469565b60405180910390fd5b611048838383613079565b505050565b6000600f60003373ffffffffffffffffffffffffffffffffffffffff1673ffffffffffffffffffffffffffffffffffffffff16815260200190815260200160002054116110cf576040517f08c379a00000000000000000000000000000000000000000000000000000000081526004016110c690615345565b60405180910390fd5b60006001600f60003373ffffffffffffffffffffffffffffffffffffffff1673ffffffffffffffffffffffffffffffffffffffff1681526020019081526020016000205461111d9190615394565b905083600b8281548110611134576111336153c8565b5b90600052602060002090600402016000019080519060200190611158929190613f74565b5060096001836111689190615394565b81548110611179576111786153c8565b5b90600052602060002001600b8281548110611197576111966153c8565b5b90600052602060002090600402016001019080546111b49061517d565b6111bf929190613ffa565b5082600b82815481106111d5576111d46153c8565b5b906000526020600020906004020160020190805190602001906111f9929190613f74565b5050505050565b600e5481565b6000600c6001836112179190615394565b81548110611228576112276153c8565b5b90600052602060002090600b0201600701541161127a576040517f08c379a0000000000000000000000000000000000000000000000000000000008152600401611271906154fb565b60405180910390fd5b3373ffffffffffffffffffffffffffffffffffffffff16600c6001836112a09190615394565b815481106112b1576112b06153c8565b5b90600052602060002090600b020160090160009054906101000a900473ffffffffffffffffffffffffffffffffffffffff1673ffffffffffffffffffffffffffffffffffffffff1614611339576040517f08c379a000000000000000000000000000000000000000000000000000000000815260040161133090615567565b60405180910390fd5b6000805b600c60018461134c9190615394565b8154811061135d5761135c6153c8565b5b90600052602060002090600b0201600a0180549050811015611432573373ffffffffffffffffffffffffffffffffffffffff16600c60018561139f9190615394565b815481106113b0576113af6153c8565b5b90600052602060002090600b0201600a0182815481106113d3576113d26153c8565b5b9060005260206000200160009054906101000a900473ffffffffffffffffffffffffffffffffffffffff1673ffffffffffffffffffffffffffffffffffffffff16141561141f57600191505b808061142a90615587565b91505061133d565b50600015158115151461147a576040517f08c379a000000000000000000000000000000000000000000000000000000000815260040161147190615642565b60405180910390fd5b600c6001836114899190615394565b8154811061149a576114996153c8565b5b90600052602060002090600b020160060160008154809291906114bc90615587565b9190505550600c6001836114d09190615394565b815481106114e1576114e06153c8565b5b90600052602060002090600b0201600a01339080600181540180825580915050600190039060005260206000200160009091909190916101000a81548173ffffffffffffffffffffffffffffffffffffffff021916908373ffffffffffffffffffffffffffffffffffffffff1602179055505050565b600d5481565b6115788383836040518060200160405280600081525061232c565b505050565b3373ffffffffffffffffffffffffffffffffffffffff16600c6001846115a39190615394565b815481106115b4576115b36153c8565b5b90600052602060002090600b020160090160009054906101000a900473ffffffffffffffffffffffffffffffffffffffff1673ffffffffffffffffffffffffffffffffffffffff161461163c576040517f08c379a0000000000000000000000000000000000000000000000000000000008152600401611633906156d4565b60405180910390fd5b611645816132e0565b5050565b60006010600060018461165c9190615394565b815260200190815260200160002060009054906101000a900473ffffffffffffffffffffffffffffffffffffffff1690506010600060018461169e9190615394565b815260200190815260200160002060009054906101000a900473ffffffffffffffffffffffffffffffffffffffff1673ffffffffffffffffffffffffffffffffffffffff163373ffffffffffffffffffffffffffffffffffffffff16141561173b576040517f08c379a000000000000000000000000000000000000000000000000000000000815260040161173290615740565b60405180910390fd5b336010600060018561174d9190615394565b815260200190815260200160002060006101000a81548173ffffffffffffffffffffffffffffffffffffffff021916908373ffffffffffffffffffffffffffffffffffffffff1602179055506000600a54600c6001856117ad9190615394565b815481106117be576117bd6153c8565b5b90600052602060002090600b0201600601546117da9190615760565b90508034101561181f576040517f08c379a000000000000000000000000000000000000000000000000000000000815260040161181690615806565b60405180910390fd5b61182a82338661155d565b8173ffffffffffffffffffffffffffffffffffffffff166108fc349081150290604051600060405180830381858888f19350505050158015611870573d6000803e3d6000fd5b5050505050565b6000806002600084815260200190815260200160002060009054906101000a900473ffffffffffffffffffffffffffffffffffffffff169050600073ffffffffffffffffffffffffffffffffffffffff168173ffffffffffffffffffffffffffffffffffffffff161415611920576040517f08c379a000000000000000000000000000000000000000000000000000000000815260040161191790615872565b60405180910390fd5b80915050919050565b606080600061193786612be9565b8092508193505050600060405180610160016040528088815260200187815260200186815260200184815260200142815260200142815260200160008152602001600d5481526020018381526020013373ffffffffffffffffffffffffffffffffffffffff168152602001858152509050600c8190806001815401808255809150506001900390600052602060002090600b020160009091909190915060008201518160000190805190602001906119f0929190613f74565b506020820151816001019080519060200190611a0d929190614087565b506040820151816002019080519060200190611a2a929190613f74565b506060820151816003019080519060200190611a47929190613f74565b506080820151816004015560a0820151816005015560c0820151816006015560e0820151816007015561010082015181600801556101208201518160090160006101000a81548173ffffffffffffffffffffffffffffffffffffffff021916908373ffffffffffffffffffffffffffffffffffffffff16021790555061014082015181600a019080519060200190611ae09291906140e7565b5050503360106000600d54815260200190815260200160002060006101000a81548173ffffffffffffffffffffffffffffffffffffffff021916908373ffffffffffffffffffffffffffffffffffffffff160217905550600d6000815480929190611b4a90615587565b919050555050505050505050565b6060806060600080600f60003373ffffffffffffffffffffffffffffffffffffffff1673ffffffffffffffffffffffffffffffffffffffff1681526020019081526020016000205411611be0576040517f08c379a0000000000000000000000000000000000000000000000000000000008152600401611bd790615345565b60405180910390fd5b60006001600f60003373ffffffffffffffffffffffffffffffffffffffff1673ffffffffffffffffffffffffffffffffffffffff16815260200190815260200160002054611c2e9190615394565b9050600b8181548110611c4457611c436153c8565b5b9060005260206000209060040201600001600b8281548110611c6957611c686153c8565b5b9060005260206000209060040201600101600b8381548110611c8e57611c8d6153c8565b5b9060005260206000209060040201600201600b8481548110611cb357611cb26153c8565b5b906000526020600020906004020160030160009054906101000a900473ffffffffffffffffffffffffffffffffffffffff16838054611cf19061517d565b80601f0160208091040260200160405190810160405280929190818152602001828054611d1d9061517d565b8015611d6a5780601f10611d3f57610100808354040283529160200191611d6a565b820191906000526020600020905b815481529060010190602001808311611d4d57829003601f168201915b50505050509350828054611d7d9061517d565b80601f0160208091040260200160405190810160405280929190818152602001828054611da99061517d565b8015611df65780601f10611dcb57610100808354040283529160200191611df6565b820191906000526020600020905b815481529060010190602001808311611dd957829003601f168201915b50505050509250818054611e099061517d565b80601f0160208091040260200160405190810160405280929190818152602001828054611e359061517d565b8015611e825780601f10611e5757610100808354040283529160200191611e82565b820191906000526020600020905b815481529060010190602001808311611e6557829003601f168201915b5050505050915094509450945094505090919293565b60008073ffffffffffffffffffffffffffffffffffffffff168273ffffffffffffffffffffffffffffffffffffffff161415611f09576040517f08c379a0000000000000000000000000000000000000000000000000000000008152600401611f0090615904565b60405180910390fd5b600360008373ffffffffffffffffffffffffffffffffffffffff1673ffffffffffffffffffffffffffffffffffffffff168152602001908152602001600020549050919050565b6000600f60003373ffffffffffffffffffffffffffffffffffffffff1673ffffffffffffffffffffffffffffffffffffffff168152602001908152602001600020541415611fd3576040517f08c379a0000000000000000000000000000000000000000000000000000000008152600401611fca90615970565b60405180910390fd5b600060405180608001604052808581526020018481526020016009600185611ffb9190615394565b8154811061200c5761200b6153c8565b5b9060005260206000200180546120219061517d565b80601f016020809104026020016040519081016040528092919081815260200182805461204d9061517d565b801561209a5780601f1061206f5761010080835404028352916020019161209a565b820191906000526020600020905b81548152906001019060200180831161207d57829003601f168201915b505050505081526020013373ffffffffffffffffffffffffffffffffffffffff168152509050600b8190806001815401808255809150506001900390600052602060002090600402016000909190919091506000820151816000019080519060200190612108929190613f74565b506020820151816001019080519060200190612125929190613f74565b506040820151816002019080519060200190612142929190613f74565b5060608201518160030160006101000a81548173ffffffffffffffffffffffffffffffffffffffff021916908373ffffffffffffffffffffffffffffffffffffffff1602179055505050600e54600f60003373ffffffffffffffffffffffffffffffffffffffff1673ffffffffffffffffffffffffffffffffffffffff1681526020019081526020016000208190555050505050565b600981815481106121e857600080fd5b9060005260206000200160009150905080546122039061517d565b80601f016020809104026020016040519081016040528092919081815260200182805461222f9061517d565b801561227c5780601f106122515761010080835404028352916020019161227c565b820191906000526020600020905b81548152906001019060200180831161225f57829003601f168201915b505050505081565b6060600180546122939061517d565b80601f01602080910402602001604051908101604052809291908181526020018280546122bf9061517d565b801561230c5780601f106122e15761010080835404028352916020019161230c565b820191906000526020600020905b8154815290600101906020018083116122ef57829003601f168201915b5050505050905090565b612328612321612f23565b8383613333565b5050565b61233d612337612f23565b83612fe4565b61237c576040517f08c379a000000000000000000000000000000000000000000000000000000000815260040161237390615469565b60405180910390fd5b612388848484846134a0565b50505050565b600c818154811061239e57600080fd5b90600052602060002090600b02016000915090508060000180546123c19061517d565b80601f01602080910402602001604051908101604052809291908181526020018280546123ed9061517d565b801561243a5780601f1061240f5761010080835404028352916020019161243a565b820191906000526020600020905b81548152906001019060200180831161241d57829003601f168201915b50505050509080600201805461244f9061517d565b80601f016020809104026020016040519081016040528092919081815260200182805461247b9061517d565b80156124c85780601f1061249d576101008083540402835291602001916124c8565b820191906000526020600020905b8154815290600101906020018083116124ab57829003601f168201915b5050505050908060030180546124dd9061517d565b80601f01602080910402602001604051908101604052809291908181526020018280546125099061517d565b80156125565780601f1061252b57610100808354040283529160200191612556565b820191906000526020600020905b81548152906001019060200180831161253957829003601f168201915b5050505050908060040154908060050154908060060154908060070154908060080154908060090160009054906101000a900473ffffffffffffffffffffffffffffffffffffffff16905089565b60606125af82612ed8565b60006006600084815260200190815260200160002080546125cf9061517d565b80601f01602080910402602001604051908101604052809291908181526020018280546125fb9061517d565b80156126485780601f1061261d57610100808354040283529160200191612648565b820191906000526020600020905b81548152906001019060200180831161262b57829003601f168201915b5050505050905060006126596134fc565b905060008151141561266f5781925050506126b2565b6000825111156126a457808260405160200161268c9291906159cc565b604051602081830303815290604052925050506126b2565b6126ad84613513565b925050505b919050565b3373ffffffffffffffffffffffffffffffffffffffff16600c6001836126dd9190615394565b815481106126ee576126ed6153c8565b5b90600052602060002090600b020160090160009054906101000a900473ffffffffffffffffffffffffffffffffffffffff1673ffffffffffffffffffffffffffffffffffffffff1614612776576040517f08c379a000000000000000000000000000000000000000000000000000000000815260040161276d90615a62565b60405180910390fd5b83600c6001836127869190615394565b81548110612797576127966153c8565b5b90600052602060002090600b020160000190805190602001906127bb929190613f74565b5082600c6001836127cc9190615394565b815481106127dd576127dc6153c8565b5b90600052602060002090600b02016001019080519060200190612801929190614087565b5081600c6001836128129190615394565b81548110612823576128226153c8565b5b90600052602060002090600b02016002019080519060200190612847929190613f74565b5042600c6001836128589190615394565b81548110612869576128686153c8565b5b90600052602060002090600b02016005018190555050505050565b60606009805480602002602001604051908101604052809291908181526020016000905b828210156129545783829060005260206000200180546128c79061517d565b80601f01602080910402602001604051908101604052809291908181526020018280546128f39061517d565b80156129405780601f1061291557610100808354040283529160200191612940565b820191906000526020600020905b81548152906001019060200180831161292357829003601f168201915b5050505050815260200190600101906128a8565b50505050905090565b6000600560008473ffffffffffffffffffffffffffffffffffffffff1673ffffffffffffffffffffffffffffffffffffffff16815260200190815260200160002060008373ffffffffffffffffffffffffffffffffffffffff1673ffffffffffffffffffffffffffffffffffffffff16815260200190815260200160002060009054906101000a900460ff16905092915050565b600b8181548110612a0157600080fd5b9060005260206000209060040201600091509050806000018054612a249061517d565b80601f0160208091040260200160405190810160405280929190818152602001828054612a509061517d565b8015612a9d5780601f10612a7257610100808354040283529160200191612a9d565b820191906000526020600020905b815481529060010190602001808311612a8057829003601f168201915b505050505090806001018054612ab29061517d565b80601f0160208091040260200160405190810160405280929190818152602001828054612ade9061517d565b8015612b2b5780601f10612b0057610100808354040283529160200191612b2b565b820191906000526020600020905b815481529060010190602001808311612b0e57829003601f168201915b505050505090806002018054612b409061517d565b80601f0160208091040260200160405190810160405280929190818152602001828054612b6c9061517d565b8015612bb95780601f10612b8e57610100808354040283529160200191612bb9565b820191906000526020600020905b815481529060010190602001808311612b9c57829003601f168201915b5050505050908060030160009054906101000a900473ffffffffffffffffffffffffffffffffffffffff16905084565b6060600080612bf8600761357b565b90506000600885604051602001612c10929190615b62565b6040516020818303038152906040529050612c5f6040518060400160405280601581526020017f0a2d2d2d2d2d205356472064617461202d2d2d2d2d0000000000000000000000815250612dd5565b612c6881612dd5565b612ca66040518060400160405280601581526020017f2d2d2d2d2d2d2d2d2d2d2d2d2d2d2d2d2d2d2d2d0a0000000000000000000000815250612dd5565b6000612cda86612cb584613589565b604051602001612cc6929190615d0d565b604051602081830303815290604052613589565b9050600081604051602001612cef9190615da9565b6040516020818303038152906040529050612d3e6040518060400160405280601581526020017f0a2d2d2d2d2d20546f6b656e20555249202d2d2d2d0000000000000000000000815250612dd5565b612d4781612dd5565b612d856040518060400160405280601581526020017f2d2d2d2d2d2d2d2d2d2d2d2d2d2d2d2d2d2d2d2d0a0000000000000000000000815250612dd5565b612d8f3385613721565b612d99848261373f565b612dbc6040518060600160405280602581526020016163606025913985336137b3565b612dc66007613852565b80849550955050505050915091565b612e6b81604051602401612de9919061435a565b6040516020818303038152906040527f41304fac000000000000000000000000000000000000000000000000000000007bffffffffffffffffffffffffffffffffffffffffffffffffffffffff19166020820180517bffffffffffffffffffffffffffffffffffffffffffffffffffffffff8381831617835250505050613868565b50565b60007f01ffc9a7000000000000000000000000000000000000000000000000000000007bffffffffffffffffffffffffffffffffffffffffffffffffffffffff1916827bffffffffffffffffffffffffffffffffffffffffffffffffffffffff1916149050919050565b612ee181613891565b612f20576040517f08c379a0000000000000000000000000000000000000000000000000000000008152600401612f1790615872565b60405180910390fd5b50565b600033905090565b816004600083815260200190815260200160002060006101000a81548173ffffffffffffffffffffffffffffffffffffffff021916908373ffffffffffffffffffffffffffffffffffffffff160217905550808273ffffffffffffffffffffffffffffffffffffffff16612f9e83611877565b73ffffffffffffffffffffffffffffffffffffffff167f8c5be1e5ebec7d5bd14f71427d1e84f3dd0314c0f7b2291e5b200ac8c7c3b92560405160405180910390a45050565b600080612ff083611877565b90508073ffffffffffffffffffffffffffffffffffffffff168473ffffffffffffffffffffffffffffffffffffffff1614806130325750613031818561295d565b5b8061307057508373ffffffffffffffffffffffffffffffffffffffff1661305884610900565b73ffffffffffffffffffffffffffffffffffffffff16145b91505092915050565b8273ffffffffffffffffffffffffffffffffffffffff1661309982611877565b73ffffffffffffffffffffffffffffffffffffffff16146130ef576040517f08c379a00000000000000000000000000000000000000000000000000000000081526004016130e690615e3d565b60405180910390fd5b600073ffffffffffffffffffffffffffffffffffffffff168273ffffffffffffffffffffffffffffffffffffffff16141561315f576040517f08c379a000000000000000000000000000000000000000000000000000000000815260040161315690615ecf565b60405180910390fd5b61316a8383836138fd565b613175600082612f2b565b6001600360008573ffffffffffffffffffffffffffffffffffffffff1673ffffffffffffffffffffffffffffffffffffffff16815260200190815260200160002060008282546131c59190615394565b925050819055506001600360008473ffffffffffffffffffffffffffffffffffffffff1673ffffffffffffffffffffffffffffffffffffffff168152602001908152602001600020600082825461321c9190615eef565b92505081905550816002600083815260200190815260200160002060006101000a81548173ffffffffffffffffffffffffffffffffffffffff021916908373ffffffffffffffffffffffffffffffffffffffff160217905550808273ffffffffffffffffffffffffffffffffffffffff168473ffffffffffffffffffffffffffffffffffffffff167fddf252ad1be2c89b69c2b068fc378daa952ba7f163c4a11628f55a4df523b3ef60405160405180910390a46132db838383613902565b505050565b6132e981613907565b60006006600083815260200190815260200160002080546133099061517d565b9050146133305760066000828152602001908152602001600020600061332f9190614171565b5b50565b8173ffffffffffffffffffffffffffffffffffffffff168373ffffffffffffffffffffffffffffffffffffffff1614156133a2576040517f08c379a000000000000000000000000000000000000000000000000000000000815260040161339990615f91565b60405180910390fd5b80600560008573ffffffffffffffffffffffffffffffffffffffff1673ffffffffffffffffffffffffffffffffffffffff16815260200190815260200160002060008473ffffffffffffffffffffffffffffffffffffffff1673ffffffffffffffffffffffffffffffffffffffff16815260200190815260200160002060006101000a81548160ff0219169083151502179055508173ffffffffffffffffffffffffffffffffffffffff168373ffffffffffffffffffffffffffffffffffffffff167f17307eab39ab6107e8899845ad3d59bd9653f200f220920489ca2b5937696c318360405161349391906142a6565b60405180910390a3505050565b6134ab848484613079565b6134b784848484613a24565b6134f6576040517f08c379a00000000000000000000000000000000000000000000000000000000081526004016134ed90616023565b60405180910390fd5b50505050565b606060405180602001604052806000815250905090565b606061351e82612ed8565b60006135286134fc565b905060008151116135485760405180602001604052806000815250613573565b8061355284613bbb565b6040516020016135639291906159cc565b6040516020818303038152906040525b915050919050565b600081600001549050919050565b606060008251905060008114156135b2576040518060200160405280600081525091505061371c565b600060036002836135c39190615eef565b6135cd9190616072565b60046135d99190615760565b905060006020826135ea9190615eef565b67ffffffffffffffff811115613603576136026148f9565b5b6040519080825280601f01601f1916602001820160405280156136355781602001600182028036833780820191505090505b5090506000604051806060016040528060408152602001616385604091399050600181016020830160005b868110156136d95760038101905062ffffff818a015116603f8160121c168401518060081b905060ff603f83600c1c1686015116810190508060081b905060ff603f8360061c1686015116810190508060081b905060ff603f831686015116810190508060e01b90508084526004840193505050613660565b5060038606600181146136f357600281146137035761370e565b613d3d60f01b600283035261370e565b603d60f81b60018303525b508484525050819450505050505b919050565b61373b828260405180602001604052806000815250613d1c565b5050565b61374882613891565b613787576040517f08c379a000000000000000000000000000000000000000000000000000000000815260040161377e90616115565b60405180910390fd5b806006600084815260200190815260200160002090805190602001906137ae929190613f74565b505050565b61384d8383836040516024016137cb93929190616135565b6040516020818303038152906040527f1c7ec448000000000000000000000000000000000000000000000000000000007bffffffffffffffffffffffffffffffffffffffffffffffffffffffff19166020820180517bffffffffffffffffffffffffffffffffffffffffffffffffffffffff8381831617835250505050613868565b505050565b6001816000016000828254019250508190555050565b60008151905060006a636f6e736f6c652e6c6f679050602083016000808483855afa5050505050565b60008073ffffffffffffffffffffffffffffffffffffffff166002600084815260200190815260200160002060009054906101000a900473ffffffffffffffffffffffffffffffffffffffff1673ffffffffffffffffffffffffffffffffffffffff1614159050919050565b505050565b505050565b600061391282611877565b9050613920816000846138fd565b61392b600083612f2b565b6001600360008373ffffffffffffffffffffffffffffffffffffffff1673ffffffffffffffffffffffffffffffffffffffff168152602001908152602001600020600082825461397b9190615394565b925050819055506002600083815260200190815260200160002060006101000a81549073ffffffffffffffffffffffffffffffffffffffff021916905581600073ffffffffffffffffffffffffffffffffffffffff168273ffffffffffffffffffffffffffffffffffffffff167fddf252ad1be2c89b69c2b068fc378daa952ba7f163c4a11628f55a4df523b3ef60405160405180910390a4613a2081600084613902565b5050565b6000613a458473ffffffffffffffffffffffffffffffffffffffff16613d77565b15613bae578373ffffffffffffffffffffffffffffffffffffffff1663150b7a02613a6e612f23565b8786866040518563ffffffff1660e01b8152600401613a9094939291906161c8565b602060405180830381600087803b158015613aaa57600080fd5b505af1925050508015613adb57506040513d601f19601f82011682018060405250810190613ad89190616229565b60015b613b5e573d8060008114613b0b576040519150601f19603f3d011682016040523d82523d6000602084013e613b10565b606091505b50600081511415613b56576040517f08c379a0000000000000000000000000000000000000000000000000000000008152600401613b4d90616023565b60405180910390fd5b805181602001fd5b63150b7a0260e01b7bffffffffffffffffffffffffffffffffffffffffffffffffffffffff1916817bffffffffffffffffffffffffffffffffffffffffffffffffffffffff191614915050613bb3565b600190505b949350505050565b60606000821415613c03576040518060400160405280600181526020017f30000000000000000000000000000000000000000000000000000000000000008152509050613d17565b600082905060005b60008214613c35578080613c1e90615587565b915050600a82613c2e9190616072565b9150613c0b565b60008167ffffffffffffffff811115613c5157613c506148f9565b5b6040519080825280601f01601f191660200182016040528015613c835781602001600182028036833780820191505090505b5090505b60008514613d1057600182613c9c9190615394565b9150600a85613cab9190616256565b6030613cb79190615eef565b60f81b818381518110613ccd57613ccc6153c8565b5b60200101907effffffffffffffffffffffffffffffffffffffffffffffffffffffffffffff1916908160001a905350600a85613d099190616072565b9450613c87565b8093505050505b919050565b613d268383613d9a565b613d336000848484613a24565b613d72576040517f08c379a0000000000000000000000000000000000000000000000000000000008152600401613d6990616023565b60405180910390fd5b505050565b6000808273ffffffffffffffffffffffffffffffffffffffff163b119050919050565b600073ffffffffffffffffffffffffffffffffffffffff168273ffffffffffffffffffffffffffffffffffffffff161415613e0a576040517f08c379a0000000000000000000000000000000000000000000000000000000008152600401613e01906162d3565b60405180910390fd5b613e1381613891565b15613e53576040517f08c379a0000000000000000000000000000000000000000000000000000000008152600401613e4a9061633f565b60405180910390fd5b613e5f600083836138fd565b6001600360008473ffffffffffffffffffffffffffffffffffffffff1673ffffffffffffffffffffffffffffffffffffffff1681526020019081526020016000206000828254613eaf9190615eef565b92505081905550816002600083815260200190815260200160002060006101000a81548173ffffffffffffffffffffffffffffffffffffffff021916908373ffffffffffffffffffffffffffffffffffffffff160217905550808273ffffffffffffffffffffffffffffffffffffffff16600073ffffffffffffffffffffffffffffffffffffffff167fddf252ad1be2c89b69c2b068fc378daa952ba7f163c4a11628f55a4df523b3ef60405160405180910390a4613f7060008383613902565b5050565b828054613f809061517d565b90600052602060002090601f016020900481019282613fa25760008555613fe9565b82601f10613fbb57805160ff1916838001178555613fe9565b82800160010185558215613fe9579182015b82811115613fe8578251825591602001919060010190613fcd565b5b509050613ff691906141b1565b5090565b8280546140069061517d565b90600052602060002090601f0160209004810192826140285760008555614076565b82601f106140395780548555614076565b8280016001018555821561407657600052602060002091601f016020900482015b8281111561407557825482559160010191906001019061405a565b5b50905061408391906141b1565b5090565b8280548282559060005260206000209081019282156140d6579160200282015b828111156140d55782518290805190602001906140c5929190613f74565b50916020019190600101906140a7565b5b5090506140e391906141ce565b5090565b828054828255906000526020600020908101928215614160579160200282015b8281111561415f5782518260006101000a81548173ffffffffffffffffffffffffffffffffffffffff021916908373ffffffffffffffffffffffffffffffffffffffff16021790555091602001919060010190614107565b5b50905061416d91906141b1565b5090565b50805461417d9061517d565b6000825580601f1061418f57506141ae565b601f0160209004906000526020600020908101906141ad91906141b1565b5b50565b5b808211156141ca5760008160009055506001016141b2565b5090565b5b808211156141ee57600081816141e59190614171565b506001016141cf565b5090565b6000604051905090565b600080fd5b600080fd5b60007fffffffff0000000000000000000000000000000000000000000000000000000082169050919050565b61423b81614206565b811461424657600080fd5b50565b60008135905061425881614232565b92915050565b600060208284031215614274576142736141fc565b5b600061428284828501614249565b91505092915050565b60008115159050919050565b6142a08161428b565b82525050565b60006020820190506142bb6000830184614297565b92915050565b600081519050919050565b600082825260208201905092915050565b60005b838110156142fb5780820151818401526020810190506142e0565b8381111561430a576000848401525b50505050565b6000601f19601f8301169050919050565b600061432c826142c1565b61433681856142cc565b93506143468185602086016142dd565b61434f81614310565b840191505092915050565b600060208201905081810360008301526143748184614321565b905092915050565b6000819050919050565b61438f8161437c565b811461439a57600080fd5b50565b6000813590506143ac81614386565b92915050565b6000602082840312156143c8576143c76141fc565b5b60006143d68482850161439d565b91505092915050565b600073ffffffffffffffffffffffffffffffffffffffff82169050919050565b600061440a826143df565b9050919050565b61441a816143ff565b82525050565b60006020820190506144356000830184614411565b92915050565b614444816143ff565b811461444f57600080fd5b50565b6000813590506144618161443b565b92915050565b6000806040838503121561447e5761447d6141fc565b5b600061448c85828601614452565b925050602061449d8582860161439d565b9150509250929050565b6000602082840312156144bd576144bc6141fc565b5b60006144cb84828501614452565b91505092915050565b600081519050919050565b600082825260208201905092915050565b6000819050602082019050919050565b600082825260208201905092915050565b600061451c826142c1565b6145268185614500565b93506145368185602086016142dd565b61453f81614310565b840191505092915050565b600081519050919050565b600082825260208201905092915050565b6000819050602082019050919050565b60006145828383614511565b905092915050565b6000602082019050919050565b60006145a28261454a565b6145ac8185614555565b9350836020820285016145be85614566565b8060005b858110156145fa57848403895281516145db8582614576565b94506145e68361458a565b925060208a019950506001810190506145c2565b50829750879550505050505092915050565b6146158161437c565b82525050565b614624816143ff565b82525050565b600081519050919050565b600082825260208201905092915050565b6000819050602082019050919050565b6000614662838361461b565b60208301905092915050565b6000602082019050919050565b60006146868261462a565b6146908185614635565b935061469b83614646565b8060005b838110156146cc5781516146b38882614656565b97506146be8361466e565b92505060018101905061469f565b5085935050505092915050565b60006101608301600083015184820360008601526146f78282614511565b915050602083015184820360208601526147118282614597565b9150506040830151848203604086015261472b8282614511565b915050606083015184820360608601526147458282614511565b915050608083015161475a608086018261460c565b5060a083015161476d60a086018261460c565b5060c083015161478060c086018261460c565b5060e083015161479360e086018261460c565b506101008301516147a861010086018261460c565b506101208301516147bd61012086018261461b565b506101408301518482036101408601526147d7828261467b565b9150508091505092915050565b60006147f083836146d9565b905092915050565b6000602082019050919050565b6000614810826144d4565b61481a81856144df565b93508360208202850161482c856144f0565b8060005b85811015614868578484038952815161484985826147e4565b9450614854836147f8565b925060208a01995050600181019050614830565b50829750879550505050505092915050565b600060208201905081810360008301526148948184614805565b905092915050565b6000806000606084860312156148b5576148b46141fc565b5b60006148c386828701614452565b93505060206148d486828701614452565b92505060406148e58682870161439d565b9150509250925092565b600080fd5b600080fd5b7f4e487b7100000000000000000000000000000000000000000000000000000000600052604160045260246000fd5b61493182614310565b810181811067ffffffffffffffff821117156149505761494f6148f9565b5b80604052505050565b60006149636141f2565b905061496f8282614928565b919050565b600067ffffffffffffffff82111561498f5761498e6148f9565b5b61499882614310565b9050602081019050919050565b82818337600083830152505050565b60006149c76149c284614974565b614959565b9050828152602081018484840111156149e3576149e26148f4565b5b6149ee8482856149a5565b509392505050565b600082601f830112614a0b57614a0a6148ef565b5b8135614a1b8482602086016149b4565b91505092915050565b600080600060608486031215614a3d57614a3c6141fc565b5b600084013567ffffffffffffffff811115614a5b57614a5a614201565b5b614a67868287016149f6565b935050602084013567ffffffffffffffff811115614a8857614a87614201565b5b614a94868287016149f6565b9250506040614aa58682870161439d565b9150509250925092565b614ab88161437c565b82525050565b6000602082019050614ad36000830184614aaf565b92915050565b60008060408385031215614af057614aef6141fc565b5b6000614afe8582860161439d565b9250506020614b0f8582860161439d565b9150509250929050565b600067ffffffffffffffff821115614b3457614b336148f9565b5b602082029050602081019050919050565b600080fd5b6000614b5d614b5884614b19565b614959565b90508083825260208201905060208402830185811115614b8057614b7f614b45565b5b835b81811015614bc757803567ffffffffffffffff811115614ba557614ba46148ef565b5b808601614bb289826149f6565b85526020850194505050602081019050614b82565b5050509392505050565b600082601f830112614be657614be56148ef565b5b8135614bf6848260208601614b4a565b91505092915050565b600080600060608486031215614c1857614c176141fc565b5b600084013567ffffffffffffffff811115614c3657614c35614201565b5b614c42868287016149f6565b935050602084013567ffffffffffffffff811115614c6357614c62614201565b5b614c6f86828701614bd1565b925050604084013567ffffffffffffffff811115614c9057614c8f614201565b5b614c9c868287016149f6565b9150509250925092565b60006080820190508181036000830152614cc08187614321565b90508181036020830152614cd48186614321565b90508181036040830152614ce88185614321565b9050614cf76060830184614411565b95945050505050565b614d098161428b565b8114614d1457600080fd5b50565b600081359050614d2681614d00565b92915050565b60008060408385031215614d4357614d426141fc565b5b6000614d5185828601614452565b9250506020614d6285828601614d17565b9150509250929050565b600067ffffffffffffffff821115614d8757614d866148f9565b5b614d9082614310565b9050602081019050919050565b6000614db0614dab84614d6c565b614959565b905082815260208101848484011115614dcc57614dcb6148f4565b5b614dd78482856149a5565b509392505050565b600082601f830112614df457614df36148ef565b5b8135614e04848260208601614d9d565b91505092915050565b60008060008060808587031215614e2757614e266141fc565b5b6000614e3587828801614452565b9450506020614e4687828801614452565b9350506040614e578782880161439d565b925050606085013567ffffffffffffffff811115614e7857614e77614201565b5b614e8487828801614ddf565b91505092959194509250565b6000610120820190508181036000830152614eab818c614321565b90508181036020830152614ebf818b614321565b90508181036040830152614ed3818a614321565b9050614ee26060830189614aaf565b614eef6080830188614aaf565b614efc60a0830187614aaf565b614f0960c0830186614aaf565b614f1660e0830185614aaf565b614f24610100830184614411565b9a9950505050505050505050565b60008060008060808587031215614f4c57614f4b6141fc565b5b600085013567ffffffffffffffff811115614f6a57614f69614201565b5b614f76878288016149f6565b945050602085013567ffffffffffffffff811115614f9757614f96614201565b5b614fa387828801614bd1565b935050604085013567ffffffffffffffff811115614fc457614fc3614201565b5b614fd0878288016149f6565b9250506060614fe18782880161439d565b91505092959194509250565b600082825260208201905092915050565b60006150098261454a565b6150138185614fed565b93508360208202850161502585614566565b8060005b8581101561506157848403895281516150428582614576565b945061504d8361458a565b925060208a01995050600181019050615029565b50829750879550505050505092915050565b6000602082019050818103600083015261508d8184614ffe565b905092915050565b600080604083850312156150ac576150ab6141fc565b5b60006150ba85828601614452565b92505060206150cb85828601614452565b9150509250929050565b6000602082840312156150eb576150ea6141fc565b5b600082013567ffffffffffffffff81111561510957615108614201565b5b615115848285016149f6565b91505092915050565b600060408201905081810360008301526151388185614321565b90506151476020830184614aaf565b9392505050565b7f4e487b7100000000000000000000000000000000000000000000000000000000600052602260045260246000fd5b6000600282049050600182168061519557607f821691505b602082108114156151a9576151a861514e565b5b50919050565b7f4552433732313a20617070726f76616c20746f2063757272656e74206f776e6560008201527f7200000000000000000000000000000000000000000000000000000000000000602082015250565b600061520b6021836142cc565b9150615216826151af565b604082019050919050565b6000602082019050818103600083015261523a816151fe565b9050919050565b7f4552433732313a20617070726f76652063616c6c6572206973206e6f7420746f60008201527f6b656e206f776e6572206e6f7220617070726f76656420666f7220616c6c0000602082015250565b600061529d603e836142cc565b91506152a882615241565b604082019050919050565b600060208201905081810360008301526152cc81615290565b9050919050565b7f596f752068617665206e6f74207965742072656769737465726564206120707260008201527f6f66696c652e0000000000000000000000000000000000000000000000000000602082015250565b600061532f6026836142cc565b915061533a826152d3565b604082019050919050565b6000602082019050818103600083015261535e81615322565b9050919050565b7f4e487b7100000000000000000000000000000000000000000000000000000000600052601160045260246000fd5b600061539f8261437c565b91506153aa8361437c565b9250828210156153bd576153bc615365565b5b828203905092915050565b7f4e487b7100000000000000000000000000000000000000000000000000000000600052603260045260246000fd5b7f4552433732313a2063616c6c6572206973206e6f7420746f6b656e206f776e6560008201527f72206e6f7220617070726f766564000000000000000000000000000000000000602082015250565b6000615453602e836142cc565b915061545e826153f7565b604082019050919050565b6000602082019050818103600083015261548281615446565b9050919050565b7f4e6f2073746f726965732077697468207468652073706563696669656420746960008201527f746c652061726520726567697374657265642e00000000000000000000000000602082015250565b60006154e56033836142cc565b91506154f082615489565b604082019050919050565b60006020820190508181036000830152615514816154d8565b9050919050565b7f53746f727920617574686f72732063616e6e6f74206265206c696b65642e0000600082015250565b6000615551601e836142cc565b915061555c8261551b565b602082019050919050565b6000602082019050818103600083015261558081615544565b9050919050565b60006155928261437c565b91507fffffffffffffffffffffffffffffffffffffffffffffffffffffffffffffffff8214156155c5576155c4615365565b5b600182019050919050565b7f596f7520617265206c696b696e6720746869732073746f7279206f6e2074686560008201527f206e6573742e0000000000000000000000000000000000000000000000000000602082015250565b600061562c6026836142cc565b9150615637826155d0565b604082019050919050565b6000602082019050818103600083015261565b8161561f565b9050919050565b7f4f6e6c79207468652063726561746f72206f66207468652073746f727920636160008201527f6e206275726e2e00000000000000000000000000000000000000000000000000602082015250565b60006156be6027836142cc565b91506156c982615662565b604082019050919050565b600060208201905081810360008301526156ed816156b1565b9050919050565b7f53656c6c65722063616e6e6f7420626520627579657200000000000000000000600082015250565b600061572a6016836142cc565b9150615735826156f4565b602082019050919050565b600060208201905081810360008301526157598161571d565b9050919050565b600061576b8261437c565b91506157768361437c565b9250817fffffffffffffffffffffffffffffffffffffffffffffffffffffffffffffffff04831182151516156157af576157ae615365565b5b828202905092915050565b7f496e73756666696369656e74207061796d656e74000000000000000000000000600082015250565b60006157f06014836142cc565b91506157fb826157ba565b602082019050919050565b6000602082019050818103600083015261581f816157e3565b9050919050565b7f4552433732313a20696e76616c696420746f6b656e2049440000000000000000600082015250565b600061585c6018836142cc565b915061586782615826565b602082019050919050565b6000602082019050818103600083015261588b8161584f565b9050919050565b7f4552433732313a2061646472657373207a65726f206973206e6f74206120766160008201527f6c6964206f776e65720000000000000000000000000000000000000000000000602082015250565b60006158ee6029836142cc565b91506158f982615892565b604082019050919050565b6000602082019050818103600083015261591d816158e1565b9050919050565b7f416e206163636f756e7420616c7265616479206578697374732e000000000000600082015250565b600061595a601a836142cc565b915061596582615924565b602082019050919050565b600060208201905081810360008301526159898161594d565b9050919050565b600081905092915050565b60006159a6826142c1565b6159b08185615990565b93506159c08185602086016142dd565b80840191505092915050565b60006159d8828561599b565b91506159e4828461599b565b91508190509392505050565b7f4f6e6c792074686520617574686f722063616e2065646974207468652073746f60008201527f72792e0000000000000000000000000000000000000000000000000000000000602082015250565b6000615a4c6023836142cc565b9150615a57826159f0565b604082019050919050565b60006020820190508181036000830152615a7b81615a3f565b9050919050565b60008190508160005260206000209050919050565b60008154615aa48161517d565b615aae8186615990565b94506001821660008114615ac95760018114615ada57615b0d565b60ff19831686528186019350615b0d565b615ae385615a82565b60005b83811015615b0557815481890152600182019150602081019050615ae6565b838801955050505b50505092915050565b7f3c2f746578743e3c2f7376673e00000000000000000000000000000000000000600082015250565b6000615b4c600d83615990565b9150615b5782615b16565b600d82019050919050565b6000615b6e8285615a97565b9150615b7a828461599b565b9150615b8582615b3f565b91508190509392505050565b7f7b226e616d65223a202200000000000000000000000000000000000000000000600082015250565b6000615bc7600a83615990565b9150615bd282615b91565b600a82019050919050565b7f222c20226465736372697074696f6e223a20224d79205265636f76657279205360008201527f746f7279222c2000000000000000000000000000000000000000000000000000602082015250565b6000615c39602783615990565b9150615c4482615bdd565b602782019050919050565b7f22696d616765223a2022646174613a696d6167652f7376672b786d6c3b62617360008201527f6536342c00000000000000000000000000000000000000000000000000000000602082015250565b6000615cab602483615990565b9150615cb682615c4f565b602482019050919050565b7f227d000000000000000000000000000000000000000000000000000000000000600082015250565b6000615cf7600283615990565b9150615d0282615cc1565b600282019050919050565b6000615d1882615bba565b9150615d24828561599b565b9150615d2f82615c2c565b9150615d3a82615c9e565b9150615d46828461599b565b9150615d5182615cea565b91508190509392505050565b7f646174613a6170706c69636174696f6e2f6a736f6e3b6261736536342c000000600082015250565b6000615d93601d83615990565b9150615d9e82615d5d565b601d82019050919050565b6000615db482615d86565b9150615dc0828461599b565b915081905092915050565b7f4552433732313a207472616e736665722066726f6d20696e636f72726563742060008201527f6f776e6572000000000000000000000000000000000000000000000000000000602082015250565b6000615e276025836142cc565b9150615e3282615dcb565b604082019050919050565b60006020820190508181036000830152615e5681615e1a565b9050919050565b7f4552433732313a207472616e7366657220746f20746865207a65726f2061646460008201527f7265737300000000000000000000000000000000000000000000000000000000602082015250565b6000615eb96024836142cc565b9150615ec482615e5d565b604082019050919050565b60006020820190508181036000830152615ee881615eac565b9050919050565b6000615efa8261437c565b9150615f058361437c565b9250827fffffffffffffffffffffffffffffffffffffffffffffffffffffffffffffffff03821115615f3a57615f39615365565b5b828201905092915050565b7f4552433732313a20617070726f766520746f2063616c6c657200000000000000600082015250565b6000615f7b6019836142cc565b9150615f8682615f45565b602082019050919050565b60006020820190508181036000830152615faa81615f6e565b9050919050565b7f4552433732313a207472616e7366657220746f206e6f6e20455243373231526560008201527f63656976657220696d706c656d656e7465720000000000000000000000000000602082015250565b600061600d6032836142cc565b915061601882615fb1565b604082019050919050565b6000602082019050818103600083015261603c81616000565b9050919050565b7f4e487b7100000000000000000000000000000000000000000000000000000000600052601260045260246000fd5b600061607d8261437c565b91506160888361437c565b92508261609857616097616043565b5b828204905092915050565b7f45524337323155524953746f726167653a2055524920736574206f66206e6f6e60008201527f6578697374656e7420746f6b656e000000000000000000000000000000000000602082015250565b60006160ff602e836142cc565b915061610a826160a3565b604082019050919050565b6000602082019050818103600083015261612e816160f2565b9050919050565b6000606082019050818103600083015261614f8186614321565b905061615e6020830185614aaf565b61616b6040830184614411565b949350505050565b600081519050919050565b600082825260208201905092915050565b600061619a82616173565b6161a4818561617e565b93506161b48185602086016142dd565b6161bd81614310565b840191505092915050565b60006080820190506161dd6000830187614411565b6161ea6020830186614411565b6161f76040830185614aaf565b8181036060830152616209818461618f565b905095945050505050565b60008151905061622381614232565b92915050565b60006020828403121561623f5761623e6141fc565b5b600061624d84828501616214565b91505092915050565b60006162618261437c565b915061626c8361437c565b92508261627c5761627b616043565b5b828206905092915050565b7f4552433732313a206d696e7420746f20746865207a65726f2061646472657373600082015250565b60006162bd6020836142cc565b91506162c882616287565b602082019050919050565b600060208201905081810360008301526162ec816162b0565b9050919050565b7f4552433732313a20746f6b656e20616c7265616479206d696e74656400000000600082015250565b6000616329601c836142cc565b9150616334826162f3565b602082019050919050565b600060208201905081810360008301526163588161631c565b905091905056fe416e204e465420772f20494420257320686173206265656e206d696e74656420746f2025734142434445464748494a4b4c4d4e4f505152535455565758595a6162636465666768696a6b6c6d6e6f707172737475767778797a303132333435363738392b2fa26469706673582212205016557b90093427de7416f00c387d429f71a9932804f5e0ed0e9d83257f7e7164736f6c63430008090033516d624648565048315663556a696a75394b416638636b6e6b417958584445656865323368646148633869353441516d583564546d4d4e59534a33375a6a6d67544c327779636e75715065483143575362723376464c38374d34374354686973206973206d79205265636f766572792053746f727920636f6e74726163742e516d616a43454a674474477150416753414c624e37347a714a63434e37547270417867757442733446775a6e6f5a516d5a317036333463784c7142745539384559594e69735642567959467368766b435163505353746a59626242533c73766720786d6c6e733d27687474703a2f2f7777772e77332e6f72672f323030302f73766727207072657365727665417370656374526174696f3d27784d696e594d696e206d656574272076696577426f783d273020302033353020333530273e3c7374796c653e2e62617365207b2066696c6c3a20233032423242343b20666f6e742d66616d696c793a20274869726167696e6f204d61727520476f746869632050726f273b20666f6e742d73697a653a20323470783b207d3c2f7374796c653e3c726563742077696474683d273130302527206865696768743d2731303025272066696c6c3d272345394534444627202f3e3c7465787420783d273530252720793d273530252720636c6173734e616d653d27626173652720646f6d696e616e742d626173656c696e653d276d6964646c652720746578742d616e63686f723d276d6964646c65273e516d50463854677439526f31516b416d6d356f65543479736a636548664c5054416a784b67536f4e593251385878",
  "linkReferences": {},
  "deployedLinkReferences": {}
}