{
  "_format": "hh-sol-artifact-1",
  "contractName": "RecoveryStory",
  "sourceName": "contracts/RecoveryStory.sol",
  "abi": [
    {
      "anonymous": false,
      "inputs": [
        {
          "indexed": true,
          "internalType": "address",
          "name": "owner",
          "type": "address"
        },
        {
          "indexed": true,
          "internalType": "address",
          "name": "approved",
          "type": "address"
        },
        {
          "indexed": true,
          "internalType": "uint256",
          "name": "tokenId",
          "type": "uint256"
        }
      ],
      "name": "Approval",
      "type": "event"
    },
    {
      "anonymous": false,
      "inputs": [
        {
          "indexed": true,
          "internalType": "address",
          "name": "owner",
          "type": "address"
        },
        {
          "indexed": true,
          "internalType": "address",
          "name": "operator",
          "type": "address"
        },
        {
          "indexed": false,
          "internalType": "bool",
          "name": "approved",
          "type": "bool"
        }
      ],
      "name": "ApprovalForAll",
      "type": "event"
    },
    {
      "anonymous": false,
      "inputs": [
        {
          "indexed": true,
          "internalType": "address",
          "name": "from",
          "type": "address"
        },
        {
          "indexed": true,
          "internalType": "address",
          "name": "to",
          "type": "address"
        },
        {
          "indexed": true,
          "internalType": "uint256",
          "name": "tokenId",
          "type": "uint256"
        }
      ],
      "name": "Transfer",
      "type": "event"
    },
    {
      "inputs": [
        {
          "internalType": "uint256",
          "name": "_storyId",
          "type": "uint256"
        }
      ],
      "name": "addLike",
      "outputs": [],
      "stateMutability": "nonpayable",
      "type": "function"
    },
    {
      "inputs": [
        {
          "internalType": "address",
          "name": "to",
          "type": "address"
        },
        {
          "internalType": "uint256",
          "name": "tokenId",
          "type": "uint256"
        }
      ],
      "name": "approve",
      "outputs": [],
      "stateMutability": "nonpayable",
      "type": "function"
    },
    {
      "inputs": [
        {
          "internalType": "uint256",
          "name": "",
          "type": "uint256"
        }
      ],
      "name": "avatars",
      "outputs": [
        {
          "internalType": "string",
          "name": "",
          "type": "string"
        }
      ],
      "stateMutability": "view",
      "type": "function"
    },
    {
      "inputs": [
        {
          "internalType": "address",
          "name": "owner",
          "type": "address"
        }
      ],
      "name": "balanceOf",
      "outputs": [
        {
          "internalType": "uint256",
          "name": "",
          "type": "uint256"
        }
      ],
      "stateMutability": "view",
      "type": "function"
    },
    {
      "inputs": [
        {
          "internalType": "string",
          "name": "_storyTitle",
          "type": "string"
        },
        {
          "internalType": "string[]",
          "name": "_tags",
          "type": "string[]"
        },
        {
          "internalType": "string",
          "name": "_storyBody",
          "type": "string"
        }
      ],
      "name": "createStory",
      "outputs": [],
      "stateMutability": "nonpayable",
      "type": "function"
    },
    {
      "inputs": [
        {
          "internalType": "string",
          "name": "_name",
          "type": "string"
        },
        {
          "internalType": "string",
          "name": "_biography",
          "type": "string"
        },
        {
          "internalType": "uint256",
          "name": "_avatar",
          "type": "uint256"
        }
      ],
      "name": "createUserProfile",
      "outputs": [],
      "stateMutability": "nonpayable",
      "type": "function"
    },
    {
      "inputs": [
        {
          "internalType": "string",
          "name": "_storyTitle",
          "type": "string"
        },
        {
          "internalType": "string[]",
          "name": "tags",
          "type": "string[]"
        },
        {
          "internalType": "string",
          "name": "_storyBody",
          "type": "string"
        },
        {
          "internalType": "uint256",
          "name": "_storyId",
          "type": "uint256"
        }
      ],
      "name": "editStory",
      "outputs": [],
      "stateMutability": "nonpayable",
      "type": "function"
    },
    {
      "inputs": [
        {
          "internalType": "string",
          "name": "_name",
          "type": "string"
        },
        {
          "internalType": "string",
          "name": "_biography",
          "type": "string"
        },
        {
          "internalType": "uint256",
          "name": "_avatar",
          "type": "uint256"
        }
      ],
      "name": "editUserProfile",
      "outputs": [],
      "stateMutability": "nonpayable",
      "type": "function"
    },
    {
      "inputs": [],
      "name": "getAllAvatar",
      "outputs": [
        {
          "internalType": "string[]",
          "name": "",
          "type": "string[]"
        }
      ],
      "stateMutability": "view",
      "type": "function"
    },
    {
      "inputs": [],
      "name": "getAllStories",
      "outputs": [
        {
          "components": [
            {
              "internalType": "string",
              "name": "storyTitle",
              "type": "string"
            },
            {
              "internalType": "string[]",
              "name": "tags",
              "type": "string[]"
            },
            {
              "internalType": "string",
              "name": "storyBody",
              "type": "string"
            },
            {
              "internalType": "string",
              "name": "dataURI",
              "type": "string"
            },
            {
              "internalType": "uint256",
              "name": "createDate",
              "type": "uint256"
            },
            {
              "internalType": "uint256",
              "name": "updateDate",
              "type": "uint256"
            },
            {
              "internalType": "uint256",
              "name": "numLike",
              "type": "uint256"
            },
            {
              "internalType": "uint256",
              "name": "storyId",
              "type": "uint256"
            },
            {
              "internalType": "uint256",
              "name": "tokenId",
              "type": "uint256"
            },
            {
              "internalType": "address",
              "name": "authorAddress",
              "type": "address"
            },
            {
              "internalType": "address[]",
              "name": "likeUserAdress",
              "type": "address[]"
            }
          ],
          "internalType": "struct RecoveryStory.Story[]",
          "name": "",
          "type": "tuple[]"
        }
      ],
      "stateMutability": "view",
      "type": "function"
    },
    {
      "inputs": [
        {
          "internalType": "uint256",
          "name": "tokenId",
          "type": "uint256"
        }
      ],
      "name": "getApproved",
      "outputs": [
        {
          "internalType": "address",
          "name": "",
          "type": "address"
        }
      ],
      "stateMutability": "view",
      "type": "function"
    },
    {
      "inputs": [
        {
          "internalType": "address",
          "name": "userAddress",
          "type": "address"
        }
      ],
      "name": "getUserProfile",
      "outputs": [
        {
          "internalType": "string",
          "name": "",
          "type": "string"
        },
        {
          "internalType": "string",
          "name": "",
          "type": "string"
        },
        {
          "internalType": "string",
          "name": "",
          "type": "string"
        },
        {
          "internalType": "address",
          "name": "",
          "type": "address"
        }
      ],
      "stateMutability": "view",
      "type": "function"
    },
    {
      "inputs": [
        {
          "internalType": "address",
          "name": "owner",
          "type": "address"
        },
        {
          "internalType": "address",
          "name": "operator",
          "type": "address"
        }
      ],
      "name": "isApprovedForAll",
      "outputs": [
        {
          "internalType": "bool",
          "name": "",
          "type": "bool"
        }
      ],
      "stateMutability": "view",
      "type": "function"
    },
    {
      "inputs": [
        {
          "internalType": "string",
          "name": "_title",
          "type": "string"
        }
      ],
      "name": "mintNFT",
      "outputs": [
        {
          "internalType": "string",
          "name": "",
          "type": "string"
        },
        {
          "internalType": "uint256",
          "name": "",
          "type": "uint256"
        }
      ],
      "stateMutability": "nonpayable",
      "type": "function"
    },
    {
      "inputs": [],
      "name": "name",
      "outputs": [
        {
          "internalType": "string",
          "name": "",
          "type": "string"
        }
      ],
      "stateMutability": "view",
      "type": "function"
    },
    {
      "inputs": [
        {
          "internalType": "uint256",
          "name": "tokenId",
          "type": "uint256"
        }
      ],
      "name": "ownerOf",
      "outputs": [
        {
          "internalType": "address",
          "name": "",
          "type": "address"
        }
      ],
      "stateMutability": "view",
      "type": "function"
    },
    {
      "inputs": [
        {
          "internalType": "address",
          "name": "from",
          "type": "address"
        },
        {
          "internalType": "address",
          "name": "to",
          "type": "address"
        },
        {
          "internalType": "uint256",
          "name": "tokenId",
          "type": "uint256"
        }
      ],
      "name": "safeTransferFrom",
      "outputs": [],
      "stateMutability": "nonpayable",
      "type": "function"
    },
    {
      "inputs": [
        {
          "internalType": "address",
          "name": "from",
          "type": "address"
        },
        {
          "internalType": "address",
          "name": "to",
          "type": "address"
        },
        {
          "internalType": "uint256",
          "name": "tokenId",
          "type": "uint256"
        },
        {
          "internalType": "bytes",
          "name": "data",
          "type": "bytes"
        }
      ],
      "name": "safeTransferFrom",
      "outputs": [],
      "stateMutability": "nonpayable",
      "type": "function"
    },
    {
      "inputs": [
        {
          "internalType": "address",
          "name": "operator",
          "type": "address"
        },
        {
          "internalType": "bool",
          "name": "approved",
          "type": "bool"
        }
      ],
      "name": "setApprovalForAll",
      "outputs": [],
      "stateMutability": "nonpayable",
      "type": "function"
    },
    {
      "inputs": [
        {
          "internalType": "uint256",
          "name": "",
          "type": "uint256"
        }
      ],
      "name": "story",
      "outputs": [
        {
          "internalType": "string",
          "name": "storyTitle",
          "type": "string"
        },
        {
          "internalType": "string",
          "name": "storyBody",
          "type": "string"
        },
        {
          "internalType": "string",
          "name": "dataURI",
          "type": "string"
        },
        {
          "internalType": "uint256",
          "name": "createDate",
          "type": "uint256"
        },
        {
          "internalType": "uint256",
          "name": "updateDate",
          "type": "uint256"
        },
        {
          "internalType": "uint256",
          "name": "numLike",
          "type": "uint256"
        },
        {
          "internalType": "uint256",
          "name": "storyId",
          "type": "uint256"
        },
        {
          "internalType": "uint256",
          "name": "tokenId",
          "type": "uint256"
        },
        {
          "internalType": "address",
          "name": "authorAddress",
          "type": "address"
        }
      ],
      "stateMutability": "view",
      "type": "function"
    },
    {
      "inputs": [],
      "name": "storyIdCounter",
      "outputs": [
        {
          "internalType": "uint256",
          "name": "",
          "type": "uint256"
        }
      ],
      "stateMutability": "view",
      "type": "function"
    },
    {
      "inputs": [
        {
          "internalType": "bytes4",
          "name": "interfaceId",
          "type": "bytes4"
        }
      ],
      "name": "supportsInterface",
      "outputs": [
        {
          "internalType": "bool",
          "name": "",
          "type": "bool"
        }
      ],
      "stateMutability": "view",
      "type": "function"
    },
    {
      "inputs": [],
      "name": "symbol",
      "outputs": [
        {
          "internalType": "string",
          "name": "",
          "type": "string"
        }
      ],
      "stateMutability": "view",
      "type": "function"
    },
    {
      "inputs": [
        {
          "internalType": "uint256",
          "name": "tokenId",
          "type": "uint256"
        }
      ],
      "name": "tokenURI",
      "outputs": [
        {
          "internalType": "string",
          "name": "",
          "type": "string"
        }
      ],
      "stateMutability": "view",
      "type": "function"
    },
    {
      "inputs": [
        {
          "internalType": "address",
          "name": "from",
          "type": "address"
        },
        {
          "internalType": "address",
          "name": "to",
          "type": "address"
        },
        {
          "internalType": "uint256",
          "name": "tokenId",
          "type": "uint256"
        }
      ],
      "name": "transferFrom",
      "outputs": [],
      "stateMutability": "nonpayable",
      "type": "function"
    },
    {
      "inputs": [],
      "name": "userIdCounter",
      "outputs": [
        {
          "internalType": "uint256",
          "name": "",
          "type": "uint256"
        }
      ],
      "stateMutability": "view",
      "type": "function"
    },
    {
      "inputs": [
        {
          "internalType": "uint256",
          "name": "",
          "type": "uint256"
        }
      ],
      "name": "userProfile",
      "outputs": [
        {
          "internalType": "string",
          "name": "name",
          "type": "string"
        },
        {
          "internalType": "string",
          "name": "avatar",
          "type": "string"
        },
        {
          "internalType": "string",
          "name": "biography",
          "type": "string"
        },
        {
          "internalType": "address",
          "name": "walletAddress",
          "type": "address"
        }
      ],
      "stateMutability": "view",
      "type": "function"
    }
  ],
  "bytecode": "0x608060405260405180610180016040528061014c8152602001620060ba61014c91396008908051906020019062000038929190620002b4565b506040518060a001604052806040518060600160405280602e815260200162006206602e913981526020016040518060600160405280602e81526020016200605e602e913981526020016040518060600160405280602e81526020016200600d602e913981526020016040518060600160405280602e815260200162005fdf602e913981526020016040518060600160405280602e81526020016200608c602e91398152506009906005620000ef92919062000345565b5066038d7ea4c68000600a556001600d556001600e553480156200011257600080fd5b506040518060400160405280601081526020017f5265636f7665727953746f72794e4654000000000000000000000000000000008152506040518060400160405280600381526020017f52534e0000000000000000000000000000000000000000000000000000000000815250816000908051906020019062000197929190620002b4565b508060019080519060200190620001b0929190620002b4565b505050620001e26040518060600160405280602381526020016200603b60239139620001e860201b6200275e1760201c565b62000566565b6200028881604051602401620001ff9190620004dd565b6040516020818303038152906040527f41304fac000000000000000000000000000000000000000000000000000000007bffffffffffffffffffffffffffffffffffffffffffffffffffffffff19166020820180517bffffffffffffffffffffffffffffffffffffffffffffffffffffffff83818316178352505050506200028b60201b60201c565b50565b60008151905060006a636f6e736f6c652e6c6f679050602083016000808483855afa5050505050565b828054620002c29062000530565b90600052602060002090601f016020900481019282620002e6576000855562000332565b82601f106200030157805160ff191683800117855562000332565b8280016001018555821562000332579182015b828111156200033157825182559160200191906001019062000314565b5b509050620003419190620003ac565b5090565b82805482825590600052602060002090810192821562000399579160200282015b828111156200039857825182908051906020019062000387929190620002b4565b509160200191906001019062000366565b5b509050620003a89190620003cb565b5090565b5b80821115620003c7576000816000905550600101620003ad565b5090565b5b80821115620003ef5760008181620003e59190620003f3565b50600101620003cc565b5090565b508054620004019062000530565b6000825580601f1062000415575062000436565b601f016020900490600052602060002090810190620004359190620003ac565b5b50565b600081519050919050565b600082825260208201905092915050565b60005b838110156200047557808201518184015260208101905062000458565b8381111562000485576000848401525b50505050565b6000601f19601f8301169050919050565b6000620004a98262000439565b620004b5818562000444565b9350620004c781856020860162000455565b620004d2816200048b565b840191505092915050565b60006020820190508181036000830152620004f981846200049c565b905092915050565b7f4e487b7100000000000000000000000000000000000000000000000000000000600052602260045260246000fd5b600060028204905060018216806200054957607f821691505b6020821081141562000560576200055f62000501565b5b50919050565b615a6980620005766000396000f3fe608060405234801561001057600080fd5b50600436106101a95760003560e01c806370a08231116100f9578063beba8bbe11610097578063df2894b711610071578063df2894b7146104e7578063e985e9c514610505578063f37181f414610535578063fb37e88314610568576101a9565b8063beba8bbe14610463578063c87b56dd1461049b578063ce8c35fd146104cb576101a9565b806395d89b41116100d357806395d89b41146103da578063987ee156146103f8578063a22cb4651461042b578063b88d4fde14610447576101a9565b806370a082311461035e57806377c72c3a1461038e578063834d5fac146103aa576101a9565b80632a86f3251161016657806338a3bdc81161014057806338a3bdc8146102d857806342842e0e146102f65780636352211e146103125780636decda9114610342576101a9565b80632a86f325146102825780632faba6ae1461029e578063378a35cd146102bc576101a9565b806301ffc9a7146101ae57806306fdde03146101de578063081812fc146101fc578063095ea7b31461022c578063191bbe2a1461024857806323b872dd14610266575b600080fd5b6101c860048036038101906101c39190613a77565b610599565b6040516101d59190613abf565b60405180910390f35b6101e661067b565b6040516101f39190613b73565b60405180910390f35b61021660048036038101906102119190613bcb565b61070d565b6040516102239190613c39565b60405180910390f35b61024660048036038101906102419190613c80565b610753565b005b61025061086b565b60405161025d9190614066565b60405180910390f35b610280600480360381019061027b9190614088565b610c70565b005b61029c60048036038101906102979190614210565b610cd0565b005b6102a6610e83565b6040516102b391906142aa565b60405180910390f35b6102d660048036038101906102d19190613bcb565b610e89565b005b6102e06111da565b6040516102ed91906142aa565b60405180910390f35b610310600480360381019061030b9190614088565b6111e0565b005b61032c60048036038101906103279190613bcb565b611200565b6040516103399190613c39565b60405180910390f35b61035c600480360381019061035791906143ab565b6112b2565b005b61037860048036038101906103739190614452565b6114e1565b60405161038591906142aa565b60405180910390f35b6103a860048036038101906103a39190614210565b611599565b005b6103c460048036038101906103bf9190613bcb565b611820565b6040516103d19190613b73565b60405180910390f35b6103e26118cc565b6040516103ef9190613b73565b60405180910390f35b610412600480360381019061040d9190614452565b61195e565b604051610422949392919061447f565b60405180910390f35b61044560048036038101906104409190614505565b611c9f565b005b610461600480360381019061045c91906145e6565b611cb5565b005b61047d60048036038101906104789190613bcb565b611d17565b60405161049299989796959493929190614669565b60405180910390f35b6104b560048036038101906104b09190613bcb565b611f2d565b6040516104c29190613b73565b60405180910390f35b6104e560048036038101906104e0919061470b565b612040565b005b6104ef61220d565b6040516104fc919061484c565b60405180910390f35b61051f600480360381019061051a919061486e565b6122e6565b60405161052c9190613abf565b60405180910390f35b61054f600480360381019061054a9190613bcb565b61237a565b60405161055f949392919061447f565b60405180910390f35b610582600480360381019061057d91906148ae565b612572565b6040516105909291906148f7565b60405180910390f35b60007f80ac58cd000000000000000000000000000000000000000000000000000000007bffffffffffffffffffffffffffffffffffffffffffffffffffffffff1916827bffffffffffffffffffffffffffffffffffffffffffffffffffffffff1916148061066457507f5b5e139f000000000000000000000000000000000000000000000000000000007bffffffffffffffffffffffffffffffffffffffffffffffffffffffff1916827bffffffffffffffffffffffffffffffffffffffffffffffffffffffff1916145b806106745750610673826127f7565b5b9050919050565b60606000805461068a90614956565b80601f01602080910402602001604051908101604052809291908181526020018280546106b690614956565b80156107035780601f106106d857610100808354040283529160200191610703565b820191906000526020600020905b8154815290600101906020018083116106e657829003601f168201915b5050505050905090565b600061071882612861565b6004600083815260200190815260200160002060009054906101000a900473ffffffffffffffffffffffffffffffffffffffff169050919050565b600061075e82611200565b90508073ffffffffffffffffffffffffffffffffffffffff168373ffffffffffffffffffffffffffffffffffffffff1614156107cf576040517f08c379a00000000000000000000000000000000000000000000000000000000081526004016107c6906149fa565b60405180910390fd5b8073ffffffffffffffffffffffffffffffffffffffff166107ee6128ac565b73ffffffffffffffffffffffffffffffffffffffff16148061081d575061081c816108176128ac565b6122e6565b5b61085c576040517f08c379a000000000000000000000000000000000000000000000000000000000815260040161085390614a8c565b60405180910390fd5b61086683836128b4565b505050565b6060600c805480602002602001604051908101604052809291908181526020016000905b82821015610c6757838290600052602060002090600b0201604051806101600160405290816000820180546108c390614956565b80601f01602080910402602001604051908101604052809291908181526020018280546108ef90614956565b801561093c5780601f106109115761010080835404028352916020019161093c565b820191906000526020600020905b81548152906001019060200180831161091f57829003601f168201915b5050505050815260200160018201805480602002602001604051908101604052809291908181526020016000905b82821015610a1657838290600052602060002001805461098990614956565b80601f01602080910402602001604051908101604052809291908181526020018280546109b590614956565b8015610a025780601f106109d757610100808354040283529160200191610a02565b820191906000526020600020905b8154815290600101906020018083116109e557829003601f168201915b50505050508152602001906001019061096a565b505050508152602001600282018054610a2e90614956565b80601f0160208091040260200160405190810160405280929190818152602001828054610a5a90614956565b8015610aa75780601f10610a7c57610100808354040283529160200191610aa7565b820191906000526020600020905b815481529060010190602001808311610a8a57829003601f168201915b50505050508152602001600382018054610ac090614956565b80601f0160208091040260200160405190810160405280929190818152602001828054610aec90614956565b8015610b395780601f10610b0e57610100808354040283529160200191610b39565b820191906000526020600020905b815481529060010190602001808311610b1c57829003601f168201915b5050505050815260200160048201548152602001600582015481526020016006820154815260200160078201548152602001600882015481526020016009820160009054906101000a900473ffffffffffffffffffffffffffffffffffffffff1673ffffffffffffffffffffffffffffffffffffffff1673ffffffffffffffffffffffffffffffffffffffff168152602001600a8201805480602002602001604051908101604052809291908181526020018280548015610c4f57602002820191906000526020600020905b8160009054906101000a900473ffffffffffffffffffffffffffffffffffffffff1673ffffffffffffffffffffffffffffffffffffffff1681526020019060010190808311610c05575b5050505050815250508152602001906001019061088f565b50505050905090565b610c81610c7b6128ac565b8261296d565b610cc0576040517f08c379a0000000000000000000000000000000000000000000000000000000008152600401610cb790614b1e565b60405180910390fd5b610ccb838383612a02565b505050565b6000600f60003373ffffffffffffffffffffffffffffffffffffffff1673ffffffffffffffffffffffffffffffffffffffff1681526020019081526020016000205411610d52576040517f08c379a0000000000000000000000000000000000000000000000000000000008152600401610d4990614bb0565b60405180910390fd5b60006001600f60003373ffffffffffffffffffffffffffffffffffffffff1673ffffffffffffffffffffffffffffffffffffffff16815260200190815260200160002054610da09190614bff565b905083600b8281548110610db757610db6614c33565b5b90600052602060002090600402016000019080519060200190610ddb92919061378d565b506009600183610deb9190614bff565b81548110610dfc57610dfb614c33565b5b90600052602060002001600b8281548110610e1a57610e19614c33565b5b9060005260206000209060040201600101908054610e3790614956565b610e42929190613813565b5082600b8281548110610e5857610e57614c33565b5b90600052602060002090600402016002019080519060200190610e7c92919061378d565b5050505050565b600e5481565b6000600c600183610e9a9190614bff565b81548110610eab57610eaa614c33565b5b90600052602060002090600b02016007015411610efd576040517f08c379a0000000000000000000000000000000000000000000000000000000008152600401610ef490614cd4565b60405180910390fd5b3373ffffffffffffffffffffffffffffffffffffffff16600c600183610f239190614bff565b81548110610f3457610f33614c33565b5b90600052602060002090600b020160090160009054906101000a900473ffffffffffffffffffffffffffffffffffffffff1673ffffffffffffffffffffffffffffffffffffffff1614610fbc576040517f08c379a0000000000000000000000000000000000000000000000000000000008152600401610fb390614d40565b60405180910390fd5b6000805b600c600184610fcf9190614bff565b81548110610fe057610fdf614c33565b5b90600052602060002090600b0201600a01805490508110156110b5573373ffffffffffffffffffffffffffffffffffffffff16600c6001856110229190614bff565b8154811061103357611032614c33565b5b90600052602060002090600b0201600a01828154811061105657611055614c33565b5b9060005260206000200160009054906101000a900473ffffffffffffffffffffffffffffffffffffffff1673ffffffffffffffffffffffffffffffffffffffff1614156110a257600191505b80806110ad90614d60565b915050610fc0565b5060001515811515146110fd576040517f08c379a00000000000000000000000000000000000000000000000000000000081526004016110f490614e1b565b60405180910390fd5b600c60018361110c9190614bff565b8154811061111d5761111c614c33565b5b90600052602060002090600b0201600601600081548092919061113f90614d60565b9190505550600c6001836111539190614bff565b8154811061116457611163614c33565b5b90600052602060002090600b0201600a01339080600181540180825580915050600190039060005260206000200160009091909190916101000a81548173ffffffffffffffffffffffffffffffffffffffff021916908373ffffffffffffffffffffffffffffffffffffffff1602179055505050565b600d5481565b6111fb83838360405180602001604052806000815250611cb5565b505050565b6000806002600084815260200190815260200160002060009054906101000a900473ffffffffffffffffffffffffffffffffffffffff169050600073ffffffffffffffffffffffffffffffffffffffff168173ffffffffffffffffffffffffffffffffffffffff1614156112a9576040517f08c379a00000000000000000000000000000000000000000000000000000000081526004016112a090614e87565b60405180910390fd5b80915050919050565b60608060006112c086612572565b8092508193505050600060405180610160016040528088815260200187815260200186815260200184815260200142815260200142815260200160008152602001600d5481526020018381526020013373ffffffffffffffffffffffffffffffffffffffff168152602001858152509050600c8190806001815401808255809150506001900390600052602060002090600b0201600090919091909150600082015181600001908051906020019061137992919061378d565b5060208201518160010190805190602001906113969291906138a0565b5060408201518160020190805190602001906113b392919061378d565b5060608201518160030190805190602001906113d092919061378d565b506080820151816004015560a0820151816005015560c0820151816006015560e0820151816007015561010082015181600801556101208201518160090160006101000a81548173ffffffffffffffffffffffffffffffffffffffff021916908373ffffffffffffffffffffffffffffffffffffffff16021790555061014082015181600a019080519060200190611469929190613900565b5050503360106000600d54815260200190815260200160002060006101000a81548173ffffffffffffffffffffffffffffffffffffffff021916908373ffffffffffffffffffffffffffffffffffffffff160217905550600d60008154809291906114d390614d60565b919050555050505050505050565b60008073ffffffffffffffffffffffffffffffffffffffff168273ffffffffffffffffffffffffffffffffffffffff161415611552576040517f08c379a000000000000000000000000000000000000000000000000000000000815260040161154990614f19565b60405180910390fd5b600360008373ffffffffffffffffffffffffffffffffffffffff1673ffffffffffffffffffffffffffffffffffffffff168152602001908152602001600020549050919050565b6000600f60003373ffffffffffffffffffffffffffffffffffffffff1673ffffffffffffffffffffffffffffffffffffffff168152602001908152602001600020541461161b576040517f08c379a000000000000000000000000000000000000000000000000000000000815260040161161290614f85565b60405180910390fd5b6000604051806080016040528085815260200184815260200160096001856116439190614bff565b8154811061165457611653614c33565b5b90600052602060002001805461166990614956565b80601f016020809104026020016040519081016040528092919081815260200182805461169590614956565b80156116e25780601f106116b7576101008083540402835291602001916116e2565b820191906000526020600020905b8154815290600101906020018083116116c557829003601f168201915b505050505081526020013373ffffffffffffffffffffffffffffffffffffffff168152509050600b819080600181540180825580915050600190039060005260206000209060040201600090919091909150600082015181600001908051906020019061175092919061378d565b50602082015181600101908051906020019061176d92919061378d565b50604082015181600201908051906020019061178a92919061378d565b5060608201518160030160006101000a81548173ffffffffffffffffffffffffffffffffffffffff021916908373ffffffffffffffffffffffffffffffffffffffff1602179055505050600e54600f60003373ffffffffffffffffffffffffffffffffffffffff1673ffffffffffffffffffffffffffffffffffffffff1681526020019081526020016000208190555050505050565b6009818154811061183057600080fd5b90600052602060002001600091509050805461184b90614956565b80601f016020809104026020016040519081016040528092919081815260200182805461187790614956565b80156118c45780601f10611899576101008083540402835291602001916118c4565b820191906000526020600020905b8154815290600101906020018083116118a757829003601f168201915b505050505081565b6060600180546118db90614956565b80601f016020809104026020016040519081016040528092919081815260200182805461190790614956565b80156119545780601f1061192957610100808354040283529160200191611954565b820191906000526020600020905b81548152906001019060200180831161193757829003601f168201915b5050505050905090565b6060806060600080600f60008773ffffffffffffffffffffffffffffffffffffffff1673ffffffffffffffffffffffffffffffffffffffff16815260200190815260200160002054116119e6576040517f08c379a00000000000000000000000000000000000000000000000000000000081526004016119dd90614bb0565b60405180910390fd5b60006001600f60008873ffffffffffffffffffffffffffffffffffffffff1673ffffffffffffffffffffffffffffffffffffffff16815260200190815260200160002054611a349190614bff565b9050600b8181548110611a4a57611a49614c33565b5b9060005260206000209060040201600001600b8281548110611a6f57611a6e614c33565b5b9060005260206000209060040201600101600b8381548110611a9457611a93614c33565b5b9060005260206000209060040201600201600b8481548110611ab957611ab8614c33565b5b906000526020600020906004020160030160009054906101000a900473ffffffffffffffffffffffffffffffffffffffff16838054611af790614956565b80601f0160208091040260200160405190810160405280929190818152602001828054611b2390614956565b8015611b705780601f10611b4557610100808354040283529160200191611b70565b820191906000526020600020905b815481529060010190602001808311611b5357829003601f168201915b50505050509350828054611b8390614956565b80601f0160208091040260200160405190810160405280929190818152602001828054611baf90614956565b8015611bfc5780601f10611bd157610100808354040283529160200191611bfc565b820191906000526020600020905b815481529060010190602001808311611bdf57829003601f168201915b50505050509250818054611c0f90614956565b80601f0160208091040260200160405190810160405280929190818152602001828054611c3b90614956565b8015611c885780601f10611c5d57610100808354040283529160200191611c88565b820191906000526020600020905b815481529060010190602001808311611c6b57829003601f168201915b505050505091509450945094509450509193509193565b611cb1611caa6128ac565b8383612c69565b5050565b611cc6611cc06128ac565b8361296d565b611d05576040517f08c379a0000000000000000000000000000000000000000000000000000000008152600401611cfc90614b1e565b60405180910390fd5b611d1184848484612dd6565b50505050565b600c8181548110611d2757600080fd5b90600052602060002090600b0201600091509050806000018054611d4a90614956565b80601f0160208091040260200160405190810160405280929190818152602001828054611d7690614956565b8015611dc35780601f10611d9857610100808354040283529160200191611dc3565b820191906000526020600020905b815481529060010190602001808311611da657829003601f168201915b505050505090806002018054611dd890614956565b80601f0160208091040260200160405190810160405280929190818152602001828054611e0490614956565b8015611e515780601f10611e2657610100808354040283529160200191611e51565b820191906000526020600020905b815481529060010190602001808311611e3457829003601f168201915b505050505090806003018054611e6690614956565b80601f0160208091040260200160405190810160405280929190818152602001828054611e9290614956565b8015611edf5780601f10611eb457610100808354040283529160200191611edf565b820191906000526020600020905b815481529060010190602001808311611ec257829003601f168201915b5050505050908060040154908060050154908060060154908060070154908060080154908060090160009054906101000a900473ffffffffffffffffffffffffffffffffffffffff16905089565b6060611f3882612861565b6000600660008481526020019081526020016000208054611f5890614956565b80601f0160208091040260200160405190810160405280929190818152602001828054611f8490614956565b8015611fd15780601f10611fa657610100808354040283529160200191611fd1565b820191906000526020600020905b815481529060010190602001808311611fb457829003601f168201915b505050505090506000611fe2612e32565b9050600081511415611ff857819250505061203b565b60008251111561202d578082604051602001612015929190614fe1565b6040516020818303038152906040529250505061203b565b61203684612e49565b925050505b919050565b3373ffffffffffffffffffffffffffffffffffffffff16600c6001836120669190614bff565b8154811061207757612076614c33565b5b90600052602060002090600b020160090160009054906101000a900473ffffffffffffffffffffffffffffffffffffffff1673ffffffffffffffffffffffffffffffffffffffff16146120ff576040517f08c379a00000000000000000000000000000000000000000000000000000000081526004016120f690615077565b60405180910390fd5b83600c60018361210f9190614bff565b815481106121205761211f614c33565b5b90600052602060002090600b0201600001908051906020019061214492919061378d565b5082600c6001836121559190614bff565b8154811061216657612165614c33565b5b90600052602060002090600b0201600101908051906020019061218a9291906138a0565b5081600c60018361219b9190614bff565b815481106121ac576121ab614c33565b5b90600052602060002090600b020160020190805190602001906121d092919061378d565b5042600c6001836121e19190614bff565b815481106121f2576121f1614c33565b5b90600052602060002090600b02016005018190555050505050565b60606009805480602002602001604051908101604052809291908181526020016000905b828210156122dd57838290600052602060002001805461225090614956565b80601f016020809104026020016040519081016040528092919081815260200182805461227c90614956565b80156122c95780601f1061229e576101008083540402835291602001916122c9565b820191906000526020600020905b8154815290600101906020018083116122ac57829003601f168201915b505050505081526020019060010190612231565b50505050905090565b6000600560008473ffffffffffffffffffffffffffffffffffffffff1673ffffffffffffffffffffffffffffffffffffffff16815260200190815260200160002060008373ffffffffffffffffffffffffffffffffffffffff1673ffffffffffffffffffffffffffffffffffffffff16815260200190815260200160002060009054906101000a900460ff16905092915050565b600b818154811061238a57600080fd5b90600052602060002090600402016000915090508060000180546123ad90614956565b80601f01602080910402602001604051908101604052809291908181526020018280546123d990614956565b80156124265780601f106123fb57610100808354040283529160200191612426565b820191906000526020600020905b81548152906001019060200180831161240957829003601f168201915b50505050509080600101805461243b90614956565b80601f016020809104026020016040519081016040528092919081815260200182805461246790614956565b80156124b45780601f10612489576101008083540402835291602001916124b4565b820191906000526020600020905b81548152906001019060200180831161249757829003601f168201915b5050505050908060020180546124c990614956565b80601f01602080910402602001604051908101604052809291908181526020018280546124f590614956565b80156125425780601f1061251757610100808354040283529160200191612542565b820191906000526020600020905b81548152906001019060200180831161252557829003601f168201915b5050505050908060030160009054906101000a900473ffffffffffffffffffffffffffffffffffffffff16905084565b60606000806125816007612eb1565b90506000600885604051602001612599929190615177565b60405160208183030381529060405290506125e86040518060400160405280601581526020017f0a2d2d2d2d2d205356472064617461202d2d2d2d2d000000000000000000000081525061275e565b6125f18161275e565b61262f6040518060400160405280601581526020017f2d2d2d2d2d2d2d2d2d2d2d2d2d2d2d2d2d2d2d2d0a000000000000000000000081525061275e565b60006126638661263e84612ebf565b60405160200161264f929190615322565b604051602081830303815290604052612ebf565b905060008160405160200161267891906153be565b60405160208183030381529060405290506126c76040518060400160405280601581526020017f0a2d2d2d2d2d20546f6b656e20555249202d2d2d2d000000000000000000000081525061275e565b6126d08161275e565b61270e6040518060400160405280601581526020017f2d2d2d2d2d2d2d2d2d2d2d2d2d2d2d2d2d2d2d2d0a000000000000000000000081525061275e565b6127183385613057565b6127228482613075565b6127456040518060600160405280602581526020016159cf6025913985336130e9565b61274f6007613188565b80849550955050505050915091565b6127f4816040516024016127729190613b73565b6040516020818303038152906040527f41304fac000000000000000000000000000000000000000000000000000000007bffffffffffffffffffffffffffffffffffffffffffffffffffffffff19166020820180517bffffffffffffffffffffffffffffffffffffffffffffffffffffffff838183161783525050505061319e565b50565b60007f01ffc9a7000000000000000000000000000000000000000000000000000000007bffffffffffffffffffffffffffffffffffffffffffffffffffffffff1916827bffffffffffffffffffffffffffffffffffffffffffffffffffffffff1916149050919050565b61286a816131c7565b6128a9576040517f08c379a00000000000000000000000000000000000000000000000000000000081526004016128a090614e87565b60405180910390fd5b50565b600033905090565b816004600083815260200190815260200160002060006101000a81548173ffffffffffffffffffffffffffffffffffffffff021916908373ffffffffffffffffffffffffffffffffffffffff160217905550808273ffffffffffffffffffffffffffffffffffffffff1661292783611200565b73ffffffffffffffffffffffffffffffffffffffff167f8c5be1e5ebec7d5bd14f71427d1e84f3dd0314c0f7b2291e5b200ac8c7c3b92560405160405180910390a45050565b60008061297983611200565b90508073ffffffffffffffffffffffffffffffffffffffff168473ffffffffffffffffffffffffffffffffffffffff1614806129bb57506129ba81856122e6565b5b806129f957508373ffffffffffffffffffffffffffffffffffffffff166129e18461070d565b73ffffffffffffffffffffffffffffffffffffffff16145b91505092915050565b8273ffffffffffffffffffffffffffffffffffffffff16612a2282611200565b73ffffffffffffffffffffffffffffffffffffffff1614612a78576040517f08c379a0000000000000000000000000000000000000000000000000000000008152600401612a6f90615452565b60405180910390fd5b600073ffffffffffffffffffffffffffffffffffffffff168273ffffffffffffffffffffffffffffffffffffffff161415612ae8576040517f08c379a0000000000000000000000000000000000000000000000000000000008152600401612adf906154e4565b60405180910390fd5b612af3838383613233565b612afe6000826128b4565b6001600360008573ffffffffffffffffffffffffffffffffffffffff1673ffffffffffffffffffffffffffffffffffffffff1681526020019081526020016000206000828254612b4e9190614bff565b925050819055506001600360008473ffffffffffffffffffffffffffffffffffffffff1673ffffffffffffffffffffffffffffffffffffffff1681526020019081526020016000206000828254612ba59190615504565b92505081905550816002600083815260200190815260200160002060006101000a81548173ffffffffffffffffffffffffffffffffffffffff021916908373ffffffffffffffffffffffffffffffffffffffff160217905550808273ffffffffffffffffffffffffffffffffffffffff168473ffffffffffffffffffffffffffffffffffffffff167fddf252ad1be2c89b69c2b068fc378daa952ba7f163c4a11628f55a4df523b3ef60405160405180910390a4612c64838383613238565b505050565b8173ffffffffffffffffffffffffffffffffffffffff168373ffffffffffffffffffffffffffffffffffffffff161415612cd8576040517f08c379a0000000000000000000000000000000000000000000000000000000008152600401612ccf906155a6565b60405180910390fd5b80600560008573ffffffffffffffffffffffffffffffffffffffff1673ffffffffffffffffffffffffffffffffffffffff16815260200190815260200160002060008473ffffffffffffffffffffffffffffffffffffffff1673ffffffffffffffffffffffffffffffffffffffff16815260200190815260200160002060006101000a81548160ff0219169083151502179055508173ffffffffffffffffffffffffffffffffffffffff168373ffffffffffffffffffffffffffffffffffffffff167f17307eab39ab6107e8899845ad3d59bd9653f200f220920489ca2b5937696c3183604051612dc99190613abf565b60405180910390a3505050565b612de1848484612a02565b612ded8484848461323d565b612e2c576040517f08c379a0000000000000000000000000000000000000000000000000000000008152600401612e2390615638565b60405180910390fd5b50505050565b606060405180602001604052806000815250905090565b6060612e5482612861565b6000612e5e612e32565b90506000815111612e7e5760405180602001604052806000815250612ea9565b80612e88846133d4565b604051602001612e99929190614fe1565b6040516020818303038152906040525b915050919050565b600081600001549050919050565b60606000825190506000811415612ee85760405180602001604052806000815250915050613052565b60006003600283612ef99190615504565b612f039190615687565b6004612f0f91906156b8565b90506000602082612f209190615504565b67ffffffffffffffff811115612f3957612f386140e5565b5b6040519080825280601f01601f191660200182016040528015612f6b5781602001600182028036833780820191505090505b50905060006040518060600160405280604081526020016159f4604091399050600181016020830160005b8681101561300f5760038101905062ffffff818a015116603f8160121c168401518060081b905060ff603f83600c1c1686015116810190508060081b905060ff603f8360061c1686015116810190508060081b905060ff603f831686015116810190508060e01b90508084526004840193505050612f96565b506003860660018114613029576002811461303957613044565b613d3d60f01b6002830352613044565b603d60f81b60018303525b508484525050819450505050505b919050565b613071828260405180602001604052806000815250613535565b5050565b61307e826131c7565b6130bd576040517f08c379a00000000000000000000000000000000000000000000000000000000081526004016130b490615784565b60405180910390fd5b806006600084815260200190815260200160002090805190602001906130e492919061378d565b505050565b613183838383604051602401613101939291906157a4565b6040516020818303038152906040527f1c7ec448000000000000000000000000000000000000000000000000000000007bffffffffffffffffffffffffffffffffffffffffffffffffffffffff19166020820180517bffffffffffffffffffffffffffffffffffffffffffffffffffffffff838183161783525050505061319e565b505050565b6001816000016000828254019250508190555050565b60008151905060006a636f6e736f6c652e6c6f679050602083016000808483855afa5050505050565b60008073ffffffffffffffffffffffffffffffffffffffff166002600084815260200190815260200160002060009054906101000a900473ffffffffffffffffffffffffffffffffffffffff1673ffffffffffffffffffffffffffffffffffffffff1614159050919050565b505050565b505050565b600061325e8473ffffffffffffffffffffffffffffffffffffffff16613590565b156133c7578373ffffffffffffffffffffffffffffffffffffffff1663150b7a026132876128ac565b8786866040518563ffffffff1660e01b81526004016132a99493929190615837565b602060405180830381600087803b1580156132c357600080fd5b505af19250505080156132f457506040513d601f19601f820116820180604052508101906132f19190615898565b60015b613377573d8060008114613324576040519150601f19603f3d011682016040523d82523d6000602084013e613329565b606091505b5060008151141561336f576040517f08c379a000000000000000000000000000000000000000000000000000000000815260040161336690615638565b60405180910390fd5b805181602001fd5b63150b7a0260e01b7bffffffffffffffffffffffffffffffffffffffffffffffffffffffff1916817bffffffffffffffffffffffffffffffffffffffffffffffffffffffff1916149150506133cc565b600190505b949350505050565b6060600082141561341c576040518060400160405280600181526020017f30000000000000000000000000000000000000000000000000000000000000008152509050613530565b600082905060005b6000821461344e57808061343790614d60565b915050600a826134479190615687565b9150613424565b60008167ffffffffffffffff81111561346a576134696140e5565b5b6040519080825280601f01601f19166020018201604052801561349c5781602001600182028036833780820191505090505b5090505b60008514613529576001826134b59190614bff565b9150600a856134c491906158c5565b60306134d09190615504565b60f81b8183815181106134e6576134e5614c33565b5b60200101907effffffffffffffffffffffffffffffffffffffffffffffffffffffffffffff1916908160001a905350600a856135229190615687565b94506134a0565b8093505050505b919050565b61353f83836135b3565b61354c600084848461323d565b61358b576040517f08c379a000000000000000000000000000000000000000000000000000000000815260040161358290615638565b60405180910390fd5b505050565b6000808273ffffffffffffffffffffffffffffffffffffffff163b119050919050565b600073ffffffffffffffffffffffffffffffffffffffff168273ffffffffffffffffffffffffffffffffffffffff161415613623576040517f08c379a000000000000000000000000000000000000000000000000000000000815260040161361a90615942565b60405180910390fd5b61362c816131c7565b1561366c576040517f08c379a0000000000000000000000000000000000000000000000000000000008152600401613663906159ae565b60405180910390fd5b61367860008383613233565b6001600360008473ffffffffffffffffffffffffffffffffffffffff1673ffffffffffffffffffffffffffffffffffffffff16815260200190815260200160002060008282546136c89190615504565b92505081905550816002600083815260200190815260200160002060006101000a81548173ffffffffffffffffffffffffffffffffffffffff021916908373ffffffffffffffffffffffffffffffffffffffff160217905550808273ffffffffffffffffffffffffffffffffffffffff16600073ffffffffffffffffffffffffffffffffffffffff167fddf252ad1be2c89b69c2b068fc378daa952ba7f163c4a11628f55a4df523b3ef60405160405180910390a461378960008383613238565b5050565b82805461379990614956565b90600052602060002090601f0160209004810192826137bb5760008555613802565b82601f106137d457805160ff1916838001178555613802565b82800160010185558215613802579182015b828111156138015782518255916020019190600101906137e6565b5b50905061380f919061398a565b5090565b82805461381f90614956565b90600052602060002090601f016020900481019282613841576000855561388f565b82601f10613852578054855561388f565b8280016001018555821561388f57600052602060002091601f016020900482015b8281111561388e578254825591600101919060010190613873565b5b50905061389c919061398a565b5090565b8280548282559060005260206000209081019282156138ef579160200282015b828111156138ee5782518290805190602001906138de92919061378d565b50916020019190600101906138c0565b5b5090506138fc91906139a7565b5090565b828054828255906000526020600020908101928215613979579160200282015b828111156139785782518260006101000a81548173ffffffffffffffffffffffffffffffffffffffff021916908373ffffffffffffffffffffffffffffffffffffffff16021790555091602001919060010190613920565b5b509050613986919061398a565b5090565b5b808211156139a357600081600090555060010161398b565b5090565b5b808211156139c757600081816139be91906139cb565b506001016139a8565b5090565b5080546139d790614956565b6000825580601f106139e95750613a08565b601f016020900490600052602060002090810190613a07919061398a565b5b50565b6000604051905090565b600080fd5b600080fd5b60007fffffffff0000000000000000000000000000000000000000000000000000000082169050919050565b613a5481613a1f565b8114613a5f57600080fd5b50565b600081359050613a7181613a4b565b92915050565b600060208284031215613a8d57613a8c613a15565b5b6000613a9b84828501613a62565b91505092915050565b60008115159050919050565b613ab981613aa4565b82525050565b6000602082019050613ad46000830184613ab0565b92915050565b600081519050919050565b600082825260208201905092915050565b60005b83811015613b14578082015181840152602081019050613af9565b83811115613b23576000848401525b50505050565b6000601f19601f8301169050919050565b6000613b4582613ada565b613b4f8185613ae5565b9350613b5f818560208601613af6565b613b6881613b29565b840191505092915050565b60006020820190508181036000830152613b8d8184613b3a565b905092915050565b6000819050919050565b613ba881613b95565b8114613bb357600080fd5b50565b600081359050613bc581613b9f565b92915050565b600060208284031215613be157613be0613a15565b5b6000613bef84828501613bb6565b91505092915050565b600073ffffffffffffffffffffffffffffffffffffffff82169050919050565b6000613c2382613bf8565b9050919050565b613c3381613c18565b82525050565b6000602082019050613c4e6000830184613c2a565b92915050565b613c5d81613c18565b8114613c6857600080fd5b50565b600081359050613c7a81613c54565b92915050565b60008060408385031215613c9757613c96613a15565b5b6000613ca585828601613c6b565b9250506020613cb685828601613bb6565b9150509250929050565b600081519050919050565b600082825260208201905092915050565b6000819050602082019050919050565b600082825260208201905092915050565b6000613d0882613ada565b613d128185613cec565b9350613d22818560208601613af6565b613d2b81613b29565b840191505092915050565b600081519050919050565b600082825260208201905092915050565b6000819050602082019050919050565b6000613d6e8383613cfd565b905092915050565b6000602082019050919050565b6000613d8e82613d36565b613d988185613d41565b935083602082028501613daa85613d52565b8060005b85811015613de65784840389528151613dc78582613d62565b9450613dd283613d76565b925060208a01995050600181019050613dae565b50829750879550505050505092915050565b613e0181613b95565b82525050565b613e1081613c18565b82525050565b600081519050919050565b600082825260208201905092915050565b6000819050602082019050919050565b6000613e4e8383613e07565b60208301905092915050565b6000602082019050919050565b6000613e7282613e16565b613e7c8185613e21565b9350613e8783613e32565b8060005b83811015613eb8578151613e9f8882613e42565b9750613eaa83613e5a565b925050600181019050613e8b565b5085935050505092915050565b6000610160830160008301518482036000860152613ee38282613cfd565b91505060208301518482036020860152613efd8282613d83565b91505060408301518482036040860152613f178282613cfd565b91505060608301518482036060860152613f318282613cfd565b9150506080830151613f466080860182613df8565b5060a0830151613f5960a0860182613df8565b5060c0830151613f6c60c0860182613df8565b5060e0830151613f7f60e0860182613df8565b50610100830151613f94610100860182613df8565b50610120830151613fa9610120860182613e07565b50610140830151848203610140860152613fc38282613e67565b9150508091505092915050565b6000613fdc8383613ec5565b905092915050565b6000602082019050919050565b6000613ffc82613cc0565b6140068185613ccb565b93508360208202850161401885613cdc565b8060005b8581101561405457848403895281516140358582613fd0565b945061404083613fe4565b925060208a0199505060018101905061401c565b50829750879550505050505092915050565b600060208201905081810360008301526140808184613ff1565b905092915050565b6000806000606084860312156140a1576140a0613a15565b5b60006140af86828701613c6b565b93505060206140c086828701613c6b565b92505060406140d186828701613bb6565b9150509250925092565b600080fd5b600080fd5b7f4e487b7100000000000000000000000000000000000000000000000000000000600052604160045260246000fd5b61411d82613b29565b810181811067ffffffffffffffff8211171561413c5761413b6140e5565b5b80604052505050565b600061414f613a0b565b905061415b8282614114565b919050565b600067ffffffffffffffff82111561417b5761417a6140e5565b5b61418482613b29565b9050602081019050919050565b82818337600083830152505050565b60006141b36141ae84614160565b614145565b9050828152602081018484840111156141cf576141ce6140e0565b5b6141da848285614191565b509392505050565b600082601f8301126141f7576141f66140db565b5b81356142078482602086016141a0565b91505092915050565b60008060006060848603121561422957614228613a15565b5b600084013567ffffffffffffffff81111561424757614246613a1a565b5b614253868287016141e2565b935050602084013567ffffffffffffffff81111561427457614273613a1a565b5b614280868287016141e2565b925050604061429186828701613bb6565b9150509250925092565b6142a481613b95565b82525050565b60006020820190506142bf600083018461429b565b92915050565b600067ffffffffffffffff8211156142e0576142df6140e5565b5b602082029050602081019050919050565b600080fd5b6000614309614304846142c5565b614145565b9050808382526020820190506020840283018581111561432c5761432b6142f1565b5b835b8181101561437357803567ffffffffffffffff811115614351576143506140db565b5b80860161435e89826141e2565b8552602085019450505060208101905061432e565b5050509392505050565b600082601f830112614392576143916140db565b5b81356143a28482602086016142f6565b91505092915050565b6000806000606084860312156143c4576143c3613a15565b5b600084013567ffffffffffffffff8111156143e2576143e1613a1a565b5b6143ee868287016141e2565b935050602084013567ffffffffffffffff81111561440f5761440e613a1a565b5b61441b8682870161437d565b925050604084013567ffffffffffffffff81111561443c5761443b613a1a565b5b614448868287016141e2565b9150509250925092565b60006020828403121561446857614467613a15565b5b600061447684828501613c6b565b91505092915050565b600060808201905081810360008301526144998187613b3a565b905081810360208301526144ad8186613b3a565b905081810360408301526144c18185613b3a565b90506144d06060830184613c2a565b95945050505050565b6144e281613aa4565b81146144ed57600080fd5b50565b6000813590506144ff816144d9565b92915050565b6000806040838503121561451c5761451b613a15565b5b600061452a85828601613c6b565b925050602061453b858286016144f0565b9150509250929050565b600067ffffffffffffffff8211156145605761455f6140e5565b5b61456982613b29565b9050602081019050919050565b600061458961458484614545565b614145565b9050828152602081018484840111156145a5576145a46140e0565b5b6145b0848285614191565b509392505050565b600082601f8301126145cd576145cc6140db565b5b81356145dd848260208601614576565b91505092915050565b60008060008060808587031215614600576145ff613a15565b5b600061460e87828801613c6b565b945050602061461f87828801613c6b565b935050604061463087828801613bb6565b925050606085013567ffffffffffffffff81111561465157614650613a1a565b5b61465d878288016145b8565b91505092959194509250565b6000610120820190508181036000830152614684818c613b3a565b90508181036020830152614698818b613b3a565b905081810360408301526146ac818a613b3a565b90506146bb606083018961429b565b6146c8608083018861429b565b6146d560a083018761429b565b6146e260c083018661429b565b6146ef60e083018561429b565b6146fd610100830184613c2a565b9a9950505050505050505050565b6000806000806080858703121561472557614724613a15565b5b600085013567ffffffffffffffff81111561474357614742613a1a565b5b61474f878288016141e2565b945050602085013567ffffffffffffffff8111156147705761476f613a1a565b5b61477c8782880161437d565b935050604085013567ffffffffffffffff81111561479d5761479c613a1a565b5b6147a9878288016141e2565b92505060606147ba87828801613bb6565b91505092959194509250565b600082825260208201905092915050565b60006147e282613d36565b6147ec81856147c6565b9350836020820285016147fe85613d52565b8060005b8581101561483a578484038952815161481b8582613d62565b945061482683613d76565b925060208a01995050600181019050614802565b50829750879550505050505092915050565b6000602082019050818103600083015261486681846147d7565b905092915050565b6000806040838503121561488557614884613a15565b5b600061489385828601613c6b565b92505060206148a485828601613c6b565b9150509250929050565b6000602082840312156148c4576148c3613a15565b5b600082013567ffffffffffffffff8111156148e2576148e1613a1a565b5b6148ee848285016141e2565b91505092915050565b600060408201905081810360008301526149118185613b3a565b9050614920602083018461429b565b9392505050565b7f4e487b7100000000000000000000000000000000000000000000000000000000600052602260045260246000fd5b6000600282049050600182168061496e57607f821691505b6020821081141561498257614981614927565b5b50919050565b7f4552433732313a20617070726f76616c20746f2063757272656e74206f776e6560008201527f7200000000000000000000000000000000000000000000000000000000000000602082015250565b60006149e4602183613ae5565b91506149ef82614988565b604082019050919050565b60006020820190508181036000830152614a13816149d7565b9050919050565b7f4552433732313a20617070726f76652063616c6c6572206973206e6f7420746f60008201527f6b656e206f776e6572206e6f7220617070726f76656420666f7220616c6c0000602082015250565b6000614a76603e83613ae5565b9150614a8182614a1a565b604082019050919050565b60006020820190508181036000830152614aa581614a69565b9050919050565b7f4552433732313a2063616c6c6572206973206e6f7420746f6b656e206f776e6560008201527f72206e6f7220617070726f766564000000000000000000000000000000000000602082015250565b6000614b08602e83613ae5565b9150614b1382614aac565b604082019050919050565b60006020820190508181036000830152614b3781614afb565b9050919050565b7f596f752068617665206e6f74207965742072656769737465726564206120707260008201527f6f66696c652e0000000000000000000000000000000000000000000000000000602082015250565b6000614b9a602683613ae5565b9150614ba582614b3e565b604082019050919050565b60006020820190508181036000830152614bc981614b8d565b9050919050565b7f4e487b7100000000000000000000000000000000000000000000000000000000600052601160045260246000fd5b6000614c0a82613b95565b9150614c1583613b95565b925082821015614c2857614c27614bd0565b5b828203905092915050565b7f4e487b7100000000000000000000000000000000000000000000000000000000600052603260045260246000fd5b7f4e6f2073746f726965732077697468207468652073706563696669656420746960008201527f746c652061726520726567697374657265642e00000000000000000000000000602082015250565b6000614cbe603383613ae5565b9150614cc982614c62565b604082019050919050565b60006020820190508181036000830152614ced81614cb1565b9050919050565b7f53746f727920617574686f72732063616e6e6f74206265206c696b65642e0000600082015250565b6000614d2a601e83613ae5565b9150614d3582614cf4565b602082019050919050565b60006020820190508181036000830152614d5981614d1d565b9050919050565b6000614d6b82613b95565b91507fffffffffffffffffffffffffffffffffffffffffffffffffffffffffffffffff821415614d9e57614d9d614bd0565b5b600182019050919050565b7f596f7520617265206c696b696e6720746869732073746f7279206f6e2074686560008201527f206e6573742e0000000000000000000000000000000000000000000000000000602082015250565b6000614e05602683613ae5565b9150614e1082614da9565b604082019050919050565b60006020820190508181036000830152614e3481614df8565b9050919050565b7f4552433732313a20696e76616c696420746f6b656e2049440000000000000000600082015250565b6000614e71601883613ae5565b9150614e7c82614e3b565b602082019050919050565b60006020820190508181036000830152614ea081614e64565b9050919050565b7f4552433732313a2061646472657373207a65726f206973206e6f74206120766160008201527f6c6964206f776e65720000000000000000000000000000000000000000000000602082015250565b6000614f03602983613ae5565b9150614f0e82614ea7565b604082019050919050565b60006020820190508181036000830152614f3281614ef6565b9050919050565b7f416e206163636f756e7420616c7265616479206578697374732e000000000000600082015250565b6000614f6f601a83613ae5565b9150614f7a82614f39565b602082019050919050565b60006020820190508181036000830152614f9e81614f62565b9050919050565b600081905092915050565b6000614fbb82613ada565b614fc58185614fa5565b9350614fd5818560208601613af6565b80840191505092915050565b6000614fed8285614fb0565b9150614ff98284614fb0565b91508190509392505050565b7f4f6e6c792074686520617574686f722063616e2065646974207468652073746f60008201527f72792e0000000000000000000000000000000000000000000000000000000000602082015250565b6000615061602383613ae5565b915061506c82615005565b604082019050919050565b6000602082019050818103600083015261509081615054565b9050919050565b60008190508160005260206000209050919050565b600081546150b981614956565b6150c38186614fa5565b945060018216600081146150de57600181146150ef57615122565b60ff19831686528186019350615122565b6150f885615097565b60005b8381101561511a578154818901526001820191506020810190506150fb565b838801955050505b50505092915050565b7f3c2f746578743e3c2f7376673e00000000000000000000000000000000000000600082015250565b6000615161600d83614fa5565b915061516c8261512b565b600d82019050919050565b600061518382856150ac565b915061518f8284614fb0565b915061519a82615154565b91508190509392505050565b7f7b226e616d65223a202200000000000000000000000000000000000000000000600082015250565b60006151dc600a83614fa5565b91506151e7826151a6565b600a82019050919050565b7f222c20226465736372697074696f6e223a20224d79205265636f76657279205360008201527f746f7279222c2000000000000000000000000000000000000000000000000000602082015250565b600061524e602783614fa5565b9150615259826151f2565b602782019050919050565b7f22696d616765223a2022646174613a696d6167652f7376672b786d6c3b62617360008201527f6536342c00000000000000000000000000000000000000000000000000000000602082015250565b60006152c0602483614fa5565b91506152cb82615264565b602482019050919050565b7f227d000000000000000000000000000000000000000000000000000000000000600082015250565b600061530c600283614fa5565b9150615317826152d6565b600282019050919050565b600061532d826151cf565b91506153398285614fb0565b915061534482615241565b915061534f826152b3565b915061535b8284614fb0565b9150615366826152ff565b91508190509392505050565b7f646174613a6170706c69636174696f6e2f6a736f6e3b6261736536342c000000600082015250565b60006153a8601d83614fa5565b91506153b382615372565b601d82019050919050565b60006153c98261539b565b91506153d58284614fb0565b915081905092915050565b7f4552433732313a207472616e736665722066726f6d20696e636f72726563742060008201527f6f776e6572000000000000000000000000000000000000000000000000000000602082015250565b600061543c602583613ae5565b9150615447826153e0565b604082019050919050565b6000602082019050818103600083015261546b8161542f565b9050919050565b7f4552433732313a207472616e7366657220746f20746865207a65726f2061646460008201527f7265737300000000000000000000000000000000000000000000000000000000602082015250565b60006154ce602483613ae5565b91506154d982615472565b604082019050919050565b600060208201905081810360008301526154fd816154c1565b9050919050565b600061550f82613b95565b915061551a83613b95565b9250827fffffffffffffffffffffffffffffffffffffffffffffffffffffffffffffffff0382111561554f5761554e614bd0565b5b828201905092915050565b7f4552433732313a20617070726f766520746f2063616c6c657200000000000000600082015250565b6000615590601983613ae5565b915061559b8261555a565b602082019050919050565b600060208201905081810360008301526155bf81615583565b9050919050565b7f4552433732313a207472616e7366657220746f206e6f6e20455243373231526560008201527f63656976657220696d706c656d656e7465720000000000000000000000000000602082015250565b6000615622603283613ae5565b915061562d826155c6565b604082019050919050565b6000602082019050818103600083015261565181615615565b9050919050565b7f4e487b7100000000000000000000000000000000000000000000000000000000600052601260045260246000fd5b600061569282613b95565b915061569d83613b95565b9250826156ad576156ac615658565b5b828204905092915050565b60006156c382613b95565b91506156ce83613b95565b9250817fffffffffffffffffffffffffffffffffffffffffffffffffffffffffffffffff048311821515161561570757615706614bd0565b5b828202905092915050565b7f45524337323155524953746f726167653a2055524920736574206f66206e6f6e60008201527f6578697374656e7420746f6b656e000000000000000000000000000000000000602082015250565b600061576e602e83613ae5565b915061577982615712565b604082019050919050565b6000602082019050818103600083015261579d81615761565b9050919050565b600060608201905081810360008301526157be8186613b3a565b90506157cd602083018561429b565b6157da6040830184613c2a565b949350505050565b600081519050919050565b600082825260208201905092915050565b6000615809826157e2565b61581381856157ed565b9350615823818560208601613af6565b61582c81613b29565b840191505092915050565b600060808201905061584c6000830187613c2a565b6158596020830186613c2a565b615866604083018561429b565b818103606083015261587881846157fe565b905095945050505050565b60008151905061589281613a4b565b92915050565b6000602082840312156158ae576158ad613a15565b5b60006158bc84828501615883565b91505092915050565b60006158d082613b95565b91506158db83613b95565b9250826158eb576158ea615658565b5b828206905092915050565b7f4552433732313a206d696e7420746f20746865207a65726f2061646472657373600082015250565b600061592c602083613ae5565b9150615937826158f6565b602082019050919050565b6000602082019050818103600083015261595b8161591f565b9050919050565b7f4552433732313a20746f6b656e20616c7265616479206d696e74656400000000600082015250565b6000615998601c83613ae5565b91506159a382615962565b602082019050919050565b600060208201905081810360008301526159c78161598b565b905091905056fe416e204e465420772f20494420257320686173206265656e206d696e74656420746f2025734142434445464748494a4b4c4d4e4f505152535455565758595a6162636465666768696a6b6c6d6e6f707172737475767778797a303132333435363738392b2fa2646970667358221220867b6429d5387d06c1b8436b21fb24b66b52bd49ef9560c47edfa8e0d3fac9a864736f6c63430008090033516d624648565048315663556a696a75394b416638636b6e6b417958584445656865323368646148633869353441516d583564546d4d4e59534a33375a6a6d67544c327779636e75715065483143575362723376464c38374d34374354686973206973206d79205265636f766572792053746f727920636f6e74726163742e516d616a43454a674474477150416753414c624e37347a714a63434e37547270417867757442733446775a6e6f5a516d5a317036333463784c7142745539384559594e69735642567959467368766b435163505353746a59626242533c73766720786d6c6e733d27687474703a2f2f7777772e77332e6f72672f323030302f73766727207072657365727665417370656374526174696f3d27784d696e594d696e206d656574272076696577426f783d273020302033353020333530273e3c7374796c653e2e62617365207b2066696c6c3a20233032423242343b20666f6e742d66616d696c793a20274869726167696e6f204d61727520476f746869632050726f273b20666f6e742d73697a653a20323470783b207d3c2f7374796c653e3c726563742077696474683d273130302527206865696768743d2731303025272066696c6c3d272345394534444627202f3e3c7465787420783d273530252720793d273530252720636c6173734e616d653d27626173652720646f6d696e616e742d626173656c696e653d276d6964646c652720746578742d616e63686f723d276d6964646c65273e516d50463854677439526f31516b416d6d356f65543479736a636548664c5054416a784b67536f4e593251385878",
  "linkReferences": {},
  "deployedLinkReferences": {}
}