{
  "_format": "hh-sol-artifact-1",
  "contractName": "RecoveryStory",
  "sourceName": "contracts/RecoveryStory.sol",
  "abi": [
    {
      "anonymous": false,
      "inputs": [
        {
          "indexed": true,
          "internalType": "address",
          "name": "owner",
          "type": "address"
        },
        {
          "indexed": true,
          "internalType": "address",
          "name": "approved",
          "type": "address"
        },
        {
          "indexed": true,
          "internalType": "uint256",
          "name": "tokenId",
          "type": "uint256"
        }
      ],
      "name": "Approval",
      "type": "event"
    },
    {
      "anonymous": false,
      "inputs": [
        {
          "indexed": true,
          "internalType": "address",
          "name": "owner",
          "type": "address"
        },
        {
          "indexed": true,
          "internalType": "address",
          "name": "operator",
          "type": "address"
        },
        {
          "indexed": false,
          "internalType": "bool",
          "name": "approved",
          "type": "bool"
        }
      ],
      "name": "ApprovalForAll",
      "type": "event"
    },
    {
      "anonymous": false,
      "inputs": [
        {
          "indexed": true,
          "internalType": "address",
          "name": "from",
          "type": "address"
        },
        {
          "indexed": true,
          "internalType": "address",
          "name": "to",
          "type": "address"
        },
        {
          "indexed": true,
          "internalType": "uint256",
          "name": "tokenId",
          "type": "uint256"
        }
      ],
      "name": "Transfer",
      "type": "event"
    },
    {
      "inputs": [
        {
          "internalType": "uint256",
          "name": "_storyId",
          "type": "uint256"
        }
      ],
      "name": "addLike",
      "outputs": [],
      "stateMutability": "nonpayable",
      "type": "function"
    },
    {
      "inputs": [
        {
          "internalType": "address",
          "name": "to",
          "type": "address"
        },
        {
          "internalType": "uint256",
          "name": "tokenId",
          "type": "uint256"
        }
      ],
      "name": "approve",
      "outputs": [],
      "stateMutability": "nonpayable",
      "type": "function"
    },
    {
      "inputs": [
        {
          "internalType": "uint256",
          "name": "",
          "type": "uint256"
        }
      ],
      "name": "avatars",
      "outputs": [
        {
          "internalType": "string",
          "name": "",
          "type": "string"
        }
      ],
      "stateMutability": "view",
      "type": "function"
    },
    {
      "inputs": [
        {
          "internalType": "address",
          "name": "owner",
          "type": "address"
        }
      ],
      "name": "balanceOf",
      "outputs": [
        {
          "internalType": "uint256",
          "name": "",
          "type": "uint256"
        }
      ],
      "stateMutability": "view",
      "type": "function"
    },
    {
      "inputs": [
        {
          "internalType": "string",
          "name": "_storyTitle",
          "type": "string"
        },
        {
          "internalType": "string[]",
          "name": "_tags",
          "type": "string[]"
        },
        {
          "internalType": "string",
          "name": "_storyBody",
          "type": "string"
        }
      ],
      "name": "createStory",
      "outputs": [],
      "stateMutability": "nonpayable",
      "type": "function"
    },
    {
      "inputs": [
        {
          "internalType": "string",
          "name": "_name",
          "type": "string"
        },
        {
          "internalType": "string",
          "name": "_biography",
          "type": "string"
        },
        {
          "internalType": "uint256",
          "name": "_avatar",
          "type": "uint256"
        }
      ],
      "name": "createUserProfile",
      "outputs": [],
      "stateMutability": "nonpayable",
      "type": "function"
    },
    {
      "inputs": [
        {
          "internalType": "string",
          "name": "_storyTitle",
          "type": "string"
        },
        {
          "internalType": "string[]",
          "name": "tags",
          "type": "string[]"
        },
        {
          "internalType": "string",
          "name": "_storyBody",
          "type": "string"
        },
        {
          "internalType": "uint256",
          "name": "_storyId",
          "type": "uint256"
        }
      ],
      "name": "editStory",
      "outputs": [],
      "stateMutability": "nonpayable",
      "type": "function"
    },
    {
      "inputs": [
        {
          "internalType": "string",
          "name": "_name",
          "type": "string"
        },
        {
          "internalType": "string",
          "name": "_biography",
          "type": "string"
        },
        {
          "internalType": "uint256",
          "name": "_avatar",
          "type": "uint256"
        }
      ],
      "name": "editUserProfile",
      "outputs": [],
      "stateMutability": "nonpayable",
      "type": "function"
    },
    {
      "inputs": [],
      "name": "getAllAvatar",
      "outputs": [
        {
          "internalType": "string[]",
          "name": "",
          "type": "string[]"
        }
      ],
      "stateMutability": "view",
      "type": "function"
    },
    {
      "inputs": [],
      "name": "getAllStories",
      "outputs": [
        {
          "components": [
            {
              "internalType": "string",
              "name": "storyTitle",
              "type": "string"
            },
            {
              "internalType": "string[]",
              "name": "tags",
              "type": "string[]"
            },
            {
              "internalType": "string",
              "name": "storyBody",
              "type": "string"
            },
            {
              "internalType": "string",
              "name": "dataURI",
              "type": "string"
            },
            {
              "internalType": "uint256",
              "name": "createDate",
              "type": "uint256"
            },
            {
              "internalType": "uint256",
              "name": "updateDate",
              "type": "uint256"
            },
            {
              "internalType": "uint256",
              "name": "numLike",
              "type": "uint256"
            },
            {
              "internalType": "uint256",
              "name": "storyId",
              "type": "uint256"
            },
            {
              "internalType": "uint256",
              "name": "tokenId",
              "type": "uint256"
            },
            {
              "internalType": "address",
              "name": "authorAddress",
              "type": "address"
            },
            {
              "internalType": "address[]",
              "name": "likeUserAdress",
              "type": "address[]"
            }
          ],
          "internalType": "struct RecoveryStory.Story[]",
          "name": "",
          "type": "tuple[]"
        }
      ],
      "stateMutability": "view",
      "type": "function"
    },
    {
      "inputs": [
        {
          "internalType": "uint256",
          "name": "tokenId",
          "type": "uint256"
        }
      ],
      "name": "getApproved",
      "outputs": [
        {
          "internalType": "address",
          "name": "",
          "type": "address"
        }
      ],
      "stateMutability": "view",
      "type": "function"
    },
    {
      "inputs": [
        {
          "internalType": "address",
          "name": "userAddress",
          "type": "address"
        }
      ],
      "name": "getUserProfile",
      "outputs": [
        {
          "internalType": "string",
          "name": "",
          "type": "string"
        },
        {
          "internalType": "string",
          "name": "",
          "type": "string"
        },
        {
          "internalType": "string",
          "name": "",
          "type": "string"
        },
        {
          "internalType": "address",
          "name": "",
          "type": "address"
        }
      ],
      "stateMutability": "view",
      "type": "function"
    },
    {
      "inputs": [
        {
          "internalType": "address",
          "name": "owner",
          "type": "address"
        },
        {
          "internalType": "address",
          "name": "operator",
          "type": "address"
        }
      ],
      "name": "isApprovedForAll",
      "outputs": [
        {
          "internalType": "bool",
          "name": "",
          "type": "bool"
        }
      ],
      "stateMutability": "view",
      "type": "function"
    },
    {
      "inputs": [
        {
          "internalType": "string",
          "name": "_title",
          "type": "string"
        }
      ],
      "name": "mintNFT",
      "outputs": [
        {
          "internalType": "string",
          "name": "",
          "type": "string"
        },
        {
          "internalType": "uint256",
          "name": "",
          "type": "uint256"
        }
      ],
      "stateMutability": "nonpayable",
      "type": "function"
    },
    {
      "inputs": [],
      "name": "name",
      "outputs": [
        {
          "internalType": "string",
          "name": "",
          "type": "string"
        }
      ],
      "stateMutability": "view",
      "type": "function"
    },
    {
      "inputs": [
        {
          "internalType": "uint256",
          "name": "tokenId",
          "type": "uint256"
        }
      ],
      "name": "ownerOf",
      "outputs": [
        {
          "internalType": "address",
          "name": "",
          "type": "address"
        }
      ],
      "stateMutability": "view",
      "type": "function"
    },
    {
      "inputs": [
        {
          "internalType": "address",
          "name": "from",
          "type": "address"
        },
        {
          "internalType": "address",
          "name": "to",
          "type": "address"
        },
        {
          "internalType": "uint256",
          "name": "tokenId",
          "type": "uint256"
        }
      ],
      "name": "safeTransferFrom",
      "outputs": [],
      "stateMutability": "nonpayable",
      "type": "function"
    },
    {
      "inputs": [
        {
          "internalType": "address",
          "name": "from",
          "type": "address"
        },
        {
          "internalType": "address",
          "name": "to",
          "type": "address"
        },
        {
          "internalType": "uint256",
          "name": "tokenId",
          "type": "uint256"
        },
        {
          "internalType": "bytes",
          "name": "data",
          "type": "bytes"
        }
      ],
      "name": "safeTransferFrom",
      "outputs": [],
      "stateMutability": "nonpayable",
      "type": "function"
    },
    {
      "inputs": [
        {
          "internalType": "address",
          "name": "operator",
          "type": "address"
        },
        {
          "internalType": "bool",
          "name": "approved",
          "type": "bool"
        }
      ],
      "name": "setApprovalForAll",
      "outputs": [],
      "stateMutability": "nonpayable",
      "type": "function"
    },
    {
      "inputs": [
        {
          "internalType": "uint256",
          "name": "",
          "type": "uint256"
        }
      ],
      "name": "story",
      "outputs": [
        {
          "internalType": "string",
          "name": "storyTitle",
          "type": "string"
        },
        {
          "internalType": "string",
          "name": "storyBody",
          "type": "string"
        },
        {
          "internalType": "string",
          "name": "dataURI",
          "type": "string"
        },
        {
          "internalType": "uint256",
          "name": "createDate",
          "type": "uint256"
        },
        {
          "internalType": "uint256",
          "name": "updateDate",
          "type": "uint256"
        },
        {
          "internalType": "uint256",
          "name": "numLike",
          "type": "uint256"
        },
        {
          "internalType": "uint256",
          "name": "storyId",
          "type": "uint256"
        },
        {
          "internalType": "uint256",
          "name": "tokenId",
          "type": "uint256"
        },
        {
          "internalType": "address",
          "name": "authorAddress",
          "type": "address"
        }
      ],
      "stateMutability": "view",
      "type": "function"
    },
    {
      "inputs": [],
      "name": "storyIdCounter",
      "outputs": [
        {
          "internalType": "uint256",
          "name": "",
          "type": "uint256"
        }
      ],
      "stateMutability": "view",
      "type": "function"
    },
    {
      "inputs": [
        {
          "internalType": "bytes4",
          "name": "interfaceId",
          "type": "bytes4"
        }
      ],
      "name": "supportsInterface",
      "outputs": [
        {
          "internalType": "bool",
          "name": "",
          "type": "bool"
        }
      ],
      "stateMutability": "view",
      "type": "function"
    },
    {
      "inputs": [],
      "name": "symbol",
      "outputs": [
        {
          "internalType": "string",
          "name": "",
          "type": "string"
        }
      ],
      "stateMutability": "view",
      "type": "function"
    },
    {
      "inputs": [
        {
          "internalType": "uint256",
          "name": "tokenId",
          "type": "uint256"
        }
      ],
      "name": "tokenURI",
      "outputs": [
        {
          "internalType": "string",
          "name": "",
          "type": "string"
        }
      ],
      "stateMutability": "view",
      "type": "function"
    },
    {
      "inputs": [
        {
          "internalType": "address",
          "name": "from",
          "type": "address"
        },
        {
          "internalType": "address",
          "name": "to",
          "type": "address"
        },
        {
          "internalType": "uint256",
          "name": "tokenId",
          "type": "uint256"
        }
      ],
      "name": "transferFrom",
      "outputs": [],
      "stateMutability": "nonpayable",
      "type": "function"
    },
    {
      "inputs": [],
      "name": "userIdCounter",
      "outputs": [
        {
          "internalType": "uint256",
          "name": "",
          "type": "uint256"
        }
      ],
      "stateMutability": "view",
      "type": "function"
    },
    {
      "inputs": [
        {
          "internalType": "uint256",
          "name": "",
          "type": "uint256"
        }
      ],
      "name": "userProfile",
      "outputs": [
        {
          "internalType": "string",
          "name": "name",
          "type": "string"
        },
        {
          "internalType": "string",
          "name": "avatar",
          "type": "string"
        },
        {
          "internalType": "string",
          "name": "biography",
          "type": "string"
        },
        {
          "internalType": "address",
          "name": "walletAddress",
          "type": "address"
        }
      ],
      "stateMutability": "view",
      "type": "function"
    }
  ],
  "bytecode": "0x608060405260405180610180016040528061014c8152602001620060d261014c91396008908051906020019062000038929190620002b4565b506040518060a001604052806040518060600160405280602e81526020016200621e602e913981526020016040518060600160405280602e815260200162006076602e913981526020016040518060600160405280602e815260200162006025602e913981526020016040518060600160405280602e815260200162005ff7602e913981526020016040518060600160405280602e8152602001620060a4602e91398152506009906005620000ef92919062000345565b5066038d7ea4c68000600a556001600d556001600e553480156200011257600080fd5b506040518060400160405280601081526020017f5265636f7665727953746f72794e4654000000000000000000000000000000008152506040518060400160405280600381526020017f52534e0000000000000000000000000000000000000000000000000000000000815250816000908051906020019062000197929190620002b4565b508060019080519060200190620001b0929190620002b4565b505050620001e26040518060600160405280602381526020016200605360239139620001e860201b620027761760201c565b62000566565b6200028881604051602401620001ff9190620004dd565b6040516020818303038152906040527f41304fac000000000000000000000000000000000000000000000000000000007bffffffffffffffffffffffffffffffffffffffffffffffffffffffff19166020820180517bffffffffffffffffffffffffffffffffffffffffffffffffffffffff83818316178352505050506200028b60201b60201c565b50565b60008151905060006a636f6e736f6c652e6c6f679050602083016000808483855afa5050505050565b828054620002c29062000530565b90600052602060002090601f016020900481019282620002e6576000855562000332565b82601f106200030157805160ff191683800117855562000332565b8280016001018555821562000332579182015b828111156200033157825182559160200191906001019062000314565b5b509050620003419190620003ac565b5090565b82805482825590600052602060002090810192821562000399579160200282015b828111156200039857825182908051906020019062000387929190620002b4565b509160200191906001019062000366565b5b509050620003a89190620003cb565b5090565b5b80821115620003c7576000816000905550600101620003ad565b5090565b5b80821115620003ef5760008181620003e59190620003f3565b50600101620003cc565b5090565b508054620004019062000530565b6000825580601f1062000415575062000436565b601f016020900490600052602060002090810190620004359190620003ac565b5b50565b600081519050919050565b600082825260208201905092915050565b60005b838110156200047557808201518184015260208101905062000458565b8381111562000485576000848401525b50505050565b6000601f19601f8301169050919050565b6000620004a98262000439565b620004b5818562000444565b9350620004c781856020860162000455565b620004d2816200048b565b840191505092915050565b60006020820190508181036000830152620004f981846200049c565b905092915050565b7f4e487b7100000000000000000000000000000000000000000000000000000000600052602260045260246000fd5b600060028204905060018216806200054957607f821691505b6020821081141562000560576200055f62000501565b5b50919050565b615a8180620005766000396000f3fe608060405234801561001057600080fd5b50600436106101a95760003560e01c806370a08231116100f9578063beba8bbe11610097578063df2894b711610071578063df2894b7146104e7578063e985e9c514610505578063f37181f414610535578063fb37e88314610568576101a9565b8063beba8bbe14610463578063c87b56dd1461049b578063ce8c35fd146104cb576101a9565b806395d89b41116100d357806395d89b41146103da578063987ee156146103f8578063a22cb4651461042b578063b88d4fde14610447576101a9565b806370a082311461035e57806377c72c3a1461038e578063834d5fac146103aa576101a9565b80632a86f3251161016657806338a3bdc81161014057806338a3bdc8146102d857806342842e0e146102f65780636352211e146103125780636decda9114610342576101a9565b80632a86f325146102825780632faba6ae1461029e578063378a35cd146102bc576101a9565b806301ffc9a7146101ae57806306fdde03146101de578063081812fc146101fc578063095ea7b31461022c578063191bbe2a1461024857806323b872dd14610266575b600080fd5b6101c860048036038101906101c39190613a8f565b610599565b6040516101d59190613ad7565b60405180910390f35b6101e661067b565b6040516101f39190613b8b565b60405180910390f35b61021660048036038101906102119190613be3565b61070d565b6040516102239190613c51565b60405180910390f35b61024660048036038101906102419190613c98565b610753565b005b61025061086b565b60405161025d919061407e565b60405180910390f35b610280600480360381019061027b91906140a0565b610c70565b005b61029c60048036038101906102979190614228565b610cd0565b005b6102a6610e83565b6040516102b391906142c2565b60405180910390f35b6102d660048036038101906102d19190613be3565b610e89565b005b6102e06111da565b6040516102ed91906142c2565b60405180910390f35b610310600480360381019061030b91906140a0565b6111e0565b005b61032c60048036038101906103279190613be3565b611200565b6040516103399190613c51565b60405180910390f35b61035c600480360381019061035791906143c3565b6112b2565b005b6103786004803603810190610373919061446a565b6114e1565b60405161038591906142c2565b60405180910390f35b6103a860048036038101906103a39190614228565b611599565b005b6103c460048036038101906103bf9190613be3565b611838565b6040516103d19190613b8b565b60405180910390f35b6103e26118e4565b6040516103ef9190613b8b565b60405180910390f35b610412600480360381019061040d919061446a565b611976565b6040516104229493929190614497565b60405180910390f35b6104456004803603810190610440919061451d565b611cb7565b005b610461600480360381019061045c91906145fe565b611ccd565b005b61047d60048036038101906104789190613be3565b611d2f565b60405161049299989796959493929190614681565b60405180910390f35b6104b560048036038101906104b09190613be3565b611f45565b6040516104c29190613b8b565b60405180910390f35b6104e560048036038101906104e09190614723565b612058565b005b6104ef612225565b6040516104fc9190614864565b60405180910390f35b61051f600480360381019061051a9190614886565b6122fe565b60405161052c9190613ad7565b60405180910390f35b61054f600480360381019061054a9190613be3565b612392565b60405161055f9493929190614497565b60405180910390f35b610582600480360381019061057d91906148c6565b61258a565b60405161059092919061490f565b60405180910390f35b60007f80ac58cd000000000000000000000000000000000000000000000000000000007bffffffffffffffffffffffffffffffffffffffffffffffffffffffff1916827bffffffffffffffffffffffffffffffffffffffffffffffffffffffff1916148061066457507f5b5e139f000000000000000000000000000000000000000000000000000000007bffffffffffffffffffffffffffffffffffffffffffffffffffffffff1916827bffffffffffffffffffffffffffffffffffffffffffffffffffffffff1916145b8061067457506106738261280f565b5b9050919050565b60606000805461068a9061496e565b80601f01602080910402602001604051908101604052809291908181526020018280546106b69061496e565b80156107035780601f106106d857610100808354040283529160200191610703565b820191906000526020600020905b8154815290600101906020018083116106e657829003601f168201915b5050505050905090565b600061071882612879565b6004600083815260200190815260200160002060009054906101000a900473ffffffffffffffffffffffffffffffffffffffff169050919050565b600061075e82611200565b90508073ffffffffffffffffffffffffffffffffffffffff168373ffffffffffffffffffffffffffffffffffffffff1614156107cf576040517f08c379a00000000000000000000000000000000000000000000000000000000081526004016107c690614a12565b60405180910390fd5b8073ffffffffffffffffffffffffffffffffffffffff166107ee6128c4565b73ffffffffffffffffffffffffffffffffffffffff16148061081d575061081c816108176128c4565b6122fe565b5b61085c576040517f08c379a000000000000000000000000000000000000000000000000000000000815260040161085390614aa4565b60405180910390fd5b61086683836128cc565b505050565b6060600c805480602002602001604051908101604052809291908181526020016000905b82821015610c6757838290600052602060002090600b0201604051806101600160405290816000820180546108c39061496e565b80601f01602080910402602001604051908101604052809291908181526020018280546108ef9061496e565b801561093c5780601f106109115761010080835404028352916020019161093c565b820191906000526020600020905b81548152906001019060200180831161091f57829003601f168201915b5050505050815260200160018201805480602002602001604051908101604052809291908181526020016000905b82821015610a165783829060005260206000200180546109899061496e565b80601f01602080910402602001604051908101604052809291908181526020018280546109b59061496e565b8015610a025780601f106109d757610100808354040283529160200191610a02565b820191906000526020600020905b8154815290600101906020018083116109e557829003601f168201915b50505050508152602001906001019061096a565b505050508152602001600282018054610a2e9061496e565b80601f0160208091040260200160405190810160405280929190818152602001828054610a5a9061496e565b8015610aa75780601f10610a7c57610100808354040283529160200191610aa7565b820191906000526020600020905b815481529060010190602001808311610a8a57829003601f168201915b50505050508152602001600382018054610ac09061496e565b80601f0160208091040260200160405190810160405280929190818152602001828054610aec9061496e565b8015610b395780601f10610b0e57610100808354040283529160200191610b39565b820191906000526020600020905b815481529060010190602001808311610b1c57829003601f168201915b5050505050815260200160048201548152602001600582015481526020016006820154815260200160078201548152602001600882015481526020016009820160009054906101000a900473ffffffffffffffffffffffffffffffffffffffff1673ffffffffffffffffffffffffffffffffffffffff1673ffffffffffffffffffffffffffffffffffffffff168152602001600a8201805480602002602001604051908101604052809291908181526020018280548015610c4f57602002820191906000526020600020905b8160009054906101000a900473ffffffffffffffffffffffffffffffffffffffff1673ffffffffffffffffffffffffffffffffffffffff1681526020019060010190808311610c05575b5050505050815250508152602001906001019061088f565b50505050905090565b610c81610c7b6128c4565b82612985565b610cc0576040517f08c379a0000000000000000000000000000000000000000000000000000000008152600401610cb790614b36565b60405180910390fd5b610ccb838383612a1a565b505050565b6000600f60003373ffffffffffffffffffffffffffffffffffffffff1673ffffffffffffffffffffffffffffffffffffffff1681526020019081526020016000205411610d52576040517f08c379a0000000000000000000000000000000000000000000000000000000008152600401610d4990614bc8565b60405180910390fd5b60006001600f60003373ffffffffffffffffffffffffffffffffffffffff1673ffffffffffffffffffffffffffffffffffffffff16815260200190815260200160002054610da09190614c17565b905083600b8281548110610db757610db6614c4b565b5b90600052602060002090600402016000019080519060200190610ddb9291906137a5565b506009600183610deb9190614c17565b81548110610dfc57610dfb614c4b565b5b90600052602060002001600b8281548110610e1a57610e19614c4b565b5b9060005260206000209060040201600101908054610e379061496e565b610e4292919061382b565b5082600b8281548110610e5857610e57614c4b565b5b90600052602060002090600402016002019080519060200190610e7c9291906137a5565b5050505050565b600e5481565b6000600c600183610e9a9190614c17565b81548110610eab57610eaa614c4b565b5b90600052602060002090600b02016007015411610efd576040517f08c379a0000000000000000000000000000000000000000000000000000000008152600401610ef490614cec565b60405180910390fd5b3373ffffffffffffffffffffffffffffffffffffffff16600c600183610f239190614c17565b81548110610f3457610f33614c4b565b5b90600052602060002090600b020160090160009054906101000a900473ffffffffffffffffffffffffffffffffffffffff1673ffffffffffffffffffffffffffffffffffffffff1614610fbc576040517f08c379a0000000000000000000000000000000000000000000000000000000008152600401610fb390614d58565b60405180910390fd5b6000805b600c600184610fcf9190614c17565b81548110610fe057610fdf614c4b565b5b90600052602060002090600b0201600a01805490508110156110b5573373ffffffffffffffffffffffffffffffffffffffff16600c6001856110229190614c17565b8154811061103357611032614c4b565b5b90600052602060002090600b0201600a01828154811061105657611055614c4b565b5b9060005260206000200160009054906101000a900473ffffffffffffffffffffffffffffffffffffffff1673ffffffffffffffffffffffffffffffffffffffff1614156110a257600191505b80806110ad90614d78565b915050610fc0565b5060001515811515146110fd576040517f08c379a00000000000000000000000000000000000000000000000000000000081526004016110f490614e33565b60405180910390fd5b600c60018361110c9190614c17565b8154811061111d5761111c614c4b565b5b90600052602060002090600b0201600601600081548092919061113f90614d78565b9190505550600c6001836111539190614c17565b8154811061116457611163614c4b565b5b90600052602060002090600b0201600a01339080600181540180825580915050600190039060005260206000200160009091909190916101000a81548173ffffffffffffffffffffffffffffffffffffffff021916908373ffffffffffffffffffffffffffffffffffffffff1602179055505050565b600d5481565b6111fb83838360405180602001604052806000815250611ccd565b505050565b6000806002600084815260200190815260200160002060009054906101000a900473ffffffffffffffffffffffffffffffffffffffff169050600073ffffffffffffffffffffffffffffffffffffffff168173ffffffffffffffffffffffffffffffffffffffff1614156112a9576040517f08c379a00000000000000000000000000000000000000000000000000000000081526004016112a090614e9f565b60405180910390fd5b80915050919050565b60608060006112c08661258a565b8092508193505050600060405180610160016040528088815260200187815260200186815260200184815260200142815260200142815260200160008152602001600d5481526020018381526020013373ffffffffffffffffffffffffffffffffffffffff168152602001858152509050600c8190806001815401808255809150506001900390600052602060002090600b020160009091909190915060008201518160000190805190602001906113799291906137a5565b5060208201518160010190805190602001906113969291906138b8565b5060408201518160020190805190602001906113b39291906137a5565b5060608201518160030190805190602001906113d09291906137a5565b506080820151816004015560a0820151816005015560c0820151816006015560e0820151816007015561010082015181600801556101208201518160090160006101000a81548173ffffffffffffffffffffffffffffffffffffffff021916908373ffffffffffffffffffffffffffffffffffffffff16021790555061014082015181600a019080519060200190611469929190613918565b5050503360106000600d54815260200190815260200160002060006101000a81548173ffffffffffffffffffffffffffffffffffffffff021916908373ffffffffffffffffffffffffffffffffffffffff160217905550600d60008154809291906114d390614d78565b919050555050505050505050565b60008073ffffffffffffffffffffffffffffffffffffffff168273ffffffffffffffffffffffffffffffffffffffff161415611552576040517f08c379a000000000000000000000000000000000000000000000000000000000815260040161154990614f31565b60405180910390fd5b600360008373ffffffffffffffffffffffffffffffffffffffff1673ffffffffffffffffffffffffffffffffffffffff168152602001908152602001600020549050919050565b6000600f60003373ffffffffffffffffffffffffffffffffffffffff1673ffffffffffffffffffffffffffffffffffffffff168152602001908152602001600020541461161b576040517f08c379a000000000000000000000000000000000000000000000000000000000815260040161161290614f9d565b60405180910390fd5b6000604051806080016040528085815260200184815260200160096001856116439190614c17565b8154811061165457611653614c4b565b5b9060005260206000200180546116699061496e565b80601f01602080910402602001604051908101604052809291908181526020018280546116959061496e565b80156116e25780601f106116b7576101008083540402835291602001916116e2565b820191906000526020600020905b8154815290600101906020018083116116c557829003601f168201915b505050505081526020013373ffffffffffffffffffffffffffffffffffffffff168152509050600b81908060018154018082558091505060019003906000526020600020906004020160009091909190915060008201518160000190805190602001906117509291906137a5565b50602082015181600101908051906020019061176d9291906137a5565b50604082015181600201908051906020019061178a9291906137a5565b5060608201518160030160006101000a81548173ffffffffffffffffffffffffffffffffffffffff021916908373ffffffffffffffffffffffffffffffffffffffff1602179055505050600e54600f60003373ffffffffffffffffffffffffffffffffffffffff1673ffffffffffffffffffffffffffffffffffffffff16815260200190815260200160002081905550600e600081548092919061182d90614d78565b919050555050505050565b6009818154811061184857600080fd5b9060005260206000200160009150905080546118639061496e565b80601f016020809104026020016040519081016040528092919081815260200182805461188f9061496e565b80156118dc5780601f106118b1576101008083540402835291602001916118dc565b820191906000526020600020905b8154815290600101906020018083116118bf57829003601f168201915b505050505081565b6060600180546118f39061496e565b80601f016020809104026020016040519081016040528092919081815260200182805461191f9061496e565b801561196c5780601f106119415761010080835404028352916020019161196c565b820191906000526020600020905b81548152906001019060200180831161194f57829003601f168201915b5050505050905090565b6060806060600080600f60008773ffffffffffffffffffffffffffffffffffffffff1673ffffffffffffffffffffffffffffffffffffffff16815260200190815260200160002054116119fe576040517f08c379a00000000000000000000000000000000000000000000000000000000081526004016119f590614bc8565b60405180910390fd5b60006001600f60008873ffffffffffffffffffffffffffffffffffffffff1673ffffffffffffffffffffffffffffffffffffffff16815260200190815260200160002054611a4c9190614c17565b9050600b8181548110611a6257611a61614c4b565b5b9060005260206000209060040201600001600b8281548110611a8757611a86614c4b565b5b9060005260206000209060040201600101600b8381548110611aac57611aab614c4b565b5b9060005260206000209060040201600201600b8481548110611ad157611ad0614c4b565b5b906000526020600020906004020160030160009054906101000a900473ffffffffffffffffffffffffffffffffffffffff16838054611b0f9061496e565b80601f0160208091040260200160405190810160405280929190818152602001828054611b3b9061496e565b8015611b885780601f10611b5d57610100808354040283529160200191611b88565b820191906000526020600020905b815481529060010190602001808311611b6b57829003601f168201915b50505050509350828054611b9b9061496e565b80601f0160208091040260200160405190810160405280929190818152602001828054611bc79061496e565b8015611c145780601f10611be957610100808354040283529160200191611c14565b820191906000526020600020905b815481529060010190602001808311611bf757829003601f168201915b50505050509250818054611c279061496e565b80601f0160208091040260200160405190810160405280929190818152602001828054611c539061496e565b8015611ca05780601f10611c7557610100808354040283529160200191611ca0565b820191906000526020600020905b815481529060010190602001808311611c8357829003601f168201915b505050505091509450945094509450509193509193565b611cc9611cc26128c4565b8383612c81565b5050565b611cde611cd86128c4565b83612985565b611d1d576040517f08c379a0000000000000000000000000000000000000000000000000000000008152600401611d1490614b36565b60405180910390fd5b611d2984848484612dee565b50505050565b600c8181548110611d3f57600080fd5b90600052602060002090600b0201600091509050806000018054611d629061496e565b80601f0160208091040260200160405190810160405280929190818152602001828054611d8e9061496e565b8015611ddb5780601f10611db057610100808354040283529160200191611ddb565b820191906000526020600020905b815481529060010190602001808311611dbe57829003601f168201915b505050505090806002018054611df09061496e565b80601f0160208091040260200160405190810160405280929190818152602001828054611e1c9061496e565b8015611e695780601f10611e3e57610100808354040283529160200191611e69565b820191906000526020600020905b815481529060010190602001808311611e4c57829003601f168201915b505050505090806003018054611e7e9061496e565b80601f0160208091040260200160405190810160405280929190818152602001828054611eaa9061496e565b8015611ef75780601f10611ecc57610100808354040283529160200191611ef7565b820191906000526020600020905b815481529060010190602001808311611eda57829003601f168201915b5050505050908060040154908060050154908060060154908060070154908060080154908060090160009054906101000a900473ffffffffffffffffffffffffffffffffffffffff16905089565b6060611f5082612879565b6000600660008481526020019081526020016000208054611f709061496e565b80601f0160208091040260200160405190810160405280929190818152602001828054611f9c9061496e565b8015611fe95780601f10611fbe57610100808354040283529160200191611fe9565b820191906000526020600020905b815481529060010190602001808311611fcc57829003601f168201915b505050505090506000611ffa612e4a565b9050600081511415612010578192505050612053565b60008251111561204557808260405160200161202d929190614ff9565b60405160208183030381529060405292505050612053565b61204e84612e61565b925050505b919050565b3373ffffffffffffffffffffffffffffffffffffffff16600c60018361207e9190614c17565b8154811061208f5761208e614c4b565b5b90600052602060002090600b020160090160009054906101000a900473ffffffffffffffffffffffffffffffffffffffff1673ffffffffffffffffffffffffffffffffffffffff1614612117576040517f08c379a000000000000000000000000000000000000000000000000000000000815260040161210e9061508f565b60405180910390fd5b83600c6001836121279190614c17565b8154811061213857612137614c4b565b5b90600052602060002090600b0201600001908051906020019061215c9291906137a5565b5082600c60018361216d9190614c17565b8154811061217e5761217d614c4b565b5b90600052602060002090600b020160010190805190602001906121a29291906138b8565b5081600c6001836121b39190614c17565b815481106121c4576121c3614c4b565b5b90600052602060002090600b020160020190805190602001906121e89291906137a5565b5042600c6001836121f99190614c17565b8154811061220a57612209614c4b565b5b90600052602060002090600b02016005018190555050505050565b60606009805480602002602001604051908101604052809291908181526020016000905b828210156122f55783829060005260206000200180546122689061496e565b80601f01602080910402602001604051908101604052809291908181526020018280546122949061496e565b80156122e15780601f106122b6576101008083540402835291602001916122e1565b820191906000526020600020905b8154815290600101906020018083116122c457829003601f168201915b505050505081526020019060010190612249565b50505050905090565b6000600560008473ffffffffffffffffffffffffffffffffffffffff1673ffffffffffffffffffffffffffffffffffffffff16815260200190815260200160002060008373ffffffffffffffffffffffffffffffffffffffff1673ffffffffffffffffffffffffffffffffffffffff16815260200190815260200160002060009054906101000a900460ff16905092915050565b600b81815481106123a257600080fd5b90600052602060002090600402016000915090508060000180546123c59061496e565b80601f01602080910402602001604051908101604052809291908181526020018280546123f19061496e565b801561243e5780601f106124135761010080835404028352916020019161243e565b820191906000526020600020905b81548152906001019060200180831161242157829003601f168201915b5050505050908060010180546124539061496e565b80601f016020809104026020016040519081016040528092919081815260200182805461247f9061496e565b80156124cc5780601f106124a1576101008083540402835291602001916124cc565b820191906000526020600020905b8154815290600101906020018083116124af57829003601f168201915b5050505050908060020180546124e19061496e565b80601f016020809104026020016040519081016040528092919081815260200182805461250d9061496e565b801561255a5780601f1061252f5761010080835404028352916020019161255a565b820191906000526020600020905b81548152906001019060200180831161253d57829003601f168201915b5050505050908060030160009054906101000a900473ffffffffffffffffffffffffffffffffffffffff16905084565b60606000806125996007612ec9565b905060006008856040516020016125b192919061518f565b60405160208183030381529060405290506126006040518060400160405280601581526020017f0a2d2d2d2d2d205356472064617461202d2d2d2d2d0000000000000000000000815250612776565b61260981612776565b6126476040518060400160405280601581526020017f2d2d2d2d2d2d2d2d2d2d2d2d2d2d2d2d2d2d2d2d0a0000000000000000000000815250612776565b600061267b8661265684612ed7565b60405160200161266792919061533a565b604051602081830303815290604052612ed7565b905060008160405160200161269091906153d6565b60405160208183030381529060405290506126df6040518060400160405280601581526020017f0a2d2d2d2d2d20546f6b656e20555249202d2d2d2d0000000000000000000000815250612776565b6126e881612776565b6127266040518060400160405280601581526020017f2d2d2d2d2d2d2d2d2d2d2d2d2d2d2d2d2d2d2d2d0a0000000000000000000000815250612776565b612730338561306f565b61273a848261308d565b61275d6040518060600160405280602581526020016159e7602591398533613101565b61276760076131a0565b80849550955050505050915091565b61280c8160405160240161278a9190613b8b565b6040516020818303038152906040527f41304fac000000000000000000000000000000000000000000000000000000007bffffffffffffffffffffffffffffffffffffffffffffffffffffffff19166020820180517bffffffffffffffffffffffffffffffffffffffffffffffffffffffff83818316178352505050506131b6565b50565b60007f01ffc9a7000000000000000000000000000000000000000000000000000000007bffffffffffffffffffffffffffffffffffffffffffffffffffffffff1916827bffffffffffffffffffffffffffffffffffffffffffffffffffffffff1916149050919050565b612882816131df565b6128c1576040517f08c379a00000000000000000000000000000000000000000000000000000000081526004016128b890614e9f565b60405180910390fd5b50565b600033905090565b816004600083815260200190815260200160002060006101000a81548173ffffffffffffffffffffffffffffffffffffffff021916908373ffffffffffffffffffffffffffffffffffffffff160217905550808273ffffffffffffffffffffffffffffffffffffffff1661293f83611200565b73ffffffffffffffffffffffffffffffffffffffff167f8c5be1e5ebec7d5bd14f71427d1e84f3dd0314c0f7b2291e5b200ac8c7c3b92560405160405180910390a45050565b60008061299183611200565b90508073ffffffffffffffffffffffffffffffffffffffff168473ffffffffffffffffffffffffffffffffffffffff1614806129d357506129d281856122fe565b5b80612a1157508373ffffffffffffffffffffffffffffffffffffffff166129f98461070d565b73ffffffffffffffffffffffffffffffffffffffff16145b91505092915050565b8273ffffffffffffffffffffffffffffffffffffffff16612a3a82611200565b73ffffffffffffffffffffffffffffffffffffffff1614612a90576040517f08c379a0000000000000000000000000000000000000000000000000000000008152600401612a879061546a565b60405180910390fd5b600073ffffffffffffffffffffffffffffffffffffffff168273ffffffffffffffffffffffffffffffffffffffff161415612b00576040517f08c379a0000000000000000000000000000000000000000000000000000000008152600401612af7906154fc565b60405180910390fd5b612b0b83838361324b565b612b166000826128cc565b6001600360008573ffffffffffffffffffffffffffffffffffffffff1673ffffffffffffffffffffffffffffffffffffffff1681526020019081526020016000206000828254612b669190614c17565b925050819055506001600360008473ffffffffffffffffffffffffffffffffffffffff1673ffffffffffffffffffffffffffffffffffffffff1681526020019081526020016000206000828254612bbd919061551c565b92505081905550816002600083815260200190815260200160002060006101000a81548173ffffffffffffffffffffffffffffffffffffffff021916908373ffffffffffffffffffffffffffffffffffffffff160217905550808273ffffffffffffffffffffffffffffffffffffffff168473ffffffffffffffffffffffffffffffffffffffff167fddf252ad1be2c89b69c2b068fc378daa952ba7f163c4a11628f55a4df523b3ef60405160405180910390a4612c7c838383613250565b505050565b8173ffffffffffffffffffffffffffffffffffffffff168373ffffffffffffffffffffffffffffffffffffffff161415612cf0576040517f08c379a0000000000000000000000000000000000000000000000000000000008152600401612ce7906155be565b60405180910390fd5b80600560008573ffffffffffffffffffffffffffffffffffffffff1673ffffffffffffffffffffffffffffffffffffffff16815260200190815260200160002060008473ffffffffffffffffffffffffffffffffffffffff1673ffffffffffffffffffffffffffffffffffffffff16815260200190815260200160002060006101000a81548160ff0219169083151502179055508173ffffffffffffffffffffffffffffffffffffffff168373ffffffffffffffffffffffffffffffffffffffff167f17307eab39ab6107e8899845ad3d59bd9653f200f220920489ca2b5937696c3183604051612de19190613ad7565b60405180910390a3505050565b612df9848484612a1a565b612e0584848484613255565b612e44576040517f08c379a0000000000000000000000000000000000000000000000000000000008152600401612e3b90615650565b60405180910390fd5b50505050565b606060405180602001604052806000815250905090565b6060612e6c82612879565b6000612e76612e4a565b90506000815111612e965760405180602001604052806000815250612ec1565b80612ea0846133ec565b604051602001612eb1929190614ff9565b6040516020818303038152906040525b915050919050565b600081600001549050919050565b60606000825190506000811415612f00576040518060200160405280600081525091505061306a565b60006003600283612f11919061551c565b612f1b919061569f565b6004612f2791906156d0565b90506000602082612f38919061551c565b67ffffffffffffffff811115612f5157612f506140fd565b5b6040519080825280601f01601f191660200182016040528015612f835781602001600182028036833780820191505090505b5090506000604051806060016040528060408152602001615a0c604091399050600181016020830160005b868110156130275760038101905062ffffff818a015116603f8160121c168401518060081b905060ff603f83600c1c1686015116810190508060081b905060ff603f8360061c1686015116810190508060081b905060ff603f831686015116810190508060e01b90508084526004840193505050612fae565b50600386066001811461304157600281146130515761305c565b613d3d60f01b600283035261305c565b603d60f81b60018303525b508484525050819450505050505b919050565b61308982826040518060200160405280600081525061354d565b5050565b613096826131df565b6130d5576040517f08c379a00000000000000000000000000000000000000000000000000000000081526004016130cc9061579c565b60405180910390fd5b806006600084815260200190815260200160002090805190602001906130fc9291906137a5565b505050565b61319b838383604051602401613119939291906157bc565b6040516020818303038152906040527f1c7ec448000000000000000000000000000000000000000000000000000000007bffffffffffffffffffffffffffffffffffffffffffffffffffffffff19166020820180517bffffffffffffffffffffffffffffffffffffffffffffffffffffffff83818316178352505050506131b6565b505050565b6001816000016000828254019250508190555050565b60008151905060006a636f6e736f6c652e6c6f679050602083016000808483855afa5050505050565b60008073ffffffffffffffffffffffffffffffffffffffff166002600084815260200190815260200160002060009054906101000a900473ffffffffffffffffffffffffffffffffffffffff1673ffffffffffffffffffffffffffffffffffffffff1614159050919050565b505050565b505050565b60006132768473ffffffffffffffffffffffffffffffffffffffff166135a8565b156133df578373ffffffffffffffffffffffffffffffffffffffff1663150b7a0261329f6128c4565b8786866040518563ffffffff1660e01b81526004016132c1949392919061584f565b602060405180830381600087803b1580156132db57600080fd5b505af192505050801561330c57506040513d601f19601f8201168201806040525081019061330991906158b0565b60015b61338f573d806000811461333c576040519150601f19603f3d011682016040523d82523d6000602084013e613341565b606091505b50600081511415613387576040517f08c379a000000000000000000000000000000000000000000000000000000000815260040161337e90615650565b60405180910390fd5b805181602001fd5b63150b7a0260e01b7bffffffffffffffffffffffffffffffffffffffffffffffffffffffff1916817bffffffffffffffffffffffffffffffffffffffffffffffffffffffff1916149150506133e4565b600190505b949350505050565b60606000821415613434576040518060400160405280600181526020017f30000000000000000000000000000000000000000000000000000000000000008152509050613548565b600082905060005b6000821461346657808061344f90614d78565b915050600a8261345f919061569f565b915061343c565b60008167ffffffffffffffff811115613482576134816140fd565b5b6040519080825280601f01601f1916602001820160405280156134b45781602001600182028036833780820191505090505b5090505b60008514613541576001826134cd9190614c17565b9150600a856134dc91906158dd565b60306134e8919061551c565b60f81b8183815181106134fe576134fd614c4b565b5b60200101907effffffffffffffffffffffffffffffffffffffffffffffffffffffffffffff1916908160001a905350600a8561353a919061569f565b94506134b8565b8093505050505b919050565b61355783836135cb565b6135646000848484613255565b6135a3576040517f08c379a000000000000000000000000000000000000000000000000000000000815260040161359a90615650565b60405180910390fd5b505050565b6000808273ffffffffffffffffffffffffffffffffffffffff163b119050919050565b600073ffffffffffffffffffffffffffffffffffffffff168273ffffffffffffffffffffffffffffffffffffffff16141561363b576040517f08c379a00000000000000000000000000000000000000000000000000000000081526004016136329061595a565b60405180910390fd5b613644816131df565b15613684576040517f08c379a000000000000000000000000000000000000000000000000000000000815260040161367b906159c6565b60405180910390fd5b6136906000838361324b565b6001600360008473ffffffffffffffffffffffffffffffffffffffff1673ffffffffffffffffffffffffffffffffffffffff16815260200190815260200160002060008282546136e0919061551c565b92505081905550816002600083815260200190815260200160002060006101000a81548173ffffffffffffffffffffffffffffffffffffffff021916908373ffffffffffffffffffffffffffffffffffffffff160217905550808273ffffffffffffffffffffffffffffffffffffffff16600073ffffffffffffffffffffffffffffffffffffffff167fddf252ad1be2c89b69c2b068fc378daa952ba7f163c4a11628f55a4df523b3ef60405160405180910390a46137a160008383613250565b5050565b8280546137b19061496e565b90600052602060002090601f0160209004810192826137d3576000855561381a565b82601f106137ec57805160ff191683800117855561381a565b8280016001018555821561381a579182015b828111156138195782518255916020019190600101906137fe565b5b50905061382791906139a2565b5090565b8280546138379061496e565b90600052602060002090601f01602090048101928261385957600085556138a7565b82601f1061386a57805485556138a7565b828001600101855582156138a757600052602060002091601f016020900482015b828111156138a657825482559160010191906001019061388b565b5b5090506138b491906139a2565b5090565b828054828255906000526020600020908101928215613907579160200282015b828111156139065782518290805190602001906138f69291906137a5565b50916020019190600101906138d8565b5b50905061391491906139bf565b5090565b828054828255906000526020600020908101928215613991579160200282015b828111156139905782518260006101000a81548173ffffffffffffffffffffffffffffffffffffffff021916908373ffffffffffffffffffffffffffffffffffffffff16021790555091602001919060010190613938565b5b50905061399e91906139a2565b5090565b5b808211156139bb5760008160009055506001016139a3565b5090565b5b808211156139df57600081816139d691906139e3565b506001016139c0565b5090565b5080546139ef9061496e565b6000825580601f10613a015750613a20565b601f016020900490600052602060002090810190613a1f91906139a2565b5b50565b6000604051905090565b600080fd5b600080fd5b60007fffffffff0000000000000000000000000000000000000000000000000000000082169050919050565b613a6c81613a37565b8114613a7757600080fd5b50565b600081359050613a8981613a63565b92915050565b600060208284031215613aa557613aa4613a2d565b5b6000613ab384828501613a7a565b91505092915050565b60008115159050919050565b613ad181613abc565b82525050565b6000602082019050613aec6000830184613ac8565b92915050565b600081519050919050565b600082825260208201905092915050565b60005b83811015613b2c578082015181840152602081019050613b11565b83811115613b3b576000848401525b50505050565b6000601f19601f8301169050919050565b6000613b5d82613af2565b613b678185613afd565b9350613b77818560208601613b0e565b613b8081613b41565b840191505092915050565b60006020820190508181036000830152613ba58184613b52565b905092915050565b6000819050919050565b613bc081613bad565b8114613bcb57600080fd5b50565b600081359050613bdd81613bb7565b92915050565b600060208284031215613bf957613bf8613a2d565b5b6000613c0784828501613bce565b91505092915050565b600073ffffffffffffffffffffffffffffffffffffffff82169050919050565b6000613c3b82613c10565b9050919050565b613c4b81613c30565b82525050565b6000602082019050613c666000830184613c42565b92915050565b613c7581613c30565b8114613c8057600080fd5b50565b600081359050613c9281613c6c565b92915050565b60008060408385031215613caf57613cae613a2d565b5b6000613cbd85828601613c83565b9250506020613cce85828601613bce565b9150509250929050565b600081519050919050565b600082825260208201905092915050565b6000819050602082019050919050565b600082825260208201905092915050565b6000613d2082613af2565b613d2a8185613d04565b9350613d3a818560208601613b0e565b613d4381613b41565b840191505092915050565b600081519050919050565b600082825260208201905092915050565b6000819050602082019050919050565b6000613d868383613d15565b905092915050565b6000602082019050919050565b6000613da682613d4e565b613db08185613d59565b935083602082028501613dc285613d6a565b8060005b85811015613dfe5784840389528151613ddf8582613d7a565b9450613dea83613d8e565b925060208a01995050600181019050613dc6565b50829750879550505050505092915050565b613e1981613bad565b82525050565b613e2881613c30565b82525050565b600081519050919050565b600082825260208201905092915050565b6000819050602082019050919050565b6000613e668383613e1f565b60208301905092915050565b6000602082019050919050565b6000613e8a82613e2e565b613e948185613e39565b9350613e9f83613e4a565b8060005b83811015613ed0578151613eb78882613e5a565b9750613ec283613e72565b925050600181019050613ea3565b5085935050505092915050565b6000610160830160008301518482036000860152613efb8282613d15565b91505060208301518482036020860152613f158282613d9b565b91505060408301518482036040860152613f2f8282613d15565b91505060608301518482036060860152613f498282613d15565b9150506080830151613f5e6080860182613e10565b5060a0830151613f7160a0860182613e10565b5060c0830151613f8460c0860182613e10565b5060e0830151613f9760e0860182613e10565b50610100830151613fac610100860182613e10565b50610120830151613fc1610120860182613e1f565b50610140830151848203610140860152613fdb8282613e7f565b9150508091505092915050565b6000613ff48383613edd565b905092915050565b6000602082019050919050565b600061401482613cd8565b61401e8185613ce3565b93508360208202850161403085613cf4565b8060005b8581101561406c578484038952815161404d8582613fe8565b945061405883613ffc565b925060208a01995050600181019050614034565b50829750879550505050505092915050565b600060208201905081810360008301526140988184614009565b905092915050565b6000806000606084860312156140b9576140b8613a2d565b5b60006140c786828701613c83565b93505060206140d886828701613c83565b92505060406140e986828701613bce565b9150509250925092565b600080fd5b600080fd5b7f4e487b7100000000000000000000000000000000000000000000000000000000600052604160045260246000fd5b61413582613b41565b810181811067ffffffffffffffff82111715614154576141536140fd565b5b80604052505050565b6000614167613a23565b9050614173828261412c565b919050565b600067ffffffffffffffff821115614193576141926140fd565b5b61419c82613b41565b9050602081019050919050565b82818337600083830152505050565b60006141cb6141c684614178565b61415d565b9050828152602081018484840111156141e7576141e66140f8565b5b6141f28482856141a9565b509392505050565b600082601f83011261420f5761420e6140f3565b5b813561421f8482602086016141b8565b91505092915050565b60008060006060848603121561424157614240613a2d565b5b600084013567ffffffffffffffff81111561425f5761425e613a32565b5b61426b868287016141fa565b935050602084013567ffffffffffffffff81111561428c5761428b613a32565b5b614298868287016141fa565b92505060406142a986828701613bce565b9150509250925092565b6142bc81613bad565b82525050565b60006020820190506142d760008301846142b3565b92915050565b600067ffffffffffffffff8211156142f8576142f76140fd565b5b602082029050602081019050919050565b600080fd5b600061432161431c846142dd565b61415d565b9050808382526020820190506020840283018581111561434457614343614309565b5b835b8181101561438b57803567ffffffffffffffff811115614369576143686140f3565b5b80860161437689826141fa565b85526020850194505050602081019050614346565b5050509392505050565b600082601f8301126143aa576143a96140f3565b5b81356143ba84826020860161430e565b91505092915050565b6000806000606084860312156143dc576143db613a2d565b5b600084013567ffffffffffffffff8111156143fa576143f9613a32565b5b614406868287016141fa565b935050602084013567ffffffffffffffff81111561442757614426613a32565b5b61443386828701614395565b925050604084013567ffffffffffffffff81111561445457614453613a32565b5b614460868287016141fa565b9150509250925092565b6000602082840312156144805761447f613a2d565b5b600061448e84828501613c83565b91505092915050565b600060808201905081810360008301526144b18187613b52565b905081810360208301526144c58186613b52565b905081810360408301526144d98185613b52565b90506144e86060830184613c42565b95945050505050565b6144fa81613abc565b811461450557600080fd5b50565b600081359050614517816144f1565b92915050565b6000806040838503121561453457614533613a2d565b5b600061454285828601613c83565b925050602061455385828601614508565b9150509250929050565b600067ffffffffffffffff821115614578576145776140fd565b5b61458182613b41565b9050602081019050919050565b60006145a161459c8461455d565b61415d565b9050828152602081018484840111156145bd576145bc6140f8565b5b6145c88482856141a9565b509392505050565b600082601f8301126145e5576145e46140f3565b5b81356145f584826020860161458e565b91505092915050565b6000806000806080858703121561461857614617613a2d565b5b600061462687828801613c83565b945050602061463787828801613c83565b935050604061464887828801613bce565b925050606085013567ffffffffffffffff81111561466957614668613a32565b5b614675878288016145d0565b91505092959194509250565b600061012082019050818103600083015261469c818c613b52565b905081810360208301526146b0818b613b52565b905081810360408301526146c4818a613b52565b90506146d360608301896142b3565b6146e060808301886142b3565b6146ed60a08301876142b3565b6146fa60c08301866142b3565b61470760e08301856142b3565b614715610100830184613c42565b9a9950505050505050505050565b6000806000806080858703121561473d5761473c613a2d565b5b600085013567ffffffffffffffff81111561475b5761475a613a32565b5b614767878288016141fa565b945050602085013567ffffffffffffffff81111561478857614787613a32565b5b61479487828801614395565b935050604085013567ffffffffffffffff8111156147b5576147b4613a32565b5b6147c1878288016141fa565b92505060606147d287828801613bce565b91505092959194509250565b600082825260208201905092915050565b60006147fa82613d4e565b61480481856147de565b93508360208202850161481685613d6a565b8060005b8581101561485257848403895281516148338582613d7a565b945061483e83613d8e565b925060208a0199505060018101905061481a565b50829750879550505050505092915050565b6000602082019050818103600083015261487e81846147ef565b905092915050565b6000806040838503121561489d5761489c613a2d565b5b60006148ab85828601613c83565b92505060206148bc85828601613c83565b9150509250929050565b6000602082840312156148dc576148db613a2d565b5b600082013567ffffffffffffffff8111156148fa576148f9613a32565b5b614906848285016141fa565b91505092915050565b600060408201905081810360008301526149298185613b52565b905061493860208301846142b3565b9392505050565b7f4e487b7100000000000000000000000000000000000000000000000000000000600052602260045260246000fd5b6000600282049050600182168061498657607f821691505b6020821081141561499a5761499961493f565b5b50919050565b7f4552433732313a20617070726f76616c20746f2063757272656e74206f776e6560008201527f7200000000000000000000000000000000000000000000000000000000000000602082015250565b60006149fc602183613afd565b9150614a07826149a0565b604082019050919050565b60006020820190508181036000830152614a2b816149ef565b9050919050565b7f4552433732313a20617070726f76652063616c6c6572206973206e6f7420746f60008201527f6b656e206f776e6572206e6f7220617070726f76656420666f7220616c6c0000602082015250565b6000614a8e603e83613afd565b9150614a9982614a32565b604082019050919050565b60006020820190508181036000830152614abd81614a81565b9050919050565b7f4552433732313a2063616c6c6572206973206e6f7420746f6b656e206f776e6560008201527f72206e6f7220617070726f766564000000000000000000000000000000000000602082015250565b6000614b20602e83613afd565b9150614b2b82614ac4565b604082019050919050565b60006020820190508181036000830152614b4f81614b13565b9050919050565b7f596f752068617665206e6f74207965742072656769737465726564206120707260008201527f6f66696c652e0000000000000000000000000000000000000000000000000000602082015250565b6000614bb2602683613afd565b9150614bbd82614b56565b604082019050919050565b60006020820190508181036000830152614be181614ba5565b9050919050565b7f4e487b7100000000000000000000000000000000000000000000000000000000600052601160045260246000fd5b6000614c2282613bad565b9150614c2d83613bad565b925082821015614c4057614c3f614be8565b5b828203905092915050565b7f4e487b7100000000000000000000000000000000000000000000000000000000600052603260045260246000fd5b7f4e6f2073746f726965732077697468207468652073706563696669656420746960008201527f746c652061726520726567697374657265642e00000000000000000000000000602082015250565b6000614cd6603383613afd565b9150614ce182614c7a565b604082019050919050565b60006020820190508181036000830152614d0581614cc9565b9050919050565b7f53746f727920617574686f72732063616e6e6f74206265206c696b65642e0000600082015250565b6000614d42601e83613afd565b9150614d4d82614d0c565b602082019050919050565b60006020820190508181036000830152614d7181614d35565b9050919050565b6000614d8382613bad565b91507fffffffffffffffffffffffffffffffffffffffffffffffffffffffffffffffff821415614db657614db5614be8565b5b600182019050919050565b7f596f7520617265206c696b696e6720746869732073746f7279206f6e2074686560008201527f206e6573742e0000000000000000000000000000000000000000000000000000602082015250565b6000614e1d602683613afd565b9150614e2882614dc1565b604082019050919050565b60006020820190508181036000830152614e4c81614e10565b9050919050565b7f4552433732313a20696e76616c696420746f6b656e2049440000000000000000600082015250565b6000614e89601883613afd565b9150614e9482614e53565b602082019050919050565b60006020820190508181036000830152614eb881614e7c565b9050919050565b7f4552433732313a2061646472657373207a65726f206973206e6f74206120766160008201527f6c6964206f776e65720000000000000000000000000000000000000000000000602082015250565b6000614f1b602983613afd565b9150614f2682614ebf565b604082019050919050565b60006020820190508181036000830152614f4a81614f0e565b9050919050565b7f416e206163636f756e7420616c7265616479206578697374732e000000000000600082015250565b6000614f87601a83613afd565b9150614f9282614f51565b602082019050919050565b60006020820190508181036000830152614fb681614f7a565b9050919050565b600081905092915050565b6000614fd382613af2565b614fdd8185614fbd565b9350614fed818560208601613b0e565b80840191505092915050565b60006150058285614fc8565b91506150118284614fc8565b91508190509392505050565b7f4f6e6c792074686520617574686f722063616e2065646974207468652073746f60008201527f72792e0000000000000000000000000000000000000000000000000000000000602082015250565b6000615079602383613afd565b91506150848261501d565b604082019050919050565b600060208201905081810360008301526150a88161506c565b9050919050565b60008190508160005260206000209050919050565b600081546150d18161496e565b6150db8186614fbd565b945060018216600081146150f657600181146151075761513a565b60ff1983168652818601935061513a565b615110856150af565b60005b8381101561513257815481890152600182019150602081019050615113565b838801955050505b50505092915050565b7f3c2f746578743e3c2f7376673e00000000000000000000000000000000000000600082015250565b6000615179600d83614fbd565b915061518482615143565b600d82019050919050565b600061519b82856150c4565b91506151a78284614fc8565b91506151b28261516c565b91508190509392505050565b7f7b226e616d65223a202200000000000000000000000000000000000000000000600082015250565b60006151f4600a83614fbd565b91506151ff826151be565b600a82019050919050565b7f222c20226465736372697074696f6e223a20224d79205265636f76657279205360008201527f746f7279222c2000000000000000000000000000000000000000000000000000602082015250565b6000615266602783614fbd565b91506152718261520a565b602782019050919050565b7f22696d616765223a2022646174613a696d6167652f7376672b786d6c3b62617360008201527f6536342c00000000000000000000000000000000000000000000000000000000602082015250565b60006152d8602483614fbd565b91506152e38261527c565b602482019050919050565b7f227d000000000000000000000000000000000000000000000000000000000000600082015250565b6000615324600283614fbd565b915061532f826152ee565b600282019050919050565b6000615345826151e7565b91506153518285614fc8565b915061535c82615259565b9150615367826152cb565b91506153738284614fc8565b915061537e82615317565b91508190509392505050565b7f646174613a6170706c69636174696f6e2f6a736f6e3b6261736536342c000000600082015250565b60006153c0601d83614fbd565b91506153cb8261538a565b601d82019050919050565b60006153e1826153b3565b91506153ed8284614fc8565b915081905092915050565b7f4552433732313a207472616e736665722066726f6d20696e636f72726563742060008201527f6f776e6572000000000000000000000000000000000000000000000000000000602082015250565b6000615454602583613afd565b915061545f826153f8565b604082019050919050565b6000602082019050818103600083015261548381615447565b9050919050565b7f4552433732313a207472616e7366657220746f20746865207a65726f2061646460008201527f7265737300000000000000000000000000000000000000000000000000000000602082015250565b60006154e6602483613afd565b91506154f18261548a565b604082019050919050565b60006020820190508181036000830152615515816154d9565b9050919050565b600061552782613bad565b915061553283613bad565b9250827fffffffffffffffffffffffffffffffffffffffffffffffffffffffffffffffff0382111561556757615566614be8565b5b828201905092915050565b7f4552433732313a20617070726f766520746f2063616c6c657200000000000000600082015250565b60006155a8601983613afd565b91506155b382615572565b602082019050919050565b600060208201905081810360008301526155d78161559b565b9050919050565b7f4552433732313a207472616e7366657220746f206e6f6e20455243373231526560008201527f63656976657220696d706c656d656e7465720000000000000000000000000000602082015250565b600061563a603283613afd565b9150615645826155de565b604082019050919050565b600060208201905081810360008301526156698161562d565b9050919050565b7f4e487b7100000000000000000000000000000000000000000000000000000000600052601260045260246000fd5b60006156aa82613bad565b91506156b583613bad565b9250826156c5576156c4615670565b5b828204905092915050565b60006156db82613bad565b91506156e683613bad565b9250817fffffffffffffffffffffffffffffffffffffffffffffffffffffffffffffffff048311821515161561571f5761571e614be8565b5b828202905092915050565b7f45524337323155524953746f726167653a2055524920736574206f66206e6f6e60008201527f6578697374656e7420746f6b656e000000000000000000000000000000000000602082015250565b6000615786602e83613afd565b91506157918261572a565b604082019050919050565b600060208201905081810360008301526157b581615779565b9050919050565b600060608201905081810360008301526157d68186613b52565b90506157e560208301856142b3565b6157f26040830184613c42565b949350505050565b600081519050919050565b600082825260208201905092915050565b6000615821826157fa565b61582b8185615805565b935061583b818560208601613b0e565b61584481613b41565b840191505092915050565b60006080820190506158646000830187613c42565b6158716020830186613c42565b61587e60408301856142b3565b81810360608301526158908184615816565b905095945050505050565b6000815190506158aa81613a63565b92915050565b6000602082840312156158c6576158c5613a2d565b5b60006158d48482850161589b565b91505092915050565b60006158e882613bad565b91506158f383613bad565b92508261590357615902615670565b5b828206905092915050565b7f4552433732313a206d696e7420746f20746865207a65726f2061646472657373600082015250565b6000615944602083613afd565b915061594f8261590e565b602082019050919050565b6000602082019050818103600083015261597381615937565b9050919050565b7f4552433732313a20746f6b656e20616c7265616479206d696e74656400000000600082015250565b60006159b0601c83613afd565b91506159bb8261597a565b602082019050919050565b600060208201905081810360008301526159df816159a3565b905091905056fe416e204e465420772f20494420257320686173206265656e206d696e74656420746f2025734142434445464748494a4b4c4d4e4f505152535455565758595a6162636465666768696a6b6c6d6e6f707172737475767778797a303132333435363738392b2fa2646970667358221220065f4ecad028c4cc26d071e3bd6d3d374c4b676f24797b03632b3a619c10e5ea64736f6c63430008090033516d624648565048315663556a696a75394b416638636b6e6b417958584445656865323368646148633869353441516d583564546d4d4e59534a33375a6a6d67544c327779636e75715065483143575362723376464c38374d34374354686973206973206d79205265636f766572792053746f727920636f6e74726163742e516d616a43454a674474477150416753414c624e37347a714a63434e37547270417867757442733446775a6e6f5a516d5a317036333463784c7142745539384559594e69735642567959467368766b435163505353746a59626242533c73766720786d6c6e733d27687474703a2f2f7777772e77332e6f72672f323030302f73766727207072657365727665417370656374526174696f3d27784d696e594d696e206d656574272076696577426f783d273020302033353020333530273e3c7374796c653e2e62617365207b2066696c6c3a20233032423242343b20666f6e742d66616d696c793a20274869726167696e6f204d61727520476f746869632050726f273b20666f6e742d73697a653a20323470783b207d3c2f7374796c653e3c726563742077696474683d273130302527206865696768743d2731303025272066696c6c3d272345394534444627202f3e3c7465787420783d273530252720793d273530252720636c6173734e616d653d27626173652720646f6d696e616e742d626173656c696e653d276d6964646c652720746578742d616e63686f723d276d6964646c65273e516d50463854677439526f31516b416d6d356f65543479736a636548664c5054416a784b67536f4e593251385878",
  "linkReferences": {},
  "deployedLinkReferences": {}
}