{
  "_format": "hh-sol-artifact-1",
  "contractName": "RecoveryStory",
  "sourceName": "contracts/RecoveryStory.sol",
  "abi": [
    {
      "anonymous": false,
      "inputs": [
        {
          "indexed": true,
          "internalType": "address",
          "name": "owner",
          "type": "address"
        },
        {
          "indexed": true,
          "internalType": "address",
          "name": "approved",
          "type": "address"
        },
        {
          "indexed": true,
          "internalType": "uint256",
          "name": "tokenId",
          "type": "uint256"
        }
      ],
      "name": "Approval",
      "type": "event"
    },
    {
      "anonymous": false,
      "inputs": [
        {
          "indexed": true,
          "internalType": "address",
          "name": "owner",
          "type": "address"
        },
        {
          "indexed": true,
          "internalType": "address",
          "name": "operator",
          "type": "address"
        },
        {
          "indexed": false,
          "internalType": "bool",
          "name": "approved",
          "type": "bool"
        }
      ],
      "name": "ApprovalForAll",
      "type": "event"
    },
    {
      "anonymous": false,
      "inputs": [
        {
          "indexed": true,
          "internalType": "address",
          "name": "from",
          "type": "address"
        },
        {
          "indexed": true,
          "internalType": "address",
          "name": "to",
          "type": "address"
        },
        {
          "indexed": true,
          "internalType": "uint256",
          "name": "tokenId",
          "type": "uint256"
        }
      ],
      "name": "Transfer",
      "type": "event"
    },
    {
      "inputs": [
        {
          "internalType": "uint256",
          "name": "_storyId",
          "type": "uint256"
        }
      ],
      "name": "addLike",
      "outputs": [],
      "stateMutability": "nonpayable",
      "type": "function"
    },
    {
      "inputs": [
        {
          "internalType": "address",
          "name": "to",
          "type": "address"
        },
        {
          "internalType": "uint256",
          "name": "tokenId",
          "type": "uint256"
        }
      ],
      "name": "approve",
      "outputs": [],
      "stateMutability": "nonpayable",
      "type": "function"
    },
    {
      "inputs": [
        {
          "internalType": "uint256",
          "name": "",
          "type": "uint256"
        }
      ],
      "name": "avatars",
      "outputs": [
        {
          "internalType": "string",
          "name": "",
          "type": "string"
        }
      ],
      "stateMutability": "view",
      "type": "function"
    },
    {
      "inputs": [
        {
          "internalType": "address",
          "name": "owner",
          "type": "address"
        }
      ],
      "name": "balanceOf",
      "outputs": [
        {
          "internalType": "uint256",
          "name": "",
          "type": "uint256"
        }
      ],
      "stateMutability": "view",
      "type": "function"
    },
    {
      "inputs": [
        {
          "internalType": "uint256",
          "name": "_tokenId",
          "type": "uint256"
        },
        {
          "internalType": "uint256",
          "name": "_storyId",
          "type": "uint256"
        }
      ],
      "name": "buyNft",
      "outputs": [],
      "stateMutability": "payable",
      "type": "function"
    },
    {
      "inputs": [
        {
          "internalType": "string",
          "name": "_storyTitle",
          "type": "string"
        },
        {
          "internalType": "string[]",
          "name": "_tags",
          "type": "string[]"
        },
        {
          "internalType": "string",
          "name": "_storyBody",
          "type": "string"
        }
      ],
      "name": "createStory",
      "outputs": [],
      "stateMutability": "nonpayable",
      "type": "function"
    },
    {
      "inputs": [
        {
          "internalType": "string",
          "name": "_name",
          "type": "string"
        },
        {
          "internalType": "string",
          "name": "_biography",
          "type": "string"
        },
        {
          "internalType": "uint256",
          "name": "_avatar",
          "type": "uint256"
        }
      ],
      "name": "createUserProfile",
      "outputs": [],
      "stateMutability": "nonpayable",
      "type": "function"
    },
    {
      "inputs": [
        {
          "internalType": "string",
          "name": "_storyTitle",
          "type": "string"
        },
        {
          "internalType": "string[]",
          "name": "tags",
          "type": "string[]"
        },
        {
          "internalType": "string",
          "name": "_storyBody",
          "type": "string"
        },
        {
          "internalType": "uint256",
          "name": "_storyId",
          "type": "uint256"
        }
      ],
      "name": "editStory",
      "outputs": [],
      "stateMutability": "nonpayable",
      "type": "function"
    },
    {
      "inputs": [
        {
          "internalType": "string",
          "name": "_name",
          "type": "string"
        },
        {
          "internalType": "string",
          "name": "_biography",
          "type": "string"
        },
        {
          "internalType": "uint256",
          "name": "_avatar",
          "type": "uint256"
        }
      ],
      "name": "editUserProfile",
      "outputs": [],
      "stateMutability": "nonpayable",
      "type": "function"
    },
    {
      "inputs": [],
      "name": "getAllAvatar",
      "outputs": [
        {
          "internalType": "string[]",
          "name": "",
          "type": "string[]"
        }
      ],
      "stateMutability": "view",
      "type": "function"
    },
    {
      "inputs": [],
      "name": "getAllStories",
      "outputs": [
        {
          "components": [
            {
              "internalType": "string",
              "name": "storyTitle",
              "type": "string"
            },
            {
              "internalType": "string[]",
              "name": "tags",
              "type": "string[]"
            },
            {
              "internalType": "string",
              "name": "storyBody",
              "type": "string"
            },
            {
              "internalType": "string",
              "name": "dataURI",
              "type": "string"
            },
            {
              "internalType": "uint256",
              "name": "createDate",
              "type": "uint256"
            },
            {
              "internalType": "uint256",
              "name": "updateDate",
              "type": "uint256"
            },
            {
              "internalType": "uint256",
              "name": "numLike",
              "type": "uint256"
            },
            {
              "internalType": "uint256",
              "name": "storyId",
              "type": "uint256"
            },
            {
              "internalType": "uint256",
              "name": "tokenId",
              "type": "uint256"
            },
            {
              "internalType": "address",
              "name": "authorAddress",
              "type": "address"
            },
            {
              "internalType": "address[]",
              "name": "likeUserAdress",
              "type": "address[]"
            }
          ],
          "internalType": "struct RecoveryStory.Story[]",
          "name": "",
          "type": "tuple[]"
        }
      ],
      "stateMutability": "view",
      "type": "function"
    },
    {
      "inputs": [
        {
          "internalType": "uint256",
          "name": "tokenId",
          "type": "uint256"
        }
      ],
      "name": "getApproved",
      "outputs": [
        {
          "internalType": "address",
          "name": "",
          "type": "address"
        }
      ],
      "stateMutability": "view",
      "type": "function"
    },
    {
      "inputs": [
        {
          "internalType": "address",
          "name": "userAddress",
          "type": "address"
        }
      ],
      "name": "getUserProfile",
      "outputs": [
        {
          "internalType": "string",
          "name": "",
          "type": "string"
        },
        {
          "internalType": "string",
          "name": "",
          "type": "string"
        },
        {
          "internalType": "string",
          "name": "",
          "type": "string"
        },
        {
          "internalType": "address",
          "name": "",
          "type": "address"
        }
      ],
      "stateMutability": "view",
      "type": "function"
    },
    {
      "inputs": [
        {
          "internalType": "address",
          "name": "owner",
          "type": "address"
        },
        {
          "internalType": "address",
          "name": "operator",
          "type": "address"
        }
      ],
      "name": "isApprovedForAll",
      "outputs": [
        {
          "internalType": "bool",
          "name": "",
          "type": "bool"
        }
      ],
      "stateMutability": "view",
      "type": "function"
    },
    {
      "inputs": [
        {
          "internalType": "string",
          "name": "_title",
          "type": "string"
        }
      ],
      "name": "mintNFT",
      "outputs": [
        {
          "internalType": "string",
          "name": "",
          "type": "string"
        },
        {
          "internalType": "uint256",
          "name": "",
          "type": "uint256"
        }
      ],
      "stateMutability": "nonpayable",
      "type": "function"
    },
    {
      "inputs": [],
      "name": "name",
      "outputs": [
        {
          "internalType": "string",
          "name": "",
          "type": "string"
        }
      ],
      "stateMutability": "view",
      "type": "function"
    },
    {
      "inputs": [
        {
          "internalType": "uint256",
          "name": "tokenId",
          "type": "uint256"
        }
      ],
      "name": "ownerOf",
      "outputs": [
        {
          "internalType": "address",
          "name": "",
          "type": "address"
        }
      ],
      "stateMutability": "view",
      "type": "function"
    },
    {
      "inputs": [
        {
          "internalType": "address",
          "name": "from",
          "type": "address"
        },
        {
          "internalType": "address",
          "name": "to",
          "type": "address"
        },
        {
          "internalType": "uint256",
          "name": "tokenId",
          "type": "uint256"
        }
      ],
      "name": "safeTransferFrom",
      "outputs": [],
      "stateMutability": "nonpayable",
      "type": "function"
    },
    {
      "inputs": [
        {
          "internalType": "address",
          "name": "from",
          "type": "address"
        },
        {
          "internalType": "address",
          "name": "to",
          "type": "address"
        },
        {
          "internalType": "uint256",
          "name": "tokenId",
          "type": "uint256"
        },
        {
          "internalType": "bytes",
          "name": "data",
          "type": "bytes"
        }
      ],
      "name": "safeTransferFrom",
      "outputs": [],
      "stateMutability": "nonpayable",
      "type": "function"
    },
    {
      "inputs": [
        {
          "internalType": "address",
          "name": "operator",
          "type": "address"
        },
        {
          "internalType": "bool",
          "name": "approved",
          "type": "bool"
        }
      ],
      "name": "setApprovalForAll",
      "outputs": [],
      "stateMutability": "nonpayable",
      "type": "function"
    },
    {
      "inputs": [
        {
          "internalType": "uint256",
          "name": "",
          "type": "uint256"
        }
      ],
      "name": "story",
      "outputs": [
        {
          "internalType": "string",
          "name": "storyTitle",
          "type": "string"
        },
        {
          "internalType": "string",
          "name": "storyBody",
          "type": "string"
        },
        {
          "internalType": "string",
          "name": "dataURI",
          "type": "string"
        },
        {
          "internalType": "uint256",
          "name": "createDate",
          "type": "uint256"
        },
        {
          "internalType": "uint256",
          "name": "updateDate",
          "type": "uint256"
        },
        {
          "internalType": "uint256",
          "name": "numLike",
          "type": "uint256"
        },
        {
          "internalType": "uint256",
          "name": "storyId",
          "type": "uint256"
        },
        {
          "internalType": "uint256",
          "name": "tokenId",
          "type": "uint256"
        },
        {
          "internalType": "address",
          "name": "authorAddress",
          "type": "address"
        }
      ],
      "stateMutability": "view",
      "type": "function"
    },
    {
      "inputs": [],
      "name": "storyIdCounter",
      "outputs": [
        {
          "internalType": "uint256",
          "name": "",
          "type": "uint256"
        }
      ],
      "stateMutability": "view",
      "type": "function"
    },
    {
      "inputs": [
        {
          "internalType": "bytes4",
          "name": "interfaceId",
          "type": "bytes4"
        }
      ],
      "name": "supportsInterface",
      "outputs": [
        {
          "internalType": "bool",
          "name": "",
          "type": "bool"
        }
      ],
      "stateMutability": "view",
      "type": "function"
    },
    {
      "inputs": [],
      "name": "symbol",
      "outputs": [
        {
          "internalType": "string",
          "name": "",
          "type": "string"
        }
      ],
      "stateMutability": "view",
      "type": "function"
    },
    {
      "inputs": [
        {
          "internalType": "uint256",
          "name": "tokenId",
          "type": "uint256"
        }
      ],
      "name": "tokenURI",
      "outputs": [
        {
          "internalType": "string",
          "name": "",
          "type": "string"
        }
      ],
      "stateMutability": "view",
      "type": "function"
    },
    {
      "inputs": [
        {
          "internalType": "address",
          "name": "from",
          "type": "address"
        },
        {
          "internalType": "address",
          "name": "to",
          "type": "address"
        },
        {
          "internalType": "uint256",
          "name": "tokenId",
          "type": "uint256"
        }
      ],
      "name": "transferFrom",
      "outputs": [],
      "stateMutability": "nonpayable",
      "type": "function"
    },
    {
      "inputs": [],
      "name": "userIdCounter",
      "outputs": [
        {
          "internalType": "uint256",
          "name": "",
          "type": "uint256"
        }
      ],
      "stateMutability": "view",
      "type": "function"
    },
    {
      "inputs": [
        {
          "internalType": "uint256",
          "name": "",
          "type": "uint256"
        }
      ],
      "name": "userProfile",
      "outputs": [
        {
          "internalType": "string",
          "name": "name",
          "type": "string"
        },
        {
          "internalType": "string",
          "name": "avatar",
          "type": "string"
        },
        {
          "internalType": "string",
          "name": "biography",
          "type": "string"
        },
        {
          "internalType": "address",
          "name": "walletAddress",
          "type": "address"
        }
      ],
      "stateMutability": "view",
      "type": "function"
    }
  ],
  "bytecode": "0x608060405260405180610160016040528061013e81526020016200688e61013e91396009908051906020019062000038929190620005e7565b506040518060a001604052806040518060600160405280602e815260200162006a79602e913981526020016040518060600160405280602e815260200162006a1d602e913981526020016040518060600160405280602e8152602001620069cc602e913981526020016040518060600160405280602e815260200162006860602e913981526020016040518060600160405280602e815260200162006a4b602e9139815250600a906005620000ef92919062000678565b5066038d7ea4c68000600b556001600e556001600f553480156200011257600080fd5b506040518060400160405280601081526020017f5265636f7665727953746f72794e4654000000000000000000000000000000008152506040518060400160405280600381526020017f52534e0000000000000000000000000000000000000000000000000000000000815250816000908051906020019062000197929190620005e7565b508060019080519060200190620001b0929190620005e7565b505050620001e2604051806060016040528060238152602001620069fa602391396200051b60201b62002b2d1760201c565b60405180604001604052806040518060400160405280600781526020017f233542423336360000000000000000000000000000000000000000000000000081525081526020016040518060400160405280600781526020017f23304534353239000000000000000000000000000000000000000000000000008152508152506008600080815260200190815260200160002090600262000284929190620006df565b5060405180604001604052806040518060400160405280600781526020017f233032423242340000000000000000000000000000000000000000000000000081525081526020016040518060400160405280600781526020017f2345394534444600000000000000000000000000000000000000000000000000815250815250600860006001815260200190815260200160002090600262000328929190620006df565b5060405180604001604052806040518060400160405280600781526020017f234646433231440000000000000000000000000000000000000000000000000081525081526020016040518060400160405280600781526020017f23303742444545000000000000000000000000000000000000000000000000008152508152506008600060028152602001908152602001600020906002620003cc929190620006df565b5060405180604001604052806040518060400160405280600781526020017f234646394639460000000000000000000000000000000000000000000000000081525081526020016040518060400160405280600781526020017f2346434444423000000000000000000000000000000000000000000000000000815250815250600860006003815260200190815260200160002090600262000470929190620006df565b5060405180604001604052806040518060400160405280600781526020017f234445423641420000000000000000000000000000000000000000000000000081525081526020016040518060400160405280600781526020017f2341433730383800000000000000000000000000000000000000000000000000815250815250600860006004815260200190815260200160002090600262000514929190620006df565b5062000900565b620005bb8160405160240162000532919062000877565b6040516020818303038152906040527f41304fac000000000000000000000000000000000000000000000000000000007bffffffffffffffffffffffffffffffffffffffffffffffffffffffff19166020820180517bffffffffffffffffffffffffffffffffffffffffffffffffffffffff8381831617835250505050620005be60201b60201c565b50565b60008151905060006a636f6e736f6c652e6c6f679050602083016000808483855afa5050505050565b828054620005f590620008ca565b90600052602060002090601f01602090048101928262000619576000855562000665565b82601f106200063457805160ff191683800117855562000665565b8280016001018555821562000665579182015b828111156200066457825182559160200191906001019062000647565b5b50905062000674919062000746565b5090565b828054828255906000526020600020908101928215620006cc579160200282015b82811115620006cb578251829080519060200190620006ba929190620005e7565b509160200191906001019062000699565b5b509050620006db919062000765565b5090565b82805482825590600052602060002090810192821562000733579160200282015b828111156200073257825182908051906020019062000721929190620005e7565b509160200191906001019062000700565b5b50905062000742919062000765565b5090565b5b808211156200076157600081600090555060010162000747565b5090565b5b808211156200078957600081816200077f91906200078d565b5060010162000766565b5090565b5080546200079b90620008ca565b6000825580601f10620007af5750620007d0565b601f016020900490600052602060002090810190620007cf919062000746565b5b50565b600081519050919050565b600082825260208201905092915050565b60005b838110156200080f578082015181840152602081019050620007f2565b838111156200081f576000848401525b50505050565b6000601f19601f8301169050919050565b60006200084382620007d3565b6200084f8185620007de565b935062000861818560208601620007ef565b6200086c8162000825565b840191505092915050565b6000602082019050818103600083015262000893818462000836565b905092915050565b7f4e487b7100000000000000000000000000000000000000000000000000000000600052602260045260246000fd5b60006002820490506001821680620008e357607f821691505b60208210811415620008fa57620008f96200089b565b5b50919050565b615f5080620009106000396000f3fe6080604052600436106101b75760003560e01c806370a08231116100ec578063beba8bbe1161008a578063df2894b711610064578063df2894b71461063c578063e985e9c514610667578063f37181f4146106a4578063fb37e883146106e4576101b7565b8063beba8bbe14610591578063c87b56dd146105d6578063ce8c35fd14610613576101b7565b806395d89b41116100c657806395d89b41146104d4578063987ee156146104ff578063a22cb4651461053f578063b88d4fde14610568576101b7565b806370a082311461043157806377c72c3a1461046e578063834d5fac14610497576101b7565b80632faba6ae1161015957806342842e0e1161013357806342842e0e14610386578063556f8084146103af5780636352211e146103cb5780636decda9114610408576101b7565b80632faba6ae14610307578063378a35cd1461033257806338a3bdc81461035b576101b7565b8063095ea7b311610195578063095ea7b314610261578063191bbe2a1461028a57806323b872dd146102b55780632a86f325146102de576101b7565b806301ffc9a7146101bc57806306fdde03146101f9578063081812fc14610224575b600080fd5b3480156101c857600080fd5b506101e360048036038101906101de9190613e46565b610722565b6040516101f09190613e8e565b60405180910390f35b34801561020557600080fd5b5061020e610804565b60405161021b9190613f42565b60405180910390f35b34801561023057600080fd5b5061024b60048036038101906102469190613f9a565b610896565b6040516102589190614008565b60405180910390f35b34801561026d57600080fd5b506102886004803603810190610283919061404f565b6108dc565b005b34801561029657600080fd5b5061029f6109f4565b6040516102ac9190614435565b60405180910390f35b3480156102c157600080fd5b506102dc60048036038101906102d79190614457565b610df9565b005b3480156102ea57600080fd5b50610305600480360381019061030091906145df565b610e59565b005b34801561031357600080fd5b5061031c61100c565b6040516103299190614679565b60405180910390f35b34801561033e57600080fd5b5061035960048036038101906103549190613f9a565b611012565b005b34801561036757600080fd5b50610370611363565b60405161037d9190614679565b60405180910390f35b34801561039257600080fd5b506103ad60048036038101906103a89190614457565b611369565b005b6103c960048036038101906103c49190614694565b611389565b005b3480156103d757600080fd5b506103f260048036038101906103ed9190613f9a565b6115b7565b6040516103ff9190614008565b60405180910390f35b34801561041457600080fd5b5061042f600480360381019061042a91906147ba565b611669565b005b34801561043d57600080fd5b5061045860048036038101906104539190614861565b611898565b6040516104659190614679565b60405180910390f35b34801561047a57600080fd5b50610495600480360381019061049091906145df565b611950565b005b3480156104a357600080fd5b506104be60048036038101906104b99190613f9a565b611bef565b6040516104cb9190613f42565b60405180910390f35b3480156104e057600080fd5b506104e9611c9b565b6040516104f69190613f42565b60405180910390f35b34801561050b57600080fd5b5061052660048036038101906105219190614861565b611d2d565b604051610536949392919061488e565b60405180910390f35b34801561054b57600080fd5b5061056660048036038101906105619190614914565b61206e565b005b34801561057457600080fd5b5061058f600480360381019061058a91906149f5565b612084565b005b34801561059d57600080fd5b506105b860048036038101906105b39190613f9a565b6120e6565b6040516105cd99989796959493929190614a78565b60405180910390f35b3480156105e257600080fd5b506105fd60048036038101906105f89190613f9a565b6122fc565b60405161060a9190613f42565b60405180910390f35b34801561061f57600080fd5b5061063a60048036038101906106359190614b1a565b61240f565b005b34801561064857600080fd5b506106516125dc565b60405161065e9190614c5b565b60405180910390f35b34801561067357600080fd5b5061068e60048036038101906106899190614c7d565b6126b5565b60405161069b9190613e8e565b60405180910390f35b3480156106b057600080fd5b506106cb60048036038101906106c69190613f9a565b612749565b6040516106db949392919061488e565b60405180910390f35b3480156106f057600080fd5b5061070b60048036038101906107069190614cbd565b612941565b604051610719929190614d06565b60405180910390f35b60007f80ac58cd000000000000000000000000000000000000000000000000000000007bffffffffffffffffffffffffffffffffffffffffffffffffffffffff1916827bffffffffffffffffffffffffffffffffffffffffffffffffffffffff191614806107ed57507f5b5e139f000000000000000000000000000000000000000000000000000000007bffffffffffffffffffffffffffffffffffffffffffffffffffffffff1916827bffffffffffffffffffffffffffffffffffffffffffffffffffffffff1916145b806107fd57506107fc82612bc6565b5b9050919050565b60606000805461081390614d65565b80601f016020809104026020016040519081016040528092919081815260200182805461083f90614d65565b801561088c5780601f106108615761010080835404028352916020019161088c565b820191906000526020600020905b81548152906001019060200180831161086f57829003601f168201915b5050505050905090565b60006108a182612c30565b6004600083815260200190815260200160002060009054906101000a900473ffffffffffffffffffffffffffffffffffffffff169050919050565b60006108e7826115b7565b90508073ffffffffffffffffffffffffffffffffffffffff168373ffffffffffffffffffffffffffffffffffffffff161415610958576040517f08c379a000000000000000000000000000000000000000000000000000000000815260040161094f90614e09565b60405180910390fd5b8073ffffffffffffffffffffffffffffffffffffffff16610977612c7b565b73ffffffffffffffffffffffffffffffffffffffff1614806109a657506109a5816109a0612c7b565b6126b5565b5b6109e5576040517f08c379a00000000000000000000000000000000000000000000000000000000081526004016109dc90614e9b565b60405180910390fd5b6109ef8383612c83565b505050565b6060600d805480602002602001604051908101604052809291908181526020016000905b82821015610df057838290600052602060002090600b020160405180610160016040529081600082018054610a4c90614d65565b80601f0160208091040260200160405190810160405280929190818152602001828054610a7890614d65565b8015610ac55780601f10610a9a57610100808354040283529160200191610ac5565b820191906000526020600020905b815481529060010190602001808311610aa857829003601f168201915b5050505050815260200160018201805480602002602001604051908101604052809291908181526020016000905b82821015610b9f578382906000526020600020018054610b1290614d65565b80601f0160208091040260200160405190810160405280929190818152602001828054610b3e90614d65565b8015610b8b5780601f10610b6057610100808354040283529160200191610b8b565b820191906000526020600020905b815481529060010190602001808311610b6e57829003601f168201915b505050505081526020019060010190610af3565b505050508152602001600282018054610bb790614d65565b80601f0160208091040260200160405190810160405280929190818152602001828054610be390614d65565b8015610c305780601f10610c0557610100808354040283529160200191610c30565b820191906000526020600020905b815481529060010190602001808311610c1357829003601f168201915b50505050508152602001600382018054610c4990614d65565b80601f0160208091040260200160405190810160405280929190818152602001828054610c7590614d65565b8015610cc25780601f10610c9757610100808354040283529160200191610cc2565b820191906000526020600020905b815481529060010190602001808311610ca557829003601f168201915b5050505050815260200160048201548152602001600582015481526020016006820154815260200160078201548152602001600882015481526020016009820160009054906101000a900473ffffffffffffffffffffffffffffffffffffffff1673ffffffffffffffffffffffffffffffffffffffff1673ffffffffffffffffffffffffffffffffffffffff168152602001600a8201805480602002602001604051908101604052809291908181526020018280548015610dd857602002820191906000526020600020905b8160009054906101000a900473ffffffffffffffffffffffffffffffffffffffff1673ffffffffffffffffffffffffffffffffffffffff1681526020019060010190808311610d8e575b50505050508152505081526020019060010190610a18565b50505050905090565b610e0a610e04612c7b565b82612d3c565b610e49576040517f08c379a0000000000000000000000000000000000000000000000000000000008152600401610e4090614f2d565b60405180910390fd5b610e54838383612dd1565b505050565b6000601060003373ffffffffffffffffffffffffffffffffffffffff1673ffffffffffffffffffffffffffffffffffffffff1681526020019081526020016000205411610edb576040517f08c379a0000000000000000000000000000000000000000000000000000000008152600401610ed290614fbf565b60405180910390fd5b60006001601060003373ffffffffffffffffffffffffffffffffffffffff1673ffffffffffffffffffffffffffffffffffffffff16815260200190815260200160002054610f29919061500e565b905083600c8281548110610f4057610f3f615042565b5b90600052602060002090600402016000019080519060200190610f64929190613b5c565b50600a600183610f74919061500e565b81548110610f8557610f84615042565b5b90600052602060002001600c8281548110610fa357610fa2615042565b5b9060005260206000209060040201600101908054610fc090614d65565b610fcb929190613be2565b5082600c8281548110610fe157610fe0615042565b5b90600052602060002090600402016002019080519060200190611005929190613b5c565b5050505050565b600f5481565b6000600d600183611023919061500e565b8154811061103457611033615042565b5b90600052602060002090600b02016007015411611086576040517f08c379a000000000000000000000000000000000000000000000000000000000815260040161107d906150e3565b60405180910390fd5b3373ffffffffffffffffffffffffffffffffffffffff16600d6001836110ac919061500e565b815481106110bd576110bc615042565b5b90600052602060002090600b020160090160009054906101000a900473ffffffffffffffffffffffffffffffffffffffff1673ffffffffffffffffffffffffffffffffffffffff1614611145576040517f08c379a000000000000000000000000000000000000000000000000000000000815260040161113c9061514f565b60405180910390fd5b6000805b600d600184611158919061500e565b8154811061116957611168615042565b5b90600052602060002090600b0201600a018054905081101561123e573373ffffffffffffffffffffffffffffffffffffffff16600d6001856111ab919061500e565b815481106111bc576111bb615042565b5b90600052602060002090600b0201600a0182815481106111df576111de615042565b5b9060005260206000200160009054906101000a900473ffffffffffffffffffffffffffffffffffffffff1673ffffffffffffffffffffffffffffffffffffffff16141561122b57600191505b80806112369061516f565b915050611149565b506000151581151514611286576040517f08c379a000000000000000000000000000000000000000000000000000000000815260040161127d9061522a565b60405180910390fd5b600d600183611295919061500e565b815481106112a6576112a5615042565b5b90600052602060002090600b020160060160008154809291906112c89061516f565b9190505550600d6001836112dc919061500e565b815481106112ed576112ec615042565b5b90600052602060002090600b0201600a01339080600181540180825580915050600190039060005260206000200160009091909190916101000a81548173ffffffffffffffffffffffffffffffffffffffff021916908373ffffffffffffffffffffffffffffffffffffffff1602179055505050565b600e5481565b61138483838360405180602001604052806000815250612084565b505050565b60006011600060018461139c919061500e565b815260200190815260200160002060009054906101000a900473ffffffffffffffffffffffffffffffffffffffff169050601160006001846113de919061500e565b815260200190815260200160002060009054906101000a900473ffffffffffffffffffffffffffffffffffffffff1673ffffffffffffffffffffffffffffffffffffffff163373ffffffffffffffffffffffffffffffffffffffff16141561147b576040517f08c379a000000000000000000000000000000000000000000000000000000000815260040161147290615296565b60405180910390fd5b336011600060018561148d919061500e565b815260200190815260200160002060006101000a81548173ffffffffffffffffffffffffffffffffffffffff021916908373ffffffffffffffffffffffffffffffffffffffff1602179055506000600b54600d6001856114ed919061500e565b815481106114fe576114fd615042565b5b90600052602060002090600b02016006015461151a91906152b6565b90508034101561155f576040517f08c379a00000000000000000000000000000000000000000000000000000000081526004016115569061535c565b60405180910390fd5b61156a823386611369565b8173ffffffffffffffffffffffffffffffffffffffff166108fc349081150290604051600060405180830381858888f193505050501580156115b0573d6000803e3d6000fd5b5050505050565b6000806002600084815260200190815260200160002060009054906101000a900473ffffffffffffffffffffffffffffffffffffffff169050600073ffffffffffffffffffffffffffffffffffffffff168173ffffffffffffffffffffffffffffffffffffffff161415611660576040517f08c379a0000000000000000000000000000000000000000000000000000000008152600401611657906153c8565b60405180910390fd5b80915050919050565b606080600061167786612941565b8092508193505050600060405180610160016040528088815260200187815260200186815260200184815260200142815260200142815260200160008152602001600e5481526020018381526020013373ffffffffffffffffffffffffffffffffffffffff168152602001858152509050600d8190806001815401808255809150506001900390600052602060002090600b02016000909190919091506000820151816000019080519060200190611730929190613b5c565b50602082015181600101908051906020019061174d929190613c6f565b50604082015181600201908051906020019061176a929190613b5c565b506060820151816003019080519060200190611787929190613b5c565b506080820151816004015560a0820151816005015560c0820151816006015560e0820151816007015561010082015181600801556101208201518160090160006101000a81548173ffffffffffffffffffffffffffffffffffffffff021916908373ffffffffffffffffffffffffffffffffffffffff16021790555061014082015181600a019080519060200190611820929190613ccf565b5050503360116000600e54815260200190815260200160002060006101000a81548173ffffffffffffffffffffffffffffffffffffffff021916908373ffffffffffffffffffffffffffffffffffffffff160217905550600e600081548092919061188a9061516f565b919050555050505050505050565b60008073ffffffffffffffffffffffffffffffffffffffff168273ffffffffffffffffffffffffffffffffffffffff161415611909576040517f08c379a00000000000000000000000000000000000000000000000000000000081526004016119009061545a565b60405180910390fd5b600360008373ffffffffffffffffffffffffffffffffffffffff1673ffffffffffffffffffffffffffffffffffffffff168152602001908152602001600020549050919050565b6000601060003373ffffffffffffffffffffffffffffffffffffffff1673ffffffffffffffffffffffffffffffffffffffff16815260200190815260200160002054146119d2576040517f08c379a00000000000000000000000000000000000000000000000000000000081526004016119c9906154c6565b60405180910390fd5b60006040518060800160405280858152602001848152602001600a6001856119fa919061500e565b81548110611a0b57611a0a615042565b5b906000526020600020018054611a2090614d65565b80601f0160208091040260200160405190810160405280929190818152602001828054611a4c90614d65565b8015611a995780601f10611a6e57610100808354040283529160200191611a99565b820191906000526020600020905b815481529060010190602001808311611a7c57829003601f168201915b505050505081526020013373ffffffffffffffffffffffffffffffffffffffff168152509050600c8190806001815401808255809150506001900390600052602060002090600402016000909190919091506000820151816000019080519060200190611b07929190613b5c565b506020820151816001019080519060200190611b24929190613b5c565b506040820151816002019080519060200190611b41929190613b5c565b5060608201518160030160006101000a81548173ffffffffffffffffffffffffffffffffffffffff021916908373ffffffffffffffffffffffffffffffffffffffff1602179055505050600f54601060003373ffffffffffffffffffffffffffffffffffffffff1673ffffffffffffffffffffffffffffffffffffffff16815260200190815260200160002081905550600f6000815480929190611be49061516f565b919050555050505050565b600a8181548110611bff57600080fd5b906000526020600020016000915090508054611c1a90614d65565b80601f0160208091040260200160405190810160405280929190818152602001828054611c4690614d65565b8015611c935780601f10611c6857610100808354040283529160200191611c93565b820191906000526020600020905b815481529060010190602001808311611c7657829003601f168201915b505050505081565b606060018054611caa90614d65565b80601f0160208091040260200160405190810160405280929190818152602001828054611cd690614d65565b8015611d235780601f10611cf857610100808354040283529160200191611d23565b820191906000526020600020905b815481529060010190602001808311611d0657829003601f168201915b5050505050905090565b6060806060600080601060008773ffffffffffffffffffffffffffffffffffffffff1673ffffffffffffffffffffffffffffffffffffffff1681526020019081526020016000205411611db5576040517f08c379a0000000000000000000000000000000000000000000000000000000008152600401611dac90614fbf565b60405180910390fd5b60006001601060008873ffffffffffffffffffffffffffffffffffffffff1673ffffffffffffffffffffffffffffffffffffffff16815260200190815260200160002054611e03919061500e565b9050600c8181548110611e1957611e18615042565b5b9060005260206000209060040201600001600c8281548110611e3e57611e3d615042565b5b9060005260206000209060040201600101600c8381548110611e6357611e62615042565b5b9060005260206000209060040201600201600c8481548110611e8857611e87615042565b5b906000526020600020906004020160030160009054906101000a900473ffffffffffffffffffffffffffffffffffffffff16838054611ec690614d65565b80601f0160208091040260200160405190810160405280929190818152602001828054611ef290614d65565b8015611f3f5780601f10611f1457610100808354040283529160200191611f3f565b820191906000526020600020905b815481529060010190602001808311611f2257829003601f168201915b50505050509350828054611f5290614d65565b80601f0160208091040260200160405190810160405280929190818152602001828054611f7e90614d65565b8015611fcb5780601f10611fa057610100808354040283529160200191611fcb565b820191906000526020600020905b815481529060010190602001808311611fae57829003601f168201915b50505050509250818054611fde90614d65565b80601f016020809104026020016040519081016040528092919081815260200182805461200a90614d65565b80156120575780601f1061202c57610100808354040283529160200191612057565b820191906000526020600020905b81548152906001019060200180831161203a57829003601f168201915b505050505091509450945094509450509193509193565b612080612079612c7b565b8383613038565b5050565b61209561208f612c7b565b83612d3c565b6120d4576040517f08c379a00000000000000000000000000000000000000000000000000000000081526004016120cb90614f2d565b60405180910390fd5b6120e0848484846131a5565b50505050565b600d81815481106120f657600080fd5b90600052602060002090600b020160009150905080600001805461211990614d65565b80601f016020809104026020016040519081016040528092919081815260200182805461214590614d65565b80156121925780601f1061216757610100808354040283529160200191612192565b820191906000526020600020905b81548152906001019060200180831161217557829003601f168201915b5050505050908060020180546121a790614d65565b80601f01602080910402602001604051908101604052809291908181526020018280546121d390614d65565b80156122205780601f106121f557610100808354040283529160200191612220565b820191906000526020600020905b81548152906001019060200180831161220357829003601f168201915b50505050509080600301805461223590614d65565b80601f016020809104026020016040519081016040528092919081815260200182805461226190614d65565b80156122ae5780601f10612283576101008083540402835291602001916122ae565b820191906000526020600020905b81548152906001019060200180831161229157829003601f168201915b5050505050908060040154908060050154908060060154908060070154908060080154908060090160009054906101000a900473ffffffffffffffffffffffffffffffffffffffff16905089565b606061230782612c30565b600060066000848152602001908152602001600020805461232790614d65565b80601f016020809104026020016040519081016040528092919081815260200182805461235390614d65565b80156123a05780601f10612375576101008083540402835291602001916123a0565b820191906000526020600020905b81548152906001019060200180831161238357829003601f168201915b5050505050905060006123b1613201565b90506000815114156123c757819250505061240a565b6000825111156123fc5780826040516020016123e4929190615522565b6040516020818303038152906040529250505061240a565b61240584613218565b925050505b919050565b3373ffffffffffffffffffffffffffffffffffffffff16600d600183612435919061500e565b8154811061244657612445615042565b5b90600052602060002090600b020160090160009054906101000a900473ffffffffffffffffffffffffffffffffffffffff1673ffffffffffffffffffffffffffffffffffffffff16146124ce576040517f08c379a00000000000000000000000000000000000000000000000000000000081526004016124c5906155b8565b60405180910390fd5b83600d6001836124de919061500e565b815481106124ef576124ee615042565b5b90600052602060002090600b02016000019080519060200190612513929190613b5c565b5082600d600183612524919061500e565b8154811061253557612534615042565b5b90600052602060002090600b02016001019080519060200190612559929190613c6f565b5081600d60018361256a919061500e565b8154811061257b5761257a615042565b5b90600052602060002090600b0201600201908051906020019061259f929190613b5c565b5042600d6001836125b0919061500e565b815481106125c1576125c0615042565b5b90600052602060002090600b02016005018190555050505050565b6060600a805480602002602001604051908101604052809291908181526020016000905b828210156126ac57838290600052602060002001805461261f90614d65565b80601f016020809104026020016040519081016040528092919081815260200182805461264b90614d65565b80156126985780601f1061266d57610100808354040283529160200191612698565b820191906000526020600020905b81548152906001019060200180831161267b57829003601f168201915b505050505081526020019060010190612600565b50505050905090565b6000600560008473ffffffffffffffffffffffffffffffffffffffff1673ffffffffffffffffffffffffffffffffffffffff16815260200190815260200160002060008373ffffffffffffffffffffffffffffffffffffffff1673ffffffffffffffffffffffffffffffffffffffff16815260200190815260200160002060009054906101000a900460ff16905092915050565b600c818154811061275957600080fd5b906000526020600020906004020160009150905080600001805461277c90614d65565b80601f01602080910402602001604051908101604052809291908181526020018280546127a890614d65565b80156127f55780601f106127ca576101008083540402835291602001916127f5565b820191906000526020600020905b8154815290600101906020018083116127d857829003601f168201915b50505050509080600101805461280a90614d65565b80601f016020809104026020016040519081016040528092919081815260200182805461283690614d65565b80156128835780601f1061285857610100808354040283529160200191612883565b820191906000526020600020905b81548152906001019060200180831161286657829003601f168201915b50505050509080600201805461289890614d65565b80601f01602080910402602001604051908101604052809291908181526020018280546128c490614d65565b80156129115780601f106128e657610100808354040283529160200191612911565b820191906000526020600020905b8154815290600101906020018083116128f457829003601f168201915b5050505050908060030160009054906101000a900473ffffffffffffffffffffffffffffffffffffffff16905084565b60606000806129506007613280565b905060006009856040516020016129689291906156b8565b60405160208183030381529060405290506129b76040518060400160405280601581526020017f0a2d2d2d2d2d205356472064617461202d2d2d2d2d0000000000000000000000815250612b2d565b6129c081612b2d565b6129fe6040518060400160405280601581526020017f2d2d2d2d2d2d2d2d2d2d2d2d2d2d2d2d2d2d2d2d0a0000000000000000000000815250612b2d565b6000612a3286612a0d8461328e565b604051602001612a1e929190615863565b60405160208183030381529060405261328e565b9050600081604051602001612a4791906158ff565b6040516020818303038152906040529050612a966040518060400160405280601581526020017f0a2d2d2d2d2d20546f6b656e20555249202d2d2d2d0000000000000000000000815250612b2d565b612a9f81612b2d565b612add6040518060400160405280601581526020017f2d2d2d2d2d2d2d2d2d2d2d2d2d2d2d2d2d2d2d2d0a0000000000000000000000815250612b2d565b612ae73385613426565b612af18482613444565b612b14604051806060016040528060258152602001615eb66025913985336134b8565b612b1e6007613557565b80849550955050505050915091565b612bc381604051602401612b419190613f42565b6040516020818303038152906040527f41304fac000000000000000000000000000000000000000000000000000000007bffffffffffffffffffffffffffffffffffffffffffffffffffffffff19166020820180517bffffffffffffffffffffffffffffffffffffffffffffffffffffffff838183161783525050505061356d565b50565b60007f01ffc9a7000000000000000000000000000000000000000000000000000000007bffffffffffffffffffffffffffffffffffffffffffffffffffffffff1916827bffffffffffffffffffffffffffffffffffffffffffffffffffffffff1916149050919050565b612c3981613596565b612c78576040517f08c379a0000000000000000000000000000000000000000000000000000000008152600401612c6f906153c8565b60405180910390fd5b50565b600033905090565b816004600083815260200190815260200160002060006101000a81548173ffffffffffffffffffffffffffffffffffffffff021916908373ffffffffffffffffffffffffffffffffffffffff160217905550808273ffffffffffffffffffffffffffffffffffffffff16612cf6836115b7565b73ffffffffffffffffffffffffffffffffffffffff167f8c5be1e5ebec7d5bd14f71427d1e84f3dd0314c0f7b2291e5b200ac8c7c3b92560405160405180910390a45050565b600080612d48836115b7565b90508073ffffffffffffffffffffffffffffffffffffffff168473ffffffffffffffffffffffffffffffffffffffff161480612d8a5750612d8981856126b5565b5b80612dc857508373ffffffffffffffffffffffffffffffffffffffff16612db084610896565b73ffffffffffffffffffffffffffffffffffffffff16145b91505092915050565b8273ffffffffffffffffffffffffffffffffffffffff16612df1826115b7565b73ffffffffffffffffffffffffffffffffffffffff1614612e47576040517f08c379a0000000000000000000000000000000000000000000000000000000008152600401612e3e90615993565b60405180910390fd5b600073ffffffffffffffffffffffffffffffffffffffff168273ffffffffffffffffffffffffffffffffffffffff161415612eb7576040517f08c379a0000000000000000000000000000000000000000000000000000000008152600401612eae90615a25565b60405180910390fd5b612ec2838383613602565b612ecd600082612c83565b6001600360008573ffffffffffffffffffffffffffffffffffffffff1673ffffffffffffffffffffffffffffffffffffffff1681526020019081526020016000206000828254612f1d919061500e565b925050819055506001600360008473ffffffffffffffffffffffffffffffffffffffff1673ffffffffffffffffffffffffffffffffffffffff1681526020019081526020016000206000828254612f749190615a45565b92505081905550816002600083815260200190815260200160002060006101000a81548173ffffffffffffffffffffffffffffffffffffffff021916908373ffffffffffffffffffffffffffffffffffffffff160217905550808273ffffffffffffffffffffffffffffffffffffffff168473ffffffffffffffffffffffffffffffffffffffff167fddf252ad1be2c89b69c2b068fc378daa952ba7f163c4a11628f55a4df523b3ef60405160405180910390a4613033838383613607565b505050565b8173ffffffffffffffffffffffffffffffffffffffff168373ffffffffffffffffffffffffffffffffffffffff1614156130a7576040517f08c379a000000000000000000000000000000000000000000000000000000000815260040161309e90615ae7565b60405180910390fd5b80600560008573ffffffffffffffffffffffffffffffffffffffff1673ffffffffffffffffffffffffffffffffffffffff16815260200190815260200160002060008473ffffffffffffffffffffffffffffffffffffffff1673ffffffffffffffffffffffffffffffffffffffff16815260200190815260200160002060006101000a81548160ff0219169083151502179055508173ffffffffffffffffffffffffffffffffffffffff168373ffffffffffffffffffffffffffffffffffffffff167f17307eab39ab6107e8899845ad3d59bd9653f200f220920489ca2b5937696c31836040516131989190613e8e565b60405180910390a3505050565b6131b0848484612dd1565b6131bc8484848461360c565b6131fb576040517f08c379a00000000000000000000000000000000000000000000000000000000081526004016131f290615b79565b60405180910390fd5b50505050565b606060405180602001604052806000815250905090565b606061322382612c30565b600061322d613201565b9050600081511161324d5760405180602001604052806000815250613278565b80613257846137a3565b604051602001613268929190615522565b6040516020818303038152906040525b915050919050565b600081600001549050919050565b606060008251905060008114156132b75760405180602001604052806000815250915050613421565b600060036002836132c89190615a45565b6132d29190615bc8565b60046132de91906152b6565b905060006020826132ef9190615a45565b67ffffffffffffffff811115613308576133076144b4565b5b6040519080825280601f01601f19166020018201604052801561333a5781602001600182028036833780820191505090505b5090506000604051806060016040528060408152602001615edb604091399050600181016020830160005b868110156133de5760038101905062ffffff818a015116603f8160121c168401518060081b905060ff603f83600c1c1686015116810190508060081b905060ff603f8360061c1686015116810190508060081b905060ff603f831686015116810190508060e01b90508084526004840193505050613365565b5060038606600181146133f8576002811461340857613413565b613d3d60f01b6002830352613413565b603d60f81b60018303525b508484525050819450505050505b919050565b613440828260405180602001604052806000815250613904565b5050565b61344d82613596565b61348c576040517f08c379a000000000000000000000000000000000000000000000000000000000815260040161348390615c6b565b60405180910390fd5b806006600084815260200190815260200160002090805190602001906134b3929190613b5c565b505050565b6135528383836040516024016134d093929190615c8b565b6040516020818303038152906040527f1c7ec448000000000000000000000000000000000000000000000000000000007bffffffffffffffffffffffffffffffffffffffffffffffffffffffff19166020820180517bffffffffffffffffffffffffffffffffffffffffffffffffffffffff838183161783525050505061356d565b505050565b6001816000016000828254019250508190555050565b60008151905060006a636f6e736f6c652e6c6f679050602083016000808483855afa5050505050565b60008073ffffffffffffffffffffffffffffffffffffffff166002600084815260200190815260200160002060009054906101000a900473ffffffffffffffffffffffffffffffffffffffff1673ffffffffffffffffffffffffffffffffffffffff1614159050919050565b505050565b505050565b600061362d8473ffffffffffffffffffffffffffffffffffffffff1661395f565b15613796578373ffffffffffffffffffffffffffffffffffffffff1663150b7a02613656612c7b565b8786866040518563ffffffff1660e01b81526004016136789493929190615d1e565b602060405180830381600087803b15801561369257600080fd5b505af19250505080156136c357506040513d601f19601f820116820180604052508101906136c09190615d7f565b60015b613746573d80600081146136f3576040519150601f19603f3d011682016040523d82523d6000602084013e6136f8565b606091505b5060008151141561373e576040517f08c379a000000000000000000000000000000000000000000000000000000000815260040161373590615b79565b60405180910390fd5b805181602001fd5b63150b7a0260e01b7bffffffffffffffffffffffffffffffffffffffffffffffffffffffff1916817bffffffffffffffffffffffffffffffffffffffffffffffffffffffff19161491505061379b565b600190505b949350505050565b606060008214156137eb576040518060400160405280600181526020017f300000000000000000000000000000000000000000000000000000000000000081525090506138ff565b600082905060005b6000821461381d5780806138069061516f565b915050600a826138169190615bc8565b91506137f3565b60008167ffffffffffffffff811115613839576138386144b4565b5b6040519080825280601f01601f19166020018201604052801561386b5781602001600182028036833780820191505090505b5090505b600085146138f857600182613884919061500e565b9150600a856138939190615dac565b603061389f9190615a45565b60f81b8183815181106138b5576138b4615042565b5b60200101907effffffffffffffffffffffffffffffffffffffffffffffffffffffffffffff1916908160001a905350600a856138f19190615bc8565b945061386f565b8093505050505b919050565b61390e8383613982565b61391b600084848461360c565b61395a576040517f08c379a000000000000000000000000000000000000000000000000000000000815260040161395190615b79565b60405180910390fd5b505050565b6000808273ffffffffffffffffffffffffffffffffffffffff163b119050919050565b600073ffffffffffffffffffffffffffffffffffffffff168273ffffffffffffffffffffffffffffffffffffffff1614156139f2576040517f08c379a00000000000000000000000000000000000000000000000000000000081526004016139e990615e29565b60405180910390fd5b6139fb81613596565b15613a3b576040517f08c379a0000000000000000000000000000000000000000000000000000000008152600401613a3290615e95565b60405180910390fd5b613a4760008383613602565b6001600360008473ffffffffffffffffffffffffffffffffffffffff1673ffffffffffffffffffffffffffffffffffffffff1681526020019081526020016000206000828254613a979190615a45565b92505081905550816002600083815260200190815260200160002060006101000a81548173ffffffffffffffffffffffffffffffffffffffff021916908373ffffffffffffffffffffffffffffffffffffffff160217905550808273ffffffffffffffffffffffffffffffffffffffff16600073ffffffffffffffffffffffffffffffffffffffff167fddf252ad1be2c89b69c2b068fc378daa952ba7f163c4a11628f55a4df523b3ef60405160405180910390a4613b5860008383613607565b5050565b828054613b6890614d65565b90600052602060002090601f016020900481019282613b8a5760008555613bd1565b82601f10613ba357805160ff1916838001178555613bd1565b82800160010185558215613bd1579182015b82811115613bd0578251825591602001919060010190613bb5565b5b509050613bde9190613d59565b5090565b828054613bee90614d65565b90600052602060002090601f016020900481019282613c105760008555613c5e565b82601f10613c215780548555613c5e565b82800160010185558215613c5e57600052602060002091601f016020900482015b82811115613c5d578254825591600101919060010190613c42565b5b509050613c6b9190613d59565b5090565b828054828255906000526020600020908101928215613cbe579160200282015b82811115613cbd578251829080519060200190613cad929190613b5c565b5091602001919060010190613c8f565b5b509050613ccb9190613d76565b5090565b828054828255906000526020600020908101928215613d48579160200282015b82811115613d475782518260006101000a81548173ffffffffffffffffffffffffffffffffffffffff021916908373ffffffffffffffffffffffffffffffffffffffff16021790555091602001919060010190613cef565b5b509050613d559190613d59565b5090565b5b80821115613d72576000816000905550600101613d5a565b5090565b5b80821115613d965760008181613d8d9190613d9a565b50600101613d77565b5090565b508054613da690614d65565b6000825580601f10613db85750613dd7565b601f016020900490600052602060002090810190613dd69190613d59565b5b50565b6000604051905090565b600080fd5b600080fd5b60007fffffffff0000000000000000000000000000000000000000000000000000000082169050919050565b613e2381613dee565b8114613e2e57600080fd5b50565b600081359050613e4081613e1a565b92915050565b600060208284031215613e5c57613e5b613de4565b5b6000613e6a84828501613e31565b91505092915050565b60008115159050919050565b613e8881613e73565b82525050565b6000602082019050613ea36000830184613e7f565b92915050565b600081519050919050565b600082825260208201905092915050565b60005b83811015613ee3578082015181840152602081019050613ec8565b83811115613ef2576000848401525b50505050565b6000601f19601f8301169050919050565b6000613f1482613ea9565b613f1e8185613eb4565b9350613f2e818560208601613ec5565b613f3781613ef8565b840191505092915050565b60006020820190508181036000830152613f5c8184613f09565b905092915050565b6000819050919050565b613f7781613f64565b8114613f8257600080fd5b50565b600081359050613f9481613f6e565b92915050565b600060208284031215613fb057613faf613de4565b5b6000613fbe84828501613f85565b91505092915050565b600073ffffffffffffffffffffffffffffffffffffffff82169050919050565b6000613ff282613fc7565b9050919050565b61400281613fe7565b82525050565b600060208201905061401d6000830184613ff9565b92915050565b61402c81613fe7565b811461403757600080fd5b50565b60008135905061404981614023565b92915050565b6000806040838503121561406657614065613de4565b5b60006140748582860161403a565b925050602061408585828601613f85565b9150509250929050565b600081519050919050565b600082825260208201905092915050565b6000819050602082019050919050565b600082825260208201905092915050565b60006140d782613ea9565b6140e181856140bb565b93506140f1818560208601613ec5565b6140fa81613ef8565b840191505092915050565b600081519050919050565b600082825260208201905092915050565b6000819050602082019050919050565b600061413d83836140cc565b905092915050565b6000602082019050919050565b600061415d82614105565b6141678185614110565b93508360208202850161417985614121565b8060005b858110156141b557848403895281516141968582614131565b94506141a183614145565b925060208a0199505060018101905061417d565b50829750879550505050505092915050565b6141d081613f64565b82525050565b6141df81613fe7565b82525050565b600081519050919050565b600082825260208201905092915050565b6000819050602082019050919050565b600061421d83836141d6565b60208301905092915050565b6000602082019050919050565b6000614241826141e5565b61424b81856141f0565b935061425683614201565b8060005b8381101561428757815161426e8882614211565b975061427983614229565b92505060018101905061425a565b5085935050505092915050565b60006101608301600083015184820360008601526142b282826140cc565b915050602083015184820360208601526142cc8282614152565b915050604083015184820360408601526142e682826140cc565b9150506060830151848203606086015261430082826140cc565b915050608083015161431560808601826141c7565b5060a083015161432860a08601826141c7565b5060c083015161433b60c08601826141c7565b5060e083015161434e60e08601826141c7565b506101008301516143636101008601826141c7565b506101208301516143786101208601826141d6565b506101408301518482036101408601526143928282614236565b9150508091505092915050565b60006143ab8383614294565b905092915050565b6000602082019050919050565b60006143cb8261408f565b6143d5818561409a565b9350836020820285016143e7856140ab565b8060005b858110156144235784840389528151614404858261439f565b945061440f836143b3565b925060208a019950506001810190506143eb565b50829750879550505050505092915050565b6000602082019050818103600083015261444f81846143c0565b905092915050565b6000806000606084860312156144705761446f613de4565b5b600061447e8682870161403a565b935050602061448f8682870161403a565b92505060406144a086828701613f85565b9150509250925092565b600080fd5b600080fd5b7f4e487b7100000000000000000000000000000000000000000000000000000000600052604160045260246000fd5b6144ec82613ef8565b810181811067ffffffffffffffff8211171561450b5761450a6144b4565b5b80604052505050565b600061451e613dda565b905061452a82826144e3565b919050565b600067ffffffffffffffff82111561454a576145496144b4565b5b61455382613ef8565b9050602081019050919050565b82818337600083830152505050565b600061458261457d8461452f565b614514565b90508281526020810184848401111561459e5761459d6144af565b5b6145a9848285614560565b509392505050565b600082601f8301126145c6576145c56144aa565b5b81356145d684826020860161456f565b91505092915050565b6000806000606084860312156145f8576145f7613de4565b5b600084013567ffffffffffffffff81111561461657614615613de9565b5b614622868287016145b1565b935050602084013567ffffffffffffffff81111561464357614642613de9565b5b61464f868287016145b1565b925050604061466086828701613f85565b9150509250925092565b61467381613f64565b82525050565b600060208201905061468e600083018461466a565b92915050565b600080604083850312156146ab576146aa613de4565b5b60006146b985828601613f85565b92505060206146ca85828601613f85565b9150509250929050565b600067ffffffffffffffff8211156146ef576146ee6144b4565b5b602082029050602081019050919050565b600080fd5b6000614718614713846146d4565b614514565b9050808382526020820190506020840283018581111561473b5761473a614700565b5b835b8181101561478257803567ffffffffffffffff8111156147605761475f6144aa565b5b80860161476d89826145b1565b8552602085019450505060208101905061473d565b5050509392505050565b600082601f8301126147a1576147a06144aa565b5b81356147b1848260208601614705565b91505092915050565b6000806000606084860312156147d3576147d2613de4565b5b600084013567ffffffffffffffff8111156147f1576147f0613de9565b5b6147fd868287016145b1565b935050602084013567ffffffffffffffff81111561481e5761481d613de9565b5b61482a8682870161478c565b925050604084013567ffffffffffffffff81111561484b5761484a613de9565b5b614857868287016145b1565b9150509250925092565b60006020828403121561487757614876613de4565b5b60006148858482850161403a565b91505092915050565b600060808201905081810360008301526148a88187613f09565b905081810360208301526148bc8186613f09565b905081810360408301526148d08185613f09565b90506148df6060830184613ff9565b95945050505050565b6148f181613e73565b81146148fc57600080fd5b50565b60008135905061490e816148e8565b92915050565b6000806040838503121561492b5761492a613de4565b5b60006149398582860161403a565b925050602061494a858286016148ff565b9150509250929050565b600067ffffffffffffffff82111561496f5761496e6144b4565b5b61497882613ef8565b9050602081019050919050565b600061499861499384614954565b614514565b9050828152602081018484840111156149b4576149b36144af565b5b6149bf848285614560565b509392505050565b600082601f8301126149dc576149db6144aa565b5b81356149ec848260208601614985565b91505092915050565b60008060008060808587031215614a0f57614a0e613de4565b5b6000614a1d8782880161403a565b9450506020614a2e8782880161403a565b9350506040614a3f87828801613f85565b925050606085013567ffffffffffffffff811115614a6057614a5f613de9565b5b614a6c878288016149c7565b91505092959194509250565b6000610120820190508181036000830152614a93818c613f09565b90508181036020830152614aa7818b613f09565b90508181036040830152614abb818a613f09565b9050614aca606083018961466a565b614ad7608083018861466a565b614ae460a083018761466a565b614af160c083018661466a565b614afe60e083018561466a565b614b0c610100830184613ff9565b9a9950505050505050505050565b60008060008060808587031215614b3457614b33613de4565b5b600085013567ffffffffffffffff811115614b5257614b51613de9565b5b614b5e878288016145b1565b945050602085013567ffffffffffffffff811115614b7f57614b7e613de9565b5b614b8b8782880161478c565b935050604085013567ffffffffffffffff811115614bac57614bab613de9565b5b614bb8878288016145b1565b9250506060614bc987828801613f85565b91505092959194509250565b600082825260208201905092915050565b6000614bf182614105565b614bfb8185614bd5565b935083602082028501614c0d85614121565b8060005b85811015614c495784840389528151614c2a8582614131565b9450614c3583614145565b925060208a01995050600181019050614c11565b50829750879550505050505092915050565b60006020820190508181036000830152614c758184614be6565b905092915050565b60008060408385031215614c9457614c93613de4565b5b6000614ca28582860161403a565b9250506020614cb38582860161403a565b9150509250929050565b600060208284031215614cd357614cd2613de4565b5b600082013567ffffffffffffffff811115614cf157614cf0613de9565b5b614cfd848285016145b1565b91505092915050565b60006040820190508181036000830152614d208185613f09565b9050614d2f602083018461466a565b9392505050565b7f4e487b7100000000000000000000000000000000000000000000000000000000600052602260045260246000fd5b60006002820490506001821680614d7d57607f821691505b60208210811415614d9157614d90614d36565b5b50919050565b7f4552433732313a20617070726f76616c20746f2063757272656e74206f776e6560008201527f7200000000000000000000000000000000000000000000000000000000000000602082015250565b6000614df3602183613eb4565b9150614dfe82614d97565b604082019050919050565b60006020820190508181036000830152614e2281614de6565b9050919050565b7f4552433732313a20617070726f76652063616c6c6572206973206e6f7420746f60008201527f6b656e206f776e6572206e6f7220617070726f76656420666f7220616c6c0000602082015250565b6000614e85603e83613eb4565b9150614e9082614e29565b604082019050919050565b60006020820190508181036000830152614eb481614e78565b9050919050565b7f4552433732313a2063616c6c6572206973206e6f7420746f6b656e206f776e6560008201527f72206e6f7220617070726f766564000000000000000000000000000000000000602082015250565b6000614f17602e83613eb4565b9150614f2282614ebb565b604082019050919050565b60006020820190508181036000830152614f4681614f0a565b9050919050565b7f596f752068617665206e6f74207965742072656769737465726564206120707260008201527f6f66696c652e0000000000000000000000000000000000000000000000000000602082015250565b6000614fa9602683613eb4565b9150614fb482614f4d565b604082019050919050565b60006020820190508181036000830152614fd881614f9c565b9050919050565b7f4e487b7100000000000000000000000000000000000000000000000000000000600052601160045260246000fd5b600061501982613f64565b915061502483613f64565b92508282101561503757615036614fdf565b5b828203905092915050565b7f4e487b7100000000000000000000000000000000000000000000000000000000600052603260045260246000fd5b7f4e6f2073746f726965732077697468207468652073706563696669656420746960008201527f746c652061726520726567697374657265642e00000000000000000000000000602082015250565b60006150cd603383613eb4565b91506150d882615071565b604082019050919050565b600060208201905081810360008301526150fc816150c0565b9050919050565b7f53746f727920617574686f72732063616e6e6f74206265206c696b65642e0000600082015250565b6000615139601e83613eb4565b915061514482615103565b602082019050919050565b600060208201905081810360008301526151688161512c565b9050919050565b600061517a82613f64565b91507fffffffffffffffffffffffffffffffffffffffffffffffffffffffffffffffff8214156151ad576151ac614fdf565b5b600182019050919050565b7f596f7520617265206c696b696e6720746869732073746f7279206f6e2074686560008201527f206e6573742e0000000000000000000000000000000000000000000000000000602082015250565b6000615214602683613eb4565b915061521f826151b8565b604082019050919050565b6000602082019050818103600083015261524381615207565b9050919050565b7f53656c6c65722063616e6e6f7420626520627579657200000000000000000000600082015250565b6000615280601683613eb4565b915061528b8261524a565b602082019050919050565b600060208201905081810360008301526152af81615273565b9050919050565b60006152c182613f64565b91506152cc83613f64565b9250817fffffffffffffffffffffffffffffffffffffffffffffffffffffffffffffffff048311821515161561530557615304614fdf565b5b828202905092915050565b7f496e73756666696369656e74207061796d656e74000000000000000000000000600082015250565b6000615346601483613eb4565b915061535182615310565b602082019050919050565b6000602082019050818103600083015261537581615339565b9050919050565b7f4552433732313a20696e76616c696420746f6b656e2049440000000000000000600082015250565b60006153b2601883613eb4565b91506153bd8261537c565b602082019050919050565b600060208201905081810360008301526153e1816153a5565b9050919050565b7f4552433732313a2061646472657373207a65726f206973206e6f74206120766160008201527f6c6964206f776e65720000000000000000000000000000000000000000000000602082015250565b6000615444602983613eb4565b915061544f826153e8565b604082019050919050565b6000602082019050818103600083015261547381615437565b9050919050565b7f416e206163636f756e7420616c7265616479206578697374732e000000000000600082015250565b60006154b0601a83613eb4565b91506154bb8261547a565b602082019050919050565b600060208201905081810360008301526154df816154a3565b9050919050565b600081905092915050565b60006154fc82613ea9565b61550681856154e6565b9350615516818560208601613ec5565b80840191505092915050565b600061552e82856154f1565b915061553a82846154f1565b91508190509392505050565b7f4f6e6c792074686520617574686f722063616e2065646974207468652073746f60008201527f72792e0000000000000000000000000000000000000000000000000000000000602082015250565b60006155a2602383613eb4565b91506155ad82615546565b604082019050919050565b600060208201905081810360008301526155d181615595565b9050919050565b60008190508160005260206000209050919050565b600081546155fa81614d65565b61560481866154e6565b9450600182166000811461561f576001811461563057615663565b60ff19831686528186019350615663565b615639856155d8565b60005b8381101561565b5781548189015260018201915060208101905061563c565b838801955050505b50505092915050565b7f3c2f746578743e3c2f7376673e00000000000000000000000000000000000000600082015250565b60006156a2600d836154e6565b91506156ad8261566c565b600d82019050919050565b60006156c482856155ed565b91506156d082846154f1565b91506156db82615695565b91508190509392505050565b7f7b226e616d65223a202200000000000000000000000000000000000000000000600082015250565b600061571d600a836154e6565b9150615728826156e7565b600a82019050919050565b7f222c20226465736372697074696f6e223a20224d79205265636f76657279205360008201527f746f7279222c2000000000000000000000000000000000000000000000000000602082015250565b600061578f6027836154e6565b915061579a82615733565b602782019050919050565b7f22696d616765223a2022646174613a696d6167652f7376672b786d6c3b62617360008201527f6536342c00000000000000000000000000000000000000000000000000000000602082015250565b60006158016024836154e6565b915061580c826157a5565b602482019050919050565b7f227d000000000000000000000000000000000000000000000000000000000000600082015250565b600061584d6002836154e6565b915061585882615817565b600282019050919050565b600061586e82615710565b915061587a82856154f1565b915061588582615782565b9150615890826157f4565b915061589c82846154f1565b91506158a782615840565b91508190509392505050565b7f646174613a6170706c69636174696f6e2f6a736f6e3b6261736536342c000000600082015250565b60006158e9601d836154e6565b91506158f4826158b3565b601d82019050919050565b600061590a826158dc565b915061591682846154f1565b915081905092915050565b7f4552433732313a207472616e736665722066726f6d20696e636f72726563742060008201527f6f776e6572000000000000000000000000000000000000000000000000000000602082015250565b600061597d602583613eb4565b915061598882615921565b604082019050919050565b600060208201905081810360008301526159ac81615970565b9050919050565b7f4552433732313a207472616e7366657220746f20746865207a65726f2061646460008201527f7265737300000000000000000000000000000000000000000000000000000000602082015250565b6000615a0f602483613eb4565b9150615a1a826159b3565b604082019050919050565b60006020820190508181036000830152615a3e81615a02565b9050919050565b6000615a5082613f64565b9150615a5b83613f64565b9250827fffffffffffffffffffffffffffffffffffffffffffffffffffffffffffffffff03821115615a9057615a8f614fdf565b5b828201905092915050565b7f4552433732313a20617070726f766520746f2063616c6c657200000000000000600082015250565b6000615ad1601983613eb4565b9150615adc82615a9b565b602082019050919050565b60006020820190508181036000830152615b0081615ac4565b9050919050565b7f4552433732313a207472616e7366657220746f206e6f6e20455243373231526560008201527f63656976657220696d706c656d656e7465720000000000000000000000000000602082015250565b6000615b63603283613eb4565b9150615b6e82615b07565b604082019050919050565b60006020820190508181036000830152615b9281615b56565b9050919050565b7f4e487b7100000000000000000000000000000000000000000000000000000000600052601260045260246000fd5b6000615bd382613f64565b9150615bde83613f64565b925082615bee57615bed615b99565b5b828204905092915050565b7f45524337323155524953746f726167653a2055524920736574206f66206e6f6e60008201527f6578697374656e7420746f6b656e000000000000000000000000000000000000602082015250565b6000615c55602e83613eb4565b9150615c6082615bf9565b604082019050919050565b60006020820190508181036000830152615c8481615c48565b9050919050565b60006060820190508181036000830152615ca58186613f09565b9050615cb4602083018561466a565b615cc16040830184613ff9565b949350505050565b600081519050919050565b600082825260208201905092915050565b6000615cf082615cc9565b615cfa8185615cd4565b9350615d0a818560208601613ec5565b615d1381613ef8565b840191505092915050565b6000608082019050615d336000830187613ff9565b615d406020830186613ff9565b615d4d604083018561466a565b8181036060830152615d5f8184615ce5565b905095945050505050565b600081519050615d7981613e1a565b92915050565b600060208284031215615d9557615d94613de4565b5b6000615da384828501615d6a565b91505092915050565b6000615db782613f64565b9150615dc283613f64565b925082615dd257615dd1615b99565b5b828206905092915050565b7f4552433732313a206d696e7420746f20746865207a65726f2061646472657373600082015250565b6000615e13602083613eb4565b9150615e1e82615ddd565b602082019050919050565b60006020820190508181036000830152615e4281615e06565b9050919050565b7f4552433732313a20746f6b656e20616c7265616479206d696e74656400000000600082015250565b6000615e7f601c83613eb4565b9150615e8a82615e49565b602082019050919050565b60006020820190508181036000830152615eae81615e72565b905091905056fe416e204e465420772f20494420257320686173206265656e206d696e74656420746f2025734142434445464748494a4b4c4d4e4f505152535455565758595a6162636465666768696a6b6c6d6e6f707172737475767778797a303132333435363738392b2fa2646970667358221220b0ead31f8f4914e16ec1b75e93c3a8860d9f6795b2c51a1636e1a53a5456d99464736f6c63430008090033516d624648565048315663556a696a75394b416638636b6e6b4179585844456568653233686461486338693534413c73766720786d6c6e733d27687474703a2f2f7777772e77332e6f72672f323030302f73766727207072657365727665417370656374526174696f3d27784d696e594d696e206d656574272076696577426f783d273020302033353020333530273e3c7374796c653e2e62617365207b2066696c6c3a203b20666f6e742d66616d696c793a20274869726167696e6f204d61727520476f746869632050726f273b20666f6e742d73697a653a20323470783b207d3c2f7374796c653e3c726563742077696474683d273130302527206865696768743d2731303025272066696c6c3d2727202f3e3c7465787420783d273530252720793d273530252720636c6173734e616d653d27626173652720646f6d696e616e742d626173656c696e653d276d6964646c652720746578742d616e63686f723d276d6964646c65273e516d583564546d4d4e59534a33375a6a6d67544c327779636e75715065483143575362723376464c38374d34374354686973206973206d79205265636f766572792053746f727920636f6e74726163742e516d616a43454a674474477150416753414c624e37347a714a63434e37547270417867757442733446775a6e6f5a516d5a317036333463784c7142745539384559594e69735642567959467368766b435163505353746a5962624253516d50463854677439526f31516b416d6d356f65543479736a636548664c5054416a784b67536f4e593251385878",
  "linkReferences": {},
  "deployedLinkReferences": {}
}