{
  "_format": "hh-sol-artifact-1",
  "contractName": "RecoveryStory",
  "sourceName": "contracts/RecoveryStory.sol",
  "abi": [
    {
      "anonymous": false,
      "inputs": [
        {
          "indexed": true,
          "internalType": "address",
          "name": "owner",
          "type": "address"
        },
        {
          "indexed": true,
          "internalType": "address",
          "name": "approved",
          "type": "address"
        },
        {
          "indexed": true,
          "internalType": "uint256",
          "name": "tokenId",
          "type": "uint256"
        }
      ],
      "name": "Approval",
      "type": "event"
    },
    {
      "anonymous": false,
      "inputs": [
        {
          "indexed": true,
          "internalType": "address",
          "name": "owner",
          "type": "address"
        },
        {
          "indexed": true,
          "internalType": "address",
          "name": "operator",
          "type": "address"
        },
        {
          "indexed": false,
          "internalType": "bool",
          "name": "approved",
          "type": "bool"
        }
      ],
      "name": "ApprovalForAll",
      "type": "event"
    },
    {
      "anonymous": false,
      "inputs": [
        {
          "indexed": true,
          "internalType": "address",
          "name": "from",
          "type": "address"
        },
        {
          "indexed": true,
          "internalType": "address",
          "name": "to",
          "type": "address"
        },
        {
          "indexed": true,
          "internalType": "uint256",
          "name": "tokenId",
          "type": "uint256"
        }
      ],
      "name": "Transfer",
      "type": "event"
    },
    {
      "inputs": [
        {
          "internalType": "uint256",
          "name": "_storyId",
          "type": "uint256"
        }
      ],
      "name": "addLike",
      "outputs": [],
      "stateMutability": "nonpayable",
      "type": "function"
    },
    {
      "inputs": [
        {
          "internalType": "address",
          "name": "to",
          "type": "address"
        },
        {
          "internalType": "uint256",
          "name": "tokenId",
          "type": "uint256"
        }
      ],
      "name": "approve",
      "outputs": [],
      "stateMutability": "nonpayable",
      "type": "function"
    },
    {
      "inputs": [
        {
          "internalType": "address",
          "name": "owner",
          "type": "address"
        }
      ],
      "name": "balanceOf",
      "outputs": [
        {
          "internalType": "uint256",
          "name": "",
          "type": "uint256"
        }
      ],
      "stateMutability": "view",
      "type": "function"
    },
    {
      "inputs": [
        {
          "internalType": "uint256",
          "name": "_tokenId",
          "type": "uint256"
        }
      ],
      "name": "burn",
      "outputs": [],
      "stateMutability": "nonpayable",
      "type": "function"
    },
    {
      "inputs": [
        {
          "internalType": "string",
          "name": "_storyTitle",
          "type": "string"
        },
        {
          "internalType": "string[]",
          "name": "_tags",
          "type": "string[]"
        },
        {
          "internalType": "string",
          "name": "_storyBody",
          "type": "string"
        }
      ],
      "name": "createStory",
      "outputs": [],
      "stateMutability": "nonpayable",
      "type": "function"
    },
    {
      "inputs": [
        {
          "internalType": "string",
          "name": "_name",
          "type": "string"
        },
        {
          "internalType": "string",
          "name": "_avatar",
          "type": "string"
        },
        {
          "internalType": "string",
          "name": "_biography",
          "type": "string"
        }
      ],
      "name": "createUserProfile",
      "outputs": [],
      "stateMutability": "nonpayable",
      "type": "function"
    },
    {
      "inputs": [
        {
          "internalType": "uint256",
          "name": "_tokenId",
          "type": "uint256"
        }
      ],
      "name": "deleteStory",
      "outputs": [],
      "stateMutability": "nonpayable",
      "type": "function"
    },
    {
      "inputs": [
        {
          "internalType": "string",
          "name": "_storyTitle",
          "type": "string"
        },
        {
          "internalType": "string[]",
          "name": "tags",
          "type": "string[]"
        },
        {
          "internalType": "string",
          "name": "_storyBody",
          "type": "string"
        },
        {
          "internalType": "uint256",
          "name": "_storyId",
          "type": "uint256"
        }
      ],
      "name": "editStory",
      "outputs": [],
      "stateMutability": "nonpayable",
      "type": "function"
    },
    {
      "inputs": [
        {
          "internalType": "string",
          "name": "_name",
          "type": "string"
        },
        {
          "internalType": "string",
          "name": "_avatar",
          "type": "string"
        },
        {
          "internalType": "string",
          "name": "_biography",
          "type": "string"
        }
      ],
      "name": "editUserProfile",
      "outputs": [],
      "stateMutability": "nonpayable",
      "type": "function"
    },
    {
      "inputs": [],
      "name": "getAllStories",
      "outputs": [
        {
          "components": [
            {
              "internalType": "string",
              "name": "storyTitle",
              "type": "string"
            },
            {
              "internalType": "string[]",
              "name": "tags",
              "type": "string[]"
            },
            {
              "internalType": "string",
              "name": "storyBody",
              "type": "string"
            },
            {
              "internalType": "string",
              "name": "dataURI",
              "type": "string"
            },
            {
              "internalType": "uint256",
              "name": "createDate",
              "type": "uint256"
            },
            {
              "internalType": "uint256",
              "name": "updateDate",
              "type": "uint256"
            },
            {
              "internalType": "uint256",
              "name": "numLike",
              "type": "uint256"
            },
            {
              "internalType": "uint256",
              "name": "storyId",
              "type": "uint256"
            },
            {
              "internalType": "address",
              "name": "authorAddress",
              "type": "address"
            },
            {
              "internalType": "address[]",
              "name": "likeUserAdress",
              "type": "address[]"
            }
          ],
          "internalType": "struct RecoveryStory.Story[]",
          "name": "",
          "type": "tuple[]"
        }
      ],
      "stateMutability": "view",
      "type": "function"
    },
    {
      "inputs": [
        {
          "internalType": "uint256",
          "name": "tokenId",
          "type": "uint256"
        }
      ],
      "name": "getApproved",
      "outputs": [
        {
          "internalType": "address",
          "name": "",
          "type": "address"
        }
      ],
      "stateMutability": "view",
      "type": "function"
    },
    {
      "inputs": [
        {
          "internalType": "address",
          "name": "_authorAddress",
          "type": "address"
        }
      ],
      "name": "getAuthor",
      "outputs": [
        {
          "internalType": "string",
          "name": "",
          "type": "string"
        }
      ],
      "stateMutability": "view",
      "type": "function"
    },
    {
      "inputs": [],
      "name": "getUserProfile",
      "outputs": [
        {
          "internalType": "string",
          "name": "",
          "type": "string"
        },
        {
          "internalType": "string",
          "name": "",
          "type": "string"
        },
        {
          "internalType": "string",
          "name": "",
          "type": "string"
        },
        {
          "internalType": "address",
          "name": "",
          "type": "address"
        }
      ],
      "stateMutability": "view",
      "type": "function"
    },
    {
      "inputs": [
        {
          "internalType": "address",
          "name": "owner",
          "type": "address"
        },
        {
          "internalType": "address",
          "name": "operator",
          "type": "address"
        }
      ],
      "name": "isApprovedForAll",
      "outputs": [
        {
          "internalType": "bool",
          "name": "",
          "type": "bool"
        }
      ],
      "stateMutability": "view",
      "type": "function"
    },
    {
      "inputs": [
        {
          "internalType": "string",
          "name": "_title",
          "type": "string"
        }
      ],
      "name": "mintNFT",
      "outputs": [
        {
          "internalType": "string",
          "name": "",
          "type": "string"
        },
        {
          "internalType": "uint256",
          "name": "",
          "type": "uint256"
        }
      ],
      "stateMutability": "nonpayable",
      "type": "function"
    },
    {
      "inputs": [],
      "name": "name",
      "outputs": [
        {
          "internalType": "string",
          "name": "",
          "type": "string"
        }
      ],
      "stateMutability": "view",
      "type": "function"
    },
    {
      "inputs": [
        {
          "internalType": "uint256",
          "name": "tokenId",
          "type": "uint256"
        }
      ],
      "name": "ownerOf",
      "outputs": [
        {
          "internalType": "address",
          "name": "",
          "type": "address"
        }
      ],
      "stateMutability": "view",
      "type": "function"
    },
    {
      "inputs": [
        {
          "internalType": "address",
          "name": "from",
          "type": "address"
        },
        {
          "internalType": "address",
          "name": "to",
          "type": "address"
        },
        {
          "internalType": "uint256",
          "name": "tokenId",
          "type": "uint256"
        }
      ],
      "name": "safeTransferFrom",
      "outputs": [],
      "stateMutability": "nonpayable",
      "type": "function"
    },
    {
      "inputs": [
        {
          "internalType": "address",
          "name": "from",
          "type": "address"
        },
        {
          "internalType": "address",
          "name": "to",
          "type": "address"
        },
        {
          "internalType": "uint256",
          "name": "tokenId",
          "type": "uint256"
        },
        {
          "internalType": "bytes",
          "name": "data",
          "type": "bytes"
        }
      ],
      "name": "safeTransferFrom",
      "outputs": [],
      "stateMutability": "nonpayable",
      "type": "function"
    },
    {
      "inputs": [
        {
          "internalType": "address",
          "name": "operator",
          "type": "address"
        },
        {
          "internalType": "bool",
          "name": "approved",
          "type": "bool"
        }
      ],
      "name": "setApprovalForAll",
      "outputs": [],
      "stateMutability": "nonpayable",
      "type": "function"
    },
    {
      "inputs": [
        {
          "internalType": "uint256",
          "name": "",
          "type": "uint256"
        }
      ],
      "name": "story",
      "outputs": [
        {
          "internalType": "string",
          "name": "storyTitle",
          "type": "string"
        },
        {
          "internalType": "string",
          "name": "storyBody",
          "type": "string"
        },
        {
          "internalType": "string",
          "name": "dataURI",
          "type": "string"
        },
        {
          "internalType": "uint256",
          "name": "createDate",
          "type": "uint256"
        },
        {
          "internalType": "uint256",
          "name": "updateDate",
          "type": "uint256"
        },
        {
          "internalType": "uint256",
          "name": "numLike",
          "type": "uint256"
        },
        {
          "internalType": "uint256",
          "name": "storyId",
          "type": "uint256"
        },
        {
          "internalType": "address",
          "name": "authorAddress",
          "type": "address"
        }
      ],
      "stateMutability": "view",
      "type": "function"
    },
    {
      "inputs": [],
      "name": "storyIdCounter",
      "outputs": [
        {
          "internalType": "uint256",
          "name": "",
          "type": "uint256"
        }
      ],
      "stateMutability": "view",
      "type": "function"
    },
    {
      "inputs": [
        {
          "internalType": "bytes4",
          "name": "interfaceId",
          "type": "bytes4"
        }
      ],
      "name": "supportsInterface",
      "outputs": [
        {
          "internalType": "bool",
          "name": "",
          "type": "bool"
        }
      ],
      "stateMutability": "view",
      "type": "function"
    },
    {
      "inputs": [],
      "name": "symbol",
      "outputs": [
        {
          "internalType": "string",
          "name": "",
          "type": "string"
        }
      ],
      "stateMutability": "view",
      "type": "function"
    },
    {
      "inputs": [
        {
          "internalType": "uint256",
          "name": "tokenId",
          "type": "uint256"
        }
      ],
      "name": "tokenURI",
      "outputs": [
        {
          "internalType": "string",
          "name": "",
          "type": "string"
        }
      ],
      "stateMutability": "view",
      "type": "function"
    },
    {
      "inputs": [
        {
          "internalType": "address",
          "name": "from",
          "type": "address"
        },
        {
          "internalType": "address",
          "name": "to",
          "type": "address"
        },
        {
          "internalType": "uint256",
          "name": "tokenId",
          "type": "uint256"
        }
      ],
      "name": "transferFrom",
      "outputs": [],
      "stateMutability": "nonpayable",
      "type": "function"
    },
    {
      "inputs": [
        {
          "internalType": "uint256",
          "name": "",
          "type": "uint256"
        }
      ],
      "name": "userProfile",
      "outputs": [
        {
          "internalType": "string",
          "name": "name",
          "type": "string"
        },
        {
          "internalType": "string",
          "name": "avatar",
          "type": "string"
        },
        {
          "internalType": "string",
          "name": "biography",
          "type": "string"
        },
        {
          "internalType": "address",
          "name": "walletAddress",
          "type": "address"
        }
      ],
      "stateMutability": "view",
      "type": "function"
    }
  ],
  "bytecode": "0x608060405260405180610180016040528061014c815260200162005e0b61014c91396008908051906020019062000038929190620001ed565b506001600c553480156200004b57600080fd5b506040518060400160405280601081526020017f5265636f7665727953746f72794e4654000000000000000000000000000000008152506040518060400160405280600381526020017f52534e00000000000000000000000000000000000000000000000000000000008152508160009080519060200190620000d0929190620001ed565b508060019080519060200190620000e9929190620001ed565b5050506200011b60405180606001604052806023815260200162005de8602391396200012160201b620026641760201c565b620003ca565b620001c18160405160240162000138919062000341565b6040516020818303038152906040527f41304fac000000000000000000000000000000000000000000000000000000007bffffffffffffffffffffffffffffffffffffffffffffffffffffffff19166020820180517bffffffffffffffffffffffffffffffffffffffffffffffffffffffff8381831617835250505050620001c460201b60201c565b50565b60008151905060006a636f6e736f6c652e6c6f679050602083016000808483855afa5050505050565b828054620001fb9062000394565b90600052602060002090601f0160209004810192826200021f57600085556200026b565b82601f106200023a57805160ff19168380011785556200026b565b828001600101855582156200026b579182015b828111156200026a5782518255916020019190600101906200024d565b5b5090506200027a91906200027e565b5090565b5b80821115620002995760008160009055506001016200027f565b5090565b600081519050919050565b600082825260208201905092915050565b60005b83811015620002d9578082015181840152602081019050620002bc565b83811115620002e9576000848401525b50505050565b6000601f19601f8301169050919050565b60006200030d826200029d565b620003198185620002a8565b93506200032b818560208601620002b9565b6200033681620002ef565b840191505092915050565b600060208201905081810360008301526200035d818462000300565b905092915050565b7f4e487b7100000000000000000000000000000000000000000000000000000000600052602260045260246000fd5b60006002820490506001821680620003ad57607f821691505b60208210811415620003c457620003c362000365565b5b50919050565b615a0e80620003da6000396000f3fe608060405234801561001057600080fd5b50600436106101a95760003560e01c80636f61c744116100f9578063beba8bbe11610097578063e985e9c511610071578063e985e9c5146104d2578063f37181f414610502578063fb37e88314610535578063feb81fbe14610566576101a9565b8063beba8bbe1461044f578063c87b56dd14610486578063ce8c35fd146104b6576101a9565b806395d89b41116100d357806395d89b41146103dd578063a22cb465146103fb578063a26cf68514610417578063b88d4fde14610433576101a9565b80636f61c7441461037057806370a08231146103915780638c0f4aa7146103c1576101a9565b806323b872dd1161016657806342842e0e1161014057806342842e0e146102ec57806342966c68146103085780636352211e146103245780636decda9114610354576101a9565b806323b872dd14610296578063378a35cd146102b257806338a3bdc8146102ce576101a9565b806301ffc9a7146101ae57806306fdde03146101de578063081812fc146101fc578063095ea7b31461022c5780630ab3009314610248578063191bbe2a14610278575b600080fd5b6101c860048036038101906101c39190613a60565b610582565b6040516101d59190613aa8565b60405180910390f35b6101e6610664565b6040516101f39190613b5c565b60405180910390f35b61021660048036038101906102119190613bb4565b6106f6565b6040516102239190613c22565b60405180910390f35b61024660048036038101906102419190613c69565b61073c565b005b610262600480360381019061025d9190613ca9565b610854565b60405161026f9190613b5c565b60405180910390f35b6102806109de565b60405161028d9190614067565b60405180910390f35b6102b060048036038101906102ab9190614089565b610dd9565b005b6102cc60048036038101906102c79190613bb4565b610e39565b005b6102d6611143565b6040516102e391906140eb565b60405180910390f35b61030660048036038101906103019190614089565b611149565b005b610322600480360381019061031d9190613bb4565b611169565b005b61033e60048036038101906103399190613bb4565b6111f5565b60405161034b9190613c22565b60405180910390f35b61036e60048036038101906103699190614321565b6112a7565b005b6103786114e4565b60405161038894939291906143c8565b60405180910390f35b6103ab60048036038101906103a69190613ca9565b611824565b6040516103b891906140eb565b60405180910390f35b6103db60048036038101906103d69190613bb4565b6118dc565b005b6103e561195e565b6040516103f29190613b5c565b60405180910390f35b6104156004803603810190610410919061444e565b6119f0565b005b610431600480360381019061042c919061448e565b611a06565b005b61044d600480360381019061044891906145d6565b611b8c565b005b61046960048036038101906104649190613bb4565b611bee565b60405161047d989796959493929190614659565b60405180910390f35b6104a0600480360381019061049b9190613bb4565b611dfe565b6040516104ad9190613b5c565b60405180910390f35b6104d060048036038101906104cb91906146ec565b611f11565b005b6104ec60048036038101906104e791906147a7565b612057565b6040516104f99190613aa8565b60405180910390f35b61051c60048036038101906105179190613bb4565b6120eb565b60405161052c94939291906143c8565b60405180910390f35b61054f600480360381019061054a91906147e7565b6122e3565b60405161055d929190614830565b60405180910390f35b610580600480360381019061057b919061448e565b6124d5565b005b60007f80ac58cd000000000000000000000000000000000000000000000000000000007bffffffffffffffffffffffffffffffffffffffffffffffffffffffff1916827bffffffffffffffffffffffffffffffffffffffffffffffffffffffff1916148061064d57507f5b5e139f000000000000000000000000000000000000000000000000000000007bffffffffffffffffffffffffffffffffffffffffffffffffffffffff1916827bffffffffffffffffffffffffffffffffffffffffffffffffffffffff1916145b8061065d575061065c826126fd565b5b9050919050565b6060600080546106739061488f565b80601f016020809104026020016040519081016040528092919081815260200182805461069f9061488f565b80156106ec5780601f106106c1576101008083540402835291602001916106ec565b820191906000526020600020905b8154815290600101906020018083116106cf57829003601f168201915b5050505050905090565b600061070182612767565b6004600083815260200190815260200160002060009054906101000a900473ffffffffffffffffffffffffffffffffffffffff169050919050565b6000610747826111f5565b90508073ffffffffffffffffffffffffffffffffffffffff168373ffffffffffffffffffffffffffffffffffffffff1614156107b8576040517f08c379a00000000000000000000000000000000000000000000000000000000081526004016107af90614933565b60405180910390fd5b8073ffffffffffffffffffffffffffffffffffffffff166107d76127b2565b73ffffffffffffffffffffffffffffffffffffffff1614806108065750610805816108006127b2565b612057565b5b610845576040517f08c379a000000000000000000000000000000000000000000000000000000000815260040161083c906149c5565b60405180910390fd5b61084f83836127ba565b505050565b60606000600a60008473ffffffffffffffffffffffffffffffffffffffff1673ffffffffffffffffffffffffffffffffffffffff16815260200190815260200160002054116108d8576040517f08c379a00000000000000000000000000000000000000000000000000000000081526004016108cf90614a57565b60405180910390fd5b60006001600a60008573ffffffffffffffffffffffffffffffffffffffff1673ffffffffffffffffffffffffffffffffffffffff168152602001908152602001600020546109269190614aa6565b90506009818154811061093c5761093b614ada565b5b906000526020600020906004020160000180546109589061488f565b80601f01602080910402602001604051908101604052809291908181526020018280546109849061488f565b80156109d15780601f106109a6576101008083540402835291602001916109d1565b820191906000526020600020905b8154815290600101906020018083116109b457829003601f168201915b5050505050915050919050565b6060600b805480602002602001604051908101604052809291908181526020016000905b82821015610dd057838290600052602060002090600a020160405180610140016040529081600082018054610a369061488f565b80601f0160208091040260200160405190810160405280929190818152602001828054610a629061488f565b8015610aaf5780601f10610a8457610100808354040283529160200191610aaf565b820191906000526020600020905b815481529060010190602001808311610a9257829003601f168201915b5050505050815260200160018201805480602002602001604051908101604052809291908181526020016000905b82821015610b89578382906000526020600020018054610afc9061488f565b80601f0160208091040260200160405190810160405280929190818152602001828054610b289061488f565b8015610b755780601f10610b4a57610100808354040283529160200191610b75565b820191906000526020600020905b815481529060010190602001808311610b5857829003601f168201915b505050505081526020019060010190610add565b505050508152602001600282018054610ba19061488f565b80601f0160208091040260200160405190810160405280929190818152602001828054610bcd9061488f565b8015610c1a5780601f10610bef57610100808354040283529160200191610c1a565b820191906000526020600020905b815481529060010190602001808311610bfd57829003601f168201915b50505050508152602001600382018054610c339061488f565b80601f0160208091040260200160405190810160405280929190818152602001828054610c5f9061488f565b8015610cac5780601f10610c8157610100808354040283529160200191610cac565b820191906000526020600020905b815481529060010190602001808311610c8f57829003601f168201915b50505050508152602001600482015481526020016005820154815260200160068201548152602001600782015481526020016008820160009054906101000a900473ffffffffffffffffffffffffffffffffffffffff1673ffffffffffffffffffffffffffffffffffffffff1673ffffffffffffffffffffffffffffffffffffffff16815260200160098201805480602002602001604051908101604052809291908181526020018280548015610db857602002820191906000526020600020905b8160009054906101000a900473ffffffffffffffffffffffffffffffffffffffff1673ffffffffffffffffffffffffffffffffffffffff1681526020019060010190808311610d6e575b50505050508152505081526020019060010190610a02565b50505050905090565b610dea610de46127b2565b82612873565b610e29576040517f08c379a0000000000000000000000000000000000000000000000000000000008152600401610e2090614b7b565b60405180910390fd5b610e34838383612908565b505050565b6000600b8281548110610e4f57610e4e614ada565b5b90600052602060002090600a02016007015411610ea1576040517f08c379a0000000000000000000000000000000000000000000000000000000008152600401610e9890614c0d565b60405180910390fd5b3373ffffffffffffffffffffffffffffffffffffffff16600b8281548110610ecc57610ecb614ada565b5b90600052602060002090600a020160080160009054906101000a900473ffffffffffffffffffffffffffffffffffffffff1673ffffffffffffffffffffffffffffffffffffffff161415610f55576040517f08c379a0000000000000000000000000000000000000000000000000000000008152600401610f4c90614c79565b60405180910390fd5b6000805b600b8381548110610f6d57610f6c614ada565b5b90600052602060002090600a020160090180549050811015611036573373ffffffffffffffffffffffffffffffffffffffff16600b8481548110610fb457610fb3614ada565b5b90600052602060002090600a02016009018281548110610fd757610fd6614ada565b5b9060005260206000200160009054906101000a900473ffffffffffffffffffffffffffffffffffffffff1673ffffffffffffffffffffffffffffffffffffffff16141561102357600191505b808061102e90614c99565b915050610f59565b50600015158115151461107e576040517f08c379a000000000000000000000000000000000000000000000000000000000815260040161107590614d54565b60405180910390fd5b600b828154811061109257611091614ada565b5b90600052602060002090600a020160060160008154809291906110b490614c99565b9190505550600b82815481106110cd576110cc614ada565b5b90600052602060002090600a0201600901339080600181540180825580915050600190039060005260206000200160009091909190916101000a81548173ffffffffffffffffffffffffffffffffffffffff021916908373ffffffffffffffffffffffffffffffffffffffff1602179055505050565b600c5481565b61116483838360405180602001604052806000815250611b8c565b505050565b3373ffffffffffffffffffffffffffffffffffffffff16611189826111f5565b73ffffffffffffffffffffffffffffffffffffffff16146111df576040517f08c379a00000000000000000000000000000000000000000000000000000000081526004016111d690614dc0565b60405180910390fd5b600061dead90506111f1338284612908565b5050565b6000806002600084815260200190815260200160002060009054906101000a900473ffffffffffffffffffffffffffffffffffffffff169050600073ffffffffffffffffffffffffffffffffffffffff168173ffffffffffffffffffffffffffffffffffffffff16141561129e576040517f08c379a000000000000000000000000000000000000000000000000000000000815260040161129590614e2c565b60405180910390fd5b80915050919050565b606060006040518061014001604052808681526020018581526020018481526020016040518060400160405280600381526020017f696d670000000000000000000000000000000000000000000000000000000000815250815260200142815260200142815260200160008152602001600c5481526020013373ffffffffffffffffffffffffffffffffffffffff168152602001838152509050600b8190806001815401808255809150506001900390600052602060002090600a02016000909190919091506000820151816000019080519060200190611389929190613803565b5060208201518160010190805190602001906113a6929190613889565b5060408201518160020190805190602001906113c3929190613803565b5060608201518160030190805190602001906113e0929190613803565b506080820151816004015560a0820151816005015560c0820151816006015560e082015181600701556101008201518160080160006101000a81548173ffffffffffffffffffffffffffffffffffffffff021916908373ffffffffffffffffffffffffffffffffffffffff16021790555061012082015181600901908051906020019061146e9291906138e9565b50505033600d6000600c54815260200190815260200160002060006101000a81548173ffffffffffffffffffffffffffffffffffffffff021916908373ffffffffffffffffffffffffffffffffffffffff160217905550600c60008154809291906114d890614c99565b91905055505050505050565b6060806060600080600a60003373ffffffffffffffffffffffffffffffffffffffff1673ffffffffffffffffffffffffffffffffffffffff168152602001908152602001600020541161156c576040517f08c379a000000000000000000000000000000000000000000000000000000000815260040161156390614a57565b60405180910390fd5b60006001600a60003373ffffffffffffffffffffffffffffffffffffffff1673ffffffffffffffffffffffffffffffffffffffff168152602001908152602001600020546115ba9190614aa6565b9050600981815481106115d0576115cf614ada565b5b9060005260206000209060040201600001600982815481106115f5576115f4614ada565b5b90600052602060002090600402016001016009838154811061161a57611619614ada565b5b90600052602060002090600402016002016009848154811061163f5761163e614ada565b5b906000526020600020906004020160030160009054906101000a900473ffffffffffffffffffffffffffffffffffffffff1683805461167d9061488f565b80601f01602080910402602001604051908101604052809291908181526020018280546116a99061488f565b80156116f65780601f106116cb576101008083540402835291602001916116f6565b820191906000526020600020905b8154815290600101906020018083116116d957829003601f168201915b505050505093508280546117099061488f565b80601f01602080910402602001604051908101604052809291908181526020018280546117359061488f565b80156117825780601f1061175757610100808354040283529160200191611782565b820191906000526020600020905b81548152906001019060200180831161176557829003601f168201915b505050505092508180546117959061488f565b80601f01602080910402602001604051908101604052809291908181526020018280546117c19061488f565b801561180e5780601f106117e35761010080835404028352916020019161180e565b820191906000526020600020905b8154815290600101906020018083116117f157829003601f168201915b5050505050915094509450945094505090919293565b60008073ffffffffffffffffffffffffffffffffffffffff168273ffffffffffffffffffffffffffffffffffffffff161415611895576040517f08c379a000000000000000000000000000000000000000000000000000000000815260040161188c90614ebe565b60405180910390fd5b600360008373ffffffffffffffffffffffffffffffffffffffff1673ffffffffffffffffffffffffffffffffffffffff168152602001908152602001600020549050919050565b3373ffffffffffffffffffffffffffffffffffffffff166118fc826111f5565b73ffffffffffffffffffffffffffffffffffffffff1614611952576040517f08c379a000000000000000000000000000000000000000000000000000000000815260040161194990614dc0565b60405180910390fd5b61195b81612b6f565b50565b60606001805461196d9061488f565b80601f01602080910402602001604051908101604052809291908181526020018280546119999061488f565b80156119e65780601f106119bb576101008083540402835291602001916119e6565b820191906000526020600020905b8154815290600101906020018083116119c957829003601f168201915b5050505050905090565b611a026119fb6127b2565b8383612bc2565b5050565b6000600a60003373ffffffffffffffffffffffffffffffffffffffff1673ffffffffffffffffffffffffffffffffffffffff1681526020019081526020016000205411611a88576040517f08c379a0000000000000000000000000000000000000000000000000000000008152600401611a7f90614a57565b60405180910390fd5b60006001600a60003373ffffffffffffffffffffffffffffffffffffffff1673ffffffffffffffffffffffffffffffffffffffff16815260200190815260200160002054611ad69190614aa6565b90508360098281548110611aed57611aec614ada565b5b90600052602060002090600402016000019080519060200190611b11929190613803565b508260098281548110611b2757611b26614ada565b5b90600052602060002090600402016001019080519060200190611b4b929190613803565b508160098281548110611b6157611b60614ada565b5b90600052602060002090600402016002019080519060200190611b85929190613803565b5050505050565b611b9d611b976127b2565b83612873565b611bdc576040517f08c379a0000000000000000000000000000000000000000000000000000000008152600401611bd390614b7b565b60405180910390fd5b611be884848484612d2f565b50505050565b600b8181548110611bfe57600080fd5b90600052602060002090600a0201600091509050806000018054611c219061488f565b80601f0160208091040260200160405190810160405280929190818152602001828054611c4d9061488f565b8015611c9a5780601f10611c6f57610100808354040283529160200191611c9a565b820191906000526020600020905b815481529060010190602001808311611c7d57829003601f168201915b505050505090806002018054611caf9061488f565b80601f0160208091040260200160405190810160405280929190818152602001828054611cdb9061488f565b8015611d285780601f10611cfd57610100808354040283529160200191611d28565b820191906000526020600020905b815481529060010190602001808311611d0b57829003601f168201915b505050505090806003018054611d3d9061488f565b80601f0160208091040260200160405190810160405280929190818152602001828054611d699061488f565b8015611db65780601f10611d8b57610100808354040283529160200191611db6565b820191906000526020600020905b815481529060010190602001808311611d9957829003601f168201915b5050505050908060040154908060050154908060060154908060070154908060080160009054906101000a900473ffffffffffffffffffffffffffffffffffffffff16905088565b6060611e0982612767565b6000600660008481526020019081526020016000208054611e299061488f565b80601f0160208091040260200160405190810160405280929190818152602001828054611e559061488f565b8015611ea25780601f10611e7757610100808354040283529160200191611ea2565b820191906000526020600020905b815481529060010190602001808311611e8557829003601f168201915b505050505090506000611eb3612d8b565b9050600081511415611ec9578192505050611f0c565b600082511115611efe578082604051602001611ee6929190614f1a565b60405160208183030381529060405292505050611f0c565b611f0784612da2565b925050505b919050565b6000600b8281548110611f2757611f26614ada565b5b90600052602060002090600a02016007015411611f79576040517f08c379a0000000000000000000000000000000000000000000000000000000008152600401611f7090614fb0565b60405180910390fd5b83600b8281548110611f8e57611f8d614ada565b5b90600052602060002090600a02016000019080519060200190611fb2929190613803565b5082600b8281548110611fc857611fc7614ada565b5b90600052602060002090600a02016001019080519060200190611fec929190613889565b5081600b828154811061200257612001614ada565b5b90600052602060002090600a02016002019080519060200190612026929190613803565b5042600b828154811061203c5761203b614ada565b5b90600052602060002090600a02016005018190555050505050565b6000600560008473ffffffffffffffffffffffffffffffffffffffff1673ffffffffffffffffffffffffffffffffffffffff16815260200190815260200160002060008373ffffffffffffffffffffffffffffffffffffffff1673ffffffffffffffffffffffffffffffffffffffff16815260200190815260200160002060009054906101000a900460ff16905092915050565b600981815481106120fb57600080fd5b906000526020600020906004020160009150905080600001805461211e9061488f565b80601f016020809104026020016040519081016040528092919081815260200182805461214a9061488f565b80156121975780601f1061216c57610100808354040283529160200191612197565b820191906000526020600020905b81548152906001019060200180831161217a57829003601f168201915b5050505050908060010180546121ac9061488f565b80601f01602080910402602001604051908101604052809291908181526020018280546121d89061488f565b80156122255780601f106121fa57610100808354040283529160200191612225565b820191906000526020600020905b81548152906001019060200180831161220857829003601f168201915b50505050509080600201805461223a9061488f565b80601f01602080910402602001604051908101604052809291908181526020018280546122669061488f565b80156122b35780601f10612288576101008083540402835291602001916122b3565b820191906000526020600020905b81548152906001019060200180831161229657829003601f168201915b5050505050908060030160009054906101000a900473ffffffffffffffffffffffffffffffffffffffff16905084565b60606000806122f26007612e0a565b90506000849050600060088260405160200161230f9291906150b0565b604051602081830303815290604052905061235e6040518060400160405280601581526020017f0a2d2d2d2d2d205356472064617461202d2d2d2d2d0000000000000000000000815250612664565b61236781612664565b6123a56040518060400160405280601581526020017f2d2d2d2d2d2d2d2d2d2d2d2d2d2d2d2d2d2d2d2d0a0000000000000000000000815250612664565b60006123d9836123b484612e18565b6040516020016123c592919061525b565b604051602081830303815290604052612e18565b90506000816040516020016123ee91906152f7565b604051602081830303815290604052905061243d6040518060400160405280601581526020017f0a2d2d2d2d2d20546f6b656e20555249202d2d2d2d0000000000000000000000815250612664565b61244681612664565b6124846040518060400160405280601581526020017f2d2d2d2d2d2d2d2d2d2d2d2d2d2d2d2d2d2d2d2d0a0000000000000000000000815250612664565b61248e3386612fb0565b6124988582612fce565b6124bb604051806060016040528060258152602001615974602591398633613042565b6124c560076130e1565b8085965096505050505050915091565b6000600a60003373ffffffffffffffffffffffffffffffffffffffff1673ffffffffffffffffffffffffffffffffffffffff1681526020019081526020016000205414612557576040517f08c379a000000000000000000000000000000000000000000000000000000000815260040161254e90615365565b60405180910390fd5b600060405180608001604052808581526020018481526020018381526020013373ffffffffffffffffffffffffffffffffffffffff168152509050600981908060018154018082558091505060019003906000526020600020906004020160009091909190915060008201518160000190805190602001906125da929190613803565b5060208201518160010190805190602001906125f7929190613803565b506040820151816002019080519060200190612614929190613803565b5060608201518160030160006101000a81548173ffffffffffffffffffffffffffffffffffffffff021916908373ffffffffffffffffffffffffffffffffffffffff160217905550505050505050565b6126fa816040516024016126789190613b5c565b6040516020818303038152906040527f41304fac000000000000000000000000000000000000000000000000000000007bffffffffffffffffffffffffffffffffffffffffffffffffffffffff19166020820180517bffffffffffffffffffffffffffffffffffffffffffffffffffffffff83818316178352505050506130f7565b50565b60007f01ffc9a7000000000000000000000000000000000000000000000000000000007bffffffffffffffffffffffffffffffffffffffffffffffffffffffff1916827bffffffffffffffffffffffffffffffffffffffffffffffffffffffff1916149050919050565b61277081613120565b6127af576040517f08c379a00000000000000000000000000000000000000000000000000000000081526004016127a690614e2c565b60405180910390fd5b50565b600033905090565b816004600083815260200190815260200160002060006101000a81548173ffffffffffffffffffffffffffffffffffffffff021916908373ffffffffffffffffffffffffffffffffffffffff160217905550808273ffffffffffffffffffffffffffffffffffffffff1661282d836111f5565b73ffffffffffffffffffffffffffffffffffffffff167f8c5be1e5ebec7d5bd14f71427d1e84f3dd0314c0f7b2291e5b200ac8c7c3b92560405160405180910390a45050565b60008061287f836111f5565b90508073ffffffffffffffffffffffffffffffffffffffff168473ffffffffffffffffffffffffffffffffffffffff1614806128c157506128c08185612057565b5b806128ff57508373ffffffffffffffffffffffffffffffffffffffff166128e7846106f6565b73ffffffffffffffffffffffffffffffffffffffff16145b91505092915050565b8273ffffffffffffffffffffffffffffffffffffffff16612928826111f5565b73ffffffffffffffffffffffffffffffffffffffff161461297e576040517f08c379a0000000000000000000000000000000000000000000000000000000008152600401612975906153f7565b60405180910390fd5b600073ffffffffffffffffffffffffffffffffffffffff168273ffffffffffffffffffffffffffffffffffffffff1614156129ee576040517f08c379a00000000000000000000000000000000000000000000000000000000081526004016129e590615489565b60405180910390fd5b6129f983838361318c565b612a046000826127ba565b6001600360008573ffffffffffffffffffffffffffffffffffffffff1673ffffffffffffffffffffffffffffffffffffffff1681526020019081526020016000206000828254612a549190614aa6565b925050819055506001600360008473ffffffffffffffffffffffffffffffffffffffff1673ffffffffffffffffffffffffffffffffffffffff1681526020019081526020016000206000828254612aab91906154a9565b92505081905550816002600083815260200190815260200160002060006101000a81548173ffffffffffffffffffffffffffffffffffffffff021916908373ffffffffffffffffffffffffffffffffffffffff160217905550808273ffffffffffffffffffffffffffffffffffffffff168473ffffffffffffffffffffffffffffffffffffffff167fddf252ad1be2c89b69c2b068fc378daa952ba7f163c4a11628f55a4df523b3ef60405160405180910390a4612b6a838383613191565b505050565b612b7881613196565b6000600660008381526020019081526020016000208054612b989061488f565b905014612bbf57600660008281526020019081526020016000206000612bbe9190613973565b5b50565b8173ffffffffffffffffffffffffffffffffffffffff168373ffffffffffffffffffffffffffffffffffffffff161415612c31576040517f08c379a0000000000000000000000000000000000000000000000000000000008152600401612c289061554b565b60405180910390fd5b80600560008573ffffffffffffffffffffffffffffffffffffffff1673ffffffffffffffffffffffffffffffffffffffff16815260200190815260200160002060008473ffffffffffffffffffffffffffffffffffffffff1673ffffffffffffffffffffffffffffffffffffffff16815260200190815260200160002060006101000a81548160ff0219169083151502179055508173ffffffffffffffffffffffffffffffffffffffff168373ffffffffffffffffffffffffffffffffffffffff167f17307eab39ab6107e8899845ad3d59bd9653f200f220920489ca2b5937696c3183604051612d229190613aa8565b60405180910390a3505050565b612d3a848484612908565b612d46848484846132b3565b612d85576040517f08c379a0000000000000000000000000000000000000000000000000000000008152600401612d7c906155dd565b60405180910390fd5b50505050565b606060405180602001604052806000815250905090565b6060612dad82612767565b6000612db7612d8b565b90506000815111612dd75760405180602001604052806000815250612e02565b80612de18461344a565b604051602001612df2929190614f1a565b6040516020818303038152906040525b915050919050565b600081600001549050919050565b60606000825190506000811415612e415760405180602001604052806000815250915050612fab565b60006003600283612e5291906154a9565b612e5c919061562c565b6004612e68919061565d565b90506000602082612e7991906154a9565b67ffffffffffffffff811115612e9257612e91614110565b5b6040519080825280601f01601f191660200182016040528015612ec45781602001600182028036833780820191505090505b5090506000604051806060016040528060408152602001615999604091399050600181016020830160005b86811015612f685760038101905062ffffff818a015116603f8160121c168401518060081b905060ff603f83600c1c1686015116810190508060081b905060ff603f8360061c1686015116810190508060081b905060ff603f831686015116810190508060e01b90508084526004840193505050612eef565b506003860660018114612f825760028114612f9257612f9d565b613d3d60f01b6002830352612f9d565b603d60f81b60018303525b508484525050819450505050505b919050565b612fca8282604051806020016040528060008152506135ab565b5050565b612fd782613120565b613016576040517f08c379a000000000000000000000000000000000000000000000000000000000815260040161300d90615729565b60405180910390fd5b8060066000848152602001908152602001600020908051906020019061303d929190613803565b505050565b6130dc83838360405160240161305a93929190615749565b6040516020818303038152906040527f1c7ec448000000000000000000000000000000000000000000000000000000007bffffffffffffffffffffffffffffffffffffffffffffffffffffffff19166020820180517bffffffffffffffffffffffffffffffffffffffffffffffffffffffff83818316178352505050506130f7565b505050565b6001816000016000828254019250508190555050565b60008151905060006a636f6e736f6c652e6c6f679050602083016000808483855afa5050505050565b60008073ffffffffffffffffffffffffffffffffffffffff166002600084815260200190815260200160002060009054906101000a900473ffffffffffffffffffffffffffffffffffffffff1673ffffffffffffffffffffffffffffffffffffffff1614159050919050565b505050565b505050565b60006131a1826111f5565b90506131af8160008461318c565b6131ba6000836127ba565b6001600360008373ffffffffffffffffffffffffffffffffffffffff1673ffffffffffffffffffffffffffffffffffffffff168152602001908152602001600020600082825461320a9190614aa6565b925050819055506002600083815260200190815260200160002060006101000a81549073ffffffffffffffffffffffffffffffffffffffff021916905581600073ffffffffffffffffffffffffffffffffffffffff168273ffffffffffffffffffffffffffffffffffffffff167fddf252ad1be2c89b69c2b068fc378daa952ba7f163c4a11628f55a4df523b3ef60405160405180910390a46132af81600084613191565b5050565b60006132d48473ffffffffffffffffffffffffffffffffffffffff16613606565b1561343d578373ffffffffffffffffffffffffffffffffffffffff1663150b7a026132fd6127b2565b8786866040518563ffffffff1660e01b815260040161331f94939291906157dc565b602060405180830381600087803b15801561333957600080fd5b505af192505050801561336a57506040513d601f19601f82011682018060405250810190613367919061583d565b60015b6133ed573d806000811461339a576040519150601f19603f3d011682016040523d82523d6000602084013e61339f565b606091505b506000815114156133e5576040517f08c379a00000000000000000000000000000000000000000000000000000000081526004016133dc906155dd565b60405180910390fd5b805181602001fd5b63150b7a0260e01b7bffffffffffffffffffffffffffffffffffffffffffffffffffffffff1916817bffffffffffffffffffffffffffffffffffffffffffffffffffffffff191614915050613442565b600190505b949350505050565b60606000821415613492576040518060400160405280600181526020017f300000000000000000000000000000000000000000000000000000000000000081525090506135a6565b600082905060005b600082146134c45780806134ad90614c99565b915050600a826134bd919061562c565b915061349a565b60008167ffffffffffffffff8111156134e0576134df614110565b5b6040519080825280601f01601f1916602001820160405280156135125781602001600182028036833780820191505090505b5090505b6000851461359f5760018261352b9190614aa6565b9150600a8561353a919061586a565b603061354691906154a9565b60f81b81838151811061355c5761355b614ada565b5b60200101907effffffffffffffffffffffffffffffffffffffffffffffffffffffffffffff1916908160001a905350600a85613598919061562c565b9450613516565b8093505050505b919050565b6135b58383613629565b6135c260008484846132b3565b613601576040517f08c379a00000000000000000000000000000000000000000000000000000000081526004016135f8906155dd565b60405180910390fd5b505050565b6000808273ffffffffffffffffffffffffffffffffffffffff163b119050919050565b600073ffffffffffffffffffffffffffffffffffffffff168273ffffffffffffffffffffffffffffffffffffffff161415613699576040517f08c379a0000000000000000000000000000000000000000000000000000000008152600401613690906158e7565b60405180910390fd5b6136a281613120565b156136e2576040517f08c379a00000000000000000000000000000000000000000000000000000000081526004016136d990615953565b60405180910390fd5b6136ee6000838361318c565b6001600360008473ffffffffffffffffffffffffffffffffffffffff1673ffffffffffffffffffffffffffffffffffffffff168152602001908152602001600020600082825461373e91906154a9565b92505081905550816002600083815260200190815260200160002060006101000a81548173ffffffffffffffffffffffffffffffffffffffff021916908373ffffffffffffffffffffffffffffffffffffffff160217905550808273ffffffffffffffffffffffffffffffffffffffff16600073ffffffffffffffffffffffffffffffffffffffff167fddf252ad1be2c89b69c2b068fc378daa952ba7f163c4a11628f55a4df523b3ef60405160405180910390a46137ff60008383613191565b5050565b82805461380f9061488f565b90600052602060002090601f0160209004810192826138315760008555613878565b82601f1061384a57805160ff1916838001178555613878565b82800160010185558215613878579182015b8281111561387757825182559160200191906001019061385c565b5b50905061388591906139b3565b5090565b8280548282559060005260206000209081019282156138d8579160200282015b828111156138d75782518290805190602001906138c7929190613803565b50916020019190600101906138a9565b5b5090506138e591906139d0565b5090565b828054828255906000526020600020908101928215613962579160200282015b828111156139615782518260006101000a81548173ffffffffffffffffffffffffffffffffffffffff021916908373ffffffffffffffffffffffffffffffffffffffff16021790555091602001919060010190613909565b5b50905061396f91906139b3565b5090565b50805461397f9061488f565b6000825580601f1061399157506139b0565b601f0160209004906000526020600020908101906139af91906139b3565b5b50565b5b808211156139cc5760008160009055506001016139b4565b5090565b5b808211156139f057600081816139e79190613973565b506001016139d1565b5090565b6000604051905090565b600080fd5b600080fd5b60007fffffffff0000000000000000000000000000000000000000000000000000000082169050919050565b613a3d81613a08565b8114613a4857600080fd5b50565b600081359050613a5a81613a34565b92915050565b600060208284031215613a7657613a756139fe565b5b6000613a8484828501613a4b565b91505092915050565b60008115159050919050565b613aa281613a8d565b82525050565b6000602082019050613abd6000830184613a99565b92915050565b600081519050919050565b600082825260208201905092915050565b60005b83811015613afd578082015181840152602081019050613ae2565b83811115613b0c576000848401525b50505050565b6000601f19601f8301169050919050565b6000613b2e82613ac3565b613b388185613ace565b9350613b48818560208601613adf565b613b5181613b12565b840191505092915050565b60006020820190508181036000830152613b768184613b23565b905092915050565b6000819050919050565b613b9181613b7e565b8114613b9c57600080fd5b50565b600081359050613bae81613b88565b92915050565b600060208284031215613bca57613bc96139fe565b5b6000613bd884828501613b9f565b91505092915050565b600073ffffffffffffffffffffffffffffffffffffffff82169050919050565b6000613c0c82613be1565b9050919050565b613c1c81613c01565b82525050565b6000602082019050613c376000830184613c13565b92915050565b613c4681613c01565b8114613c5157600080fd5b50565b600081359050613c6381613c3d565b92915050565b60008060408385031215613c8057613c7f6139fe565b5b6000613c8e85828601613c54565b9250506020613c9f85828601613b9f565b9150509250929050565b600060208284031215613cbf57613cbe6139fe565b5b6000613ccd84828501613c54565b91505092915050565b600081519050919050565b600082825260208201905092915050565b6000819050602082019050919050565b600082825260208201905092915050565b6000613d1e82613ac3565b613d288185613d02565b9350613d38818560208601613adf565b613d4181613b12565b840191505092915050565b600081519050919050565b600082825260208201905092915050565b6000819050602082019050919050565b6000613d848383613d13565b905092915050565b6000602082019050919050565b6000613da482613d4c565b613dae8185613d57565b935083602082028501613dc085613d68565b8060005b85811015613dfc5784840389528151613ddd8582613d78565b9450613de883613d8c565b925060208a01995050600181019050613dc4565b50829750879550505050505092915050565b613e1781613b7e565b82525050565b613e2681613c01565b82525050565b600081519050919050565b600082825260208201905092915050565b6000819050602082019050919050565b6000613e648383613e1d565b60208301905092915050565b6000602082019050919050565b6000613e8882613e2c565b613e928185613e37565b9350613e9d83613e48565b8060005b83811015613ece578151613eb58882613e58565b9750613ec083613e70565b925050600181019050613ea1565b5085935050505092915050565b6000610140830160008301518482036000860152613ef98282613d13565b91505060208301518482036020860152613f138282613d99565b91505060408301518482036040860152613f2d8282613d13565b91505060608301518482036060860152613f478282613d13565b9150506080830151613f5c6080860182613e0e565b5060a0830151613f6f60a0860182613e0e565b5060c0830151613f8260c0860182613e0e565b5060e0830151613f9560e0860182613e0e565b50610100830151613faa610100860182613e1d565b50610120830151848203610120860152613fc48282613e7d565b9150508091505092915050565b6000613fdd8383613edb565b905092915050565b6000602082019050919050565b6000613ffd82613cd6565b6140078185613ce1565b93508360208202850161401985613cf2565b8060005b8581101561405557848403895281516140368582613fd1565b945061404183613fe5565b925060208a0199505060018101905061401d565b50829750879550505050505092915050565b600060208201905081810360008301526140818184613ff2565b905092915050565b6000806000606084860312156140a2576140a16139fe565b5b60006140b086828701613c54565b93505060206140c186828701613c54565b92505060406140d286828701613b9f565b9150509250925092565b6140e581613b7e565b82525050565b600060208201905061410060008301846140dc565b92915050565b600080fd5b600080fd5b7f4e487b7100000000000000000000000000000000000000000000000000000000600052604160045260246000fd5b61414882613b12565b810181811067ffffffffffffffff8211171561416757614166614110565b5b80604052505050565b600061417a6139f4565b9050614186828261413f565b919050565b600067ffffffffffffffff8211156141a6576141a5614110565b5b6141af82613b12565b9050602081019050919050565b82818337600083830152505050565b60006141de6141d98461418b565b614170565b9050828152602081018484840111156141fa576141f961410b565b5b6142058482856141bc565b509392505050565b600082601f83011261422257614221614106565b5b81356142328482602086016141cb565b91505092915050565b600067ffffffffffffffff82111561425657614255614110565b5b602082029050602081019050919050565b600080fd5b600061427f61427a8461423b565b614170565b905080838252602082019050602084028301858111156142a2576142a1614267565b5b835b818110156142e957803567ffffffffffffffff8111156142c7576142c6614106565b5b8086016142d4898261420d565b855260208501945050506020810190506142a4565b5050509392505050565b600082601f83011261430857614307614106565b5b813561431884826020860161426c565b91505092915050565b60008060006060848603121561433a576143396139fe565b5b600084013567ffffffffffffffff81111561435857614357613a03565b5b6143648682870161420d565b935050602084013567ffffffffffffffff81111561438557614384613a03565b5b614391868287016142f3565b925050604084013567ffffffffffffffff8111156143b2576143b1613a03565b5b6143be8682870161420d565b9150509250925092565b600060808201905081810360008301526143e28187613b23565b905081810360208301526143f68186613b23565b9050818103604083015261440a8185613b23565b90506144196060830184613c13565b95945050505050565b61442b81613a8d565b811461443657600080fd5b50565b60008135905061444881614422565b92915050565b60008060408385031215614465576144646139fe565b5b600061447385828601613c54565b925050602061448485828601614439565b9150509250929050565b6000806000606084860312156144a7576144a66139fe565b5b600084013567ffffffffffffffff8111156144c5576144c4613a03565b5b6144d18682870161420d565b935050602084013567ffffffffffffffff8111156144f2576144f1613a03565b5b6144fe8682870161420d565b925050604084013567ffffffffffffffff81111561451f5761451e613a03565b5b61452b8682870161420d565b9150509250925092565b600067ffffffffffffffff8211156145505761454f614110565b5b61455982613b12565b9050602081019050919050565b600061457961457484614535565b614170565b9050828152602081018484840111156145955761459461410b565b5b6145a08482856141bc565b509392505050565b600082601f8301126145bd576145bc614106565b5b81356145cd848260208601614566565b91505092915050565b600080600080608085870312156145f0576145ef6139fe565b5b60006145fe87828801613c54565b945050602061460f87828801613c54565b935050604061462087828801613b9f565b925050606085013567ffffffffffffffff81111561464157614640613a03565b5b61464d878288016145a8565b91505092959194509250565b6000610100820190508181036000830152614674818b613b23565b90508181036020830152614688818a613b23565b9050818103604083015261469c8189613b23565b90506146ab60608301886140dc565b6146b860808301876140dc565b6146c560a08301866140dc565b6146d260c08301856140dc565b6146df60e0830184613c13565b9998505050505050505050565b60008060008060808587031215614706576147056139fe565b5b600085013567ffffffffffffffff81111561472457614723613a03565b5b6147308782880161420d565b945050602085013567ffffffffffffffff81111561475157614750613a03565b5b61475d878288016142f3565b935050604085013567ffffffffffffffff81111561477e5761477d613a03565b5b61478a8782880161420d565b925050606061479b87828801613b9f565b91505092959194509250565b600080604083850312156147be576147bd6139fe565b5b60006147cc85828601613c54565b92505060206147dd85828601613c54565b9150509250929050565b6000602082840312156147fd576147fc6139fe565b5b600082013567ffffffffffffffff81111561481b5761481a613a03565b5b6148278482850161420d565b91505092915050565b6000604082019050818103600083015261484a8185613b23565b905061485960208301846140dc565b9392505050565b7f4e487b7100000000000000000000000000000000000000000000000000000000600052602260045260246000fd5b600060028204905060018216806148a757607f821691505b602082108114156148bb576148ba614860565b5b50919050565b7f4552433732313a20617070726f76616c20746f2063757272656e74206f776e6560008201527f7200000000000000000000000000000000000000000000000000000000000000602082015250565b600061491d602183613ace565b9150614928826148c1565b604082019050919050565b6000602082019050818103600083015261494c81614910565b9050919050565b7f4552433732313a20617070726f76652063616c6c6572206973206e6f7420746f60008201527f6b656e206f776e6572206e6f7220617070726f76656420666f7220616c6c0000602082015250565b60006149af603e83613ace565b91506149ba82614953565b604082019050919050565b600060208201905081810360008301526149de816149a2565b9050919050565b7f596f752068617665206e6f74207965742072656769737465726564206120707260008201527f6f66696c652e0000000000000000000000000000000000000000000000000000602082015250565b6000614a41602683613ace565b9150614a4c826149e5565b604082019050919050565b60006020820190508181036000830152614a7081614a34565b9050919050565b7f4e487b7100000000000000000000000000000000000000000000000000000000600052601160045260246000fd5b6000614ab182613b7e565b9150614abc83613b7e565b925082821015614acf57614ace614a77565b5b828203905092915050565b7f4e487b7100000000000000000000000000000000000000000000000000000000600052603260045260246000fd5b7f4552433732313a2063616c6c6572206973206e6f7420746f6b656e206f776e6560008201527f72206e6f7220617070726f766564000000000000000000000000000000000000602082015250565b6000614b65602e83613ace565b9150614b7082614b09565b604082019050919050565b60006020820190508181036000830152614b9481614b58565b9050919050565b7f4e6f2073746f726965732077697468207468652073706563696669656420746960008201527f746c652061726520726567697374657265642e00000000000000000000000000602082015250565b6000614bf7603383613ace565b9150614c0282614b9b565b604082019050919050565b60006020820190508181036000830152614c2681614bea565b9050919050565b7f53746f727920617574686f72732063616e6e6f74206265206c696b65642e0000600082015250565b6000614c63601e83613ace565b9150614c6e82614c2d565b602082019050919050565b60006020820190508181036000830152614c9281614c56565b9050919050565b6000614ca482613b7e565b91507fffffffffffffffffffffffffffffffffffffffffffffffffffffffffffffffff821415614cd757614cd6614a77565b5b600182019050919050565b7f596f7520617265206c696b696e6720746869732073746f7279206f6e2074686560008201527f206e6573742e0000000000000000000000000000000000000000000000000000602082015250565b6000614d3e602683613ace565b9150614d4982614ce2565b604082019050919050565b60006020820190508181036000830152614d6d81614d31565b9050919050565b7f4f6e6c79204e4654206f776e6572732063616e206275726e2e00000000000000600082015250565b6000614daa601983613ace565b9150614db582614d74565b602082019050919050565b60006020820190508181036000830152614dd981614d9d565b9050919050565b7f4552433732313a20696e76616c696420746f6b656e2049440000000000000000600082015250565b6000614e16601883613ace565b9150614e2182614de0565b602082019050919050565b60006020820190508181036000830152614e4581614e09565b9050919050565b7f4552433732313a2061646472657373207a65726f206973206e6f74206120766160008201527f6c6964206f776e65720000000000000000000000000000000000000000000000602082015250565b6000614ea8602983613ace565b9150614eb382614e4c565b604082019050919050565b60006020820190508181036000830152614ed781614e9b565b9050919050565b600081905092915050565b6000614ef482613ac3565b614efe8185614ede565b9350614f0e818560208601613adf565b80840191505092915050565b6000614f268285614ee9565b9150614f328284614ee9565b91508190509392505050565b7f596f752068617665206e6f74207965742072656769737465726564206120736f60008201527f74727920646174612e0000000000000000000000000000000000000000000000602082015250565b6000614f9a602983613ace565b9150614fa582614f3e565b604082019050919050565b60006020820190508181036000830152614fc981614f8d565b9050919050565b60008190508160005260206000209050919050565b60008154614ff28161488f565b614ffc8186614ede565b9450600182166000811461501757600181146150285761505b565b60ff1983168652818601935061505b565b61503185614fd0565b60005b8381101561505357815481890152600182019150602081019050615034565b838801955050505b50505092915050565b7f3c2f746578743e3c2f7376673e00000000000000000000000000000000000000600082015250565b600061509a600d83614ede565b91506150a582615064565b600d82019050919050565b60006150bc8285614fe5565b91506150c88284614ee9565b91506150d38261508d565b91508190509392505050565b7f7b226e616d65223a202200000000000000000000000000000000000000000000600082015250565b6000615115600a83614ede565b9150615120826150df565b600a82019050919050565b7f222c20226465736372697074696f6e223a20224d79205265636f76657279205360008201527f746f7279222c2000000000000000000000000000000000000000000000000000602082015250565b6000615187602783614ede565b91506151928261512b565b602782019050919050565b7f22696d616765223a2022646174613a696d6167652f7376672b786d6c3b62617360008201527f6536342c00000000000000000000000000000000000000000000000000000000602082015250565b60006151f9602483614ede565b91506152048261519d565b602482019050919050565b7f227d000000000000000000000000000000000000000000000000000000000000600082015250565b6000615245600283614ede565b91506152508261520f565b600282019050919050565b600061526682615108565b91506152728285614ee9565b915061527d8261517a565b9150615288826151ec565b91506152948284614ee9565b915061529f82615238565b91508190509392505050565b7f646174613a6170706c69636174696f6e2f6a736f6e3b6261736536342c000000600082015250565b60006152e1601d83614ede565b91506152ec826152ab565b601d82019050919050565b6000615302826152d4565b915061530e8284614ee9565b915081905092915050565b7f416e206163636f756e7420616c7265616479206578697374732e000000000000600082015250565b600061534f601a83613ace565b915061535a82615319565b602082019050919050565b6000602082019050818103600083015261537e81615342565b9050919050565b7f4552433732313a207472616e736665722066726f6d20696e636f72726563742060008201527f6f776e6572000000000000000000000000000000000000000000000000000000602082015250565b60006153e1602583613ace565b91506153ec82615385565b604082019050919050565b60006020820190508181036000830152615410816153d4565b9050919050565b7f4552433732313a207472616e7366657220746f20746865207a65726f2061646460008201527f7265737300000000000000000000000000000000000000000000000000000000602082015250565b6000615473602483613ace565b915061547e82615417565b604082019050919050565b600060208201905081810360008301526154a281615466565b9050919050565b60006154b482613b7e565b91506154bf83613b7e565b9250827fffffffffffffffffffffffffffffffffffffffffffffffffffffffffffffffff038211156154f4576154f3614a77565b5b828201905092915050565b7f4552433732313a20617070726f766520746f2063616c6c657200000000000000600082015250565b6000615535601983613ace565b9150615540826154ff565b602082019050919050565b6000602082019050818103600083015261556481615528565b9050919050565b7f4552433732313a207472616e7366657220746f206e6f6e20455243373231526560008201527f63656976657220696d706c656d656e7465720000000000000000000000000000602082015250565b60006155c7603283613ace565b91506155d28261556b565b604082019050919050565b600060208201905081810360008301526155f6816155ba565b9050919050565b7f4e487b7100000000000000000000000000000000000000000000000000000000600052601260045260246000fd5b600061563782613b7e565b915061564283613b7e565b925082615652576156516155fd565b5b828204905092915050565b600061566882613b7e565b915061567383613b7e565b9250817fffffffffffffffffffffffffffffffffffffffffffffffffffffffffffffffff04831182151516156156ac576156ab614a77565b5b828202905092915050565b7f45524337323155524953746f726167653a2055524920736574206f66206e6f6e60008201527f6578697374656e7420746f6b656e000000000000000000000000000000000000602082015250565b6000615713602e83613ace565b915061571e826156b7565b604082019050919050565b6000602082019050818103600083015261574281615706565b9050919050565b600060608201905081810360008301526157638186613b23565b905061577260208301856140dc565b61577f6040830184613c13565b949350505050565b600081519050919050565b600082825260208201905092915050565b60006157ae82615787565b6157b88185615792565b93506157c8818560208601613adf565b6157d181613b12565b840191505092915050565b60006080820190506157f16000830187613c13565b6157fe6020830186613c13565b61580b60408301856140dc565b818103606083015261581d81846157a3565b905095945050505050565b60008151905061583781613a34565b92915050565b600060208284031215615853576158526139fe565b5b600061586184828501615828565b91505092915050565b600061587582613b7e565b915061588083613b7e565b9250826158905761588f6155fd565b5b828206905092915050565b7f4552433732313a206d696e7420746f20746865207a65726f2061646472657373600082015250565b60006158d1602083613ace565b91506158dc8261589b565b602082019050919050565b60006020820190508181036000830152615900816158c4565b9050919050565b7f4552433732313a20746f6b656e20616c7265616479206d696e74656400000000600082015250565b600061593d601c83613ace565b915061594882615907565b602082019050919050565b6000602082019050818103600083015261596c81615930565b905091905056fe416e204e465420772f20494420257320686173206265656e206d696e74656420746f2025734142434445464748494a4b4c4d4e4f505152535455565758595a6162636465666768696a6b6c6d6e6f707172737475767778797a303132333435363738392b2fa2646970667358221220adde8f61a2d1d0c1a33667b32ce42fa0646904b6d56f858ef49ac44754f4765e64736f6c6343000809003354686973206973206d79205265636f766572792053746f727920636f6e74726163742e3c73766720786d6c6e733d27687474703a2f2f7777772e77332e6f72672f323030302f73766727207072657365727665417370656374526174696f3d27784d696e594d696e206d656574272076696577426f783d273020302033353020333530273e3c7374796c653e2e62617365207b2066696c6c3a20233032423242343b20666f6e742d66616d696c793a20274869726167696e6f204d61727520476f746869632050726f273b20666f6e742d73697a653a20323470783b207d3c2f7374796c653e3c726563742077696474683d273130302527206865696768743d2731303025272066696c6c3d272345394534444627202f3e3c7465787420783d273530252720793d273530252720636c6173734e616d653d27626173652720646f6d696e616e742d626173656c696e653d276d6964646c652720746578742d616e63686f723d276d6964646c65273e",
  "linkReferences": {},
  "deployedLinkReferences": {}
}