{
  "_format": "hh-sol-artifact-1",
  "contractName": "RecoveryStory",
  "sourceName": "contracts/RecoveryStory.sol",
  "abi": [
    {
      "inputs": [
        {
          "internalType": "uint256",
          "name": "_storyId",
          "type": "uint256"
        }
      ],
      "name": "addLike",
      "outputs": [],
      "stateMutability": "nonpayable",
      "type": "function"
    },
    {
      "inputs": [
        {
          "internalType": "string",
          "name": "_storyTitle",
          "type": "string"
        },
        {
          "internalType": "string[]",
          "name": "_tags",
          "type": "string[]"
        },
        {
          "internalType": "string",
          "name": "_storyBody",
          "type": "string"
        }
      ],
      "name": "createStory",
      "outputs": [],
      "stateMutability": "nonpayable",
      "type": "function"
    },
    {
      "inputs": [
        {
          "internalType": "string",
          "name": "_name",
          "type": "string"
        },
        {
          "internalType": "string",
          "name": "_avatar",
          "type": "string"
        },
        {
          "internalType": "string",
          "name": "_biography",
          "type": "string"
        }
      ],
      "name": "createUserProfile",
      "outputs": [],
      "stateMutability": "nonpayable",
      "type": "function"
    },
    {
      "inputs": [
        {
          "internalType": "string",
          "name": "_storyTitle",
          "type": "string"
        },
        {
          "internalType": "string[]",
          "name": "tags",
          "type": "string[]"
        },
        {
          "internalType": "string",
          "name": "_storyBody",
          "type": "string"
        },
        {
          "internalType": "uint256",
          "name": "_storyId",
          "type": "uint256"
        }
      ],
      "name": "editStory",
      "outputs": [],
      "stateMutability": "nonpayable",
      "type": "function"
    },
    {
      "inputs": [
        {
          "internalType": "string",
          "name": "_name",
          "type": "string"
        },
        {
          "internalType": "string",
          "name": "_avatar",
          "type": "string"
        },
        {
          "internalType": "string",
          "name": "_biography",
          "type": "string"
        }
      ],
      "name": "editUserProfile",
      "outputs": [],
      "stateMutability": "nonpayable",
      "type": "function"
    },
    {
      "inputs": [],
      "name": "getAllStories",
      "outputs": [
        {
          "components": [
            {
              "internalType": "string",
              "name": "storyTitle",
              "type": "string"
            },
            {
              "internalType": "string[]",
              "name": "tags",
              "type": "string[]"
            },
            {
              "internalType": "string",
              "name": "storyBody",
              "type": "string"
            },
            {
              "internalType": "string",
              "name": "dataURI",
              "type": "string"
            },
            {
              "internalType": "uint256",
              "name": "createDate",
              "type": "uint256"
            },
            {
              "internalType": "uint256",
              "name": "updateDate",
              "type": "uint256"
            },
            {
              "internalType": "uint256",
              "name": "numLike",
              "type": "uint256"
            },
            {
              "internalType": "uint256",
              "name": "storyId",
              "type": "uint256"
            },
            {
              "internalType": "address",
              "name": "authorAddress",
              "type": "address"
            },
            {
              "internalType": "address[]",
              "name": "likeUserAdress",
              "type": "address[]"
            }
          ],
          "internalType": "struct RecoveryStory.Story[]",
          "name": "",
          "type": "tuple[]"
        }
      ],
      "stateMutability": "view",
      "type": "function"
    },
    {
      "inputs": [
        {
          "internalType": "address",
          "name": "_authorAddress",
          "type": "address"
        }
      ],
      "name": "getAuthor",
      "outputs": [
        {
          "internalType": "string",
          "name": "",
          "type": "string"
        }
      ],
      "stateMutability": "view",
      "type": "function"
    },
    {
      "inputs": [],
      "name": "getUserProfile",
      "outputs": [
        {
          "internalType": "string",
          "name": "",
          "type": "string"
        },
        {
          "internalType": "string",
          "name": "",
          "type": "string"
        },
        {
          "internalType": "string",
          "name": "",
          "type": "string"
        },
        {
          "internalType": "address",
          "name": "",
          "type": "address"
        }
      ],
      "stateMutability": "view",
      "type": "function"
    },
    {
      "inputs": [
        {
          "internalType": "uint256",
          "name": "",
          "type": "uint256"
        }
      ],
      "name": "story",
      "outputs": [
        {
          "internalType": "string",
          "name": "storyTitle",
          "type": "string"
        },
        {
          "internalType": "string",
          "name": "storyBody",
          "type": "string"
        },
        {
          "internalType": "string",
          "name": "dataURI",
          "type": "string"
        },
        {
          "internalType": "uint256",
          "name": "createDate",
          "type": "uint256"
        },
        {
          "internalType": "uint256",
          "name": "updateDate",
          "type": "uint256"
        },
        {
          "internalType": "uint256",
          "name": "numLike",
          "type": "uint256"
        },
        {
          "internalType": "uint256",
          "name": "storyId",
          "type": "uint256"
        },
        {
          "internalType": "address",
          "name": "authorAddress",
          "type": "address"
        }
      ],
      "stateMutability": "view",
      "type": "function"
    },
    {
      "inputs": [],
      "name": "storyIdCounter",
      "outputs": [
        {
          "internalType": "uint256",
          "name": "",
          "type": "uint256"
        }
      ],
      "stateMutability": "view",
      "type": "function"
    },
    {
      "inputs": [
        {
          "internalType": "uint256",
          "name": "",
          "type": "uint256"
        }
      ],
      "name": "userProfile",
      "outputs": [
        {
          "internalType": "string",
          "name": "name",
          "type": "string"
        },
        {
          "internalType": "string",
          "name": "avatar",
          "type": "string"
        },
        {
          "internalType": "string",
          "name": "biography",
          "type": "string"
        },
        {
          "internalType": "address",
          "name": "walletAddress",
          "type": "address"
        }
      ],
      "stateMutability": "view",
      "type": "function"
    }
  ],
  "bytecode": "0x6080604052600160035534801561001557600080fd5b506129e0806100256000396000f3fe608060405234801561001057600080fd5b50600436106100a95760003560e01c80636f61c744116100715780636f61c74414610152578063a26cf68514610173578063beba8bbe1461018f578063ce8c35fd146101c6578063f37181f4146101e2578063feb81fbe14610215576100a9565b80630ab30093146100ae578063191bbe2a146100de578063378a35cd146100fc57806338a3bdc8146101185780636decda9114610136575b600080fd5b6100c860048036038101906100c39190611b06565b610231565b6040516100d59190611bcc565b60405180910390f35b6100e66103ba565b6040516100f39190611f89565b60405180910390f35b61011660048036038101906101119190611fd7565b6107b5565b005b610120610abf565b60405161012d9190612013565b60405180910390f35b610150600480360381019061014b9190612249565b610ac5565b005b61015a610d02565b60405161016a94939291906122ff565b60405180910390f35b61018d60048036038101906101889190612359565b611041565b005b6101a960048036038101906101a49190611fd7565b6111c6565b6040516101bd989796959493929190612400565b60405180910390f35b6101e060048036038101906101db9190612493565b6113d6565b005b6101fc60048036038101906101f79190611fd7565b61151c565b60405161020c94939291906122ff565b60405180910390f35b61022f600480360381019061022a9190612359565b611714565b005b60606000600160008473ffffffffffffffffffffffffffffffffffffffff1673ffffffffffffffffffffffffffffffffffffffff16815260200190815260200160002054116102b5576040517f08c379a00000000000000000000000000000000000000000000000000000000081526004016102ac906125c0565b60405180910390fd5b600060018060008573ffffffffffffffffffffffffffffffffffffffff1673ffffffffffffffffffffffffffffffffffffffff16815260200190815260200160002054610302919061260f565b90506000818154811061031857610317612643565b5b90600052602060002090600402016000018054610334906126a1565b80601f0160208091040260200160405190810160405280929190818152602001828054610360906126a1565b80156103ad5780601f10610382576101008083540402835291602001916103ad565b820191906000526020600020905b81548152906001019060200180831161039057829003601f168201915b5050505050915050919050565b60606002805480602002602001604051908101604052809291908181526020016000905b828210156107ac57838290600052602060002090600a020160405180610140016040529081600082018054610412906126a1565b80601f016020809104026020016040519081016040528092919081815260200182805461043e906126a1565b801561048b5780601f106104605761010080835404028352916020019161048b565b820191906000526020600020905b81548152906001019060200180831161046e57829003601f168201915b5050505050815260200160018201805480602002602001604051908101604052809291908181526020016000905b828210156105655783829060005260206000200180546104d8906126a1565b80601f0160208091040260200160405190810160405280929190818152602001828054610504906126a1565b80156105515780601f1061052657610100808354040283529160200191610551565b820191906000526020600020905b81548152906001019060200180831161053457829003601f168201915b5050505050815260200190600101906104b9565b50505050815260200160028201805461057d906126a1565b80601f01602080910402602001604051908101604052809291908181526020018280546105a9906126a1565b80156105f65780601f106105cb576101008083540402835291602001916105f6565b820191906000526020600020905b8154815290600101906020018083116105d957829003601f168201915b5050505050815260200160038201805461060f906126a1565b80601f016020809104026020016040519081016040528092919081815260200182805461063b906126a1565b80156106885780601f1061065d57610100808354040283529160200191610688565b820191906000526020600020905b81548152906001019060200180831161066b57829003601f168201915b50505050508152602001600482015481526020016005820154815260200160068201548152602001600782015481526020016008820160009054906101000a900473ffffffffffffffffffffffffffffffffffffffff1673ffffffffffffffffffffffffffffffffffffffff1673ffffffffffffffffffffffffffffffffffffffff1681526020016009820180548060200260200160405190810160405280929190818152602001828054801561079457602002820191906000526020600020905b8160009054906101000a900473ffffffffffffffffffffffffffffffffffffffff1673ffffffffffffffffffffffffffffffffffffffff168152602001906001019080831161074a575b505050505081525050815260200190600101906103de565b50505050905090565b6000600282815481106107cb576107ca612643565b5b90600052602060002090600a0201600701541161081d576040517f08c379a000000000000000000000000000000000000000000000000000000000815260040161081490612745565b60405180910390fd5b3373ffffffffffffffffffffffffffffffffffffffff166002828154811061084857610847612643565b5b90600052602060002090600a020160080160009054906101000a900473ffffffffffffffffffffffffffffffffffffffff1673ffffffffffffffffffffffffffffffffffffffff1614156108d1576040517f08c379a00000000000000000000000000000000000000000000000000000000081526004016108c8906127b1565b60405180910390fd5b6000805b600283815481106108e9576108e8612643565b5b90600052602060002090600a0201600901805490508110156109b2573373ffffffffffffffffffffffffffffffffffffffff16600284815481106109305761092f612643565b5b90600052602060002090600a0201600901828154811061095357610952612643565b5b9060005260206000200160009054906101000a900473ffffffffffffffffffffffffffffffffffffffff1673ffffffffffffffffffffffffffffffffffffffff16141561099f57600191505b80806109aa906127d1565b9150506108d5565b5060001515811515146109fa576040517f08c379a00000000000000000000000000000000000000000000000000000000081526004016109f19061288c565b60405180910390fd5b60028281548110610a0e57610a0d612643565b5b90600052602060002090600a02016006016000815480929190610a30906127d1565b919050555060028281548110610a4957610a48612643565b5b90600052602060002090600a0201600901339080600181540180825580915050600190039060005260206000200160009091909190916101000a81548173ffffffffffffffffffffffffffffffffffffffff021916908373ffffffffffffffffffffffffffffffffffffffff1602179055505050565b60035481565b606060006040518061014001604052808681526020018581526020018481526020016040518060400160405280600381526020017f696d67000000000000000000000000000000000000000000000000000000000081525081526020014281526020014281526020016000815260200160035481526020013373ffffffffffffffffffffffffffffffffffffffff16815260200183815250905060028190806001815401808255809150506001900390600052602060002090600a02016000909190919091506000820151816000019080519060200190610ba79291906118a3565b506020820151816001019080519060200190610bc4929190611929565b506040820151816002019080519060200190610be19291906118a3565b506060820151816003019080519060200190610bfe9291906118a3565b506080820151816004015560a0820151816005015560c0820151816006015560e082015181600701556101008201518160080160006101000a81548173ffffffffffffffffffffffffffffffffffffffff021916908373ffffffffffffffffffffffffffffffffffffffff160217905550610120820151816009019080519060200190610c8c929190611989565b5050503360046000600354815260200190815260200160002060006101000a81548173ffffffffffffffffffffffffffffffffffffffff021916908373ffffffffffffffffffffffffffffffffffffffff16021790555060036000815480929190610cf6906127d1565b91905055505050505050565b6060806060600080600160003373ffffffffffffffffffffffffffffffffffffffff1673ffffffffffffffffffffffffffffffffffffffff1681526020019081526020016000205411610d8a576040517f08c379a0000000000000000000000000000000000000000000000000000000008152600401610d81906125c0565b60405180910390fd5b600060018060003373ffffffffffffffffffffffffffffffffffffffff1673ffffffffffffffffffffffffffffffffffffffff16815260200190815260200160002054610dd7919061260f565b905060008181548110610ded57610dec612643565b5b906000526020600020906004020160000160008281548110610e1257610e11612643565b5b906000526020600020906004020160010160008381548110610e3757610e36612643565b5b906000526020600020906004020160020160008481548110610e5c57610e5b612643565b5b906000526020600020906004020160030160009054906101000a900473ffffffffffffffffffffffffffffffffffffffff16838054610e9a906126a1565b80601f0160208091040260200160405190810160405280929190818152602001828054610ec6906126a1565b8015610f135780601f10610ee857610100808354040283529160200191610f13565b820191906000526020600020905b815481529060010190602001808311610ef657829003601f168201915b50505050509350828054610f26906126a1565b80601f0160208091040260200160405190810160405280929190818152602001828054610f52906126a1565b8015610f9f5780601f10610f7457610100808354040283529160200191610f9f565b820191906000526020600020905b815481529060010190602001808311610f8257829003601f168201915b50505050509250818054610fb2906126a1565b80601f0160208091040260200160405190810160405280929190818152602001828054610fde906126a1565b801561102b5780601f106110005761010080835404028352916020019161102b565b820191906000526020600020905b81548152906001019060200180831161100e57829003601f168201915b5050505050915094509450945094505090919293565b6000600160003373ffffffffffffffffffffffffffffffffffffffff1673ffffffffffffffffffffffffffffffffffffffff16815260200190815260200160002054116110c3576040517f08c379a00000000000000000000000000000000000000000000000000000000081526004016110ba906125c0565b60405180910390fd5b600060018060003373ffffffffffffffffffffffffffffffffffffffff1673ffffffffffffffffffffffffffffffffffffffff16815260200190815260200160002054611110919061260f565b9050836000828154811061112757611126612643565b5b9060005260206000209060040201600001908051906020019061114b9291906118a3565b50826000828154811061116157611160612643565b5b906000526020600020906004020160010190805190602001906111859291906118a3565b50816000828154811061119b5761119a612643565b5b906000526020600020906004020160020190805190602001906111bf9291906118a3565b5050505050565b600281815481106111d657600080fd5b90600052602060002090600a02016000915090508060000180546111f9906126a1565b80601f0160208091040260200160405190810160405280929190818152602001828054611225906126a1565b80156112725780601f1061124757610100808354040283529160200191611272565b820191906000526020600020905b81548152906001019060200180831161125557829003601f168201915b505050505090806002018054611287906126a1565b80601f01602080910402602001604051908101604052809291908181526020018280546112b3906126a1565b80156113005780601f106112d557610100808354040283529160200191611300565b820191906000526020600020905b8154815290600101906020018083116112e357829003601f168201915b505050505090806003018054611315906126a1565b80601f0160208091040260200160405190810160405280929190818152602001828054611341906126a1565b801561138e5780601f106113635761010080835404028352916020019161138e565b820191906000526020600020905b81548152906001019060200180831161137157829003601f168201915b5050505050908060040154908060050154908060060154908060070154908060080160009054906101000a900473ffffffffffffffffffffffffffffffffffffffff16905088565b6000600282815481106113ec576113eb612643565b5b90600052602060002090600a0201600701541161143e576040517f08c379a00000000000000000000000000000000000000000000000000000000081526004016114359061291e565b60405180910390fd5b836002828154811061145357611452612643565b5b90600052602060002090600a020160000190805190602001906114779291906118a3565b50826002828154811061148d5761148c612643565b5b90600052602060002090600a020160010190805190602001906114b1929190611929565b5081600282815481106114c7576114c6612643565b5b90600052602060002090600a020160020190805190602001906114eb9291906118a3565b50426002828154811061150157611500612643565b5b90600052602060002090600a02016005018190555050505050565b6000818154811061152c57600080fd5b906000526020600020906004020160009150905080600001805461154f906126a1565b80601f016020809104026020016040519081016040528092919081815260200182805461157b906126a1565b80156115c85780601f1061159d576101008083540402835291602001916115c8565b820191906000526020600020905b8154815290600101906020018083116115ab57829003601f168201915b5050505050908060010180546115dd906126a1565b80601f0160208091040260200160405190810160405280929190818152602001828054611609906126a1565b80156116565780601f1061162b57610100808354040283529160200191611656565b820191906000526020600020905b81548152906001019060200180831161163957829003601f168201915b50505050509080600201805461166b906126a1565b80601f0160208091040260200160405190810160405280929190818152602001828054611697906126a1565b80156116e45780601f106116b9576101008083540402835291602001916116e4565b820191906000526020600020905b8154815290600101906020018083116116c757829003601f168201915b5050505050908060030160009054906101000a900473ffffffffffffffffffffffffffffffffffffffff16905084565b6000600160003373ffffffffffffffffffffffffffffffffffffffff1673ffffffffffffffffffffffffffffffffffffffff1681526020019081526020016000205414611796576040517f08c379a000000000000000000000000000000000000000000000000000000000815260040161178d9061298a565b60405180910390fd5b600060405180608001604052808581526020018481526020018381526020013373ffffffffffffffffffffffffffffffffffffffff168152509050600081908060018154018082558091505060019003906000526020600020906004020160009091909190915060008201518160000190805190602001906118199291906118a3565b5060208201518160010190805190602001906118369291906118a3565b5060408201518160020190805190602001906118539291906118a3565b5060608201518160030160006101000a81548173ffffffffffffffffffffffffffffffffffffffff021916908373ffffffffffffffffffffffffffffffffffffffff160217905550505050505050565b8280546118af906126a1565b90600052602060002090601f0160209004810192826118d15760008555611918565b82601f106118ea57805160ff1916838001178555611918565b82800160010185558215611918579182015b828111156119175782518255916020019190600101906118fc565b5b5090506119259190611a13565b5090565b828054828255906000526020600020908101928215611978579160200282015b828111156119775782518290805190602001906119679291906118a3565b5091602001919060010190611949565b5b5090506119859190611a30565b5090565b828054828255906000526020600020908101928215611a02579160200282015b82811115611a015782518260006101000a81548173ffffffffffffffffffffffffffffffffffffffff021916908373ffffffffffffffffffffffffffffffffffffffff160217905550916020019190600101906119a9565b5b509050611a0f9190611a13565b5090565b5b80821115611a2c576000816000905550600101611a14565b5090565b5b80821115611a505760008181611a479190611a54565b50600101611a31565b5090565b508054611a60906126a1565b6000825580601f10611a725750611a91565b601f016020900490600052602060002090810190611a909190611a13565b5b50565b6000604051905090565b600080fd5b600080fd5b600073ffffffffffffffffffffffffffffffffffffffff82169050919050565b6000611ad382611aa8565b9050919050565b611ae381611ac8565b8114611aee57600080fd5b50565b600081359050611b0081611ada565b92915050565b600060208284031215611b1c57611b1b611a9e565b5b6000611b2a84828501611af1565b91505092915050565b600081519050919050565b600082825260208201905092915050565b60005b83811015611b6d578082015181840152602081019050611b52565b83811115611b7c576000848401525b50505050565b6000601f19601f8301169050919050565b6000611b9e82611b33565b611ba88185611b3e565b9350611bb8818560208601611b4f565b611bc181611b82565b840191505092915050565b60006020820190508181036000830152611be68184611b93565b905092915050565b600081519050919050565b600082825260208201905092915050565b6000819050602082019050919050565b600082825260208201905092915050565b6000611c3682611b33565b611c408185611c1a565b9350611c50818560208601611b4f565b611c5981611b82565b840191505092915050565b600081519050919050565b600082825260208201905092915050565b6000819050602082019050919050565b6000611c9c8383611c2b565b905092915050565b6000602082019050919050565b6000611cbc82611c64565b611cc68185611c6f565b935083602082028501611cd885611c80565b8060005b85811015611d145784840389528151611cf58582611c90565b9450611d0083611ca4565b925060208a01995050600181019050611cdc565b50829750879550505050505092915050565b6000819050919050565b611d3981611d26565b82525050565b611d4881611ac8565b82525050565b600081519050919050565b600082825260208201905092915050565b6000819050602082019050919050565b6000611d868383611d3f565b60208301905092915050565b6000602082019050919050565b6000611daa82611d4e565b611db48185611d59565b9350611dbf83611d6a565b8060005b83811015611df0578151611dd78882611d7a565b9750611de283611d92565b925050600181019050611dc3565b5085935050505092915050565b6000610140830160008301518482036000860152611e1b8282611c2b565b91505060208301518482036020860152611e358282611cb1565b91505060408301518482036040860152611e4f8282611c2b565b91505060608301518482036060860152611e698282611c2b565b9150506080830151611e7e6080860182611d30565b5060a0830151611e9160a0860182611d30565b5060c0830151611ea460c0860182611d30565b5060e0830151611eb760e0860182611d30565b50610100830151611ecc610100860182611d3f565b50610120830151848203610120860152611ee68282611d9f565b9150508091505092915050565b6000611eff8383611dfd565b905092915050565b6000602082019050919050565b6000611f1f82611bee565b611f298185611bf9565b935083602082028501611f3b85611c0a565b8060005b85811015611f775784840389528151611f588582611ef3565b9450611f6383611f07565b925060208a01995050600181019050611f3f565b50829750879550505050505092915050565b60006020820190508181036000830152611fa38184611f14565b905092915050565b611fb481611d26565b8114611fbf57600080fd5b50565b600081359050611fd181611fab565b92915050565b600060208284031215611fed57611fec611a9e565b5b6000611ffb84828501611fc2565b91505092915050565b61200d81611d26565b82525050565b60006020820190506120286000830184612004565b92915050565b600080fd5b600080fd5b7f4e487b7100000000000000000000000000000000000000000000000000000000600052604160045260246000fd5b61207082611b82565b810181811067ffffffffffffffff8211171561208f5761208e612038565b5b80604052505050565b60006120a2611a94565b90506120ae8282612067565b919050565b600067ffffffffffffffff8211156120ce576120cd612038565b5b6120d782611b82565b9050602081019050919050565b82818337600083830152505050565b6000612106612101846120b3565b612098565b90508281526020810184848401111561212257612121612033565b5b61212d8482856120e4565b509392505050565b600082601f83011261214a5761214961202e565b5b813561215a8482602086016120f3565b91505092915050565b600067ffffffffffffffff82111561217e5761217d612038565b5b602082029050602081019050919050565b600080fd5b60006121a76121a284612163565b612098565b905080838252602082019050602084028301858111156121ca576121c961218f565b5b835b8181101561221157803567ffffffffffffffff8111156121ef576121ee61202e565b5b8086016121fc8982612135565b855260208501945050506020810190506121cc565b5050509392505050565b600082601f8301126122305761222f61202e565b5b8135612240848260208601612194565b91505092915050565b60008060006060848603121561226257612261611a9e565b5b600084013567ffffffffffffffff8111156122805761227f611aa3565b5b61228c86828701612135565b935050602084013567ffffffffffffffff8111156122ad576122ac611aa3565b5b6122b98682870161221b565b925050604084013567ffffffffffffffff8111156122da576122d9611aa3565b5b6122e686828701612135565b9150509250925092565b6122f981611ac8565b82525050565b600060808201905081810360008301526123198187611b93565b9050818103602083015261232d8186611b93565b905081810360408301526123418185611b93565b905061235060608301846122f0565b95945050505050565b60008060006060848603121561237257612371611a9e565b5b600084013567ffffffffffffffff8111156123905761238f611aa3565b5b61239c86828701612135565b935050602084013567ffffffffffffffff8111156123bd576123bc611aa3565b5b6123c986828701612135565b925050604084013567ffffffffffffffff8111156123ea576123e9611aa3565b5b6123f686828701612135565b9150509250925092565b600061010082019050818103600083015261241b818b611b93565b9050818103602083015261242f818a611b93565b905081810360408301526124438189611b93565b90506124526060830188612004565b61245f6080830187612004565b61246c60a0830186612004565b61247960c0830185612004565b61248660e08301846122f0565b9998505050505050505050565b600080600080608085870312156124ad576124ac611a9e565b5b600085013567ffffffffffffffff8111156124cb576124ca611aa3565b5b6124d787828801612135565b945050602085013567ffffffffffffffff8111156124f8576124f7611aa3565b5b6125048782880161221b565b935050604085013567ffffffffffffffff81111561252557612524611aa3565b5b61253187828801612135565b925050606061254287828801611fc2565b91505092959194509250565b7f596f752068617665206e6f74207965742072656769737465726564206120707260008201527f6f66696c652e0000000000000000000000000000000000000000000000000000602082015250565b60006125aa602683611b3e565b91506125b58261254e565b604082019050919050565b600060208201905081810360008301526125d98161259d565b9050919050565b7f4e487b7100000000000000000000000000000000000000000000000000000000600052601160045260246000fd5b600061261a82611d26565b915061262583611d26565b925082821015612638576126376125e0565b5b828203905092915050565b7f4e487b7100000000000000000000000000000000000000000000000000000000600052603260045260246000fd5b7f4e487b7100000000000000000000000000000000000000000000000000000000600052602260045260246000fd5b600060028204905060018216806126b957607f821691505b602082108114156126cd576126cc612672565b5b50919050565b7f4e6f2073746f726965732077697468207468652073706563696669656420746960008201527f746c652061726520726567697374657265642e00000000000000000000000000602082015250565b600061272f603383611b3e565b915061273a826126d3565b604082019050919050565b6000602082019050818103600083015261275e81612722565b9050919050565b7f53746f727920617574686f72732063616e6e6f74206265206c696b65642e0000600082015250565b600061279b601e83611b3e565b91506127a682612765565b602082019050919050565b600060208201905081810360008301526127ca8161278e565b9050919050565b60006127dc82611d26565b91507fffffffffffffffffffffffffffffffffffffffffffffffffffffffffffffffff82141561280f5761280e6125e0565b5b600182019050919050565b7f596f7520617265206c696b696e6720746869732073746f7279206f6e2074686560008201527f206e6573742e0000000000000000000000000000000000000000000000000000602082015250565b6000612876602683611b3e565b91506128818261281a565b604082019050919050565b600060208201905081810360008301526128a581612869565b9050919050565b7f596f752068617665206e6f74207965742072656769737465726564206120736f60008201527f74727920646174612e0000000000000000000000000000000000000000000000602082015250565b6000612908602983611b3e565b9150612913826128ac565b604082019050919050565b60006020820190508181036000830152612937816128fb565b9050919050565b7f416e206163636f756e7420616c7265616479206578697374732e000000000000600082015250565b6000612974601a83611b3e565b915061297f8261293e565b602082019050919050565b600060208201905081810360008301526129a381612967565b905091905056fea264697066735822122050a6bc968a32c3d933a8533103ed398fdc295f615686cb9d78082d4974b8e9b164736f6c63430008090033",
  "linkReferences": {},
  "deployedLinkReferences": {}
}