{
  "_format": "hh-sol-artifact-1",
  "contractName": "RecoveryStory",
  "sourceName": "contracts/RecoveryStory.sol",
  "abi": [
    {
      "inputs": [],
      "stateMutability": "nonpayable",
      "type": "constructor"
    },
    {
      "anonymous": false,
      "inputs": [
        {
          "indexed": true,
          "internalType": "address",
          "name": "owner",
          "type": "address"
        },
        {
          "indexed": true,
          "internalType": "address",
          "name": "approved",
          "type": "address"
        },
        {
          "indexed": true,
          "internalType": "uint256",
          "name": "tokenId",
          "type": "uint256"
        }
      ],
      "name": "Approval",
      "type": "event"
    },
    {
      "anonymous": false,
      "inputs": [
        {
          "indexed": true,
          "internalType": "address",
          "name": "owner",
          "type": "address"
        },
        {
          "indexed": true,
          "internalType": "address",
          "name": "operator",
          "type": "address"
        },
        {
          "indexed": false,
          "internalType": "bool",
          "name": "approved",
          "type": "bool"
        }
      ],
      "name": "ApprovalForAll",
      "type": "event"
    },
    {
      "anonymous": false,
      "inputs": [
        {
          "indexed": true,
          "internalType": "address",
          "name": "from",
          "type": "address"
        },
        {
          "indexed": true,
          "internalType": "address",
          "name": "to",
          "type": "address"
        },
        {
          "indexed": true,
          "internalType": "uint256",
          "name": "tokenId",
          "type": "uint256"
        }
      ],
      "name": "Transfer",
      "type": "event"
    },
    {
      "inputs": [
        {
          "internalType": "uint256",
          "name": "_storyId",
          "type": "uint256"
        }
      ],
      "name": "addLike",
      "outputs": [],
      "stateMutability": "nonpayable",
      "type": "function"
    },
    {
      "inputs": [
        {
          "internalType": "address",
          "name": "to",
          "type": "address"
        },
        {
          "internalType": "uint256",
          "name": "tokenId",
          "type": "uint256"
        }
      ],
      "name": "approve",
      "outputs": [],
      "stateMutability": "nonpayable",
      "type": "function"
    },
    {
      "inputs": [
        {
          "internalType": "uint256",
          "name": "",
          "type": "uint256"
        }
      ],
      "name": "avatars",
      "outputs": [
        {
          "internalType": "string",
          "name": "",
          "type": "string"
        }
      ],
      "stateMutability": "view",
      "type": "function"
    },
    {
      "inputs": [
        {
          "internalType": "address",
          "name": "owner",
          "type": "address"
        }
      ],
      "name": "balanceOf",
      "outputs": [
        {
          "internalType": "uint256",
          "name": "",
          "type": "uint256"
        }
      ],
      "stateMutability": "view",
      "type": "function"
    },
    {
      "inputs": [
        {
          "internalType": "uint256",
          "name": "_tokenId",
          "type": "uint256"
        }
      ],
      "name": "burn",
      "outputs": [],
      "stateMutability": "nonpayable",
      "type": "function"
    },
    {
      "inputs": [
        {
          "internalType": "string",
          "name": "_storyTitle",
          "type": "string"
        },
        {
          "internalType": "string[]",
          "name": "_tags",
          "type": "string[]"
        },
        {
          "internalType": "string",
          "name": "_storyBody",
          "type": "string"
        }
      ],
      "name": "createStory",
      "outputs": [],
      "stateMutability": "nonpayable",
      "type": "function"
    },
    {
      "inputs": [
        {
          "internalType": "string",
          "name": "_name",
          "type": "string"
        },
        {
          "internalType": "string",
          "name": "_avatar",
          "type": "string"
        },
        {
          "internalType": "string",
          "name": "_biography",
          "type": "string"
        }
      ],
      "name": "createUserProfile",
      "outputs": [],
      "stateMutability": "nonpayable",
      "type": "function"
    },
    {
      "inputs": [
        {
          "internalType": "uint256",
          "name": "_tokenId",
          "type": "uint256"
        }
      ],
      "name": "deleteStory",
      "outputs": [],
      "stateMutability": "nonpayable",
      "type": "function"
    },
    {
      "inputs": [
        {
          "internalType": "string",
          "name": "_storyTitle",
          "type": "string"
        },
        {
          "internalType": "string[]",
          "name": "tags",
          "type": "string[]"
        },
        {
          "internalType": "string",
          "name": "_storyBody",
          "type": "string"
        },
        {
          "internalType": "uint256",
          "name": "_storyId",
          "type": "uint256"
        }
      ],
      "name": "editStory",
      "outputs": [],
      "stateMutability": "nonpayable",
      "type": "function"
    },
    {
      "inputs": [
        {
          "internalType": "string",
          "name": "_name",
          "type": "string"
        },
        {
          "internalType": "string",
          "name": "_avatar",
          "type": "string"
        },
        {
          "internalType": "string",
          "name": "_biography",
          "type": "string"
        }
      ],
      "name": "editUserProfile",
      "outputs": [],
      "stateMutability": "nonpayable",
      "type": "function"
    },
    {
      "inputs": [],
      "name": "getAllAvatar",
      "outputs": [
        {
          "internalType": "string[]",
          "name": "",
          "type": "string[]"
        }
      ],
      "stateMutability": "view",
      "type": "function"
    },
    {
      "inputs": [],
      "name": "getAllStories",
      "outputs": [
        {
          "components": [
            {
              "internalType": "string",
              "name": "storyTitle",
              "type": "string"
            },
            {
              "internalType": "string[]",
              "name": "tags",
              "type": "string[]"
            },
            {
              "internalType": "string",
              "name": "storyBody",
              "type": "string"
            },
            {
              "internalType": "string",
              "name": "dataURI",
              "type": "string"
            },
            {
              "internalType": "uint256",
              "name": "createDate",
              "type": "uint256"
            },
            {
              "internalType": "uint256",
              "name": "updateDate",
              "type": "uint256"
            },
            {
              "internalType": "uint256",
              "name": "numLike",
              "type": "uint256"
            },
            {
              "internalType": "uint256",
              "name": "storyId",
              "type": "uint256"
            },
            {
              "internalType": "address",
              "name": "authorAddress",
              "type": "address"
            },
            {
              "internalType": "address[]",
              "name": "likeUserAdress",
              "type": "address[]"
            }
          ],
          "internalType": "struct RecoveryStory.Story[]",
          "name": "",
          "type": "tuple[]"
        }
      ],
      "stateMutability": "view",
      "type": "function"
    },
    {
      "inputs": [
        {
          "internalType": "uint256",
          "name": "tokenId",
          "type": "uint256"
        }
      ],
      "name": "getApproved",
      "outputs": [
        {
          "internalType": "address",
          "name": "",
          "type": "address"
        }
      ],
      "stateMutability": "view",
      "type": "function"
    },
    {
      "inputs": [
        {
          "internalType": "address",
          "name": "_authorAddress",
          "type": "address"
        }
      ],
      "name": "getAuthor",
      "outputs": [
        {
          "internalType": "string",
          "name": "",
          "type": "string"
        }
      ],
      "stateMutability": "view",
      "type": "function"
    },
    {
      "inputs": [],
      "name": "getUserProfile",
      "outputs": [
        {
          "internalType": "string",
          "name": "",
          "type": "string"
        },
        {
          "internalType": "string",
          "name": "",
          "type": "string"
        },
        {
          "internalType": "string",
          "name": "",
          "type": "string"
        },
        {
          "internalType": "address",
          "name": "",
          "type": "address"
        }
      ],
      "stateMutability": "view",
      "type": "function"
    },
    {
      "inputs": [
        {
          "internalType": "address",
          "name": "owner",
          "type": "address"
        },
        {
          "internalType": "address",
          "name": "operator",
          "type": "address"
        }
      ],
      "name": "isApprovedForAll",
      "outputs": [
        {
          "internalType": "bool",
          "name": "",
          "type": "bool"
        }
      ],
      "stateMutability": "view",
      "type": "function"
    },
    {
      "inputs": [
        {
          "internalType": "string",
          "name": "_title",
          "type": "string"
        }
      ],
      "name": "mintNFT",
      "outputs": [
        {
          "internalType": "string",
          "name": "",
          "type": "string"
        },
        {
          "internalType": "uint256",
          "name": "",
          "type": "uint256"
        }
      ],
      "stateMutability": "nonpayable",
      "type": "function"
    },
    {
      "inputs": [],
      "name": "name",
      "outputs": [
        {
          "internalType": "string",
          "name": "",
          "type": "string"
        }
      ],
      "stateMutability": "view",
      "type": "function"
    },
    {
      "inputs": [
        {
          "internalType": "uint256",
          "name": "tokenId",
          "type": "uint256"
        }
      ],
      "name": "ownerOf",
      "outputs": [
        {
          "internalType": "address",
          "name": "",
          "type": "address"
        }
      ],
      "stateMutability": "view",
      "type": "function"
    },
    {
      "inputs": [
        {
          "internalType": "address",
          "name": "from",
          "type": "address"
        },
        {
          "internalType": "address",
          "name": "to",
          "type": "address"
        },
        {
          "internalType": "uint256",
          "name": "tokenId",
          "type": "uint256"
        }
      ],
      "name": "safeTransferFrom",
      "outputs": [],
      "stateMutability": "nonpayable",
      "type": "function"
    },
    {
      "inputs": [
        {
          "internalType": "address",
          "name": "from",
          "type": "address"
        },
        {
          "internalType": "address",
          "name": "to",
          "type": "address"
        },
        {
          "internalType": "uint256",
          "name": "tokenId",
          "type": "uint256"
        },
        {
          "internalType": "bytes",
          "name": "data",
          "type": "bytes"
        }
      ],
      "name": "safeTransferFrom",
      "outputs": [],
      "stateMutability": "nonpayable",
      "type": "function"
    },
    {
      "inputs": [
        {
          "internalType": "address",
          "name": "operator",
          "type": "address"
        },
        {
          "internalType": "bool",
          "name": "approved",
          "type": "bool"
        }
      ],
      "name": "setApprovalForAll",
      "outputs": [],
      "stateMutability": "nonpayable",
      "type": "function"
    },
    {
      "inputs": [
        {
          "internalType": "uint256",
          "name": "",
          "type": "uint256"
        }
      ],
      "name": "story",
      "outputs": [
        {
          "internalType": "string",
          "name": "storyTitle",
          "type": "string"
        },
        {
          "internalType": "string",
          "name": "storyBody",
          "type": "string"
        },
        {
          "internalType": "string",
          "name": "dataURI",
          "type": "string"
        },
        {
          "internalType": "uint256",
          "name": "createDate",
          "type": "uint256"
        },
        {
          "internalType": "uint256",
          "name": "updateDate",
          "type": "uint256"
        },
        {
          "internalType": "uint256",
          "name": "numLike",
          "type": "uint256"
        },
        {
          "internalType": "uint256",
          "name": "storyId",
          "type": "uint256"
        },
        {
          "internalType": "address",
          "name": "authorAddress",
          "type": "address"
        }
      ],
      "stateMutability": "view",
      "type": "function"
    },
    {
      "inputs": [],
      "name": "storyIdCounter",
      "outputs": [
        {
          "internalType": "uint256",
          "name": "",
          "type": "uint256"
        }
      ],
      "stateMutability": "view",
      "type": "function"
    },
    {
      "inputs": [
        {
          "internalType": "bytes4",
          "name": "interfaceId",
          "type": "bytes4"
        }
      ],
      "name": "supportsInterface",
      "outputs": [
        {
          "internalType": "bool",
          "name": "",
          "type": "bool"
        }
      ],
      "stateMutability": "view",
      "type": "function"
    },
    {
      "inputs": [],
      "name": "symbol",
      "outputs": [
        {
          "internalType": "string",
          "name": "",
          "type": "string"
        }
      ],
      "stateMutability": "view",
      "type": "function"
    },
    {
      "inputs": [
        {
          "internalType": "uint256",
          "name": "tokenId",
          "type": "uint256"
        }
      ],
      "name": "tokenURI",
      "outputs": [
        {
          "internalType": "string",
          "name": "",
          "type": "string"
        }
      ],
      "stateMutability": "view",
      "type": "function"
    },
    {
      "inputs": [
        {
          "internalType": "address",
          "name": "from",
          "type": "address"
        },
        {
          "internalType": "address",
          "name": "to",
          "type": "address"
        },
        {
          "internalType": "uint256",
          "name": "tokenId",
          "type": "uint256"
        }
      ],
      "name": "transferFrom",
      "outputs": [],
      "stateMutability": "nonpayable",
      "type": "function"
    },
    {
      "inputs": [],
      "name": "userIdCounter",
      "outputs": [
        {
          "internalType": "uint256",
          "name": "",
          "type": "uint256"
        }
      ],
      "stateMutability": "view",
      "type": "function"
    },
    {
      "inputs": [
        {
          "internalType": "uint256",
          "name": "",
          "type": "uint256"
        }
      ],
      "name": "userProfile",
      "outputs": [
        {
          "internalType": "string",
          "name": "name",
          "type": "string"
        },
        {
          "internalType": "string",
          "name": "avatar",
          "type": "string"
        },
        {
          "internalType": "string",
          "name": "biography",
          "type": "string"
        },
        {
          "internalType": "address",
          "name": "walletAddress",
          "type": "address"
        }
      ],
      "stateMutability": "view",
      "type": "function"
    }
  ],
  "bytecode": "0x608060405260405180610180016040528061014c8152602001620063b261014c91396008908051906020019062000038929190620002a9565b506001600c556001600d553480156200005057600080fd5b506040518060400160405280601081526020017f5265636f7665727953746f72794e4654000000000000000000000000000000008152506040518060400160405280600381526020017f52534e00000000000000000000000000000000000000000000000000000000008152508160009080519060200190620000d5929190620002a9565b508060019080519060200190620000ee929190620002a9565b505050620001206040518060600160405280602381526020016200633360239139620001dd60201b6200291a1760201c565b6040518060a001604052806040518060600160405280602e8152602001620064fe602e913981526020016040518060600160405280602e815260200162006356602e913981526020016040518060600160405280602e815260200162006305602e913981526020016040518060600160405280602e8152602001620062d7602e913981526020016040518060600160405280602e815260200162006384602e91398152506009906005620001d69291906200033a565b506200055b565b6200027d81604051602401620001f49190620004d2565b6040516020818303038152906040527f41304fac000000000000000000000000000000000000000000000000000000007bffffffffffffffffffffffffffffffffffffffffffffffffffffffff19166020820180517bffffffffffffffffffffffffffffffffffffffffffffffffffffffff83818316178352505050506200028060201b60201c565b50565b60008151905060006a636f6e736f6c652e6c6f679050602083016000808483855afa5050505050565b828054620002b79062000525565b90600052602060002090601f016020900481019282620002db576000855562000327565b82601f10620002f657805160ff191683800117855562000327565b8280016001018555821562000327579182015b828111156200032657825182559160200191906001019062000309565b5b509050620003369190620003a1565b5090565b8280548282559060005260206000209081019282156200038e579160200282015b828111156200038d5782518290805190602001906200037c929190620002a9565b50916020019190600101906200035b565b5b5090506200039d9190620003c0565b5090565b5b80821115620003bc576000816000905550600101620003a2565b5090565b5b80821115620003e45760008181620003da9190620003e8565b50600101620003c1565b5090565b508054620003f69062000525565b6000825580601f106200040a57506200042b565b601f0160209004906000526020600020908101906200042a9190620003a1565b5b50565b600081519050919050565b600082825260208201905092915050565b60005b838110156200046a5780820151818401526020810190506200044d565b838111156200047a576000848401525b50505050565b6000601f19601f8301169050919050565b60006200049e826200042e565b620004aa818562000439565b9350620004bc8185602086016200044a565b620004c78162000480565b840191505092915050565b60006020820190508181036000830152620004ee818462000491565b905092915050565b7f4e487b7100000000000000000000000000000000000000000000000000000000600052602260045260246000fd5b600060028204905060018216806200053e57607f821691505b60208210811415620005555762000554620004f6565b5b50919050565b615d6c806200056b6000396000f3fe608060405234801561001057600080fd5b50600436106101da5760003560e01c806370a0823111610104578063beba8bbe116100a2578063e985e9c511610071578063e985e9c51461056f578063f37181f41461059f578063fb37e883146105d2578063feb81fbe14610603576101da565b8063beba8bbe146104ce578063c87b56dd14610505578063ce8c35fd14610535578063df2894b714610551576101da565b806395d89b41116100de57806395d89b411461045c578063a22cb4651461047a578063a26cf68514610496578063b88d4fde146104b2576101da565b806370a08231146103e0578063834d5fac146104105780638c0f4aa714610440576101da565b80632faba6ae1161017c57806342966c681161014b57806342966c68146103575780636352211e146103735780636decda91146103a35780636f61c744146103bf576101da565b80632faba6ae146102e3578063378a35cd1461030157806338a3bdc81461031d57806342842e0e1461033b576101da565b8063095ea7b3116101b8578063095ea7b31461025d5780630ab3009314610279578063191bbe2a146102a957806323b872dd146102c7576101da565b806301ffc9a7146101df57806306fdde031461020f578063081812fc1461022d575b600080fd5b6101f960048036038101906101f49190613d16565b61061f565b6040516102069190613d5e565b60405180910390f35b610217610701565b6040516102249190613e12565b60405180910390f35b61024760048036038101906102429190613e6a565b610793565b6040516102549190613ed8565b60405180910390f35b61027760048036038101906102729190613f1f565b6107d9565b005b610293600480360381019061028e9190613f5f565b6108f1565b6040516102a09190613e12565b60405180910390f35b6102b1610a7b565b6040516102be919061431d565b60405180910390f35b6102e160048036038101906102dc919061433f565b610e76565b005b6102eb610ed6565b6040516102f891906143a1565b60405180910390f35b61031b60048036038101906103169190613e6a565b610edc565b005b61032561122e565b60405161033291906143a1565b60405180910390f35b6103556004803603810190610350919061433f565b611234565b005b610371600480360381019061036c9190613e6a565b611254565b005b61038d60048036038101906103889190613e6a565b6112e0565b60405161039a9190613ed8565b60405180910390f35b6103bd60048036038101906103b891906145d7565b611392565b005b6103c76115cf565b6040516103d7949392919061467e565b60405180910390f35b6103fa60048036038101906103f59190613f5f565b61190f565b60405161040791906143a1565b60405180910390f35b61042a60048036038101906104259190613e6a565b6119c7565b6040516104379190613e12565b60405180910390f35b61045a60048036038101906104559190613e6a565b611a73565b005b610464611af5565b6040516104719190613e12565b60405180910390f35b610494600480360381019061048f9190614704565b611b87565b005b6104b060048036038101906104ab9190614744565b611b9d565b005b6104cc60048036038101906104c7919061488c565b611d23565b005b6104e860048036038101906104e39190613e6a565b611d85565b6040516104fc98979695949392919061490f565b60405180910390f35b61051f600480360381019061051a9190613e6a565b611f95565b60405161052c9190613e12565b60405180910390f35b61054f600480360381019061054a91906149a2565b6120a8565b005b6105596121ee565b6040516105669190614ae3565b60405180910390f35b61058960048036038101906105849190614b05565b6122c7565b6040516105969190613d5e565b60405180910390f35b6105b960048036038101906105b49190613e6a565b61235b565b6040516105c9949392919061467e565b60405180910390f35b6105ec60048036038101906105e79190614b45565b612553565b6040516105fa929190614b8e565b60405180910390f35b61061d60048036038101906106189190614744565b612745565b005b60007f80ac58cd000000000000000000000000000000000000000000000000000000007bffffffffffffffffffffffffffffffffffffffffffffffffffffffff1916827bffffffffffffffffffffffffffffffffffffffffffffffffffffffff191614806106ea57507f5b5e139f000000000000000000000000000000000000000000000000000000007bffffffffffffffffffffffffffffffffffffffffffffffffffffffff1916827bffffffffffffffffffffffffffffffffffffffffffffffffffffffff1916145b806106fa57506106f9826129b3565b5b9050919050565b60606000805461071090614bed565b80601f016020809104026020016040519081016040528092919081815260200182805461073c90614bed565b80156107895780601f1061075e57610100808354040283529160200191610789565b820191906000526020600020905b81548152906001019060200180831161076c57829003601f168201915b5050505050905090565b600061079e82612a1d565b6004600083815260200190815260200160002060009054906101000a900473ffffffffffffffffffffffffffffffffffffffff169050919050565b60006107e4826112e0565b90508073ffffffffffffffffffffffffffffffffffffffff168373ffffffffffffffffffffffffffffffffffffffff161415610855576040517f08c379a000000000000000000000000000000000000000000000000000000000815260040161084c90614c91565b60405180910390fd5b8073ffffffffffffffffffffffffffffffffffffffff16610874612a68565b73ffffffffffffffffffffffffffffffffffffffff1614806108a357506108a28161089d612a68565b6122c7565b5b6108e2576040517f08c379a00000000000000000000000000000000000000000000000000000000081526004016108d990614d23565b60405180910390fd5b6108ec8383612a70565b505050565b60606000600e60008473ffffffffffffffffffffffffffffffffffffffff1673ffffffffffffffffffffffffffffffffffffffff1681526020019081526020016000205411610975576040517f08c379a000000000000000000000000000000000000000000000000000000000815260040161096c90614db5565b60405180910390fd5b60006001600e60008573ffffffffffffffffffffffffffffffffffffffff1673ffffffffffffffffffffffffffffffffffffffff168152602001908152602001600020546109c39190614e04565b9050600a81815481106109d9576109d8614e38565b5b906000526020600020906004020160000180546109f590614bed565b80601f0160208091040260200160405190810160405280929190818152602001828054610a2190614bed565b8015610a6e5780601f10610a4357610100808354040283529160200191610a6e565b820191906000526020600020905b815481529060010190602001808311610a5157829003601f168201915b5050505050915050919050565b6060600b805480602002602001604051908101604052809291908181526020016000905b82821015610e6d57838290600052602060002090600a020160405180610140016040529081600082018054610ad390614bed565b80601f0160208091040260200160405190810160405280929190818152602001828054610aff90614bed565b8015610b4c5780601f10610b2157610100808354040283529160200191610b4c565b820191906000526020600020905b815481529060010190602001808311610b2f57829003601f168201915b5050505050815260200160018201805480602002602001604051908101604052809291908181526020016000905b82821015610c26578382906000526020600020018054610b9990614bed565b80601f0160208091040260200160405190810160405280929190818152602001828054610bc590614bed565b8015610c125780601f10610be757610100808354040283529160200191610c12565b820191906000526020600020905b815481529060010190602001808311610bf557829003601f168201915b505050505081526020019060010190610b7a565b505050508152602001600282018054610c3e90614bed565b80601f0160208091040260200160405190810160405280929190818152602001828054610c6a90614bed565b8015610cb75780601f10610c8c57610100808354040283529160200191610cb7565b820191906000526020600020905b815481529060010190602001808311610c9a57829003601f168201915b50505050508152602001600382018054610cd090614bed565b80601f0160208091040260200160405190810160405280929190818152602001828054610cfc90614bed565b8015610d495780601f10610d1e57610100808354040283529160200191610d49565b820191906000526020600020905b815481529060010190602001808311610d2c57829003601f168201915b50505050508152602001600482015481526020016005820154815260200160068201548152602001600782015481526020016008820160009054906101000a900473ffffffffffffffffffffffffffffffffffffffff1673ffffffffffffffffffffffffffffffffffffffff1673ffffffffffffffffffffffffffffffffffffffff16815260200160098201805480602002602001604051908101604052809291908181526020018280548015610e5557602002820191906000526020600020905b8160009054906101000a900473ffffffffffffffffffffffffffffffffffffffff1673ffffffffffffffffffffffffffffffffffffffff1681526020019060010190808311610e0b575b50505050508152505081526020019060010190610a9f565b50505050905090565b610e87610e81612a68565b82612b29565b610ec6576040517f08c379a0000000000000000000000000000000000000000000000000000000008152600401610ebd90614ed9565b60405180910390fd5b610ed1838383612bbe565b505050565b600d5481565b6000600b600183610eed9190614e04565b81548110610efe57610efd614e38565b5b90600052602060002090600a02016007015411610f50576040517f08c379a0000000000000000000000000000000000000000000000000000000008152600401610f4790614f6b565b60405180910390fd5b3373ffffffffffffffffffffffffffffffffffffffff16600b600183610f769190614e04565b81548110610f8757610f86614e38565b5b90600052602060002090600a020160080160009054906101000a900473ffffffffffffffffffffffffffffffffffffffff1673ffffffffffffffffffffffffffffffffffffffff161415611010576040517f08c379a000000000000000000000000000000000000000000000000000000000815260040161100790614fd7565b60405180910390fd5b6000805b600b6001846110239190614e04565b8154811061103457611033614e38565b5b90600052602060002090600a020160090180549050811015611109573373ffffffffffffffffffffffffffffffffffffffff16600b6001856110769190614e04565b8154811061108757611086614e38565b5b90600052602060002090600a020160090182815481106110aa576110a9614e38565b5b9060005260206000200160009054906101000a900473ffffffffffffffffffffffffffffffffffffffff1673ffffffffffffffffffffffffffffffffffffffff1614156110f657600191505b808061110190614ff7565b915050611014565b506000151581151514611151576040517f08c379a0000000000000000000000000000000000000000000000000000000008152600401611148906150b2565b60405180910390fd5b600b6001836111609190614e04565b8154811061117157611170614e38565b5b90600052602060002090600a0201600601600081548092919061119390614ff7565b9190505550600b6001836111a79190614e04565b815481106111b8576111b7614e38565b5b90600052602060002090600a0201600901339080600181540180825580915050600190039060005260206000200160009091909190916101000a81548173ffffffffffffffffffffffffffffffffffffffff021916908373ffffffffffffffffffffffffffffffffffffffff1602179055505050565b600c5481565b61124f83838360405180602001604052806000815250611d23565b505050565b3373ffffffffffffffffffffffffffffffffffffffff16611274826112e0565b73ffffffffffffffffffffffffffffffffffffffff16146112ca576040517f08c379a00000000000000000000000000000000000000000000000000000000081526004016112c19061511e565b60405180910390fd5b600061dead90506112dc338284612bbe565b5050565b6000806002600084815260200190815260200160002060009054906101000a900473ffffffffffffffffffffffffffffffffffffffff169050600073ffffffffffffffffffffffffffffffffffffffff168173ffffffffffffffffffffffffffffffffffffffff161415611389576040517f08c379a00000000000000000000000000000000000000000000000000000000081526004016113809061518a565b60405180910390fd5b80915050919050565b606060006040518061014001604052808681526020018581526020018481526020016040518060400160405280600381526020017f696d670000000000000000000000000000000000000000000000000000000000815250815260200142815260200142815260200160008152602001600c5481526020013373ffffffffffffffffffffffffffffffffffffffff168152602001838152509050600b8190806001815401808255809150506001900390600052602060002090600a02016000909190919091506000820151816000019080519060200190611474929190613ab9565b506020820151816001019080519060200190611491929190613b3f565b5060408201518160020190805190602001906114ae929190613ab9565b5060608201518160030190805190602001906114cb929190613ab9565b506080820151816004015560a0820151816005015560c0820151816006015560e082015181600701556101008201518160080160006101000a81548173ffffffffffffffffffffffffffffffffffffffff021916908373ffffffffffffffffffffffffffffffffffffffff160217905550610120820151816009019080519060200190611559929190613b9f565b50505033600f6000600c54815260200190815260200160002060006101000a81548173ffffffffffffffffffffffffffffffffffffffff021916908373ffffffffffffffffffffffffffffffffffffffff160217905550600c60008154809291906115c390614ff7565b91905055505050505050565b6060806060600080600e60003373ffffffffffffffffffffffffffffffffffffffff1673ffffffffffffffffffffffffffffffffffffffff1681526020019081526020016000205411611657576040517f08c379a000000000000000000000000000000000000000000000000000000000815260040161164e90614db5565b60405180910390fd5b60006001600e60003373ffffffffffffffffffffffffffffffffffffffff1673ffffffffffffffffffffffffffffffffffffffff168152602001908152602001600020546116a59190614e04565b9050600a81815481106116bb576116ba614e38565b5b9060005260206000209060040201600001600a82815481106116e0576116df614e38565b5b9060005260206000209060040201600101600a838154811061170557611704614e38565b5b9060005260206000209060040201600201600a848154811061172a57611729614e38565b5b906000526020600020906004020160030160009054906101000a900473ffffffffffffffffffffffffffffffffffffffff1683805461176890614bed565b80601f016020809104026020016040519081016040528092919081815260200182805461179490614bed565b80156117e15780601f106117b6576101008083540402835291602001916117e1565b820191906000526020600020905b8154815290600101906020018083116117c457829003601f168201915b505050505093508280546117f490614bed565b80601f016020809104026020016040519081016040528092919081815260200182805461182090614bed565b801561186d5780601f106118425761010080835404028352916020019161186d565b820191906000526020600020905b81548152906001019060200180831161185057829003601f168201915b5050505050925081805461188090614bed565b80601f01602080910402602001604051908101604052809291908181526020018280546118ac90614bed565b80156118f95780601f106118ce576101008083540402835291602001916118f9565b820191906000526020600020905b8154815290600101906020018083116118dc57829003601f168201915b5050505050915094509450945094505090919293565b60008073ffffffffffffffffffffffffffffffffffffffff168273ffffffffffffffffffffffffffffffffffffffff161415611980576040517f08c379a00000000000000000000000000000000000000000000000000000000081526004016119779061521c565b60405180910390fd5b600360008373ffffffffffffffffffffffffffffffffffffffff1673ffffffffffffffffffffffffffffffffffffffff168152602001908152602001600020549050919050565b600981815481106119d757600080fd5b9060005260206000200160009150905080546119f290614bed565b80601f0160208091040260200160405190810160405280929190818152602001828054611a1e90614bed565b8015611a6b5780601f10611a4057610100808354040283529160200191611a6b565b820191906000526020600020905b815481529060010190602001808311611a4e57829003601f168201915b505050505081565b3373ffffffffffffffffffffffffffffffffffffffff16611a93826112e0565b73ffffffffffffffffffffffffffffffffffffffff1614611ae9576040517f08c379a0000000000000000000000000000000000000000000000000000000008152600401611ae09061511e565b60405180910390fd5b611af281612e25565b50565b606060018054611b0490614bed565b80601f0160208091040260200160405190810160405280929190818152602001828054611b3090614bed565b8015611b7d5780601f10611b5257610100808354040283529160200191611b7d565b820191906000526020600020905b815481529060010190602001808311611b6057829003601f168201915b5050505050905090565b611b99611b92612a68565b8383612e78565b5050565b6000600e60003373ffffffffffffffffffffffffffffffffffffffff1673ffffffffffffffffffffffffffffffffffffffff1681526020019081526020016000205411611c1f576040517f08c379a0000000000000000000000000000000000000000000000000000000008152600401611c1690614db5565b60405180910390fd5b60006001600e60003373ffffffffffffffffffffffffffffffffffffffff1673ffffffffffffffffffffffffffffffffffffffff16815260200190815260200160002054611c6d9190614e04565b905083600a8281548110611c8457611c83614e38565b5b90600052602060002090600402016000019080519060200190611ca8929190613ab9565b5082600a8281548110611cbe57611cbd614e38565b5b90600052602060002090600402016001019080519060200190611ce2929190613ab9565b5081600a8281548110611cf857611cf7614e38565b5b90600052602060002090600402016002019080519060200190611d1c929190613ab9565b5050505050565b611d34611d2e612a68565b83612b29565b611d73576040517f08c379a0000000000000000000000000000000000000000000000000000000008152600401611d6a90614ed9565b60405180910390fd5b611d7f84848484612fe5565b50505050565b600b8181548110611d9557600080fd5b90600052602060002090600a0201600091509050806000018054611db890614bed565b80601f0160208091040260200160405190810160405280929190818152602001828054611de490614bed565b8015611e315780601f10611e0657610100808354040283529160200191611e31565b820191906000526020600020905b815481529060010190602001808311611e1457829003601f168201915b505050505090806002018054611e4690614bed565b80601f0160208091040260200160405190810160405280929190818152602001828054611e7290614bed565b8015611ebf5780601f10611e9457610100808354040283529160200191611ebf565b820191906000526020600020905b815481529060010190602001808311611ea257829003601f168201915b505050505090806003018054611ed490614bed565b80601f0160208091040260200160405190810160405280929190818152602001828054611f0090614bed565b8015611f4d5780601f10611f2257610100808354040283529160200191611f4d565b820191906000526020600020905b815481529060010190602001808311611f3057829003601f168201915b5050505050908060040154908060050154908060060154908060070154908060080160009054906101000a900473ffffffffffffffffffffffffffffffffffffffff16905088565b6060611fa082612a1d565b6000600660008481526020019081526020016000208054611fc090614bed565b80601f0160208091040260200160405190810160405280929190818152602001828054611fec90614bed565b80156120395780601f1061200e57610100808354040283529160200191612039565b820191906000526020600020905b81548152906001019060200180831161201c57829003601f168201915b50505050509050600061204a613041565b90506000815114156120605781925050506120a3565b60008251111561209557808260405160200161207d929190615278565b604051602081830303815290604052925050506120a3565b61209e84613058565b925050505b919050565b6000600b82815481106120be576120bd614e38565b5b90600052602060002090600a02016007015411612110576040517f08c379a00000000000000000000000000000000000000000000000000000000081526004016121079061530e565b60405180910390fd5b83600b828154811061212557612124614e38565b5b90600052602060002090600a02016000019080519060200190612149929190613ab9565b5082600b828154811061215f5761215e614e38565b5b90600052602060002090600a02016001019080519060200190612183929190613b3f565b5081600b828154811061219957612198614e38565b5b90600052602060002090600a020160020190805190602001906121bd929190613ab9565b5042600b82815481106121d3576121d2614e38565b5b90600052602060002090600a02016005018190555050505050565b60606009805480602002602001604051908101604052809291908181526020016000905b828210156122be57838290600052602060002001805461223190614bed565b80601f016020809104026020016040519081016040528092919081815260200182805461225d90614bed565b80156122aa5780601f1061227f576101008083540402835291602001916122aa565b820191906000526020600020905b81548152906001019060200180831161228d57829003601f168201915b505050505081526020019060010190612212565b50505050905090565b6000600560008473ffffffffffffffffffffffffffffffffffffffff1673ffffffffffffffffffffffffffffffffffffffff16815260200190815260200160002060008373ffffffffffffffffffffffffffffffffffffffff1673ffffffffffffffffffffffffffffffffffffffff16815260200190815260200160002060009054906101000a900460ff16905092915050565b600a818154811061236b57600080fd5b906000526020600020906004020160009150905080600001805461238e90614bed565b80601f01602080910402602001604051908101604052809291908181526020018280546123ba90614bed565b80156124075780601f106123dc57610100808354040283529160200191612407565b820191906000526020600020905b8154815290600101906020018083116123ea57829003601f168201915b50505050509080600101805461241c90614bed565b80601f016020809104026020016040519081016040528092919081815260200182805461244890614bed565b80156124955780601f1061246a57610100808354040283529160200191612495565b820191906000526020600020905b81548152906001019060200180831161247857829003601f168201915b5050505050908060020180546124aa90614bed565b80601f01602080910402602001604051908101604052809291908181526020018280546124d690614bed565b80156125235780601f106124f857610100808354040283529160200191612523565b820191906000526020600020905b81548152906001019060200180831161250657829003601f168201915b5050505050908060030160009054906101000a900473ffffffffffffffffffffffffffffffffffffffff16905084565b606060008061256260076130c0565b90506000849050600060088260405160200161257f92919061540e565b60405160208183030381529060405290506125ce6040518060400160405280601581526020017f0a2d2d2d2d2d205356472064617461202d2d2d2d2d000000000000000000000081525061291a565b6125d78161291a565b6126156040518060400160405280601581526020017f2d2d2d2d2d2d2d2d2d2d2d2d2d2d2d2d2d2d2d2d0a000000000000000000000081525061291a565b600061264983612624846130ce565b6040516020016126359291906155b9565b6040516020818303038152906040526130ce565b905060008160405160200161265e9190615655565b60405160208183030381529060405290506126ad6040518060400160405280601581526020017f0a2d2d2d2d2d20546f6b656e20555249202d2d2d2d000000000000000000000081525061291a565b6126b68161291a565b6126f46040518060400160405280601581526020017f2d2d2d2d2d2d2d2d2d2d2d2d2d2d2d2d2d2d2d2d0a000000000000000000000081525061291a565b6126fe3386613266565b6127088582613284565b61272b604051806060016040528060258152602001615cd26025913986336132f8565b6127356007613397565b8085965096505050505050915091565b6000600e60003373ffffffffffffffffffffffffffffffffffffffff1673ffffffffffffffffffffffffffffffffffffffff16815260200190815260200160002054146127c7576040517f08c379a00000000000000000000000000000000000000000000000000000000081526004016127be906156c3565b60405180910390fd5b600060405180608001604052808581526020018481526020018381526020013373ffffffffffffffffffffffffffffffffffffffff168152509050600a819080600181540180825580915050600190039060005260206000209060040201600090919091909150600082015181600001908051906020019061284a929190613ab9565b506020820151816001019080519060200190612867929190613ab9565b506040820151816002019080519060200190612884929190613ab9565b5060608201518160030160006101000a81548173ffffffffffffffffffffffffffffffffffffffff021916908373ffffffffffffffffffffffffffffffffffffffff1602179055505050600d54600e60003373ffffffffffffffffffffffffffffffffffffffff1673ffffffffffffffffffffffffffffffffffffffff1681526020019081526020016000208190555050505050565b6129b08160405160240161292e9190613e12565b6040516020818303038152906040527f41304fac000000000000000000000000000000000000000000000000000000007bffffffffffffffffffffffffffffffffffffffffffffffffffffffff19166020820180517bffffffffffffffffffffffffffffffffffffffffffffffffffffffff83818316178352505050506133ad565b50565b60007f01ffc9a7000000000000000000000000000000000000000000000000000000007bffffffffffffffffffffffffffffffffffffffffffffffffffffffff1916827bffffffffffffffffffffffffffffffffffffffffffffffffffffffff1916149050919050565b612a26816133d6565b612a65576040517f08c379a0000000000000000000000000000000000000000000000000000000008152600401612a5c9061518a565b60405180910390fd5b50565b600033905090565b816004600083815260200190815260200160002060006101000a81548173ffffffffffffffffffffffffffffffffffffffff021916908373ffffffffffffffffffffffffffffffffffffffff160217905550808273ffffffffffffffffffffffffffffffffffffffff16612ae3836112e0565b73ffffffffffffffffffffffffffffffffffffffff167f8c5be1e5ebec7d5bd14f71427d1e84f3dd0314c0f7b2291e5b200ac8c7c3b92560405160405180910390a45050565b600080612b35836112e0565b90508073ffffffffffffffffffffffffffffffffffffffff168473ffffffffffffffffffffffffffffffffffffffff161480612b775750612b7681856122c7565b5b80612bb557508373ffffffffffffffffffffffffffffffffffffffff16612b9d84610793565b73ffffffffffffffffffffffffffffffffffffffff16145b91505092915050565b8273ffffffffffffffffffffffffffffffffffffffff16612bde826112e0565b73ffffffffffffffffffffffffffffffffffffffff1614612c34576040517f08c379a0000000000000000000000000000000000000000000000000000000008152600401612c2b90615755565b60405180910390fd5b600073ffffffffffffffffffffffffffffffffffffffff168273ffffffffffffffffffffffffffffffffffffffff161415612ca4576040517f08c379a0000000000000000000000000000000000000000000000000000000008152600401612c9b906157e7565b60405180910390fd5b612caf838383613442565b612cba600082612a70565b6001600360008573ffffffffffffffffffffffffffffffffffffffff1673ffffffffffffffffffffffffffffffffffffffff1681526020019081526020016000206000828254612d0a9190614e04565b925050819055506001600360008473ffffffffffffffffffffffffffffffffffffffff1673ffffffffffffffffffffffffffffffffffffffff1681526020019081526020016000206000828254612d619190615807565b92505081905550816002600083815260200190815260200160002060006101000a81548173ffffffffffffffffffffffffffffffffffffffff021916908373ffffffffffffffffffffffffffffffffffffffff160217905550808273ffffffffffffffffffffffffffffffffffffffff168473ffffffffffffffffffffffffffffffffffffffff167fddf252ad1be2c89b69c2b068fc378daa952ba7f163c4a11628f55a4df523b3ef60405160405180910390a4612e20838383613447565b505050565b612e2e8161344c565b6000600660008381526020019081526020016000208054612e4e90614bed565b905014612e7557600660008281526020019081526020016000206000612e749190613c29565b5b50565b8173ffffffffffffffffffffffffffffffffffffffff168373ffffffffffffffffffffffffffffffffffffffff161415612ee7576040517f08c379a0000000000000000000000000000000000000000000000000000000008152600401612ede906158a9565b60405180910390fd5b80600560008573ffffffffffffffffffffffffffffffffffffffff1673ffffffffffffffffffffffffffffffffffffffff16815260200190815260200160002060008473ffffffffffffffffffffffffffffffffffffffff1673ffffffffffffffffffffffffffffffffffffffff16815260200190815260200160002060006101000a81548160ff0219169083151502179055508173ffffffffffffffffffffffffffffffffffffffff168373ffffffffffffffffffffffffffffffffffffffff167f17307eab39ab6107e8899845ad3d59bd9653f200f220920489ca2b5937696c3183604051612fd89190613d5e565b60405180910390a3505050565b612ff0848484612bbe565b612ffc84848484613569565b61303b576040517f08c379a00000000000000000000000000000000000000000000000000000000081526004016130329061593b565b60405180910390fd5b50505050565b606060405180602001604052806000815250905090565b606061306382612a1d565b600061306d613041565b9050600081511161308d57604051806020016040528060008152506130b8565b8061309784613700565b6040516020016130a8929190615278565b6040516020818303038152906040525b915050919050565b600081600001549050919050565b606060008251905060008114156130f75760405180602001604052806000815250915050613261565b600060036002836131089190615807565b613112919061598a565b600461311e91906159bb565b9050600060208261312f9190615807565b67ffffffffffffffff811115613148576131476143c6565b5b6040519080825280601f01601f19166020018201604052801561317a5781602001600182028036833780820191505090505b5090506000604051806060016040528060408152602001615cf7604091399050600181016020830160005b8681101561321e5760038101905062ffffff818a015116603f8160121c168401518060081b905060ff603f83600c1c1686015116810190508060081b905060ff603f8360061c1686015116810190508060081b905060ff603f831686015116810190508060e01b905080845260048401935050506131a5565b506003860660018114613238576002811461324857613253565b613d3d60f01b6002830352613253565b603d60f81b60018303525b508484525050819450505050505b919050565b613280828260405180602001604052806000815250613861565b5050565b61328d826133d6565b6132cc576040517f08c379a00000000000000000000000000000000000000000000000000000000081526004016132c390615a87565b60405180910390fd5b806006600084815260200190815260200160002090805190602001906132f3929190613ab9565b505050565b61339283838360405160240161331093929190615aa7565b6040516020818303038152906040527f1c7ec448000000000000000000000000000000000000000000000000000000007bffffffffffffffffffffffffffffffffffffffffffffffffffffffff19166020820180517bffffffffffffffffffffffffffffffffffffffffffffffffffffffff83818316178352505050506133ad565b505050565b6001816000016000828254019250508190555050565b60008151905060006a636f6e736f6c652e6c6f679050602083016000808483855afa5050505050565b60008073ffffffffffffffffffffffffffffffffffffffff166002600084815260200190815260200160002060009054906101000a900473ffffffffffffffffffffffffffffffffffffffff1673ffffffffffffffffffffffffffffffffffffffff1614159050919050565b505050565b505050565b6000613457826112e0565b905061346581600084613442565b613470600083612a70565b6001600360008373ffffffffffffffffffffffffffffffffffffffff1673ffffffffffffffffffffffffffffffffffffffff16815260200190815260200160002060008282546134c09190614e04565b925050819055506002600083815260200190815260200160002060006101000a81549073ffffffffffffffffffffffffffffffffffffffff021916905581600073ffffffffffffffffffffffffffffffffffffffff168273ffffffffffffffffffffffffffffffffffffffff167fddf252ad1be2c89b69c2b068fc378daa952ba7f163c4a11628f55a4df523b3ef60405160405180910390a461356581600084613447565b5050565b600061358a8473ffffffffffffffffffffffffffffffffffffffff166138bc565b156136f3578373ffffffffffffffffffffffffffffffffffffffff1663150b7a026135b3612a68565b8786866040518563ffffffff1660e01b81526004016135d59493929190615b3a565b602060405180830381600087803b1580156135ef57600080fd5b505af192505050801561362057506040513d601f19601f8201168201806040525081019061361d9190615b9b565b60015b6136a3573d8060008114613650576040519150601f19603f3d011682016040523d82523d6000602084013e613655565b606091505b5060008151141561369b576040517f08c379a00000000000000000000000000000000000000000000000000000000081526004016136929061593b565b60405180910390fd5b805181602001fd5b63150b7a0260e01b7bffffffffffffffffffffffffffffffffffffffffffffffffffffffff1916817bffffffffffffffffffffffffffffffffffffffffffffffffffffffff1916149150506136f8565b600190505b949350505050565b60606000821415613748576040518060400160405280600181526020017f3000000000000000000000000000000000000000000000000000000000000000815250905061385c565b600082905060005b6000821461377a57808061376390614ff7565b915050600a82613773919061598a565b9150613750565b60008167ffffffffffffffff811115613796576137956143c6565b5b6040519080825280601f01601f1916602001820160405280156137c85781602001600182028036833780820191505090505b5090505b60008514613855576001826137e19190614e04565b9150600a856137f09190615bc8565b60306137fc9190615807565b60f81b81838151811061381257613811614e38565b5b60200101907effffffffffffffffffffffffffffffffffffffffffffffffffffffffffffff1916908160001a905350600a8561384e919061598a565b94506137cc565b8093505050505b919050565b61386b83836138df565b6138786000848484613569565b6138b7576040517f08c379a00000000000000000000000000000000000000000000000000000000081526004016138ae9061593b565b60405180910390fd5b505050565b6000808273ffffffffffffffffffffffffffffffffffffffff163b119050919050565b600073ffffffffffffffffffffffffffffffffffffffff168273ffffffffffffffffffffffffffffffffffffffff16141561394f576040517f08c379a000000000000000000000000000000000000000000000000000000000815260040161394690615c45565b60405180910390fd5b613958816133d6565b15613998576040517f08c379a000000000000000000000000000000000000000000000000000000000815260040161398f90615cb1565b60405180910390fd5b6139a460008383613442565b6001600360008473ffffffffffffffffffffffffffffffffffffffff1673ffffffffffffffffffffffffffffffffffffffff16815260200190815260200160002060008282546139f49190615807565b92505081905550816002600083815260200190815260200160002060006101000a81548173ffffffffffffffffffffffffffffffffffffffff021916908373ffffffffffffffffffffffffffffffffffffffff160217905550808273ffffffffffffffffffffffffffffffffffffffff16600073ffffffffffffffffffffffffffffffffffffffff167fddf252ad1be2c89b69c2b068fc378daa952ba7f163c4a11628f55a4df523b3ef60405160405180910390a4613ab560008383613447565b5050565b828054613ac590614bed565b90600052602060002090601f016020900481019282613ae75760008555613b2e565b82601f10613b0057805160ff1916838001178555613b2e565b82800160010185558215613b2e579182015b82811115613b2d578251825591602001919060010190613b12565b5b509050613b3b9190613c69565b5090565b828054828255906000526020600020908101928215613b8e579160200282015b82811115613b8d578251829080519060200190613b7d929190613ab9565b5091602001919060010190613b5f565b5b509050613b9b9190613c86565b5090565b828054828255906000526020600020908101928215613c18579160200282015b82811115613c175782518260006101000a81548173ffffffffffffffffffffffffffffffffffffffff021916908373ffffffffffffffffffffffffffffffffffffffff16021790555091602001919060010190613bbf565b5b509050613c259190613c69565b5090565b508054613c3590614bed565b6000825580601f10613c475750613c66565b601f016020900490600052602060002090810190613c659190613c69565b5b50565b5b80821115613c82576000816000905550600101613c6a565b5090565b5b80821115613ca65760008181613c9d9190613c29565b50600101613c87565b5090565b6000604051905090565b600080fd5b600080fd5b60007fffffffff0000000000000000000000000000000000000000000000000000000082169050919050565b613cf381613cbe565b8114613cfe57600080fd5b50565b600081359050613d1081613cea565b92915050565b600060208284031215613d2c57613d2b613cb4565b5b6000613d3a84828501613d01565b91505092915050565b60008115159050919050565b613d5881613d43565b82525050565b6000602082019050613d736000830184613d4f565b92915050565b600081519050919050565b600082825260208201905092915050565b60005b83811015613db3578082015181840152602081019050613d98565b83811115613dc2576000848401525b50505050565b6000601f19601f8301169050919050565b6000613de482613d79565b613dee8185613d84565b9350613dfe818560208601613d95565b613e0781613dc8565b840191505092915050565b60006020820190508181036000830152613e2c8184613dd9565b905092915050565b6000819050919050565b613e4781613e34565b8114613e5257600080fd5b50565b600081359050613e6481613e3e565b92915050565b600060208284031215613e8057613e7f613cb4565b5b6000613e8e84828501613e55565b91505092915050565b600073ffffffffffffffffffffffffffffffffffffffff82169050919050565b6000613ec282613e97565b9050919050565b613ed281613eb7565b82525050565b6000602082019050613eed6000830184613ec9565b92915050565b613efc81613eb7565b8114613f0757600080fd5b50565b600081359050613f1981613ef3565b92915050565b60008060408385031215613f3657613f35613cb4565b5b6000613f4485828601613f0a565b9250506020613f5585828601613e55565b9150509250929050565b600060208284031215613f7557613f74613cb4565b5b6000613f8384828501613f0a565b91505092915050565b600081519050919050565b600082825260208201905092915050565b6000819050602082019050919050565b600082825260208201905092915050565b6000613fd482613d79565b613fde8185613fb8565b9350613fee818560208601613d95565b613ff781613dc8565b840191505092915050565b600081519050919050565b600082825260208201905092915050565b6000819050602082019050919050565b600061403a8383613fc9565b905092915050565b6000602082019050919050565b600061405a82614002565b614064818561400d565b9350836020820285016140768561401e565b8060005b858110156140b25784840389528151614093858261402e565b945061409e83614042565b925060208a0199505060018101905061407a565b50829750879550505050505092915050565b6140cd81613e34565b82525050565b6140dc81613eb7565b82525050565b600081519050919050565b600082825260208201905092915050565b6000819050602082019050919050565b600061411a83836140d3565b60208301905092915050565b6000602082019050919050565b600061413e826140e2565b61414881856140ed565b9350614153836140fe565b8060005b8381101561418457815161416b888261410e565b975061417683614126565b925050600181019050614157565b5085935050505092915050565b60006101408301600083015184820360008601526141af8282613fc9565b915050602083015184820360208601526141c9828261404f565b915050604083015184820360408601526141e38282613fc9565b915050606083015184820360608601526141fd8282613fc9565b915050608083015161421260808601826140c4565b5060a083015161422560a08601826140c4565b5060c083015161423860c08601826140c4565b5060e083015161424b60e08601826140c4565b506101008301516142606101008601826140d3565b5061012083015184820361012086015261427a8282614133565b9150508091505092915050565b60006142938383614191565b905092915050565b6000602082019050919050565b60006142b382613f8c565b6142bd8185613f97565b9350836020820285016142cf85613fa8565b8060005b8581101561430b57848403895281516142ec8582614287565b94506142f78361429b565b925060208a019950506001810190506142d3565b50829750879550505050505092915050565b6000602082019050818103600083015261433781846142a8565b905092915050565b60008060006060848603121561435857614357613cb4565b5b600061436686828701613f0a565b935050602061437786828701613f0a565b925050604061438886828701613e55565b9150509250925092565b61439b81613e34565b82525050565b60006020820190506143b66000830184614392565b92915050565b600080fd5b600080fd5b7f4e487b7100000000000000000000000000000000000000000000000000000000600052604160045260246000fd5b6143fe82613dc8565b810181811067ffffffffffffffff8211171561441d5761441c6143c6565b5b80604052505050565b6000614430613caa565b905061443c82826143f5565b919050565b600067ffffffffffffffff82111561445c5761445b6143c6565b5b61446582613dc8565b9050602081019050919050565b82818337600083830152505050565b600061449461448f84614441565b614426565b9050828152602081018484840111156144b0576144af6143c1565b5b6144bb848285614472565b509392505050565b600082601f8301126144d8576144d76143bc565b5b81356144e8848260208601614481565b91505092915050565b600067ffffffffffffffff82111561450c5761450b6143c6565b5b602082029050602081019050919050565b600080fd5b6000614535614530846144f1565b614426565b905080838252602082019050602084028301858111156145585761455761451d565b5b835b8181101561459f57803567ffffffffffffffff81111561457d5761457c6143bc565b5b80860161458a89826144c3565b8552602085019450505060208101905061455a565b5050509392505050565b600082601f8301126145be576145bd6143bc565b5b81356145ce848260208601614522565b91505092915050565b6000806000606084860312156145f0576145ef613cb4565b5b600084013567ffffffffffffffff81111561460e5761460d613cb9565b5b61461a868287016144c3565b935050602084013567ffffffffffffffff81111561463b5761463a613cb9565b5b614647868287016145a9565b925050604084013567ffffffffffffffff81111561466857614667613cb9565b5b614674868287016144c3565b9150509250925092565b600060808201905081810360008301526146988187613dd9565b905081810360208301526146ac8186613dd9565b905081810360408301526146c08185613dd9565b90506146cf6060830184613ec9565b95945050505050565b6146e181613d43565b81146146ec57600080fd5b50565b6000813590506146fe816146d8565b92915050565b6000806040838503121561471b5761471a613cb4565b5b600061472985828601613f0a565b925050602061473a858286016146ef565b9150509250929050565b60008060006060848603121561475d5761475c613cb4565b5b600084013567ffffffffffffffff81111561477b5761477a613cb9565b5b614787868287016144c3565b935050602084013567ffffffffffffffff8111156147a8576147a7613cb9565b5b6147b4868287016144c3565b925050604084013567ffffffffffffffff8111156147d5576147d4613cb9565b5b6147e1868287016144c3565b9150509250925092565b600067ffffffffffffffff821115614806576148056143c6565b5b61480f82613dc8565b9050602081019050919050565b600061482f61482a846147eb565b614426565b90508281526020810184848401111561484b5761484a6143c1565b5b614856848285614472565b509392505050565b600082601f830112614873576148726143bc565b5b813561488384826020860161481c565b91505092915050565b600080600080608085870312156148a6576148a5613cb4565b5b60006148b487828801613f0a565b94505060206148c587828801613f0a565b93505060406148d687828801613e55565b925050606085013567ffffffffffffffff8111156148f7576148f6613cb9565b5b6149038782880161485e565b91505092959194509250565b600061010082019050818103600083015261492a818b613dd9565b9050818103602083015261493e818a613dd9565b905081810360408301526149528189613dd9565b90506149616060830188614392565b61496e6080830187614392565b61497b60a0830186614392565b61498860c0830185614392565b61499560e0830184613ec9565b9998505050505050505050565b600080600080608085870312156149bc576149bb613cb4565b5b600085013567ffffffffffffffff8111156149da576149d9613cb9565b5b6149e6878288016144c3565b945050602085013567ffffffffffffffff811115614a0757614a06613cb9565b5b614a13878288016145a9565b935050604085013567ffffffffffffffff811115614a3457614a33613cb9565b5b614a40878288016144c3565b9250506060614a5187828801613e55565b91505092959194509250565b600082825260208201905092915050565b6000614a7982614002565b614a838185614a5d565b935083602082028501614a958561401e565b8060005b85811015614ad15784840389528151614ab2858261402e565b9450614abd83614042565b925060208a01995050600181019050614a99565b50829750879550505050505092915050565b60006020820190508181036000830152614afd8184614a6e565b905092915050565b60008060408385031215614b1c57614b1b613cb4565b5b6000614b2a85828601613f0a565b9250506020614b3b85828601613f0a565b9150509250929050565b600060208284031215614b5b57614b5a613cb4565b5b600082013567ffffffffffffffff811115614b7957614b78613cb9565b5b614b85848285016144c3565b91505092915050565b60006040820190508181036000830152614ba88185613dd9565b9050614bb76020830184614392565b9392505050565b7f4e487b7100000000000000000000000000000000000000000000000000000000600052602260045260246000fd5b60006002820490506001821680614c0557607f821691505b60208210811415614c1957614c18614bbe565b5b50919050565b7f4552433732313a20617070726f76616c20746f2063757272656e74206f776e6560008201527f7200000000000000000000000000000000000000000000000000000000000000602082015250565b6000614c7b602183613d84565b9150614c8682614c1f565b604082019050919050565b60006020820190508181036000830152614caa81614c6e565b9050919050565b7f4552433732313a20617070726f76652063616c6c6572206973206e6f7420746f60008201527f6b656e206f776e6572206e6f7220617070726f76656420666f7220616c6c0000602082015250565b6000614d0d603e83613d84565b9150614d1882614cb1565b604082019050919050565b60006020820190508181036000830152614d3c81614d00565b9050919050565b7f596f752068617665206e6f74207965742072656769737465726564206120707260008201527f6f66696c652e0000000000000000000000000000000000000000000000000000602082015250565b6000614d9f602683613d84565b9150614daa82614d43565b604082019050919050565b60006020820190508181036000830152614dce81614d92565b9050919050565b7f4e487b7100000000000000000000000000000000000000000000000000000000600052601160045260246000fd5b6000614e0f82613e34565b9150614e1a83613e34565b925082821015614e2d57614e2c614dd5565b5b828203905092915050565b7f4e487b7100000000000000000000000000000000000000000000000000000000600052603260045260246000fd5b7f4552433732313a2063616c6c6572206973206e6f7420746f6b656e206f776e6560008201527f72206e6f7220617070726f766564000000000000000000000000000000000000602082015250565b6000614ec3602e83613d84565b9150614ece82614e67565b604082019050919050565b60006020820190508181036000830152614ef281614eb6565b9050919050565b7f4e6f2073746f726965732077697468207468652073706563696669656420746960008201527f746c652061726520726567697374657265642e00000000000000000000000000602082015250565b6000614f55603383613d84565b9150614f6082614ef9565b604082019050919050565b60006020820190508181036000830152614f8481614f48565b9050919050565b7f53746f727920617574686f72732063616e6e6f74206265206c696b65642e0000600082015250565b6000614fc1601e83613d84565b9150614fcc82614f8b565b602082019050919050565b60006020820190508181036000830152614ff081614fb4565b9050919050565b600061500282613e34565b91507fffffffffffffffffffffffffffffffffffffffffffffffffffffffffffffffff82141561503557615034614dd5565b5b600182019050919050565b7f596f7520617265206c696b696e6720746869732073746f7279206f6e2074686560008201527f206e6573742e0000000000000000000000000000000000000000000000000000602082015250565b600061509c602683613d84565b91506150a782615040565b604082019050919050565b600060208201905081810360008301526150cb8161508f565b9050919050565b7f4f6e6c79204e4654206f776e6572732063616e206275726e2e00000000000000600082015250565b6000615108601983613d84565b9150615113826150d2565b602082019050919050565b60006020820190508181036000830152615137816150fb565b9050919050565b7f4552433732313a20696e76616c696420746f6b656e2049440000000000000000600082015250565b6000615174601883613d84565b915061517f8261513e565b602082019050919050565b600060208201905081810360008301526151a381615167565b9050919050565b7f4552433732313a2061646472657373207a65726f206973206e6f74206120766160008201527f6c6964206f776e65720000000000000000000000000000000000000000000000602082015250565b6000615206602983613d84565b9150615211826151aa565b604082019050919050565b60006020820190508181036000830152615235816151f9565b9050919050565b600081905092915050565b600061525282613d79565b61525c818561523c565b935061526c818560208601613d95565b80840191505092915050565b60006152848285615247565b91506152908284615247565b91508190509392505050565b7f596f752068617665206e6f74207965742072656769737465726564206120736f60008201527f74727920646174612e0000000000000000000000000000000000000000000000602082015250565b60006152f8602983613d84565b91506153038261529c565b604082019050919050565b60006020820190508181036000830152615327816152eb565b9050919050565b60008190508160005260206000209050919050565b6000815461535081614bed565b61535a818661523c565b945060018216600081146153755760018114615386576153b9565b60ff198316865281860193506153b9565b61538f8561532e565b60005b838110156153b157815481890152600182019150602081019050615392565b838801955050505b50505092915050565b7f3c2f746578743e3c2f7376673e00000000000000000000000000000000000000600082015250565b60006153f8600d8361523c565b9150615403826153c2565b600d82019050919050565b600061541a8285615343565b91506154268284615247565b9150615431826153eb565b91508190509392505050565b7f7b226e616d65223a202200000000000000000000000000000000000000000000600082015250565b6000615473600a8361523c565b915061547e8261543d565b600a82019050919050565b7f222c20226465736372697074696f6e223a20224d79205265636f76657279205360008201527f746f7279222c2000000000000000000000000000000000000000000000000000602082015250565b60006154e560278361523c565b91506154f082615489565b602782019050919050565b7f22696d616765223a2022646174613a696d6167652f7376672b786d6c3b62617360008201527f6536342c00000000000000000000000000000000000000000000000000000000602082015250565b600061555760248361523c565b9150615562826154fb565b602482019050919050565b7f227d000000000000000000000000000000000000000000000000000000000000600082015250565b60006155a360028361523c565b91506155ae8261556d565b600282019050919050565b60006155c482615466565b91506155d08285615247565b91506155db826154d8565b91506155e68261554a565b91506155f28284615247565b91506155fd82615596565b91508190509392505050565b7f646174613a6170706c69636174696f6e2f6a736f6e3b6261736536342c000000600082015250565b600061563f601d8361523c565b915061564a82615609565b601d82019050919050565b600061566082615632565b915061566c8284615247565b915081905092915050565b7f416e206163636f756e7420616c7265616479206578697374732e000000000000600082015250565b60006156ad601a83613d84565b91506156b882615677565b602082019050919050565b600060208201905081810360008301526156dc816156a0565b9050919050565b7f4552433732313a207472616e736665722066726f6d20696e636f72726563742060008201527f6f776e6572000000000000000000000000000000000000000000000000000000602082015250565b600061573f602583613d84565b915061574a826156e3565b604082019050919050565b6000602082019050818103600083015261576e81615732565b9050919050565b7f4552433732313a207472616e7366657220746f20746865207a65726f2061646460008201527f7265737300000000000000000000000000000000000000000000000000000000602082015250565b60006157d1602483613d84565b91506157dc82615775565b604082019050919050565b60006020820190508181036000830152615800816157c4565b9050919050565b600061581282613e34565b915061581d83613e34565b9250827fffffffffffffffffffffffffffffffffffffffffffffffffffffffffffffffff0382111561585257615851614dd5565b5b828201905092915050565b7f4552433732313a20617070726f766520746f2063616c6c657200000000000000600082015250565b6000615893601983613d84565b915061589e8261585d565b602082019050919050565b600060208201905081810360008301526158c281615886565b9050919050565b7f4552433732313a207472616e7366657220746f206e6f6e20455243373231526560008201527f63656976657220696d706c656d656e7465720000000000000000000000000000602082015250565b6000615925603283613d84565b9150615930826158c9565b604082019050919050565b6000602082019050818103600083015261595481615918565b9050919050565b7f4e487b7100000000000000000000000000000000000000000000000000000000600052601260045260246000fd5b600061599582613e34565b91506159a083613e34565b9250826159b0576159af61595b565b5b828204905092915050565b60006159c682613e34565b91506159d183613e34565b9250817fffffffffffffffffffffffffffffffffffffffffffffffffffffffffffffffff0483118215151615615a0a57615a09614dd5565b5b828202905092915050565b7f45524337323155524953746f726167653a2055524920736574206f66206e6f6e60008201527f6578697374656e7420746f6b656e000000000000000000000000000000000000602082015250565b6000615a71602e83613d84565b9150615a7c82615a15565b604082019050919050565b60006020820190508181036000830152615aa081615a64565b9050919050565b60006060820190508181036000830152615ac18186613dd9565b9050615ad06020830185614392565b615add6040830184613ec9565b949350505050565b600081519050919050565b600082825260208201905092915050565b6000615b0c82615ae5565b615b168185615af0565b9350615b26818560208601613d95565b615b2f81613dc8565b840191505092915050565b6000608082019050615b4f6000830187613ec9565b615b5c6020830186613ec9565b615b696040830185614392565b8181036060830152615b7b8184615b01565b905095945050505050565b600081519050615b9581613cea565b92915050565b600060208284031215615bb157615bb0613cb4565b5b6000615bbf84828501615b86565b91505092915050565b6000615bd382613e34565b9150615bde83613e34565b925082615bee57615bed61595b565b5b828206905092915050565b7f4552433732313a206d696e7420746f20746865207a65726f2061646472657373600082015250565b6000615c2f602083613d84565b9150615c3a82615bf9565b602082019050919050565b60006020820190508181036000830152615c5e81615c22565b9050919050565b7f4552433732313a20746f6b656e20616c7265616479206d696e74656400000000600082015250565b6000615c9b601c83613d84565b9150615ca682615c65565b602082019050919050565b60006020820190508181036000830152615cca81615c8e565b905091905056fe416e204e465420772f20494420257320686173206265656e206d696e74656420746f2025734142434445464748494a4b4c4d4e4f505152535455565758595a6162636465666768696a6b6c6d6e6f707172737475767778797a303132333435363738392b2fa26469706673582212209ad864e1da1a12fc8668a6aac6d4ec54d62165e6afed4aae911de472a34591dc64736f6c63430008090033516d624648565048315663556a696a75394b416638636b6e6b417958584445656865323368646148633869353441516d583564546d4d4e59534a33375a6a6d67544c327779636e75715065483143575362723376464c38374d34374354686973206973206d79205265636f766572792053746f727920636f6e74726163742e516d616a43454a674474477150416753414c624e37347a714a63434e37547270417867757442733446775a6e6f5a516d5a317036333463784c7142745539384559594e69735642567959467368766b435163505353746a59626242533c73766720786d6c6e733d27687474703a2f2f7777772e77332e6f72672f323030302f73766727207072657365727665417370656374526174696f3d27784d696e594d696e206d656574272076696577426f783d273020302033353020333530273e3c7374796c653e2e62617365207b2066696c6c3a20233032423242343b20666f6e742d66616d696c793a20274869726167696e6f204d61727520476f746869632050726f273b20666f6e742d73697a653a20323470783b207d3c2f7374796c653e3c726563742077696474683d273130302527206865696768743d2731303025272066696c6c3d272345394534444627202f3e3c7465787420783d273530252720793d273530252720636c6173734e616d653d27626173652720646f6d696e616e742d626173656c696e653d276d6964646c652720746578742d616e63686f723d276d6964646c65273e516d50463854677439526f31516b416d6d356f65543479736a636548664c5054416a784b67536f4e593251385878",
  "linkReferences": {},
  "deployedLinkReferences": {}
}