{
  "_format": "hh-sol-artifact-1",
  "contractName": "RecoveryStory",
  "sourceName": "contracts/RecoveryStory.sol",
  "abi": [
    {
      "inputs": [
        {
          "internalType": "string",
          "name": "_storyTitle",
          "type": "string"
        }
      ],
      "name": "buyNft",
      "outputs": [],
      "stateMutability": "nonpayable",
      "type": "function"
    },
    {
      "inputs": [
        {
          "internalType": "string",
          "name": "_storyTitle",
          "type": "string"
        },
        {
          "internalType": "string[]",
          "name": "tags",
          "type": "string[]"
        },
        {
          "internalType": "string",
          "name": "_storyBody",
          "type": "string"
        },
        {
          "internalType": "string",
          "name": "_icatchSvg",
          "type": "string"
        }
      ],
      "name": "createStory",
      "outputs": [],
      "stateMutability": "nonpayable",
      "type": "function"
    },
    {
      "inputs": [
        {
          "internalType": "string",
          "name": "_storyTitle",
          "type": "string"
        },
        {
          "internalType": "string[]",
          "name": "tags",
          "type": "string[]"
        },
        {
          "internalType": "string",
          "name": "_storyBody",
          "type": "string"
        },
        {
          "internalType": "string",
          "name": "_icatchSvg",
          "type": "string"
        },
        {
          "internalType": "uint256",
          "name": "_numLike",
          "type": "uint256"
        }
      ],
      "name": "editStory",
      "outputs": [],
      "stateMutability": "nonpayable",
      "type": "function"
    },
    {
      "inputs": [],
      "name": "getAllStories",
      "outputs": [
        {
          "components": [
            {
              "internalType": "string",
              "name": "storyTitle",
              "type": "string"
            },
            {
              "internalType": "string[]",
              "name": "tags",
              "type": "string[]"
            },
            {
              "internalType": "string",
              "name": "storyBody",
              "type": "string"
            },
            {
              "internalType": "string",
              "name": "icatchSvg",
              "type": "string"
            },
            {
              "internalType": "uint256",
              "name": "createDate",
              "type": "uint256"
            },
            {
              "internalType": "uint256",
              "name": "updateDate",
              "type": "uint256"
            },
            {
              "internalType": "uint256",
              "name": "numLike",
              "type": "uint256"
            },
            {
              "internalType": "uint256",
              "name": "itemId",
              "type": "uint256"
            },
            {
              "internalType": "address",
              "name": "authorAddress",
              "type": "address"
            }
          ],
          "internalType": "struct RecoveryStory.Story[]",
          "name": "",
          "type": "tuple[]"
        }
      ],
      "stateMutability": "view",
      "type": "function"
    },
    {
      "inputs": [
        {
          "internalType": "string",
          "name": "_storyTitle",
          "type": "string"
        }
      ],
      "name": "getNft",
      "outputs": [
        {
          "internalType": "string",
          "name": "",
          "type": "string"
        },
        {
          "internalType": "string[]",
          "name": "",
          "type": "string[]"
        },
        {
          "internalType": "string",
          "name": "",
          "type": "string"
        },
        {
          "internalType": "string",
          "name": "",
          "type": "string"
        },
        {
          "internalType": "uint256",
          "name": "",
          "type": "uint256"
        },
        {
          "internalType": "uint256",
          "name": "",
          "type": "uint256"
        },
        {
          "internalType": "uint256",
          "name": "",
          "type": "uint256"
        },
        {
          "internalType": "uint256",
          "name": "",
          "type": "uint256"
        },
        {
          "internalType": "address",
          "name": "",
          "type": "address"
        }
      ],
      "stateMutability": "view",
      "type": "function"
    },
    {
      "inputs": [
        {
          "internalType": "uint256",
          "name": "",
          "type": "uint256"
        }
      ],
      "name": "story",
      "outputs": [
        {
          "internalType": "string",
          "name": "storyTitle",
          "type": "string"
        },
        {
          "internalType": "string",
          "name": "storyBody",
          "type": "string"
        },
        {
          "internalType": "string",
          "name": "icatchSvg",
          "type": "string"
        },
        {
          "internalType": "uint256",
          "name": "createDate",
          "type": "uint256"
        },
        {
          "internalType": "uint256",
          "name": "updateDate",
          "type": "uint256"
        },
        {
          "internalType": "uint256",
          "name": "numLike",
          "type": "uint256"
        },
        {
          "internalType": "uint256",
          "name": "itemId",
          "type": "uint256"
        },
        {
          "internalType": "address",
          "name": "authorAddress",
          "type": "address"
        }
      ],
      "stateMutability": "view",
      "type": "function"
    },
    {
      "inputs": [],
      "name": "storyIdCounter",
      "outputs": [
        {
          "internalType": "uint256",
          "name": "",
          "type": "uint256"
        }
      ],
      "stateMutability": "view",
      "type": "function"
    }
  ],
  "bytecode": "0x60806040526001805534801561001457600080fd5b50611e63806100246000396000f3fe608060405234801561001057600080fd5b506004361061007d5760003560e01c806338a3bdc81161005b57806338a3bdc8146100d85780633dd17652146100f6578063beba8bbe1461012e578063d5efffaf146101655761007d565b8063191bbe2a1461008257806333e00f7c146100a05780633719d8a6146100bc575b600080fd5b61008a610181565b60405161009791906114a6565b60405180910390f35b6100ba60048036038101906100b591906116f7565b6104ee565b005b6100d660048036038101906100d191906117fa565b61075f565b005b6100e0610933565b6040516100ed91906118f4565b60405180910390f35b610110600480360381019061010b919061190f565b610939565b60405161012599989796959493929190611a37565b60405180910390f35b61014860048036038101906101439190611ae0565b610d7e565b60405161015c989796959493929190611b0d565b60405180910390f35b61017f600480360381019061017a919061190f565b610f8e565b005b60606000805480602002602001604051908101604052809291908181526020016000905b828210156104e55783829060005260206000209060090201604051806101200160405290816000820180546101d990611bcf565b80601f016020809104026020016040519081016040528092919081815260200182805461020590611bcf565b80156102525780601f1061022757610100808354040283529160200191610252565b820191906000526020600020905b81548152906001019060200180831161023557829003601f168201915b5050505050815260200160018201805480602002602001604051908101604052809291908181526020016000905b8282101561032c57838290600052602060002001805461029f90611bcf565b80601f01602080910402602001604051908101604052809291908181526020018280546102cb90611bcf565b80156103185780601f106102ed57610100808354040283529160200191610318565b820191906000526020600020905b8154815290600101906020018083116102fb57829003601f168201915b505050505081526020019060010190610280565b50505050815260200160028201805461034490611bcf565b80601f016020809104026020016040519081016040528092919081815260200182805461037090611bcf565b80156103bd5780601f10610392576101008083540402835291602001916103bd565b820191906000526020600020905b8154815290600101906020018083116103a057829003601f168201915b505050505081526020016003820180546103d690611bcf565b80601f016020809104026020016040519081016040528092919081815260200182805461040290611bcf565b801561044f5780601f106104245761010080835404028352916020019161044f565b820191906000526020600020905b81548152906001019060200180831161043257829003601f168201915b50505050508152602001600482015481526020016005820154815260200160068201548152602001600782015481526020016008820160009054906101000a900473ffffffffffffffffffffffffffffffffffffffff1673ffffffffffffffffffffffffffffffffffffffff1673ffffffffffffffffffffffffffffffffffffffff1681525050815260200190600101906101a5565b50505050905090565b60006003856040516105009190611c3d565b9081526020016040518091039020541461054f576040517f08c379a000000000000000000000000000000000000000000000000000000000815260040161054690611ca0565b60405180910390fd5b60006040518061012001604052808681526020018581526020018481526020018381526020014281526020014281526020016000815260200160015481526020013373ffffffffffffffffffffffffffffffffffffffff168152509050600081908060018154018082558091505060019003906000526020600020906009020160009091909190915060008201518160000190805190602001906105f4929190610fee565b506020820151816001019080519060200190610611929190611074565b50604082015181600201908051906020019061062e929190610fee565b50606082015181600301908051906020019061064b929190610fee565b506080820151816004015560a0820151816005015560c0820151816006015560e082015181600701556101008201518160080160006101000a81548173ffffffffffffffffffffffffffffffffffffffff021916908373ffffffffffffffffffffffffffffffffffffffff1602179055505050336002866040516106cf9190611c3d565b908152602001604051809103902060006101000a81548173ffffffffffffffffffffffffffffffffffffffff021916908373ffffffffffffffffffffffffffffffffffffffff16021790555060015460038660405161072e9190611c3d565b9081526020016040518091039020819055506001600081548092919061075390611cef565b91905055505050505050565b60006003866040516107719190611c3d565b908152602001604051809103902054116107c0576040517f08c379a00000000000000000000000000000000000000000000000000000000081526004016107b790611daa565b60405180910390fd5b600060016003876040516107d49190611c3d565b9081526020016040518091039020546107ed9190611dca565b9050856000828154811061080457610803611dfe565b5b90600052602060002090600902016000019080519060200190610828929190610fee565b50846000828154811061083e5761083d611dfe565b5b90600052602060002090600902016001019080519060200190610862929190611074565b50836000828154811061087857610877611dfe565b5b9060005260206000209060090201600201908051906020019061089c929190610fee565b5082600082815481106108b2576108b1611dfe565b5b906000526020600020906009020160030190805190602001906108d6929190610fee565b5042600082815481106108ec576108eb611dfe565b5b906000526020600020906009020160050181905550816000828154811061091657610915611dfe565b5b906000526020600020906009020160060181905550505050505050565b60015481565b606080606080600080600080600080600160038c60405161095a9190611c3d565b9081526020016040518091039020546109739190611dca565b90506000818154811061098957610988611dfe565b5b9060005260206000209060090201600001600082815481106109ae576109ad611dfe565b5b9060005260206000209060090201600101600083815481106109d3576109d2611dfe565b5b9060005260206000209060090201600201600084815481106109f8576109f7611dfe565b5b906000526020600020906009020160030160008581548110610a1d57610a1c611dfe565b5b90600052602060002090600902016004015460008681548110610a4357610a42611dfe565b5b90600052602060002090600902016005015460008781548110610a6957610a68611dfe565b5b90600052602060002090600902016006015460008881548110610a8f57610a8e611dfe565b5b90600052602060002090600902016007015460008981548110610ab557610ab4611dfe565b5b906000526020600020906009020160080160009054906101000a900473ffffffffffffffffffffffffffffffffffffffff16888054610af390611bcf565b80601f0160208091040260200160405190810160405280929190818152602001828054610b1f90611bcf565b8015610b6c5780601f10610b4157610100808354040283529160200191610b6c565b820191906000526020600020905b815481529060010190602001808311610b4f57829003601f168201915b5050505050985087805480602002602001604051908101604052809291908181526020016000905b82821015610c40578382906000526020600020018054610bb390611bcf565b80601f0160208091040260200160405190810160405280929190818152602001828054610bdf90611bcf565b8015610c2c5780601f10610c0157610100808354040283529160200191610c2c565b820191906000526020600020905b815481529060010190602001808311610c0f57829003601f168201915b505050505081526020019060010190610b94565b505050509750868054610c5290611bcf565b80601f0160208091040260200160405190810160405280929190818152602001828054610c7e90611bcf565b8015610ccb5780601f10610ca057610100808354040283529160200191610ccb565b820191906000526020600020905b815481529060010190602001808311610cae57829003601f168201915b50505050509650858054610cde90611bcf565b80601f0160208091040260200160405190810160405280929190818152602001828054610d0a90611bcf565b8015610d575780601f10610d2c57610100808354040283529160200191610d57565b820191906000526020600020905b815481529060010190602001808311610d3a57829003601f168201915b50505050509550995099509950995099509950995099509950509193959799909294969850565b60008181548110610d8e57600080fd5b9060005260206000209060090201600091509050806000018054610db190611bcf565b80601f0160208091040260200160405190810160405280929190818152602001828054610ddd90611bcf565b8015610e2a5780601f10610dff57610100808354040283529160200191610e2a565b820191906000526020600020905b815481529060010190602001808311610e0d57829003601f168201915b505050505090806002018054610e3f90611bcf565b80601f0160208091040260200160405190810160405280929190818152602001828054610e6b90611bcf565b8015610eb85780601f10610e8d57610100808354040283529160200191610eb8565b820191906000526020600020905b815481529060010190602001808311610e9b57829003601f168201915b505050505090806003018054610ecd90611bcf565b80601f0160208091040260200160405190810160405280929190818152602001828054610ef990611bcf565b8015610f465780601f10610f1b57610100808354040283529160200191610f46565b820191906000526020600020905b815481529060010190602001808311610f2957829003601f168201915b5050505050908060040154908060050154908060060154908060070154908060080160009054906101000a900473ffffffffffffffffffffffffffffffffffffffff16905088565b33600282604051610f9f9190611c3d565b908152602001604051809103902060006101000a81548173ffffffffffffffffffffffffffffffffffffffff021916908373ffffffffffffffffffffffffffffffffffffffff16021790555050565b828054610ffa90611bcf565b90600052602060002090601f01602090048101928261101c5760008555611063565b82601f1061103557805160ff1916838001178555611063565b82800160010185558215611063579182015b82811115611062578251825591602001919060010190611047565b5b50905061107091906110d4565b5090565b8280548282559060005260206000209081019282156110c3579160200282015b828111156110c25782518290805190602001906110b2929190610fee565b5091602001919060010190611094565b5b5090506110d091906110f1565b5090565b5b808211156110ed5760008160009055506001016110d5565b5090565b5b8082111561111157600081816111089190611115565b506001016110f2565b5090565b50805461112190611bcf565b6000825580601f106111335750611152565b601f01602090049060005260206000209081019061115191906110d4565b5b50565b600081519050919050565b600082825260208201905092915050565b6000819050602082019050919050565b600081519050919050565b600082825260208201905092915050565b60005b838110156111bb5780820151818401526020810190506111a0565b838111156111ca576000848401525b50505050565b6000601f19601f8301169050919050565b60006111ec82611181565b6111f6818561118c565b935061120681856020860161119d565b61120f816111d0565b840191505092915050565b600081519050919050565b600082825260208201905092915050565b6000819050602082019050919050565b600061125283836111e1565b905092915050565b6000602082019050919050565b60006112728261121a565b61127c8185611225565b93508360208202850161128e85611236565b8060005b858110156112ca57848403895281516112ab8582611246565b94506112b68361125a565b925060208a01995050600181019050611292565b50829750879550505050505092915050565b6000819050919050565b6112ef816112dc565b82525050565b600073ffffffffffffffffffffffffffffffffffffffff82169050919050565b6000611320826112f5565b9050919050565b61133081611315565b82525050565b600061012083016000830151848203600086015261135482826111e1565b9150506020830151848203602086015261136e8282611267565b9150506040830151848203604086015261138882826111e1565b915050606083015184820360608601526113a282826111e1565b91505060808301516113b760808601826112e6565b5060a08301516113ca60a08601826112e6565b5060c08301516113dd60c08601826112e6565b5060e08301516113f060e08601826112e6565b50610100830151611405610100860182611327565b508091505092915050565b600061141c8383611336565b905092915050565b6000602082019050919050565b600061143c82611155565b6114468185611160565b93508360208202850161145885611171565b8060005b8581101561149457848403895281516114758582611410565b945061148083611424565b925060208a0199505060018101905061145c565b50829750879550505050505092915050565b600060208201905081810360008301526114c08184611431565b905092915050565b6000604051905090565b600080fd5b600080fd5b600080fd5b600080fd5b7f4e487b7100000000000000000000000000000000000000000000000000000000600052604160045260246000fd5b61151e826111d0565b810181811067ffffffffffffffff8211171561153d5761153c6114e6565b5b80604052505050565b60006115506114c8565b905061155c8282611515565b919050565b600067ffffffffffffffff82111561157c5761157b6114e6565b5b611585826111d0565b9050602081019050919050565b82818337600083830152505050565b60006115b46115af84611561565b611546565b9050828152602081018484840111156115d0576115cf6114e1565b5b6115db848285611592565b509392505050565b600082601f8301126115f8576115f76114dc565b5b81356116088482602086016115a1565b91505092915050565b600067ffffffffffffffff82111561162c5761162b6114e6565b5b602082029050602081019050919050565b600080fd5b600061165561165084611611565b611546565b905080838252602082019050602084028301858111156116785761167761163d565b5b835b818110156116bf57803567ffffffffffffffff81111561169d5761169c6114dc565b5b8086016116aa89826115e3565b8552602085019450505060208101905061167a565b5050509392505050565b600082601f8301126116de576116dd6114dc565b5b81356116ee848260208601611642565b91505092915050565b60008060008060808587031215611711576117106114d2565b5b600085013567ffffffffffffffff81111561172f5761172e6114d7565b5b61173b878288016115e3565b945050602085013567ffffffffffffffff81111561175c5761175b6114d7565b5b611768878288016116c9565b935050604085013567ffffffffffffffff811115611789576117886114d7565b5b611795878288016115e3565b925050606085013567ffffffffffffffff8111156117b6576117b56114d7565b5b6117c2878288016115e3565b91505092959194509250565b6117d7816112dc565b81146117e257600080fd5b50565b6000813590506117f4816117ce565b92915050565b600080600080600060a08688031215611816576118156114d2565b5b600086013567ffffffffffffffff811115611834576118336114d7565b5b611840888289016115e3565b955050602086013567ffffffffffffffff811115611861576118606114d7565b5b61186d888289016116c9565b945050604086013567ffffffffffffffff81111561188e5761188d6114d7565b5b61189a888289016115e3565b935050606086013567ffffffffffffffff8111156118bb576118ba6114d7565b5b6118c7888289016115e3565b92505060806118d8888289016117e5565b9150509295509295909350565b6118ee816112dc565b82525050565b600060208201905061190960008301846118e5565b92915050565b600060208284031215611925576119246114d2565b5b600082013567ffffffffffffffff811115611943576119426114d7565b5b61194f848285016115e3565b91505092915050565b600082825260208201905092915050565b600061197482611181565b61197e8185611958565b935061198e81856020860161119d565b611997816111d0565b840191505092915050565b600082825260208201905092915050565b60006119be8261121a565b6119c881856119a2565b9350836020820285016119da85611236565b8060005b85811015611a1657848403895281516119f78582611246565b9450611a028361125a565b925060208a019950506001810190506119de565b50829750879550505050505092915050565b611a3181611315565b82525050565b6000610120820190508181036000830152611a52818c611969565b90508181036020830152611a66818b6119b3565b90508181036040830152611a7a818a611969565b90508181036060830152611a8e8189611969565b9050611a9d60808301886118e5565b611aaa60a08301876118e5565b611ab760c08301866118e5565b611ac460e08301856118e5565b611ad2610100830184611a28565b9a9950505050505050505050565b600060208284031215611af657611af56114d2565b5b6000611b04848285016117e5565b91505092915050565b6000610100820190508181036000830152611b28818b611969565b90508181036020830152611b3c818a611969565b90508181036040830152611b508189611969565b9050611b5f60608301886118e5565b611b6c60808301876118e5565b611b7960a08301866118e5565b611b8660c08301856118e5565b611b9360e0830184611a28565b9998505050505050505050565b7f4e487b7100000000000000000000000000000000000000000000000000000000600052602260045260246000fd5b60006002820490506001821680611be757607f821691505b60208210811415611bfb57611bfa611ba0565b5b50919050565b600081905092915050565b6000611c1782611181565b611c218185611c01565b9350611c3181856020860161119d565b80840191505092915050565b6000611c498284611c0c565b915081905092915050565b7f416e2053746f7279204461746120616c7265616479206578697374732e000000600082015250565b6000611c8a601d83611958565b9150611c9582611c54565b602082019050919050565b60006020820190508181036000830152611cb981611c7d565b9050919050565b7f4e487b7100000000000000000000000000000000000000000000000000000000600052601160045260246000fd5b6000611cfa826112dc565b91507fffffffffffffffffffffffffffffffffffffffffffffffffffffffffffffffff821415611d2d57611d2c611cc0565b5b600182019050919050565b7f596f752068617665206e6f74207965742072656769737465726564206120736f60008201527f74727920646174612e0000000000000000000000000000000000000000000000602082015250565b6000611d94602983611958565b9150611d9f82611d38565b604082019050919050565b60006020820190508181036000830152611dc381611d87565b9050919050565b6000611dd5826112dc565b9150611de0836112dc565b925082821015611df357611df2611cc0565b5b828203905092915050565b7f4e487b7100000000000000000000000000000000000000000000000000000000600052603260045260246000fdfea2646970667358221220662b646077353fc6caf7b7cfcbd447f98499b91c3df2fc2dacc5eac6e03c355b64736f6c63430008090033",
  "linkReferences": {},
  "deployedLinkReferences": {}
}