{
  "_format": "hh-sol-artifact-1",
  "contractName": "RecoveryStory",
  "sourceName": "contracts/RecoveryStory.sol",
  "abi": [
    {
      "inputs": [],
      "stateMutability": "nonpayable",
      "type": "constructor"
    },
    {
      "anonymous": false,
      "inputs": [
        {
          "indexed": true,
          "internalType": "address",
          "name": "owner",
          "type": "address"
        },
        {
          "indexed": true,
          "internalType": "address",
          "name": "approved",
          "type": "address"
        },
        {
          "indexed": true,
          "internalType": "uint256",
          "name": "tokenId",
          "type": "uint256"
        }
      ],
      "name": "Approval",
      "type": "event"
    },
    {
      "anonymous": false,
      "inputs": [
        {
          "indexed": true,
          "internalType": "address",
          "name": "owner",
          "type": "address"
        },
        {
          "indexed": true,
          "internalType": "address",
          "name": "operator",
          "type": "address"
        },
        {
          "indexed": false,
          "internalType": "bool",
          "name": "approved",
          "type": "bool"
        }
      ],
      "name": "ApprovalForAll",
      "type": "event"
    },
    {
      "anonymous": false,
      "inputs": [
        {
          "indexed": true,
          "internalType": "address",
          "name": "from",
          "type": "address"
        },
        {
          "indexed": true,
          "internalType": "address",
          "name": "to",
          "type": "address"
        },
        {
          "indexed": true,
          "internalType": "uint256",
          "name": "tokenId",
          "type": "uint256"
        }
      ],
      "name": "Transfer",
      "type": "event"
    },
    {
      "inputs": [
        {
          "internalType": "uint256",
          "name": "_storyId",
          "type": "uint256"
        }
      ],
      "name": "addLike",
      "outputs": [],
      "stateMutability": "nonpayable",
      "type": "function"
    },
    {
      "inputs": [
        {
          "internalType": "address",
          "name": "to",
          "type": "address"
        },
        {
          "internalType": "uint256",
          "name": "tokenId",
          "type": "uint256"
        }
      ],
      "name": "approve",
      "outputs": [],
      "stateMutability": "nonpayable",
      "type": "function"
    },
    {
      "inputs": [
        {
          "internalType": "uint256",
          "name": "",
          "type": "uint256"
        }
      ],
      "name": "avatars",
      "outputs": [
        {
          "internalType": "string",
          "name": "",
          "type": "string"
        }
      ],
      "stateMutability": "view",
      "type": "function"
    },
    {
      "inputs": [
        {
          "internalType": "address",
          "name": "owner",
          "type": "address"
        }
      ],
      "name": "balanceOf",
      "outputs": [
        {
          "internalType": "uint256",
          "name": "",
          "type": "uint256"
        }
      ],
      "stateMutability": "view",
      "type": "function"
    },
    {
      "inputs": [
        {
          "internalType": "string",
          "name": "_storyTitle",
          "type": "string"
        },
        {
          "internalType": "string[]",
          "name": "_tags",
          "type": "string[]"
        },
        {
          "internalType": "string",
          "name": "_storyBody",
          "type": "string"
        }
      ],
      "name": "createStory",
      "outputs": [],
      "stateMutability": "nonpayable",
      "type": "function"
    },
    {
      "inputs": [
        {
          "internalType": "string",
          "name": "_name",
          "type": "string"
        },
        {
          "internalType": "string",
          "name": "_biography",
          "type": "string"
        },
        {
          "internalType": "uint256",
          "name": "_avatar",
          "type": "uint256"
        }
      ],
      "name": "createUserProfile",
      "outputs": [],
      "stateMutability": "nonpayable",
      "type": "function"
    },
    {
      "inputs": [
        {
          "internalType": "string",
          "name": "_storyTitle",
          "type": "string"
        },
        {
          "internalType": "string[]",
          "name": "tags",
          "type": "string[]"
        },
        {
          "internalType": "string",
          "name": "_storyBody",
          "type": "string"
        },
        {
          "internalType": "uint256",
          "name": "_storyId",
          "type": "uint256"
        }
      ],
      "name": "editStory",
      "outputs": [],
      "stateMutability": "nonpayable",
      "type": "function"
    },
    {
      "inputs": [
        {
          "internalType": "string",
          "name": "_name",
          "type": "string"
        },
        {
          "internalType": "string",
          "name": "_biography",
          "type": "string"
        },
        {
          "internalType": "uint256",
          "name": "_avatar",
          "type": "uint256"
        }
      ],
      "name": "editUserProfile",
      "outputs": [],
      "stateMutability": "nonpayable",
      "type": "function"
    },
    {
      "inputs": [],
      "name": "getAllAvatar",
      "outputs": [
        {
          "internalType": "string[]",
          "name": "",
          "type": "string[]"
        }
      ],
      "stateMutability": "view",
      "type": "function"
    },
    {
      "inputs": [],
      "name": "getAllStories",
      "outputs": [
        {
          "components": [
            {
              "internalType": "string",
              "name": "storyTitle",
              "type": "string"
            },
            {
              "internalType": "string[]",
              "name": "tags",
              "type": "string[]"
            },
            {
              "internalType": "string",
              "name": "storyBody",
              "type": "string"
            },
            {
              "internalType": "string",
              "name": "dataURI",
              "type": "string"
            },
            {
              "internalType": "uint256",
              "name": "createDate",
              "type": "uint256"
            },
            {
              "internalType": "uint256",
              "name": "updateDate",
              "type": "uint256"
            },
            {
              "internalType": "uint256",
              "name": "numLike",
              "type": "uint256"
            },
            {
              "internalType": "uint256",
              "name": "storyId",
              "type": "uint256"
            },
            {
              "internalType": "uint256",
              "name": "tokenId",
              "type": "uint256"
            },
            {
              "internalType": "address",
              "name": "authorAddress",
              "type": "address"
            },
            {
              "internalType": "address[]",
              "name": "likeUserAdress",
              "type": "address[]"
            }
          ],
          "internalType": "struct RecoveryStory.Story[]",
          "name": "",
          "type": "tuple[]"
        }
      ],
      "stateMutability": "view",
      "type": "function"
    },
    {
      "inputs": [
        {
          "internalType": "uint256",
          "name": "tokenId",
          "type": "uint256"
        }
      ],
      "name": "getApproved",
      "outputs": [
        {
          "internalType": "address",
          "name": "",
          "type": "address"
        }
      ],
      "stateMutability": "view",
      "type": "function"
    },
    {
      "inputs": [
        {
          "internalType": "address",
          "name": "_authorAddress",
          "type": "address"
        }
      ],
      "name": "getAuthor",
      "outputs": [
        {
          "internalType": "string",
          "name": "",
          "type": "string"
        }
      ],
      "stateMutability": "view",
      "type": "function"
    },
    {
      "inputs": [],
      "name": "getUserProfile",
      "outputs": [
        {
          "internalType": "string",
          "name": "",
          "type": "string"
        },
        {
          "internalType": "string",
          "name": "",
          "type": "string"
        },
        {
          "internalType": "string",
          "name": "",
          "type": "string"
        },
        {
          "internalType": "address",
          "name": "",
          "type": "address"
        }
      ],
      "stateMutability": "view",
      "type": "function"
    },
    {
      "inputs": [
        {
          "internalType": "address",
          "name": "owner",
          "type": "address"
        },
        {
          "internalType": "address",
          "name": "operator",
          "type": "address"
        }
      ],
      "name": "isApprovedForAll",
      "outputs": [
        {
          "internalType": "bool",
          "name": "",
          "type": "bool"
        }
      ],
      "stateMutability": "view",
      "type": "function"
    },
    {
      "inputs": [
        {
          "internalType": "string",
          "name": "_title",
          "type": "string"
        }
      ],
      "name": "mintNFT",
      "outputs": [
        {
          "internalType": "string",
          "name": "",
          "type": "string"
        },
        {
          "internalType": "uint256",
          "name": "",
          "type": "uint256"
        }
      ],
      "stateMutability": "nonpayable",
      "type": "function"
    },
    {
      "inputs": [],
      "name": "name",
      "outputs": [
        {
          "internalType": "string",
          "name": "",
          "type": "string"
        }
      ],
      "stateMutability": "view",
      "type": "function"
    },
    {
      "inputs": [
        {
          "internalType": "uint256",
          "name": "tokenId",
          "type": "uint256"
        }
      ],
      "name": "ownerOf",
      "outputs": [
        {
          "internalType": "address",
          "name": "",
          "type": "address"
        }
      ],
      "stateMutability": "view",
      "type": "function"
    },
    {
      "inputs": [
        {
          "internalType": "address",
          "name": "from",
          "type": "address"
        },
        {
          "internalType": "address",
          "name": "to",
          "type": "address"
        },
        {
          "internalType": "uint256",
          "name": "tokenId",
          "type": "uint256"
        }
      ],
      "name": "safeTransferFrom",
      "outputs": [],
      "stateMutability": "nonpayable",
      "type": "function"
    },
    {
      "inputs": [
        {
          "internalType": "address",
          "name": "from",
          "type": "address"
        },
        {
          "internalType": "address",
          "name": "to",
          "type": "address"
        },
        {
          "internalType": "uint256",
          "name": "tokenId",
          "type": "uint256"
        },
        {
          "internalType": "bytes",
          "name": "data",
          "type": "bytes"
        }
      ],
      "name": "safeTransferFrom",
      "outputs": [],
      "stateMutability": "nonpayable",
      "type": "function"
    },
    {
      "inputs": [
        {
          "internalType": "address",
          "name": "operator",
          "type": "address"
        },
        {
          "internalType": "bool",
          "name": "approved",
          "type": "bool"
        }
      ],
      "name": "setApprovalForAll",
      "outputs": [],
      "stateMutability": "nonpayable",
      "type": "function"
    },
    {
      "inputs": [
        {
          "internalType": "uint256",
          "name": "",
          "type": "uint256"
        }
      ],
      "name": "story",
      "outputs": [
        {
          "internalType": "string",
          "name": "storyTitle",
          "type": "string"
        },
        {
          "internalType": "string",
          "name": "storyBody",
          "type": "string"
        },
        {
          "internalType": "string",
          "name": "dataURI",
          "type": "string"
        },
        {
          "internalType": "uint256",
          "name": "createDate",
          "type": "uint256"
        },
        {
          "internalType": "uint256",
          "name": "updateDate",
          "type": "uint256"
        },
        {
          "internalType": "uint256",
          "name": "numLike",
          "type": "uint256"
        },
        {
          "internalType": "uint256",
          "name": "storyId",
          "type": "uint256"
        },
        {
          "internalType": "uint256",
          "name": "tokenId",
          "type": "uint256"
        },
        {
          "internalType": "address",
          "name": "authorAddress",
          "type": "address"
        }
      ],
      "stateMutability": "view",
      "type": "function"
    },
    {
      "inputs": [],
      "name": "storyIdCounter",
      "outputs": [
        {
          "internalType": "uint256",
          "name": "",
          "type": "uint256"
        }
      ],
      "stateMutability": "view",
      "type": "function"
    },
    {
      "inputs": [
        {
          "internalType": "bytes4",
          "name": "interfaceId",
          "type": "bytes4"
        }
      ],
      "name": "supportsInterface",
      "outputs": [
        {
          "internalType": "bool",
          "name": "",
          "type": "bool"
        }
      ],
      "stateMutability": "view",
      "type": "function"
    },
    {
      "inputs": [],
      "name": "symbol",
      "outputs": [
        {
          "internalType": "string",
          "name": "",
          "type": "string"
        }
      ],
      "stateMutability": "view",
      "type": "function"
    },
    {
      "inputs": [
        {
          "internalType": "uint256",
          "name": "tokenId",
          "type": "uint256"
        }
      ],
      "name": "tokenURI",
      "outputs": [
        {
          "internalType": "string",
          "name": "",
          "type": "string"
        }
      ],
      "stateMutability": "view",
      "type": "function"
    },
    {
      "inputs": [
        {
          "internalType": "address",
          "name": "from",
          "type": "address"
        },
        {
          "internalType": "address",
          "name": "to",
          "type": "address"
        },
        {
          "internalType": "uint256",
          "name": "tokenId",
          "type": "uint256"
        }
      ],
      "name": "transferFrom",
      "outputs": [],
      "stateMutability": "nonpayable",
      "type": "function"
    },
    {
      "inputs": [],
      "name": "userIdCounter",
      "outputs": [
        {
          "internalType": "uint256",
          "name": "",
          "type": "uint256"
        }
      ],
      "stateMutability": "view",
      "type": "function"
    },
    {
      "inputs": [
        {
          "internalType": "uint256",
          "name": "",
          "type": "uint256"
        }
      ],
      "name": "userProfile",
      "outputs": [
        {
          "internalType": "string",
          "name": "name",
          "type": "string"
        },
        {
          "internalType": "string",
          "name": "avatar",
          "type": "string"
        },
        {
          "internalType": "string",
          "name": "biography",
          "type": "string"
        },
        {
          "internalType": "address",
          "name": "walletAddress",
          "type": "address"
        }
      ],
      "stateMutability": "view",
      "type": "function"
    }
  ],
  "bytecode": "0x608060405260405180610180016040528061014c81526020016200627c61014c91396008908051906020019062000038929190620002b4565b5066038d7ea4c68000600a556001600d556001600e553480156200005b57600080fd5b506040518060400160405280601081526020017f5265636f7665727953746f72794e4654000000000000000000000000000000008152506040518060400160405280600381526020017f52534e00000000000000000000000000000000000000000000000000000000008152508160009080519060200190620000e0929190620002b4565b508060019080519060200190620000f9929190620002b4565b5050506200012b604051806060016040528060238152602001620061fd60239139620001e860201b620029201760201c565b6040518060a001604052806040518060600160405280602e8152602001620063c8602e913981526020016040518060600160405280602e815260200162006220602e913981526020016040518060600160405280602e8152602001620061cf602e913981526020016040518060600160405280602e8152602001620061a1602e913981526020016040518060600160405280602e81526020016200624e602e91398152506009906005620001e192919062000345565b5062000566565b6200028881604051602401620001ff9190620004dd565b6040516020818303038152906040527f41304fac000000000000000000000000000000000000000000000000000000007bffffffffffffffffffffffffffffffffffffffffffffffffffffffff19166020820180517bffffffffffffffffffffffffffffffffffffffffffffffffffffffff83818316178352505050506200028b60201b60201c565b50565b60008151905060006a636f6e736f6c652e6c6f679050602083016000808483855afa5050505050565b828054620002c29062000530565b90600052602060002090601f016020900481019282620002e6576000855562000332565b82601f106200030157805160ff191683800117855562000332565b8280016001018555821562000332579182015b828111156200033157825182559160200191906001019062000314565b5b509050620003419190620003ac565b5090565b82805482825590600052602060002090810192821562000399579160200282015b828111156200039857825182908051906020019062000387929190620002b4565b509160200191906001019062000366565b5b509050620003a89190620003cb565b5090565b5b80821115620003c7576000816000905550600101620003ad565b5090565b5b80821115620003ef5760008181620003e59190620003f3565b50600101620003cc565b5090565b508054620004019062000530565b6000825580601f1062000415575062000436565b601f016020900490600052602060002090810190620004359190620003ac565b5b50565b600081519050919050565b600082825260208201905092915050565b60005b838110156200047557808201518184015260208101905062000458565b8381111562000485576000848401525b50505050565b6000601f19601f8301169050919050565b6000620004a98262000439565b620004b5818562000444565b9350620004c781856020860162000455565b620004d2816200048b565b840191505092915050565b60006020820190508181036000830152620004f981846200049c565b905092915050565b7f4e487b7100000000000000000000000000000000000000000000000000000000600052602260045260246000fd5b600060028204905060018216806200054957607f821691505b6020821081141562000560576200055f62000501565b5b50919050565b615c2b80620005766000396000f3fe608060405234801561001057600080fd5b50600436106101c45760003560e01c80636f61c744116100f9578063beba8bbe11610097578063df2894b711610071578063df2894b714610520578063e985e9c51461053e578063f37181f41461056e578063fb37e883146105a1576101c4565b8063beba8bbe1461049c578063c87b56dd146104d4578063ce8c35fd14610504576101c4565b8063834d5fac116100d3578063834d5fac1461041657806395d89b4114610446578063a22cb46514610464578063b88d4fde14610480576101c4565b80636f61c744146103a957806370a08231146103ca57806377c72c3a146103fa576101c4565b80632a86f3251161016657806338a3bdc81161014057806338a3bdc81461032357806342842e0e146103415780636352211e1461035d5780636decda911461038d576101c4565b80632a86f325146102cd5780632faba6ae146102e9578063378a35cd14610307576101c4565b8063095ea7b3116101a2578063095ea7b3146102475780630ab3009314610263578063191bbe2a1461029357806323b872dd146102b1576101c4565b806301ffc9a7146101c957806306fdde03146101f9578063081812fc14610217575b600080fd5b6101e360048036038101906101de9190613c39565b6105d2565b6040516101f09190613c81565b60405180910390f35b6102016106b4565b60405161020e9190613d35565b60405180910390f35b610231600480360381019061022c9190613d8d565b610746565b60405161023e9190613dfb565b60405180910390f35b610261600480360381019061025c9190613e42565b61078c565b005b61027d60048036038101906102789190613e82565b6108a4565b60405161028a9190613d35565b60405180910390f35b61029b610a2e565b6040516102a89190614255565b60405180910390f35b6102cb60048036038101906102c69190614277565b610e33565b005b6102e760048036038101906102e291906143ff565b610e93565b005b6102f1611046565b6040516102fe9190614499565b60405180910390f35b610321600480360381019061031c9190613d8d565b61104c565b005b61032b61139d565b6040516103389190614499565b60405180910390f35b61035b60048036038101906103569190614277565b6113a3565b005b61037760048036038101906103729190613d8d565b6113c3565b6040516103849190613dfb565b60405180910390f35b6103a760048036038101906103a2919061459a565b611475565b005b6103b16116a4565b6040516103c19493929190614641565b60405180910390f35b6103e460048036038101906103df9190613e82565b6119e4565b6040516103f19190614499565b60405180910390f35b610414600480360381019061040f91906143ff565b611a9c565b005b610430600480360381019061042b9190613d8d565b611d23565b60405161043d9190613d35565b60405180910390f35b61044e611dcf565b60405161045b9190613d35565b60405180910390f35b61047e600480360381019061047991906146c7565b611e61565b005b61049a600480360381019061049591906147a8565b611e77565b005b6104b660048036038101906104b19190613d8d565b611ed9565b6040516104cb9998979695949392919061482b565b60405180910390f35b6104ee60048036038101906104e99190613d8d565b6120ef565b6040516104fb9190613d35565b60405180910390f35b61051e600480360381019061051991906148cd565b612202565b005b6105286123cf565b6040516105359190614a0e565b60405180910390f35b61055860048036038101906105539190614a30565b6124a8565b6040516105659190613c81565b60405180910390f35b61058860048036038101906105839190613d8d565b61253c565b6040516105989493929190614641565b60405180910390f35b6105bb60048036038101906105b69190614a70565b612734565b6040516105c9929190614ab9565b60405180910390f35b60007f80ac58cd000000000000000000000000000000000000000000000000000000007bffffffffffffffffffffffffffffffffffffffffffffffffffffffff1916827bffffffffffffffffffffffffffffffffffffffffffffffffffffffff1916148061069d57507f5b5e139f000000000000000000000000000000000000000000000000000000007bffffffffffffffffffffffffffffffffffffffffffffffffffffffff1916827bffffffffffffffffffffffffffffffffffffffffffffffffffffffff1916145b806106ad57506106ac826129b9565b5b9050919050565b6060600080546106c390614b18565b80601f01602080910402602001604051908101604052809291908181526020018280546106ef90614b18565b801561073c5780601f106107115761010080835404028352916020019161073c565b820191906000526020600020905b81548152906001019060200180831161071f57829003601f168201915b5050505050905090565b600061075182612a23565b6004600083815260200190815260200160002060009054906101000a900473ffffffffffffffffffffffffffffffffffffffff169050919050565b6000610797826113c3565b90508073ffffffffffffffffffffffffffffffffffffffff168373ffffffffffffffffffffffffffffffffffffffff161415610808576040517f08c379a00000000000000000000000000000000000000000000000000000000081526004016107ff90614bbc565b60405180910390fd5b8073ffffffffffffffffffffffffffffffffffffffff16610827612a6e565b73ffffffffffffffffffffffffffffffffffffffff161480610856575061085581610850612a6e565b6124a8565b5b610895576040517f08c379a000000000000000000000000000000000000000000000000000000000815260040161088c90614c4e565b60405180910390fd5b61089f8383612a76565b505050565b60606000600f60008473ffffffffffffffffffffffffffffffffffffffff1673ffffffffffffffffffffffffffffffffffffffff1681526020019081526020016000205411610928576040517f08c379a000000000000000000000000000000000000000000000000000000000815260040161091f90614ce0565b60405180910390fd5b60006001600f60008573ffffffffffffffffffffffffffffffffffffffff1673ffffffffffffffffffffffffffffffffffffffff168152602001908152602001600020546109769190614d2f565b9050600b818154811061098c5761098b614d63565b5b906000526020600020906004020160000180546109a890614b18565b80601f01602080910402602001604051908101604052809291908181526020018280546109d490614b18565b8015610a215780601f106109f657610100808354040283529160200191610a21565b820191906000526020600020905b815481529060010190602001808311610a0457829003601f168201915b5050505050915050919050565b6060600c805480602002602001604051908101604052809291908181526020016000905b82821015610e2a57838290600052602060002090600b020160405180610160016040529081600082018054610a8690614b18565b80601f0160208091040260200160405190810160405280929190818152602001828054610ab290614b18565b8015610aff5780601f10610ad457610100808354040283529160200191610aff565b820191906000526020600020905b815481529060010190602001808311610ae257829003601f168201915b5050505050815260200160018201805480602002602001604051908101604052809291908181526020016000905b82821015610bd9578382906000526020600020018054610b4c90614b18565b80601f0160208091040260200160405190810160405280929190818152602001828054610b7890614b18565b8015610bc55780601f10610b9a57610100808354040283529160200191610bc5565b820191906000526020600020905b815481529060010190602001808311610ba857829003601f168201915b505050505081526020019060010190610b2d565b505050508152602001600282018054610bf190614b18565b80601f0160208091040260200160405190810160405280929190818152602001828054610c1d90614b18565b8015610c6a5780601f10610c3f57610100808354040283529160200191610c6a565b820191906000526020600020905b815481529060010190602001808311610c4d57829003601f168201915b50505050508152602001600382018054610c8390614b18565b80601f0160208091040260200160405190810160405280929190818152602001828054610caf90614b18565b8015610cfc5780601f10610cd157610100808354040283529160200191610cfc565b820191906000526020600020905b815481529060010190602001808311610cdf57829003601f168201915b5050505050815260200160048201548152602001600582015481526020016006820154815260200160078201548152602001600882015481526020016009820160009054906101000a900473ffffffffffffffffffffffffffffffffffffffff1673ffffffffffffffffffffffffffffffffffffffff1673ffffffffffffffffffffffffffffffffffffffff168152602001600a8201805480602002602001604051908101604052809291908181526020018280548015610e1257602002820191906000526020600020905b8160009054906101000a900473ffffffffffffffffffffffffffffffffffffffff1673ffffffffffffffffffffffffffffffffffffffff1681526020019060010190808311610dc8575b50505050508152505081526020019060010190610a52565b50505050905090565b610e44610e3e612a6e565b82612b2f565b610e83576040517f08c379a0000000000000000000000000000000000000000000000000000000008152600401610e7a90614e04565b60405180910390fd5b610e8e838383612bc4565b505050565b6000600f60003373ffffffffffffffffffffffffffffffffffffffff1673ffffffffffffffffffffffffffffffffffffffff1681526020019081526020016000205411610f15576040517f08c379a0000000000000000000000000000000000000000000000000000000008152600401610f0c90614ce0565b60405180910390fd5b60006001600f60003373ffffffffffffffffffffffffffffffffffffffff1673ffffffffffffffffffffffffffffffffffffffff16815260200190815260200160002054610f639190614d2f565b905083600b8281548110610f7a57610f79614d63565b5b90600052602060002090600402016000019080519060200190610f9e92919061394f565b506009600183610fae9190614d2f565b81548110610fbf57610fbe614d63565b5b90600052602060002001600b8281548110610fdd57610fdc614d63565b5b9060005260206000209060040201600101908054610ffa90614b18565b6110059291906139d5565b5082600b828154811061101b5761101a614d63565b5b9060005260206000209060040201600201908051906020019061103f92919061394f565b5050505050565b600e5481565b6000600c60018361105d9190614d2f565b8154811061106e5761106d614d63565b5b90600052602060002090600b020160070154116110c0576040517f08c379a00000000000000000000000000000000000000000000000000000000081526004016110b790614e96565b60405180910390fd5b3373ffffffffffffffffffffffffffffffffffffffff16600c6001836110e69190614d2f565b815481106110f7576110f6614d63565b5b90600052602060002090600b020160090160009054906101000a900473ffffffffffffffffffffffffffffffffffffffff1673ffffffffffffffffffffffffffffffffffffffff161461117f576040517f08c379a000000000000000000000000000000000000000000000000000000000815260040161117690614f02565b60405180910390fd5b6000805b600c6001846111929190614d2f565b815481106111a3576111a2614d63565b5b90600052602060002090600b0201600a0180549050811015611278573373ffffffffffffffffffffffffffffffffffffffff16600c6001856111e59190614d2f565b815481106111f6576111f5614d63565b5b90600052602060002090600b0201600a01828154811061121957611218614d63565b5b9060005260206000200160009054906101000a900473ffffffffffffffffffffffffffffffffffffffff1673ffffffffffffffffffffffffffffffffffffffff16141561126557600191505b808061127090614f22565b915050611183565b5060001515811515146112c0576040517f08c379a00000000000000000000000000000000000000000000000000000000081526004016112b790614fdd565b60405180910390fd5b600c6001836112cf9190614d2f565b815481106112e0576112df614d63565b5b90600052602060002090600b0201600601600081548092919061130290614f22565b9190505550600c6001836113169190614d2f565b8154811061132757611326614d63565b5b90600052602060002090600b0201600a01339080600181540180825580915050600190039060005260206000200160009091909190916101000a81548173ffffffffffffffffffffffffffffffffffffffff021916908373ffffffffffffffffffffffffffffffffffffffff1602179055505050565b600d5481565b6113be83838360405180602001604052806000815250611e77565b505050565b6000806002600084815260200190815260200160002060009054906101000a900473ffffffffffffffffffffffffffffffffffffffff169050600073ffffffffffffffffffffffffffffffffffffffff168173ffffffffffffffffffffffffffffffffffffffff16141561146c576040517f08c379a000000000000000000000000000000000000000000000000000000000815260040161146390615049565b60405180910390fd5b80915050919050565b606080600061148386612734565b8092508193505050600060405180610160016040528088815260200187815260200186815260200184815260200142815260200142815260200160008152602001600d5481526020018381526020013373ffffffffffffffffffffffffffffffffffffffff168152602001858152509050600c8190806001815401808255809150506001900390600052602060002090600b0201600090919091909150600082015181600001908051906020019061153c92919061394f565b506020820151816001019080519060200190611559929190613a62565b50604082015181600201908051906020019061157692919061394f565b50606082015181600301908051906020019061159392919061394f565b506080820151816004015560a0820151816005015560c0820151816006015560e0820151816007015561010082015181600801556101208201518160090160006101000a81548173ffffffffffffffffffffffffffffffffffffffff021916908373ffffffffffffffffffffffffffffffffffffffff16021790555061014082015181600a01908051906020019061162c929190613ac2565b5050503360106000600d54815260200190815260200160002060006101000a81548173ffffffffffffffffffffffffffffffffffffffff021916908373ffffffffffffffffffffffffffffffffffffffff160217905550600d600081548092919061169690614f22565b919050555050505050505050565b6060806060600080600f60003373ffffffffffffffffffffffffffffffffffffffff1673ffffffffffffffffffffffffffffffffffffffff168152602001908152602001600020541161172c576040517f08c379a000000000000000000000000000000000000000000000000000000000815260040161172390614ce0565b60405180910390fd5b60006001600f60003373ffffffffffffffffffffffffffffffffffffffff1673ffffffffffffffffffffffffffffffffffffffff1681526020019081526020016000205461177a9190614d2f565b9050600b81815481106117905761178f614d63565b5b9060005260206000209060040201600001600b82815481106117b5576117b4614d63565b5b9060005260206000209060040201600101600b83815481106117da576117d9614d63565b5b9060005260206000209060040201600201600b84815481106117ff576117fe614d63565b5b906000526020600020906004020160030160009054906101000a900473ffffffffffffffffffffffffffffffffffffffff1683805461183d90614b18565b80601f016020809104026020016040519081016040528092919081815260200182805461186990614b18565b80156118b65780601f1061188b576101008083540402835291602001916118b6565b820191906000526020600020905b81548152906001019060200180831161189957829003601f168201915b505050505093508280546118c990614b18565b80601f01602080910402602001604051908101604052809291908181526020018280546118f590614b18565b80156119425780601f1061191757610100808354040283529160200191611942565b820191906000526020600020905b81548152906001019060200180831161192557829003601f168201915b5050505050925081805461195590614b18565b80601f016020809104026020016040519081016040528092919081815260200182805461198190614b18565b80156119ce5780601f106119a3576101008083540402835291602001916119ce565b820191906000526020600020905b8154815290600101906020018083116119b157829003601f168201915b5050505050915094509450945094505090919293565b60008073ffffffffffffffffffffffffffffffffffffffff168273ffffffffffffffffffffffffffffffffffffffff161415611a55576040517f08c379a0000000000000000000000000000000000000000000000000000000008152600401611a4c906150db565b60405180910390fd5b600360008373ffffffffffffffffffffffffffffffffffffffff1673ffffffffffffffffffffffffffffffffffffffff168152602001908152602001600020549050919050565b6000600f60003373ffffffffffffffffffffffffffffffffffffffff1673ffffffffffffffffffffffffffffffffffffffff1681526020019081526020016000205414611b1e576040517f08c379a0000000000000000000000000000000000000000000000000000000008152600401611b1590615147565b60405180910390fd5b600060405180608001604052808581526020018481526020016009600185611b469190614d2f565b81548110611b5757611b56614d63565b5b906000526020600020018054611b6c90614b18565b80601f0160208091040260200160405190810160405280929190818152602001828054611b9890614b18565b8015611be55780601f10611bba57610100808354040283529160200191611be5565b820191906000526020600020905b815481529060010190602001808311611bc857829003601f168201915b505050505081526020013373ffffffffffffffffffffffffffffffffffffffff168152509050600b8190806001815401808255809150506001900390600052602060002090600402016000909190919091506000820151816000019080519060200190611c5392919061394f565b506020820151816001019080519060200190611c7092919061394f565b506040820151816002019080519060200190611c8d92919061394f565b5060608201518160030160006101000a81548173ffffffffffffffffffffffffffffffffffffffff021916908373ffffffffffffffffffffffffffffffffffffffff1602179055505050600e54600f60003373ffffffffffffffffffffffffffffffffffffffff1673ffffffffffffffffffffffffffffffffffffffff1681526020019081526020016000208190555050505050565b60098181548110611d3357600080fd5b906000526020600020016000915090508054611d4e90614b18565b80601f0160208091040260200160405190810160405280929190818152602001828054611d7a90614b18565b8015611dc75780601f10611d9c57610100808354040283529160200191611dc7565b820191906000526020600020905b815481529060010190602001808311611daa57829003601f168201915b505050505081565b606060018054611dde90614b18565b80601f0160208091040260200160405190810160405280929190818152602001828054611e0a90614b18565b8015611e575780601f10611e2c57610100808354040283529160200191611e57565b820191906000526020600020905b815481529060010190602001808311611e3a57829003601f168201915b5050505050905090565b611e73611e6c612a6e565b8383612e2b565b5050565b611e88611e82612a6e565b83612b2f565b611ec7576040517f08c379a0000000000000000000000000000000000000000000000000000000008152600401611ebe90614e04565b60405180910390fd5b611ed384848484612f98565b50505050565b600c8181548110611ee957600080fd5b90600052602060002090600b0201600091509050806000018054611f0c90614b18565b80601f0160208091040260200160405190810160405280929190818152602001828054611f3890614b18565b8015611f855780601f10611f5a57610100808354040283529160200191611f85565b820191906000526020600020905b815481529060010190602001808311611f6857829003601f168201915b505050505090806002018054611f9a90614b18565b80601f0160208091040260200160405190810160405280929190818152602001828054611fc690614b18565b80156120135780601f10611fe857610100808354040283529160200191612013565b820191906000526020600020905b815481529060010190602001808311611ff657829003601f168201915b50505050509080600301805461202890614b18565b80601f016020809104026020016040519081016040528092919081815260200182805461205490614b18565b80156120a15780601f10612076576101008083540402835291602001916120a1565b820191906000526020600020905b81548152906001019060200180831161208457829003601f168201915b5050505050908060040154908060050154908060060154908060070154908060080154908060090160009054906101000a900473ffffffffffffffffffffffffffffffffffffffff16905089565b60606120fa82612a23565b600060066000848152602001908152602001600020805461211a90614b18565b80601f016020809104026020016040519081016040528092919081815260200182805461214690614b18565b80156121935780601f1061216857610100808354040283529160200191612193565b820191906000526020600020905b81548152906001019060200180831161217657829003601f168201915b5050505050905060006121a4612ff4565b90506000815114156121ba5781925050506121fd565b6000825111156121ef5780826040516020016121d79291906151a3565b604051602081830303815290604052925050506121fd565b6121f88461300b565b925050505b919050565b3373ffffffffffffffffffffffffffffffffffffffff16600c6001836122289190614d2f565b8154811061223957612238614d63565b5b90600052602060002090600b020160090160009054906101000a900473ffffffffffffffffffffffffffffffffffffffff1673ffffffffffffffffffffffffffffffffffffffff16146122c1576040517f08c379a00000000000000000000000000000000000000000000000000000000081526004016122b890615239565b60405180910390fd5b83600c6001836122d19190614d2f565b815481106122e2576122e1614d63565b5b90600052602060002090600b0201600001908051906020019061230692919061394f565b5082600c6001836123179190614d2f565b8154811061232857612327614d63565b5b90600052602060002090600b0201600101908051906020019061234c929190613a62565b5081600c60018361235d9190614d2f565b8154811061236e5761236d614d63565b5b90600052602060002090600b0201600201908051906020019061239292919061394f565b5042600c6001836123a39190614d2f565b815481106123b4576123b3614d63565b5b90600052602060002090600b02016005018190555050505050565b60606009805480602002602001604051908101604052809291908181526020016000905b8282101561249f57838290600052602060002001805461241290614b18565b80601f016020809104026020016040519081016040528092919081815260200182805461243e90614b18565b801561248b5780601f106124605761010080835404028352916020019161248b565b820191906000526020600020905b81548152906001019060200180831161246e57829003601f168201915b5050505050815260200190600101906123f3565b50505050905090565b6000600560008473ffffffffffffffffffffffffffffffffffffffff1673ffffffffffffffffffffffffffffffffffffffff16815260200190815260200160002060008373ffffffffffffffffffffffffffffffffffffffff1673ffffffffffffffffffffffffffffffffffffffff16815260200190815260200160002060009054906101000a900460ff16905092915050565b600b818154811061254c57600080fd5b906000526020600020906004020160009150905080600001805461256f90614b18565b80601f016020809104026020016040519081016040528092919081815260200182805461259b90614b18565b80156125e85780601f106125bd576101008083540402835291602001916125e8565b820191906000526020600020905b8154815290600101906020018083116125cb57829003601f168201915b5050505050908060010180546125fd90614b18565b80601f016020809104026020016040519081016040528092919081815260200182805461262990614b18565b80156126765780601f1061264b57610100808354040283529160200191612676565b820191906000526020600020905b81548152906001019060200180831161265957829003601f168201915b50505050509080600201805461268b90614b18565b80601f01602080910402602001604051908101604052809291908181526020018280546126b790614b18565b80156127045780601f106126d957610100808354040283529160200191612704565b820191906000526020600020905b8154815290600101906020018083116126e757829003601f168201915b5050505050908060030160009054906101000a900473ffffffffffffffffffffffffffffffffffffffff16905084565b60606000806127436007613073565b9050600060088560405160200161275b929190615339565b60405160208183030381529060405290506127aa6040518060400160405280601581526020017f0a2d2d2d2d2d205356472064617461202d2d2d2d2d0000000000000000000000815250612920565b6127b381612920565b6127f16040518060400160405280601581526020017f2d2d2d2d2d2d2d2d2d2d2d2d2d2d2d2d2d2d2d2d0a0000000000000000000000815250612920565b60006128258661280084613081565b6040516020016128119291906154e4565b604051602081830303815290604052613081565b905060008160405160200161283a9190615580565b60405160208183030381529060405290506128896040518060400160405280601581526020017f0a2d2d2d2d2d20546f6b656e20555249202d2d2d2d0000000000000000000000815250612920565b61289281612920565b6128d06040518060400160405280601581526020017f2d2d2d2d2d2d2d2d2d2d2d2d2d2d2d2d2d2d2d2d0a0000000000000000000000815250612920565b6128da3385613219565b6128e48482613237565b612907604051806060016040528060258152602001615b916025913985336132ab565b612911600761334a565b80849550955050505050915091565b6129b6816040516024016129349190613d35565b6040516020818303038152906040527f41304fac000000000000000000000000000000000000000000000000000000007bffffffffffffffffffffffffffffffffffffffffffffffffffffffff19166020820180517bffffffffffffffffffffffffffffffffffffffffffffffffffffffff8381831617835250505050613360565b50565b60007f01ffc9a7000000000000000000000000000000000000000000000000000000007bffffffffffffffffffffffffffffffffffffffffffffffffffffffff1916827bffffffffffffffffffffffffffffffffffffffffffffffffffffffff1916149050919050565b612a2c81613389565b612a6b576040517f08c379a0000000000000000000000000000000000000000000000000000000008152600401612a6290615049565b60405180910390fd5b50565b600033905090565b816004600083815260200190815260200160002060006101000a81548173ffffffffffffffffffffffffffffffffffffffff021916908373ffffffffffffffffffffffffffffffffffffffff160217905550808273ffffffffffffffffffffffffffffffffffffffff16612ae9836113c3565b73ffffffffffffffffffffffffffffffffffffffff167f8c5be1e5ebec7d5bd14f71427d1e84f3dd0314c0f7b2291e5b200ac8c7c3b92560405160405180910390a45050565b600080612b3b836113c3565b90508073ffffffffffffffffffffffffffffffffffffffff168473ffffffffffffffffffffffffffffffffffffffff161480612b7d5750612b7c81856124a8565b5b80612bbb57508373ffffffffffffffffffffffffffffffffffffffff16612ba384610746565b73ffffffffffffffffffffffffffffffffffffffff16145b91505092915050565b8273ffffffffffffffffffffffffffffffffffffffff16612be4826113c3565b73ffffffffffffffffffffffffffffffffffffffff1614612c3a576040517f08c379a0000000000000000000000000000000000000000000000000000000008152600401612c3190615614565b60405180910390fd5b600073ffffffffffffffffffffffffffffffffffffffff168273ffffffffffffffffffffffffffffffffffffffff161415612caa576040517f08c379a0000000000000000000000000000000000000000000000000000000008152600401612ca1906156a6565b60405180910390fd5b612cb58383836133f5565b612cc0600082612a76565b6001600360008573ffffffffffffffffffffffffffffffffffffffff1673ffffffffffffffffffffffffffffffffffffffff1681526020019081526020016000206000828254612d109190614d2f565b925050819055506001600360008473ffffffffffffffffffffffffffffffffffffffff1673ffffffffffffffffffffffffffffffffffffffff1681526020019081526020016000206000828254612d6791906156c6565b92505081905550816002600083815260200190815260200160002060006101000a81548173ffffffffffffffffffffffffffffffffffffffff021916908373ffffffffffffffffffffffffffffffffffffffff160217905550808273ffffffffffffffffffffffffffffffffffffffff168473ffffffffffffffffffffffffffffffffffffffff167fddf252ad1be2c89b69c2b068fc378daa952ba7f163c4a11628f55a4df523b3ef60405160405180910390a4612e268383836133fa565b505050565b8173ffffffffffffffffffffffffffffffffffffffff168373ffffffffffffffffffffffffffffffffffffffff161415612e9a576040517f08c379a0000000000000000000000000000000000000000000000000000000008152600401612e9190615768565b60405180910390fd5b80600560008573ffffffffffffffffffffffffffffffffffffffff1673ffffffffffffffffffffffffffffffffffffffff16815260200190815260200160002060008473ffffffffffffffffffffffffffffffffffffffff1673ffffffffffffffffffffffffffffffffffffffff16815260200190815260200160002060006101000a81548160ff0219169083151502179055508173ffffffffffffffffffffffffffffffffffffffff168373ffffffffffffffffffffffffffffffffffffffff167f17307eab39ab6107e8899845ad3d59bd9653f200f220920489ca2b5937696c3183604051612f8b9190613c81565b60405180910390a3505050565b612fa3848484612bc4565b612faf848484846133ff565b612fee576040517f08c379a0000000000000000000000000000000000000000000000000000000008152600401612fe5906157fa565b60405180910390fd5b50505050565b606060405180602001604052806000815250905090565b606061301682612a23565b6000613020612ff4565b90506000815111613040576040518060200160405280600081525061306b565b8061304a84613596565b60405160200161305b9291906151a3565b6040516020818303038152906040525b915050919050565b600081600001549050919050565b606060008251905060008114156130aa5760405180602001604052806000815250915050613214565b600060036002836130bb91906156c6565b6130c59190615849565b60046130d1919061587a565b905060006020826130e291906156c6565b67ffffffffffffffff8111156130fb576130fa6142d4565b5b6040519080825280601f01601f19166020018201604052801561312d5781602001600182028036833780820191505090505b5090506000604051806060016040528060408152602001615bb6604091399050600181016020830160005b868110156131d15760038101905062ffffff818a015116603f8160121c168401518060081b905060ff603f83600c1c1686015116810190508060081b905060ff603f8360061c1686015116810190508060081b905060ff603f831686015116810190508060e01b90508084526004840193505050613158565b5060038606600181146131eb57600281146131fb57613206565b613d3d60f01b6002830352613206565b603d60f81b60018303525b508484525050819450505050505b919050565b6132338282604051806020016040528060008152506136f7565b5050565b61324082613389565b61327f576040517f08c379a000000000000000000000000000000000000000000000000000000000815260040161327690615946565b60405180910390fd5b806006600084815260200190815260200160002090805190602001906132a692919061394f565b505050565b6133458383836040516024016132c393929190615966565b6040516020818303038152906040527f1c7ec448000000000000000000000000000000000000000000000000000000007bffffffffffffffffffffffffffffffffffffffffffffffffffffffff19166020820180517bffffffffffffffffffffffffffffffffffffffffffffffffffffffff8381831617835250505050613360565b505050565b6001816000016000828254019250508190555050565b60008151905060006a636f6e736f6c652e6c6f679050602083016000808483855afa5050505050565b60008073ffffffffffffffffffffffffffffffffffffffff166002600084815260200190815260200160002060009054906101000a900473ffffffffffffffffffffffffffffffffffffffff1673ffffffffffffffffffffffffffffffffffffffff1614159050919050565b505050565b505050565b60006134208473ffffffffffffffffffffffffffffffffffffffff16613752565b15613589578373ffffffffffffffffffffffffffffffffffffffff1663150b7a02613449612a6e565b8786866040518563ffffffff1660e01b815260040161346b94939291906159f9565b602060405180830381600087803b15801561348557600080fd5b505af19250505080156134b657506040513d601f19601f820116820180604052508101906134b39190615a5a565b60015b613539573d80600081146134e6576040519150601f19603f3d011682016040523d82523d6000602084013e6134eb565b606091505b50600081511415613531576040517f08c379a0000000000000000000000000000000000000000000000000000000008152600401613528906157fa565b60405180910390fd5b805181602001fd5b63150b7a0260e01b7bffffffffffffffffffffffffffffffffffffffffffffffffffffffff1916817bffffffffffffffffffffffffffffffffffffffffffffffffffffffff19161491505061358e565b600190505b949350505050565b606060008214156135de576040518060400160405280600181526020017f300000000000000000000000000000000000000000000000000000000000000081525090506136f2565b600082905060005b600082146136105780806135f990614f22565b915050600a826136099190615849565b91506135e6565b60008167ffffffffffffffff81111561362c5761362b6142d4565b5b6040519080825280601f01601f19166020018201604052801561365e5781602001600182028036833780820191505090505b5090505b600085146136eb576001826136779190614d2f565b9150600a856136869190615a87565b603061369291906156c6565b60f81b8183815181106136a8576136a7614d63565b5b60200101907effffffffffffffffffffffffffffffffffffffffffffffffffffffffffffff1916908160001a905350600a856136e49190615849565b9450613662565b8093505050505b919050565b6137018383613775565b61370e60008484846133ff565b61374d576040517f08c379a0000000000000000000000000000000000000000000000000000000008152600401613744906157fa565b60405180910390fd5b505050565b6000808273ffffffffffffffffffffffffffffffffffffffff163b119050919050565b600073ffffffffffffffffffffffffffffffffffffffff168273ffffffffffffffffffffffffffffffffffffffff1614156137e5576040517f08c379a00000000000000000000000000000000000000000000000000000000081526004016137dc90615b04565b60405180910390fd5b6137ee81613389565b1561382e576040517f08c379a000000000000000000000000000000000000000000000000000000000815260040161382590615b70565b60405180910390fd5b61383a600083836133f5565b6001600360008473ffffffffffffffffffffffffffffffffffffffff1673ffffffffffffffffffffffffffffffffffffffff168152602001908152602001600020600082825461388a91906156c6565b92505081905550816002600083815260200190815260200160002060006101000a81548173ffffffffffffffffffffffffffffffffffffffff021916908373ffffffffffffffffffffffffffffffffffffffff160217905550808273ffffffffffffffffffffffffffffffffffffffff16600073ffffffffffffffffffffffffffffffffffffffff167fddf252ad1be2c89b69c2b068fc378daa952ba7f163c4a11628f55a4df523b3ef60405160405180910390a461394b600083836133fa565b5050565b82805461395b90614b18565b90600052602060002090601f01602090048101928261397d57600085556139c4565b82601f1061399657805160ff19168380011785556139c4565b828001600101855582156139c4579182015b828111156139c35782518255916020019190600101906139a8565b5b5090506139d19190613b4c565b5090565b8280546139e190614b18565b90600052602060002090601f016020900481019282613a035760008555613a51565b82601f10613a145780548555613a51565b82800160010185558215613a5157600052602060002091601f016020900482015b82811115613a50578254825591600101919060010190613a35565b5b509050613a5e9190613b4c565b5090565b828054828255906000526020600020908101928215613ab1579160200282015b82811115613ab0578251829080519060200190613aa092919061394f565b5091602001919060010190613a82565b5b509050613abe9190613b69565b5090565b828054828255906000526020600020908101928215613b3b579160200282015b82811115613b3a5782518260006101000a81548173ffffffffffffffffffffffffffffffffffffffff021916908373ffffffffffffffffffffffffffffffffffffffff16021790555091602001919060010190613ae2565b5b509050613b489190613b4c565b5090565b5b80821115613b65576000816000905550600101613b4d565b5090565b5b80821115613b895760008181613b809190613b8d565b50600101613b6a565b5090565b508054613b9990614b18565b6000825580601f10613bab5750613bca565b601f016020900490600052602060002090810190613bc99190613b4c565b5b50565b6000604051905090565b600080fd5b600080fd5b60007fffffffff0000000000000000000000000000000000000000000000000000000082169050919050565b613c1681613be1565b8114613c2157600080fd5b50565b600081359050613c3381613c0d565b92915050565b600060208284031215613c4f57613c4e613bd7565b5b6000613c5d84828501613c24565b91505092915050565b60008115159050919050565b613c7b81613c66565b82525050565b6000602082019050613c966000830184613c72565b92915050565b600081519050919050565b600082825260208201905092915050565b60005b83811015613cd6578082015181840152602081019050613cbb565b83811115613ce5576000848401525b50505050565b6000601f19601f8301169050919050565b6000613d0782613c9c565b613d118185613ca7565b9350613d21818560208601613cb8565b613d2a81613ceb565b840191505092915050565b60006020820190508181036000830152613d4f8184613cfc565b905092915050565b6000819050919050565b613d6a81613d57565b8114613d7557600080fd5b50565b600081359050613d8781613d61565b92915050565b600060208284031215613da357613da2613bd7565b5b6000613db184828501613d78565b91505092915050565b600073ffffffffffffffffffffffffffffffffffffffff82169050919050565b6000613de582613dba565b9050919050565b613df581613dda565b82525050565b6000602082019050613e106000830184613dec565b92915050565b613e1f81613dda565b8114613e2a57600080fd5b50565b600081359050613e3c81613e16565b92915050565b60008060408385031215613e5957613e58613bd7565b5b6000613e6785828601613e2d565b9250506020613e7885828601613d78565b9150509250929050565b600060208284031215613e9857613e97613bd7565b5b6000613ea684828501613e2d565b91505092915050565b600081519050919050565b600082825260208201905092915050565b6000819050602082019050919050565b600082825260208201905092915050565b6000613ef782613c9c565b613f018185613edb565b9350613f11818560208601613cb8565b613f1a81613ceb565b840191505092915050565b600081519050919050565b600082825260208201905092915050565b6000819050602082019050919050565b6000613f5d8383613eec565b905092915050565b6000602082019050919050565b6000613f7d82613f25565b613f878185613f30565b935083602082028501613f9985613f41565b8060005b85811015613fd55784840389528151613fb68582613f51565b9450613fc183613f65565b925060208a01995050600181019050613f9d565b50829750879550505050505092915050565b613ff081613d57565b82525050565b613fff81613dda565b82525050565b600081519050919050565b600082825260208201905092915050565b6000819050602082019050919050565b600061403d8383613ff6565b60208301905092915050565b6000602082019050919050565b600061406182614005565b61406b8185614010565b935061407683614021565b8060005b838110156140a757815161408e8882614031565b975061409983614049565b92505060018101905061407a565b5085935050505092915050565b60006101608301600083015184820360008601526140d28282613eec565b915050602083015184820360208601526140ec8282613f72565b915050604083015184820360408601526141068282613eec565b915050606083015184820360608601526141208282613eec565b91505060808301516141356080860182613fe7565b5060a083015161414860a0860182613fe7565b5060c083015161415b60c0860182613fe7565b5060e083015161416e60e0860182613fe7565b50610100830151614183610100860182613fe7565b50610120830151614198610120860182613ff6565b506101408301518482036101408601526141b28282614056565b9150508091505092915050565b60006141cb83836140b4565b905092915050565b6000602082019050919050565b60006141eb82613eaf565b6141f58185613eba565b93508360208202850161420785613ecb565b8060005b85811015614243578484038952815161422485826141bf565b945061422f836141d3565b925060208a0199505060018101905061420b565b50829750879550505050505092915050565b6000602082019050818103600083015261426f81846141e0565b905092915050565b6000806000606084860312156142905761428f613bd7565b5b600061429e86828701613e2d565b93505060206142af86828701613e2d565b92505060406142c086828701613d78565b9150509250925092565b600080fd5b600080fd5b7f4e487b7100000000000000000000000000000000000000000000000000000000600052604160045260246000fd5b61430c82613ceb565b810181811067ffffffffffffffff8211171561432b5761432a6142d4565b5b80604052505050565b600061433e613bcd565b905061434a8282614303565b919050565b600067ffffffffffffffff82111561436a576143696142d4565b5b61437382613ceb565b9050602081019050919050565b82818337600083830152505050565b60006143a261439d8461434f565b614334565b9050828152602081018484840111156143be576143bd6142cf565b5b6143c9848285614380565b509392505050565b600082601f8301126143e6576143e56142ca565b5b81356143f684826020860161438f565b91505092915050565b60008060006060848603121561441857614417613bd7565b5b600084013567ffffffffffffffff81111561443657614435613bdc565b5b614442868287016143d1565b935050602084013567ffffffffffffffff81111561446357614462613bdc565b5b61446f868287016143d1565b925050604061448086828701613d78565b9150509250925092565b61449381613d57565b82525050565b60006020820190506144ae600083018461448a565b92915050565b600067ffffffffffffffff8211156144cf576144ce6142d4565b5b602082029050602081019050919050565b600080fd5b60006144f86144f3846144b4565b614334565b9050808382526020820190506020840283018581111561451b5761451a6144e0565b5b835b8181101561456257803567ffffffffffffffff8111156145405761453f6142ca565b5b80860161454d89826143d1565b8552602085019450505060208101905061451d565b5050509392505050565b600082601f830112614581576145806142ca565b5b81356145918482602086016144e5565b91505092915050565b6000806000606084860312156145b3576145b2613bd7565b5b600084013567ffffffffffffffff8111156145d1576145d0613bdc565b5b6145dd868287016143d1565b935050602084013567ffffffffffffffff8111156145fe576145fd613bdc565b5b61460a8682870161456c565b925050604084013567ffffffffffffffff81111561462b5761462a613bdc565b5b614637868287016143d1565b9150509250925092565b6000608082019050818103600083015261465b8187613cfc565b9050818103602083015261466f8186613cfc565b905081810360408301526146838185613cfc565b90506146926060830184613dec565b95945050505050565b6146a481613c66565b81146146af57600080fd5b50565b6000813590506146c18161469b565b92915050565b600080604083850312156146de576146dd613bd7565b5b60006146ec85828601613e2d565b92505060206146fd858286016146b2565b9150509250929050565b600067ffffffffffffffff821115614722576147216142d4565b5b61472b82613ceb565b9050602081019050919050565b600061474b61474684614707565b614334565b905082815260208101848484011115614767576147666142cf565b5b614772848285614380565b509392505050565b600082601f83011261478f5761478e6142ca565b5b813561479f848260208601614738565b91505092915050565b600080600080608085870312156147c2576147c1613bd7565b5b60006147d087828801613e2d565b94505060206147e187828801613e2d565b93505060406147f287828801613d78565b925050606085013567ffffffffffffffff81111561481357614812613bdc565b5b61481f8782880161477a565b91505092959194509250565b6000610120820190508181036000830152614846818c613cfc565b9050818103602083015261485a818b613cfc565b9050818103604083015261486e818a613cfc565b905061487d606083018961448a565b61488a608083018861448a565b61489760a083018761448a565b6148a460c083018661448a565b6148b160e083018561448a565b6148bf610100830184613dec565b9a9950505050505050505050565b600080600080608085870312156148e7576148e6613bd7565b5b600085013567ffffffffffffffff81111561490557614904613bdc565b5b614911878288016143d1565b945050602085013567ffffffffffffffff81111561493257614931613bdc565b5b61493e8782880161456c565b935050604085013567ffffffffffffffff81111561495f5761495e613bdc565b5b61496b878288016143d1565b925050606061497c87828801613d78565b91505092959194509250565b600082825260208201905092915050565b60006149a482613f25565b6149ae8185614988565b9350836020820285016149c085613f41565b8060005b858110156149fc57848403895281516149dd8582613f51565b94506149e883613f65565b925060208a019950506001810190506149c4565b50829750879550505050505092915050565b60006020820190508181036000830152614a288184614999565b905092915050565b60008060408385031215614a4757614a46613bd7565b5b6000614a5585828601613e2d565b9250506020614a6685828601613e2d565b9150509250929050565b600060208284031215614a8657614a85613bd7565b5b600082013567ffffffffffffffff811115614aa457614aa3613bdc565b5b614ab0848285016143d1565b91505092915050565b60006040820190508181036000830152614ad38185613cfc565b9050614ae2602083018461448a565b9392505050565b7f4e487b7100000000000000000000000000000000000000000000000000000000600052602260045260246000fd5b60006002820490506001821680614b3057607f821691505b60208210811415614b4457614b43614ae9565b5b50919050565b7f4552433732313a20617070726f76616c20746f2063757272656e74206f776e6560008201527f7200000000000000000000000000000000000000000000000000000000000000602082015250565b6000614ba6602183613ca7565b9150614bb182614b4a565b604082019050919050565b60006020820190508181036000830152614bd581614b99565b9050919050565b7f4552433732313a20617070726f76652063616c6c6572206973206e6f7420746f60008201527f6b656e206f776e6572206e6f7220617070726f76656420666f7220616c6c0000602082015250565b6000614c38603e83613ca7565b9150614c4382614bdc565b604082019050919050565b60006020820190508181036000830152614c6781614c2b565b9050919050565b7f596f752068617665206e6f74207965742072656769737465726564206120707260008201527f6f66696c652e0000000000000000000000000000000000000000000000000000602082015250565b6000614cca602683613ca7565b9150614cd582614c6e565b604082019050919050565b60006020820190508181036000830152614cf981614cbd565b9050919050565b7f4e487b7100000000000000000000000000000000000000000000000000000000600052601160045260246000fd5b6000614d3a82613d57565b9150614d4583613d57565b925082821015614d5857614d57614d00565b5b828203905092915050565b7f4e487b7100000000000000000000000000000000000000000000000000000000600052603260045260246000fd5b7f4552433732313a2063616c6c6572206973206e6f7420746f6b656e206f776e6560008201527f72206e6f7220617070726f766564000000000000000000000000000000000000602082015250565b6000614dee602e83613ca7565b9150614df982614d92565b604082019050919050565b60006020820190508181036000830152614e1d81614de1565b9050919050565b7f4e6f2073746f726965732077697468207468652073706563696669656420746960008201527f746c652061726520726567697374657265642e00000000000000000000000000602082015250565b6000614e80603383613ca7565b9150614e8b82614e24565b604082019050919050565b60006020820190508181036000830152614eaf81614e73565b9050919050565b7f53746f727920617574686f72732063616e6e6f74206265206c696b65642e0000600082015250565b6000614eec601e83613ca7565b9150614ef782614eb6565b602082019050919050565b60006020820190508181036000830152614f1b81614edf565b9050919050565b6000614f2d82613d57565b91507fffffffffffffffffffffffffffffffffffffffffffffffffffffffffffffffff821415614f6057614f5f614d00565b5b600182019050919050565b7f596f7520617265206c696b696e6720746869732073746f7279206f6e2074686560008201527f206e6573742e0000000000000000000000000000000000000000000000000000602082015250565b6000614fc7602683613ca7565b9150614fd282614f6b565b604082019050919050565b60006020820190508181036000830152614ff681614fba565b9050919050565b7f4552433732313a20696e76616c696420746f6b656e2049440000000000000000600082015250565b6000615033601883613ca7565b915061503e82614ffd565b602082019050919050565b6000602082019050818103600083015261506281615026565b9050919050565b7f4552433732313a2061646472657373207a65726f206973206e6f74206120766160008201527f6c6964206f776e65720000000000000000000000000000000000000000000000602082015250565b60006150c5602983613ca7565b91506150d082615069565b604082019050919050565b600060208201905081810360008301526150f4816150b8565b9050919050565b7f416e206163636f756e7420616c7265616479206578697374732e000000000000600082015250565b6000615131601a83613ca7565b915061513c826150fb565b602082019050919050565b6000602082019050818103600083015261516081615124565b9050919050565b600081905092915050565b600061517d82613c9c565b6151878185615167565b9350615197818560208601613cb8565b80840191505092915050565b60006151af8285615172565b91506151bb8284615172565b91508190509392505050565b7f4f6e6c792074686520617574686f722063616e2065646974207468652073746f60008201527f72792e0000000000000000000000000000000000000000000000000000000000602082015250565b6000615223602383613ca7565b915061522e826151c7565b604082019050919050565b6000602082019050818103600083015261525281615216565b9050919050565b60008190508160005260206000209050919050565b6000815461527b81614b18565b6152858186615167565b945060018216600081146152a057600181146152b1576152e4565b60ff198316865281860193506152e4565b6152ba85615259565b60005b838110156152dc578154818901526001820191506020810190506152bd565b838801955050505b50505092915050565b7f3c2f746578743e3c2f7376673e00000000000000000000000000000000000000600082015250565b6000615323600d83615167565b915061532e826152ed565b600d82019050919050565b6000615345828561526e565b91506153518284615172565b915061535c82615316565b91508190509392505050565b7f7b226e616d65223a202200000000000000000000000000000000000000000000600082015250565b600061539e600a83615167565b91506153a982615368565b600a82019050919050565b7f222c20226465736372697074696f6e223a20224d79205265636f76657279205360008201527f746f7279222c2000000000000000000000000000000000000000000000000000602082015250565b6000615410602783615167565b915061541b826153b4565b602782019050919050565b7f22696d616765223a2022646174613a696d6167652f7376672b786d6c3b62617360008201527f6536342c00000000000000000000000000000000000000000000000000000000602082015250565b6000615482602483615167565b915061548d82615426565b602482019050919050565b7f227d000000000000000000000000000000000000000000000000000000000000600082015250565b60006154ce600283615167565b91506154d982615498565b600282019050919050565b60006154ef82615391565b91506154fb8285615172565b915061550682615403565b915061551182615475565b915061551d8284615172565b9150615528826154c1565b91508190509392505050565b7f646174613a6170706c69636174696f6e2f6a736f6e3b6261736536342c000000600082015250565b600061556a601d83615167565b915061557582615534565b601d82019050919050565b600061558b8261555d565b91506155978284615172565b915081905092915050565b7f4552433732313a207472616e736665722066726f6d20696e636f72726563742060008201527f6f776e6572000000000000000000000000000000000000000000000000000000602082015250565b60006155fe602583613ca7565b9150615609826155a2565b604082019050919050565b6000602082019050818103600083015261562d816155f1565b9050919050565b7f4552433732313a207472616e7366657220746f20746865207a65726f2061646460008201527f7265737300000000000000000000000000000000000000000000000000000000602082015250565b6000615690602483613ca7565b915061569b82615634565b604082019050919050565b600060208201905081810360008301526156bf81615683565b9050919050565b60006156d182613d57565b91506156dc83613d57565b9250827fffffffffffffffffffffffffffffffffffffffffffffffffffffffffffffffff0382111561571157615710614d00565b5b828201905092915050565b7f4552433732313a20617070726f766520746f2063616c6c657200000000000000600082015250565b6000615752601983613ca7565b915061575d8261571c565b602082019050919050565b6000602082019050818103600083015261578181615745565b9050919050565b7f4552433732313a207472616e7366657220746f206e6f6e20455243373231526560008201527f63656976657220696d706c656d656e7465720000000000000000000000000000602082015250565b60006157e4603283613ca7565b91506157ef82615788565b604082019050919050565b60006020820190508181036000830152615813816157d7565b9050919050565b7f4e487b7100000000000000000000000000000000000000000000000000000000600052601260045260246000fd5b600061585482613d57565b915061585f83613d57565b92508261586f5761586e61581a565b5b828204905092915050565b600061588582613d57565b915061589083613d57565b9250817fffffffffffffffffffffffffffffffffffffffffffffffffffffffffffffffff04831182151516156158c9576158c8614d00565b5b828202905092915050565b7f45524337323155524953746f726167653a2055524920736574206f66206e6f6e60008201527f6578697374656e7420746f6b656e000000000000000000000000000000000000602082015250565b6000615930602e83613ca7565b915061593b826158d4565b604082019050919050565b6000602082019050818103600083015261595f81615923565b9050919050565b600060608201905081810360008301526159808186613cfc565b905061598f602083018561448a565b61599c6040830184613dec565b949350505050565b600081519050919050565b600082825260208201905092915050565b60006159cb826159a4565b6159d581856159af565b93506159e5818560208601613cb8565b6159ee81613ceb565b840191505092915050565b6000608082019050615a0e6000830187613dec565b615a1b6020830186613dec565b615a28604083018561448a565b8181036060830152615a3a81846159c0565b905095945050505050565b600081519050615a5481613c0d565b92915050565b600060208284031215615a7057615a6f613bd7565b5b6000615a7e84828501615a45565b91505092915050565b6000615a9282613d57565b9150615a9d83613d57565b925082615aad57615aac61581a565b5b828206905092915050565b7f4552433732313a206d696e7420746f20746865207a65726f2061646472657373600082015250565b6000615aee602083613ca7565b9150615af982615ab8565b602082019050919050565b60006020820190508181036000830152615b1d81615ae1565b9050919050565b7f4552433732313a20746f6b656e20616c7265616479206d696e74656400000000600082015250565b6000615b5a601c83613ca7565b9150615b6582615b24565b602082019050919050565b60006020820190508181036000830152615b8981615b4d565b905091905056fe416e204e465420772f20494420257320686173206265656e206d696e74656420746f2025734142434445464748494a4b4c4d4e4f505152535455565758595a6162636465666768696a6b6c6d6e6f707172737475767778797a303132333435363738392b2fa26469706673582212207aebf083eaf224b6bd7cf039f44398327182bf0e5837e32422806c06fe5ad36c64736f6c63430008090033516d624648565048315663556a696a75394b416638636b6e6b417958584445656865323368646148633869353441516d583564546d4d4e59534a33375a6a6d67544c327779636e75715065483143575362723376464c38374d34374354686973206973206d79205265636f766572792053746f727920636f6e74726163742e516d616a43454a674474477150416753414c624e37347a714a63434e37547270417867757442733446775a6e6f5a516d5a317036333463784c7142745539384559594e69735642567959467368766b435163505353746a59626242533c73766720786d6c6e733d27687474703a2f2f7777772e77332e6f72672f323030302f73766727207072657365727665417370656374526174696f3d27784d696e594d696e206d656574272076696577426f783d273020302033353020333530273e3c7374796c653e2e62617365207b2066696c6c3a20233032423242343b20666f6e742d66616d696c793a20274869726167696e6f204d61727520476f746869632050726f273b20666f6e742d73697a653a20323470783b207d3c2f7374796c653e3c726563742077696474683d273130302527206865696768743d2731303025272066696c6c3d272345394534444627202f3e3c7465787420783d273530252720793d273530252720636c6173734e616d653d27626173652720646f6d696e616e742d626173656c696e653d276d6964646c652720746578742d616e63686f723d276d6964646c65273e516d50463854677439526f31516b416d6d356f65543479736a636548664c5054416a784b67536f4e593251385878",
  "linkReferences": {},
  "deployedLinkReferences": {}
}