{
  "_format": "hh-sol-artifact-1",
  "contractName": "StoryNFT",
  "sourceName": "contracts/StoryNFT.sol",
  "abi": [
    {
      "inputs": [],
      "stateMutability": "nonpayable",
      "type": "constructor"
    },
    {
      "anonymous": false,
      "inputs": [
        {
          "indexed": true,
          "internalType": "address",
          "name": "owner",
          "type": "address"
        },
        {
          "indexed": true,
          "internalType": "address",
          "name": "approved",
          "type": "address"
        },
        {
          "indexed": true,
          "internalType": "uint256",
          "name": "tokenId",
          "type": "uint256"
        }
      ],
      "name": "Approval",
      "type": "event"
    },
    {
      "anonymous": false,
      "inputs": [
        {
          "indexed": true,
          "internalType": "address",
          "name": "owner",
          "type": "address"
        },
        {
          "indexed": true,
          "internalType": "address",
          "name": "operator",
          "type": "address"
        },
        {
          "indexed": false,
          "internalType": "bool",
          "name": "approved",
          "type": "bool"
        }
      ],
      "name": "ApprovalForAll",
      "type": "event"
    },
    {
      "anonymous": false,
      "inputs": [
        {
          "indexed": true,
          "internalType": "address",
          "name": "from",
          "type": "address"
        },
        {
          "indexed": true,
          "internalType": "address",
          "name": "to",
          "type": "address"
        },
        {
          "indexed": true,
          "internalType": "uint256",
          "name": "tokenId",
          "type": "uint256"
        }
      ],
      "name": "Transfer",
      "type": "event"
    },
    {
      "inputs": [
        {
          "internalType": "address",
          "name": "to",
          "type": "address"
        },
        {
          "internalType": "uint256",
          "name": "tokenId",
          "type": "uint256"
        }
      ],
      "name": "approve",
      "outputs": [],
      "stateMutability": "nonpayable",
      "type": "function"
    },
    {
      "inputs": [
        {
          "internalType": "address",
          "name": "owner",
          "type": "address"
        }
      ],
      "name": "balanceOf",
      "outputs": [
        {
          "internalType": "uint256",
          "name": "",
          "type": "uint256"
        }
      ],
      "stateMutability": "view",
      "type": "function"
    },
    {
      "inputs": [
        {
          "internalType": "uint256",
          "name": "_tokenId",
          "type": "uint256"
        }
      ],
      "name": "burn",
      "outputs": [],
      "stateMutability": "nonpayable",
      "type": "function"
    },
    {
      "inputs": [
        {
          "internalType": "uint256",
          "name": "tokenId",
          "type": "uint256"
        }
      ],
      "name": "getApproved",
      "outputs": [
        {
          "internalType": "address",
          "name": "",
          "type": "address"
        }
      ],
      "stateMutability": "view",
      "type": "function"
    },
    {
      "inputs": [
        {
          "internalType": "address",
          "name": "owner",
          "type": "address"
        },
        {
          "internalType": "address",
          "name": "operator",
          "type": "address"
        }
      ],
      "name": "isApprovedForAll",
      "outputs": [
        {
          "internalType": "bool",
          "name": "",
          "type": "bool"
        }
      ],
      "stateMutability": "view",
      "type": "function"
    },
    {
      "inputs": [
        {
          "internalType": "string",
          "name": "_title",
          "type": "string"
        }
      ],
      "name": "mintNFT",
      "outputs": [
        {
          "internalType": "string",
          "name": "",
          "type": "string"
        },
        {
          "internalType": "uint256",
          "name": "",
          "type": "uint256"
        }
      ],
      "stateMutability": "nonpayable",
      "type": "function"
    },
    {
      "inputs": [],
      "name": "name",
      "outputs": [
        {
          "internalType": "string",
          "name": "",
          "type": "string"
        }
      ],
      "stateMutability": "view",
      "type": "function"
    },
    {
      "inputs": [
        {
          "internalType": "uint256",
          "name": "tokenId",
          "type": "uint256"
        }
      ],
      "name": "ownerOf",
      "outputs": [
        {
          "internalType": "address",
          "name": "",
          "type": "address"
        }
      ],
      "stateMutability": "view",
      "type": "function"
    },
    {
      "inputs": [
        {
          "internalType": "address",
          "name": "from",
          "type": "address"
        },
        {
          "internalType": "address",
          "name": "to",
          "type": "address"
        },
        {
          "internalType": "uint256",
          "name": "tokenId",
          "type": "uint256"
        }
      ],
      "name": "safeTransferFrom",
      "outputs": [],
      "stateMutability": "nonpayable",
      "type": "function"
    },
    {
      "inputs": [
        {
          "internalType": "address",
          "name": "from",
          "type": "address"
        },
        {
          "internalType": "address",
          "name": "to",
          "type": "address"
        },
        {
          "internalType": "uint256",
          "name": "tokenId",
          "type": "uint256"
        },
        {
          "internalType": "bytes",
          "name": "data",
          "type": "bytes"
        }
      ],
      "name": "safeTransferFrom",
      "outputs": [],
      "stateMutability": "nonpayable",
      "type": "function"
    },
    {
      "inputs": [
        {
          "internalType": "address",
          "name": "operator",
          "type": "address"
        },
        {
          "internalType": "bool",
          "name": "approved",
          "type": "bool"
        }
      ],
      "name": "setApprovalForAll",
      "outputs": [],
      "stateMutability": "nonpayable",
      "type": "function"
    },
    {
      "inputs": [
        {
          "internalType": "bytes4",
          "name": "interfaceId",
          "type": "bytes4"
        }
      ],
      "name": "supportsInterface",
      "outputs": [
        {
          "internalType": "bool",
          "name": "",
          "type": "bool"
        }
      ],
      "stateMutability": "view",
      "type": "function"
    },
    {
      "inputs": [],
      "name": "symbol",
      "outputs": [
        {
          "internalType": "string",
          "name": "",
          "type": "string"
        }
      ],
      "stateMutability": "view",
      "type": "function"
    },
    {
      "inputs": [
        {
          "internalType": "uint256",
          "name": "tokenId",
          "type": "uint256"
        }
      ],
      "name": "tokenURI",
      "outputs": [
        {
          "internalType": "string",
          "name": "",
          "type": "string"
        }
      ],
      "stateMutability": "view",
      "type": "function"
    },
    {
      "inputs": [
        {
          "internalType": "address",
          "name": "from",
          "type": "address"
        },
        {
          "internalType": "address",
          "name": "to",
          "type": "address"
        },
        {
          "internalType": "uint256",
          "name": "tokenId",
          "type": "uint256"
        }
      ],
      "name": "transferFrom",
      "outputs": [],
      "stateMutability": "nonpayable",
      "type": "function"
    }
  ],
  "bytecode": "0x608060405260405180610180016040528061014c81526020016200374f61014c91396008908051906020019062000038929190620001e8565b503480156200004657600080fd5b506040518060400160405280601081526020017f5265636f7665727953746f72794e4654000000000000000000000000000000008152506040518060400160405280600381526020017f52534e00000000000000000000000000000000000000000000000000000000008152508160009080519060200190620000cb929190620001e8565b508060019080519060200190620000e4929190620001e8565b505050620001166040518060600160405280602381526020016200372c602391396200011c60201b62000d1a1760201c565b620003c5565b620001bc816040516024016200013391906200033c565b6040516020818303038152906040527f41304fac000000000000000000000000000000000000000000000000000000007bffffffffffffffffffffffffffffffffffffffffffffffffffffffff19166020820180517bffffffffffffffffffffffffffffffffffffffffffffffffffffffff8381831617835250505050620001bf60201b60201c565b50565b60008151905060006a636f6e736f6c652e6c6f679050602083016000808483855afa5050505050565b828054620001f6906200038f565b90600052602060002090601f0160209004810192826200021a576000855562000266565b82601f106200023557805160ff191683800117855562000266565b8280016001018555821562000266579182015b828111156200026557825182559160200191906001019062000248565b5b50905062000275919062000279565b5090565b5b80821115620002945760008160009055506001016200027a565b5090565b600081519050919050565b600082825260208201905092915050565b60005b83811015620002d4578082015181840152602081019050620002b7565b83811115620002e4576000848401525b50505050565b6000601f19601f8301169050919050565b6000620003088262000298565b620003148185620002a3565b935062000326818560208601620002b4565b6200033181620002ea565b840191505092915050565b60006020820190508181036000830152620003588184620002fb565b905092915050565b7f4e487b7100000000000000000000000000000000000000000000000000000000600052602260045260246000fd5b60006002820490506001821680620003a857607f821691505b60208210811415620003bf57620003be62000360565b5b50919050565b61335780620003d56000396000f3fe608060405234801561001057600080fd5b50600436106100f55760003560e01c80636352211e11610097578063b88d4fde11610066578063b88d4fde14610282578063c87b56dd1461029e578063e985e9c5146102ce578063fb37e883146102fe576100f5565b80636352211e146101e857806370a082311461021857806395d89b4114610248578063a22cb46514610266576100f5565b8063095ea7b3116100d3578063095ea7b31461017857806323b872dd1461019457806342842e0e146101b057806342966c68146101cc576100f5565b806301ffc9a7146100fa57806306fdde031461012a578063081812fc14610148575b600080fd5b610114600480360381019061010f9190611e58565b61032f565b6040516101219190611ea0565b60405180910390f35b610132610411565b60405161013f9190611f54565b60405180910390f35b610162600480360381019061015d9190611fac565b6104a3565b60405161016f919061201a565b60405180910390f35b610192600480360381019061018d9190612061565b6104e9565b005b6101ae60048036038101906101a991906120a1565b610601565b005b6101ca60048036038101906101c591906120a1565b610661565b005b6101e660048036038101906101e19190611fac565b610681565b005b61020260048036038101906101fd9190611fac565b61070d565b60405161020f919061201a565b60405180910390f35b610232600480360381019061022d91906120f4565b6107bf565b60405161023f9190612130565b60405180910390f35b610250610877565b60405161025d9190611f54565b60405180910390f35b610280600480360381019061027b9190612177565b610909565b005b61029c600480360381019061029791906122ec565b61091f565b005b6102b860048036038101906102b39190611fac565b610981565b6040516102c59190611f54565b60405180910390f35b6102e860048036038101906102e3919061236f565b610a94565b6040516102f59190611ea0565b60405180910390f35b61031860048036038101906103139190612450565b610b28565b604051610326929190612499565b60405180910390f35b60007f80ac58cd000000000000000000000000000000000000000000000000000000007bffffffffffffffffffffffffffffffffffffffffffffffffffffffff1916827bffffffffffffffffffffffffffffffffffffffffffffffffffffffff191614806103fa57507f5b5e139f000000000000000000000000000000000000000000000000000000007bffffffffffffffffffffffffffffffffffffffffffffffffffffffff1916827bffffffffffffffffffffffffffffffffffffffffffffffffffffffff1916145b8061040a575061040982610db3565b5b9050919050565b606060008054610420906124f8565b80601f016020809104026020016040519081016040528092919081815260200182805461044c906124f8565b80156104995780601f1061046e57610100808354040283529160200191610499565b820191906000526020600020905b81548152906001019060200180831161047c57829003601f168201915b5050505050905090565b60006104ae82610e1d565b6004600083815260200190815260200160002060009054906101000a900473ffffffffffffffffffffffffffffffffffffffff169050919050565b60006104f48261070d565b90508073ffffffffffffffffffffffffffffffffffffffff168373ffffffffffffffffffffffffffffffffffffffff161415610565576040517f08c379a000000000000000000000000000000000000000000000000000000000815260040161055c9061259c565b60405180910390fd5b8073ffffffffffffffffffffffffffffffffffffffff16610584610e68565b73ffffffffffffffffffffffffffffffffffffffff1614806105b357506105b2816105ad610e68565b610a94565b5b6105f2576040517f08c379a00000000000000000000000000000000000000000000000000000000081526004016105e99061262e565b60405180910390fd5b6105fc8383610e70565b505050565b61061261060c610e68565b82610f29565b610651576040517f08c379a0000000000000000000000000000000000000000000000000000000008152600401610648906126c0565b60405180910390fd5b61065c838383610fbe565b505050565b61067c8383836040518060200160405280600081525061091f565b505050565b3373ffffffffffffffffffffffffffffffffffffffff166106a18261070d565b73ffffffffffffffffffffffffffffffffffffffff16146106f7576040517f08c379a00000000000000000000000000000000000000000000000000000000081526004016106ee9061272c565b60405180910390fd5b600061dead9050610709338284610fbe565b5050565b6000806002600084815260200190815260200160002060009054906101000a900473ffffffffffffffffffffffffffffffffffffffff169050600073ffffffffffffffffffffffffffffffffffffffff168173ffffffffffffffffffffffffffffffffffffffff1614156107b6576040517f08c379a00000000000000000000000000000000000000000000000000000000081526004016107ad90612798565b60405180910390fd5b80915050919050565b60008073ffffffffffffffffffffffffffffffffffffffff168273ffffffffffffffffffffffffffffffffffffffff161415610830576040517f08c379a00000000000000000000000000000000000000000000000000000000081526004016108279061282a565b60405180910390fd5b600360008373ffffffffffffffffffffffffffffffffffffffff1673ffffffffffffffffffffffffffffffffffffffff168152602001908152602001600020549050919050565b606060018054610886906124f8565b80601f01602080910402602001604051908101604052809291908181526020018280546108b2906124f8565b80156108ff5780601f106108d4576101008083540402835291602001916108ff565b820191906000526020600020905b8154815290600101906020018083116108e257829003601f168201915b5050505050905090565b61091b610914610e68565b8383611225565b5050565b61093061092a610e68565b83610f29565b61096f576040517f08c379a0000000000000000000000000000000000000000000000000000000008152600401610966906126c0565b60405180910390fd5b61097b84848484611392565b50505050565b606061098c82610e1d565b60006006600084815260200190815260200160002080546109ac906124f8565b80601f01602080910402602001604051908101604052809291908181526020018280546109d8906124f8565b8015610a255780601f106109fa57610100808354040283529160200191610a25565b820191906000526020600020905b815481529060010190602001808311610a0857829003601f168201915b505050505090506000610a366113ee565b9050600081511415610a4c578192505050610a8f565b600082511115610a81578082604051602001610a69929190612886565b60405160208183030381529060405292505050610a8f565b610a8a84611405565b925050505b919050565b6000600560008473ffffffffffffffffffffffffffffffffffffffff1673ffffffffffffffffffffffffffffffffffffffff16815260200190815260200160002060008373ffffffffffffffffffffffffffffffffffffffff1673ffffffffffffffffffffffffffffffffffffffff16815260200190815260200160002060009054906101000a900460ff16905092915050565b6060600080610b37600761146d565b905060008490506000600882604051602001610b5492919061298a565b6040516020818303038152906040529050610ba36040518060400160405280601581526020017f0a2d2d2d2d2d205356472064617461202d2d2d2d2d0000000000000000000000815250610d1a565b610bac81610d1a565b610bea6040518060400160405280601581526020017f2d2d2d2d2d2d2d2d2d2d2d2d2d2d2d2d2d2d2d2d0a0000000000000000000000815250610d1a565b6000610c1e83610bf98461147b565b604051602001610c0a929190612b35565b60405160208183030381529060405261147b565b9050600081604051602001610c339190612bd1565b6040516020818303038152906040529050610c826040518060400160405280601581526020017f0a2d2d2d2d2d20546f6b656e20555249202d2d2d2d0000000000000000000000815250610d1a565b610c8b81610d1a565b610cc96040518060400160405280601581526020017f2d2d2d2d2d2d2d2d2d2d2d2d2d2d2d2d2d2d2d2d0a0000000000000000000000815250610d1a565b610cd33386611613565b610cdd8582611631565b610d006040518060600160405280602581526020016132bd6025913986336116a5565b610d0a6007611744565b8085965096505050505050915091565b610db081604051602401610d2e9190611f54565b6040516020818303038152906040527f41304fac000000000000000000000000000000000000000000000000000000007bffffffffffffffffffffffffffffffffffffffffffffffffffffffff19166020820180517bffffffffffffffffffffffffffffffffffffffffffffffffffffffff838183161783525050505061175a565b50565b60007f01ffc9a7000000000000000000000000000000000000000000000000000000007bffffffffffffffffffffffffffffffffffffffffffffffffffffffff1916827bffffffffffffffffffffffffffffffffffffffffffffffffffffffff1916149050919050565b610e2681611783565b610e65576040517f08c379a0000000000000000000000000000000000000000000000000000000008152600401610e5c90612798565b60405180910390fd5b50565b600033905090565b816004600083815260200190815260200160002060006101000a81548173ffffffffffffffffffffffffffffffffffffffff021916908373ffffffffffffffffffffffffffffffffffffffff160217905550808273ffffffffffffffffffffffffffffffffffffffff16610ee38361070d565b73ffffffffffffffffffffffffffffffffffffffff167f8c5be1e5ebec7d5bd14f71427d1e84f3dd0314c0f7b2291e5b200ac8c7c3b92560405160405180910390a45050565b600080610f358361070d565b90508073ffffffffffffffffffffffffffffffffffffffff168473ffffffffffffffffffffffffffffffffffffffff161480610f775750610f768185610a94565b5b80610fb557508373ffffffffffffffffffffffffffffffffffffffff16610f9d846104a3565b73ffffffffffffffffffffffffffffffffffffffff16145b91505092915050565b8273ffffffffffffffffffffffffffffffffffffffff16610fde8261070d565b73ffffffffffffffffffffffffffffffffffffffff1614611034576040517f08c379a000000000000000000000000000000000000000000000000000000000815260040161102b90612c65565b60405180910390fd5b600073ffffffffffffffffffffffffffffffffffffffff168273ffffffffffffffffffffffffffffffffffffffff1614156110a4576040517f08c379a000000000000000000000000000000000000000000000000000000000815260040161109b90612cf7565b60405180910390fd5b6110af8383836117ef565b6110ba600082610e70565b6001600360008573ffffffffffffffffffffffffffffffffffffffff1673ffffffffffffffffffffffffffffffffffffffff168152602001908152602001600020600082825461110a9190612d46565b925050819055506001600360008473ffffffffffffffffffffffffffffffffffffffff1673ffffffffffffffffffffffffffffffffffffffff16815260200190815260200160002060008282546111619190612d7a565b92505081905550816002600083815260200190815260200160002060006101000a81548173ffffffffffffffffffffffffffffffffffffffff021916908373ffffffffffffffffffffffffffffffffffffffff160217905550808273ffffffffffffffffffffffffffffffffffffffff168473ffffffffffffffffffffffffffffffffffffffff167fddf252ad1be2c89b69c2b068fc378daa952ba7f163c4a11628f55a4df523b3ef60405160405180910390a46112208383836117f4565b505050565b8173ffffffffffffffffffffffffffffffffffffffff168373ffffffffffffffffffffffffffffffffffffffff161415611294576040517f08c379a000000000000000000000000000000000000000000000000000000000815260040161128b90612e1c565b60405180910390fd5b80600560008573ffffffffffffffffffffffffffffffffffffffff1673ffffffffffffffffffffffffffffffffffffffff16815260200190815260200160002060008473ffffffffffffffffffffffffffffffffffffffff1673ffffffffffffffffffffffffffffffffffffffff16815260200190815260200160002060006101000a81548160ff0219169083151502179055508173ffffffffffffffffffffffffffffffffffffffff168373ffffffffffffffffffffffffffffffffffffffff167f17307eab39ab6107e8899845ad3d59bd9653f200f220920489ca2b5937696c31836040516113859190611ea0565b60405180910390a3505050565b61139d848484610fbe565b6113a9848484846117f9565b6113e8576040517f08c379a00000000000000000000000000000000000000000000000000000000081526004016113df90612eae565b60405180910390fd5b50505050565b606060405180602001604052806000815250905090565b606061141082610e1d565b600061141a6113ee565b9050600081511161143a5760405180602001604052806000815250611465565b8061144484611990565b604051602001611455929190612886565b6040516020818303038152906040525b915050919050565b600081600001549050919050565b606060008251905060008114156114a4576040518060200160405280600081525091505061160e565b600060036002836114b59190612d7a565b6114bf9190612efd565b60046114cb9190612f2e565b905060006020826114dc9190612d7a565b67ffffffffffffffff8111156114f5576114f46121c1565b5b6040519080825280601f01601f1916602001820160405280156115275781602001600182028036833780820191505090505b50905060006040518060600160405280604081526020016132e2604091399050600181016020830160005b868110156115cb5760038101905062ffffff818a015116603f8160121c168401518060081b905060ff603f83600c1c1686015116810190508060081b905060ff603f8360061c1686015116810190508060081b905060ff603f831686015116810190508060e01b90508084526004840193505050611552565b5060038606600181146115e557600281146115f557611600565b613d3d60f01b6002830352611600565b603d60f81b60018303525b508484525050819450505050505b919050565b61162d828260405180602001604052806000815250611af1565b5050565b61163a82611783565b611679576040517f08c379a000000000000000000000000000000000000000000000000000000000815260040161167090612ffa565b60405180910390fd5b806006600084815260200190815260200160002090805190602001906116a0929190611d49565b505050565b61173f8383836040516024016116bd9392919061301a565b6040516020818303038152906040527f1c7ec448000000000000000000000000000000000000000000000000000000007bffffffffffffffffffffffffffffffffffffffffffffffffffffffff19166020820180517bffffffffffffffffffffffffffffffffffffffffffffffffffffffff838183161783525050505061175a565b505050565b6001816000016000828254019250508190555050565b60008151905060006a636f6e736f6c652e6c6f679050602083016000808483855afa5050505050565b60008073ffffffffffffffffffffffffffffffffffffffff166002600084815260200190815260200160002060009054906101000a900473ffffffffffffffffffffffffffffffffffffffff1673ffffffffffffffffffffffffffffffffffffffff1614159050919050565b505050565b505050565b600061181a8473ffffffffffffffffffffffffffffffffffffffff16611b4c565b15611983578373ffffffffffffffffffffffffffffffffffffffff1663150b7a02611843610e68565b8786866040518563ffffffff1660e01b815260040161186594939291906130ad565b602060405180830381600087803b15801561187f57600080fd5b505af19250505080156118b057506040513d601f19601f820116820180604052508101906118ad919061310e565b60015b611933573d80600081146118e0576040519150601f19603f3d011682016040523d82523d6000602084013e6118e5565b606091505b5060008151141561192b576040517f08c379a000000000000000000000000000000000000000000000000000000000815260040161192290612eae565b60405180910390fd5b805181602001fd5b63150b7a0260e01b7bffffffffffffffffffffffffffffffffffffffffffffffffffffffff1916817bffffffffffffffffffffffffffffffffffffffffffffffffffffffff191614915050611988565b600190505b949350505050565b606060008214156119d8576040518060400160405280600181526020017f30000000000000000000000000000000000000000000000000000000000000008152509050611aec565b600082905060005b60008214611a0a5780806119f39061313b565b915050600a82611a039190612efd565b91506119e0565b60008167ffffffffffffffff811115611a2657611a256121c1565b5b6040519080825280601f01601f191660200182016040528015611a585781602001600182028036833780820191505090505b5090505b60008514611ae557600182611a719190612d46565b9150600a85611a809190613184565b6030611a8c9190612d7a565b60f81b818381518110611aa257611aa16131b5565b5b60200101907effffffffffffffffffffffffffffffffffffffffffffffffffffffffffffff1916908160001a905350600a85611ade9190612efd565b9450611a5c565b8093505050505b919050565b611afb8383611b6f565b611b0860008484846117f9565b611b47576040517f08c379a0000000000000000000000000000000000000000000000000000000008152600401611b3e90612eae565b60405180910390fd5b505050565b6000808273ffffffffffffffffffffffffffffffffffffffff163b119050919050565b600073ffffffffffffffffffffffffffffffffffffffff168273ffffffffffffffffffffffffffffffffffffffff161415611bdf576040517f08c379a0000000000000000000000000000000000000000000000000000000008152600401611bd690613230565b60405180910390fd5b611be881611783565b15611c28576040517f08c379a0000000000000000000000000000000000000000000000000000000008152600401611c1f9061329c565b60405180910390fd5b611c34600083836117ef565b6001600360008473ffffffffffffffffffffffffffffffffffffffff1673ffffffffffffffffffffffffffffffffffffffff1681526020019081526020016000206000828254611c849190612d7a565b92505081905550816002600083815260200190815260200160002060006101000a81548173ffffffffffffffffffffffffffffffffffffffff021916908373ffffffffffffffffffffffffffffffffffffffff160217905550808273ffffffffffffffffffffffffffffffffffffffff16600073ffffffffffffffffffffffffffffffffffffffff167fddf252ad1be2c89b69c2b068fc378daa952ba7f163c4a11628f55a4df523b3ef60405160405180910390a4611d45600083836117f4565b5050565b828054611d55906124f8565b90600052602060002090601f016020900481019282611d775760008555611dbe565b82601f10611d9057805160ff1916838001178555611dbe565b82800160010185558215611dbe579182015b82811115611dbd578251825591602001919060010190611da2565b5b509050611dcb9190611dcf565b5090565b5b80821115611de8576000816000905550600101611dd0565b5090565b6000604051905090565b600080fd5b600080fd5b60007fffffffff0000000000000000000000000000000000000000000000000000000082169050919050565b611e3581611e00565b8114611e4057600080fd5b50565b600081359050611e5281611e2c565b92915050565b600060208284031215611e6e57611e6d611df6565b5b6000611e7c84828501611e43565b91505092915050565b60008115159050919050565b611e9a81611e85565b82525050565b6000602082019050611eb56000830184611e91565b92915050565b600081519050919050565b600082825260208201905092915050565b60005b83811015611ef5578082015181840152602081019050611eda565b83811115611f04576000848401525b50505050565b6000601f19601f8301169050919050565b6000611f2682611ebb565b611f308185611ec6565b9350611f40818560208601611ed7565b611f4981611f0a565b840191505092915050565b60006020820190508181036000830152611f6e8184611f1b565b905092915050565b6000819050919050565b611f8981611f76565b8114611f9457600080fd5b50565b600081359050611fa681611f80565b92915050565b600060208284031215611fc257611fc1611df6565b5b6000611fd084828501611f97565b91505092915050565b600073ffffffffffffffffffffffffffffffffffffffff82169050919050565b600061200482611fd9565b9050919050565b61201481611ff9565b82525050565b600060208201905061202f600083018461200b565b92915050565b61203e81611ff9565b811461204957600080fd5b50565b60008135905061205b81612035565b92915050565b6000806040838503121561207857612077611df6565b5b60006120868582860161204c565b925050602061209785828601611f97565b9150509250929050565b6000806000606084860312156120ba576120b9611df6565b5b60006120c88682870161204c565b93505060206120d98682870161204c565b92505060406120ea86828701611f97565b9150509250925092565b60006020828403121561210a57612109611df6565b5b60006121188482850161204c565b91505092915050565b61212a81611f76565b82525050565b60006020820190506121456000830184612121565b92915050565b61215481611e85565b811461215f57600080fd5b50565b6000813590506121718161214b565b92915050565b6000806040838503121561218e5761218d611df6565b5b600061219c8582860161204c565b92505060206121ad85828601612162565b9150509250929050565b600080fd5b600080fd5b7f4e487b7100000000000000000000000000000000000000000000000000000000600052604160045260246000fd5b6121f982611f0a565b810181811067ffffffffffffffff82111715612218576122176121c1565b5b80604052505050565b600061222b611dec565b905061223782826121f0565b919050565b600067ffffffffffffffff821115612257576122566121c1565b5b61226082611f0a565b9050602081019050919050565b82818337600083830152505050565b600061228f61228a8461223c565b612221565b9050828152602081018484840111156122ab576122aa6121bc565b5b6122b684828561226d565b509392505050565b600082601f8301126122d3576122d26121b7565b5b81356122e384826020860161227c565b91505092915050565b6000806000806080858703121561230657612305611df6565b5b60006123148782880161204c565b94505060206123258782880161204c565b935050604061233687828801611f97565b925050606085013567ffffffffffffffff81111561235757612356611dfb565b5b612363878288016122be565b91505092959194509250565b6000806040838503121561238657612385611df6565b5b60006123948582860161204c565b92505060206123a58582860161204c565b9150509250929050565b600067ffffffffffffffff8211156123ca576123c96121c1565b5b6123d382611f0a565b9050602081019050919050565b60006123f36123ee846123af565b612221565b90508281526020810184848401111561240f5761240e6121bc565b5b61241a84828561226d565b509392505050565b600082601f830112612437576124366121b7565b5b81356124478482602086016123e0565b91505092915050565b60006020828403121561246657612465611df6565b5b600082013567ffffffffffffffff81111561248457612483611dfb565b5b61249084828501612422565b91505092915050565b600060408201905081810360008301526124b38185611f1b565b90506124c26020830184612121565b9392505050565b7f4e487b7100000000000000000000000000000000000000000000000000000000600052602260045260246000fd5b6000600282049050600182168061251057607f821691505b60208210811415612524576125236124c9565b5b50919050565b7f4552433732313a20617070726f76616c20746f2063757272656e74206f776e6560008201527f7200000000000000000000000000000000000000000000000000000000000000602082015250565b6000612586602183611ec6565b91506125918261252a565b604082019050919050565b600060208201905081810360008301526125b581612579565b9050919050565b7f4552433732313a20617070726f76652063616c6c6572206973206e6f7420746f60008201527f6b656e206f776e6572206e6f7220617070726f76656420666f7220616c6c0000602082015250565b6000612618603e83611ec6565b9150612623826125bc565b604082019050919050565b600060208201905081810360008301526126478161260b565b9050919050565b7f4552433732313a2063616c6c6572206973206e6f7420746f6b656e206f776e6560008201527f72206e6f7220617070726f766564000000000000000000000000000000000000602082015250565b60006126aa602e83611ec6565b91506126b58261264e565b604082019050919050565b600060208201905081810360008301526126d98161269d565b9050919050565b7f4f6e6c79204e4654206f776e6572732063616e206275726e2e00000000000000600082015250565b6000612716601983611ec6565b9150612721826126e0565b602082019050919050565b6000602082019050818103600083015261274581612709565b9050919050565b7f4552433732313a20696e76616c696420746f6b656e2049440000000000000000600082015250565b6000612782601883611ec6565b915061278d8261274c565b602082019050919050565b600060208201905081810360008301526127b181612775565b9050919050565b7f4552433732313a2061646472657373207a65726f206973206e6f74206120766160008201527f6c6964206f776e65720000000000000000000000000000000000000000000000602082015250565b6000612814602983611ec6565b915061281f826127b8565b604082019050919050565b6000602082019050818103600083015261284381612807565b9050919050565b600081905092915050565b600061286082611ebb565b61286a818561284a565b935061287a818560208601611ed7565b80840191505092915050565b60006128928285612855565b915061289e8284612855565b91508190509392505050565b60008190508160005260206000209050919050565b600081546128cc816124f8565b6128d6818661284a565b945060018216600081146128f1576001811461290257612935565b60ff19831686528186019350612935565b61290b856128aa565b60005b8381101561292d5781548189015260018201915060208101905061290e565b838801955050505b50505092915050565b7f3c2f746578743e3c2f7376673e00000000000000000000000000000000000000600082015250565b6000612974600d8361284a565b915061297f8261293e565b600d82019050919050565b600061299682856128bf565b91506129a28284612855565b91506129ad82612967565b91508190509392505050565b7f7b226e616d65223a202200000000000000000000000000000000000000000000600082015250565b60006129ef600a8361284a565b91506129fa826129b9565b600a82019050919050565b7f222c20226465736372697074696f6e223a20224d79205265636f76657279205360008201527f746f7279222c2000000000000000000000000000000000000000000000000000602082015250565b6000612a6160278361284a565b9150612a6c82612a05565b602782019050919050565b7f22696d616765223a2022646174613a696d6167652f7376672b786d6c3b62617360008201527f6536342c00000000000000000000000000000000000000000000000000000000602082015250565b6000612ad360248361284a565b9150612ade82612a77565b602482019050919050565b7f227d000000000000000000000000000000000000000000000000000000000000600082015250565b6000612b1f60028361284a565b9150612b2a82612ae9565b600282019050919050565b6000612b40826129e2565b9150612b4c8285612855565b9150612b5782612a54565b9150612b6282612ac6565b9150612b6e8284612855565b9150612b7982612b12565b91508190509392505050565b7f646174613a6170706c69636174696f6e2f6a736f6e3b6261736536342c000000600082015250565b6000612bbb601d8361284a565b9150612bc682612b85565b601d82019050919050565b6000612bdc82612bae565b9150612be88284612855565b915081905092915050565b7f4552433732313a207472616e736665722066726f6d20696e636f72726563742060008201527f6f776e6572000000000000000000000000000000000000000000000000000000602082015250565b6000612c4f602583611ec6565b9150612c5a82612bf3565b604082019050919050565b60006020820190508181036000830152612c7e81612c42565b9050919050565b7f4552433732313a207472616e7366657220746f20746865207a65726f2061646460008201527f7265737300000000000000000000000000000000000000000000000000000000602082015250565b6000612ce1602483611ec6565b9150612cec82612c85565b604082019050919050565b60006020820190508181036000830152612d1081612cd4565b9050919050565b7f4e487b7100000000000000000000000000000000000000000000000000000000600052601160045260246000fd5b6000612d5182611f76565b9150612d5c83611f76565b925082821015612d6f57612d6e612d17565b5b828203905092915050565b6000612d8582611f76565b9150612d9083611f76565b9250827fffffffffffffffffffffffffffffffffffffffffffffffffffffffffffffffff03821115612dc557612dc4612d17565b5b828201905092915050565b7f4552433732313a20617070726f766520746f2063616c6c657200000000000000600082015250565b6000612e06601983611ec6565b9150612e1182612dd0565b602082019050919050565b60006020820190508181036000830152612e3581612df9565b9050919050565b7f4552433732313a207472616e7366657220746f206e6f6e20455243373231526560008201527f63656976657220696d706c656d656e7465720000000000000000000000000000602082015250565b6000612e98603283611ec6565b9150612ea382612e3c565b604082019050919050565b60006020820190508181036000830152612ec781612e8b565b9050919050565b7f4e487b7100000000000000000000000000000000000000000000000000000000600052601260045260246000fd5b6000612f0882611f76565b9150612f1383611f76565b925082612f2357612f22612ece565b5b828204905092915050565b6000612f3982611f76565b9150612f4483611f76565b9250817fffffffffffffffffffffffffffffffffffffffffffffffffffffffffffffffff0483118215151615612f7d57612f7c612d17565b5b828202905092915050565b7f45524337323155524953746f726167653a2055524920736574206f66206e6f6e60008201527f6578697374656e7420746f6b656e000000000000000000000000000000000000602082015250565b6000612fe4602e83611ec6565b9150612fef82612f88565b604082019050919050565b6000602082019050818103600083015261301381612fd7565b9050919050565b600060608201905081810360008301526130348186611f1b565b90506130436020830185612121565b613050604083018461200b565b949350505050565b600081519050919050565b600082825260208201905092915050565b600061307f82613058565b6130898185613063565b9350613099818560208601611ed7565b6130a281611f0a565b840191505092915050565b60006080820190506130c2600083018761200b565b6130cf602083018661200b565b6130dc6040830185612121565b81810360608301526130ee8184613074565b905095945050505050565b60008151905061310881611e2c565b92915050565b60006020828403121561312457613123611df6565b5b6000613132848285016130f9565b91505092915050565b600061314682611f76565b91507fffffffffffffffffffffffffffffffffffffffffffffffffffffffffffffffff82141561317957613178612d17565b5b600182019050919050565b600061318f82611f76565b915061319a83611f76565b9250826131aa576131a9612ece565b5b828206905092915050565b7f4e487b7100000000000000000000000000000000000000000000000000000000600052603260045260246000fd5b7f4552433732313a206d696e7420746f20746865207a65726f2061646472657373600082015250565b600061321a602083611ec6565b9150613225826131e4565b602082019050919050565b600060208201905081810360008301526132498161320d565b9050919050565b7f4552433732313a20746f6b656e20616c7265616479206d696e74656400000000600082015250565b6000613286601c83611ec6565b915061329182613250565b602082019050919050565b600060208201905081810360008301526132b581613279565b905091905056fe416e204e465420772f20494420257320686173206265656e206d696e74656420746f2025734142434445464748494a4b4c4d4e4f505152535455565758595a6162636465666768696a6b6c6d6e6f707172737475767778797a303132333435363738392b2fa264697066735822122093092375ccd83d901e1db17b07fdb7f821914f0a1b1f384ab301f55b4f58f1d264736f6c6343000809003354686973206973206d79205265636f766572792053746f727920636f6e74726163742e3c73766720786d6c6e733d27687474703a2f2f7777772e77332e6f72672f323030302f73766727207072657365727665417370656374526174696f3d27784d696e594d696e206d656574272076696577426f783d273020302033353020333530273e3c7374796c653e2e62617365207b2066696c6c3a20233032423242343b20666f6e742d66616d696c793a20274869726167696e6f204d61727520476f746869632050726f273b20666f6e742d73697a653a20323470783b207d3c2f7374796c653e3c726563742077696474683d273130302527206865696768743d2731303025272066696c6c3d272345394534444627202f3e3c7465787420783d273530252720793d273530252720636c6173734e616d653d27626173652720646f6d696e616e742d626173656c696e653d276d6964646c652720746578742d616e63686f723d276d6964646c65273e",
  "linkReferences": {},
  "deployedLinkReferences": {}
}